:020000040800F2
:100000000000082495200008B11C0008B31C00085B
:10001000B51C0008B71C0008B91C0008000000004F
:100020000000000000000000000000001126010890
:10003000BB1C000800000000B1260108B502010841
:10004000E5200008E5200008E5200008E52000087C
:10005000E5200008BD1C0008E5200008E520000898
:10006000E5200008E5200008E5200008C11C000884
:10007000D11C0008E11C0008F11C0008E520000864
:10008000E5200008E5200008E5200008E52000083C
:10009000E5200008E5200008E5200008E52000082C
:1000A000E5200008011D0008E5200008E520000803
:1000B000111D0008211D0008E5200008E5200008AA
:1000C000E5200008E5200008E5200008E5200008FC
:1000D000E5200008E5200008E5200008E5200008EC
:1000E000E5200008E520000800000000E5200008E9
:1000F000E5200008E5200008E5200008E5200008CC
:10010000E52000083D1D0008E5200008E520000866
:10011000E5200008E5200008E5200008E5200008AB
:10012000E5200008E5200008E5200008E52000089B
:10013000E5200008E5200008E5200008E52000088B
:1001400000000000000000000000000000000000AF
:10015000E5200008E5200008E5200008E52000086B
:10016000E5200008E5200008E5200008E52000085B
:10017000E5200008E5200008E52000080000000058
:10018000E5200008E5200008E5200008E52000083B
:10019000E5200008E52000084D1D00085D1D000851
:1001A000E5200008E5200008E5200008751D00088E
:1001B000E5200008E5200008E5200008E52000080B
:1001C000E5200008E5200008E5200008E5200008FB
:1001D000E52000088D1D0008E5200008E520000846
:1001E000E5200008E5200008E5200008E5200008DB
:1001F000E5200008E5200008E5200008E5200008CB
:10020000E5200008E5200008E5200008E5200008BA
:10021000E5200008E5200008E5200008E5200008AA
:10022000E5200008E5200008E520000800000000A7
:10023000E5200008E520000800000000E520000897
:10024000E5200008E5200008E5200008E52000087A
:10025000E5200008E5200008E5200008E52000086A
:10026000E5200008E5200008E5200008E52000085A
:10027000E5200008E5200008E52000080000000057
:10028000E5200008E5200008E52000080000000047
:0802900000000000E520000859
:1002A00010B5054C237833B9044B13B10448AFF3B0
:1002B00000800123237010BD900200240000000084
:1002C000B0F6020808B5034B1BB103490348AFF36E
:1002D000008008BD0000000094020024B0F602086F
:1002E00001F0FF01102A2BDB10F0070F08D010F8E7
:1002F000013B013A8B422DD010F0070F42B3F6D1EB
:10030000F0B441EA012141EA014122F007047FF003
:1003100000070023F0E80256083C85EA010586EA5A
:10032000010685FA47F5A3FA87F586FA47F6A5FA96
:1003300087F68EB9EED1F0BC01F0FF0102F00702A2
:1003400032B110F8013B013A83EA010313B1F8D14D
:100350000020704701387047002D06BF354603382E
:10036000073815F0010F07D1013015F4807F02BF67
:10037000013015F4C03F0130F0BC0138704700BFB8
:1003800081F0004102E000BF83F0004330B54FEA46
:1003900041044FEA430594EA050F08BF90EA020FB3
:1003A0001FBF54EA000C55EA020C7FEA645C7FEA46
:1003B000655C00F0E2804FEA5454D4EB5555B8BF69
:1003C0006D420CDD2C4480EA020281EA030382EADA
:1003D000000083EA010180EA020281EA0303362D6C
:1003E00088BF30BD11F0004F4FEA01314FF4801C3F
:1003F0004CEA113102D0404261EB410113F0004F51
:100400004FEA03334CEA133302D0524263EB430307
:1004100094EA050F00F0A780A4F10104D5F1200EA5
:100420000DDB02FA0EFC22FA05F2801841F1000100
:1004300003FA0EF2801843FA05F359410EE0A5F1D4
:1004400020050EF1200E012A03FA0EFC28BF4CF005
:10045000020C43FA05F3C01851EBE37101F00045BB
:1004600007D54FF0000EDCF1000C7EEB00006EEBC8
:100470000101B1F5801F1BD3B1F5001F0CD3490852
:100480005FEA30004FEA3C0C04F101044FEA4452A9
:1004900012F5800F80F09A80BCF1004F08BF5FEA30
:1004A000500C50F1000041EB045141EA050130BD10
:1004B0005FEA4C0C404141EB0101013C28BFB1F522
:1004C000801FE9D291F0000F04BF01460020B1FA6D
:1004D00081F308BF2033A3F10B03B3F120020CDA40
:1004E0000C3208DD02F1140CC2F10C0201FA0CF01E
:1004F00021FA02F10CE002F11402D8BFC2F1200C83
:1005000001FA02F120FA0CFCDCBF41EA0C01904038
:10051000E41AA2BF01EB0451294330BD6FEA040481
:100520001F3C1CDA0C340EDC04F11404C4F120026C
:1005300020FA04F001FA02F340EA030021FA04F37E
:1005400045EA030130BDC4F10C04C4F1200220FAD5
:1005500002F001FA04F340EA0300294630BD21FA13
:1005600004F0294630BD94F0000F83F4801306BFD9
:1005700081F480110134013D4EE77FEA645C18BFCD
:100580007FEA655C29D094EA050F08BF90EA020F64
:1005900005D054EA000C04BF1946104630BD91EA5C
:1005A000030F1EBF0021002030BD5FEA545C05D15F
:1005B0004000494128BF41F0004130BD14F580049E
:1005C0003CBF01F5801130BD01F0004545F0FE4112
:1005D00041F470014FF0000030BD7FEA645C1ABF47
:1005E000194610467FEA655C1CBF0B46024650EA7E
:1005F000013406BF52EA033591EA030F41F40021AA
:1006000030BD00BF90F0000F04BF0021704730B52F
:100610004FF4806404F132044FF000054FF0000104
:1006200050E700BF90F0000F04BF0021704730B5C5
:100630004FF4806404F1320410F0004548BF40429A
:100640004FF000013EE700BF42004FEAE2014FEAEF
:1006500031014FEA02701FBF12F07F4393F07F4FCA
:1006600081F06051704732F07F4208BF704793F0CD
:100670007F4F04BF41F40021704730B54FF46074E0
:1006800001F0004521F000411CE700BF50EA0102E3
:1006900008BF704730B54FF000050AE050EA01028C
:1006A00008BF704730B511F0004502D5404261EBFC
:1006B00041014FF4806404F132045FEA915C3FF43D
:1006C000D8AE4FF003025FEADC0C18BF03325FEADA
:1006D000DC0C18BF033202EBDC02C2F1200300FA8B
:1006E00003FC20FA02F001FA03FE40EA0E0021FAB0
:1006F00002F11444BDE600BF08B50848084B03608A
:10070000002303714371436183610123036201F09C
:1007100021FF00B908BD00F072FDFBE7AC02002428
:10072000004C025802680A4B9A4200D0704782B0CF
:10073000A3F50063D3F8E02042F40022C3F8E020E0
:10074000D3F8E03003F400230193019B02B070471B
:10075000004C025800B583B0174BD3F8D82042F0B4
:100760000102C3F8D820D3F8D83003F00103019375
:10077000019B002205210B2001F048FE0B2001F017
:100780007BFE002205210C2001F040FE0C2001F030
:1007900073FE002205210D2001F038FE0D2001F02E
:1007A0006BFE002205210E2001F030FE0E2001F02C
:1007B00063FE03B05DF804FB00440258F0B5B7B027
:1007C000002331933293339334933593254B1B6835
:1007D0000BB137B0F0BD234B01221A60BC220021BF
:1007E00002A82DF0CFFF4FF08073029302A805F00E
:1007F000C7FD002832D11C4BD3F8D42042F48052DC
:10080000C3F8D420D3F8D43003F480530193019B70
:100810004FF4F26331930226329600253395032478
:1008200034940C27359731A9104803F0B3FA4CF2F1
:1008300033033193329633953494359731A90C486C
:1008400003F0A8FA80233193329633953494092328
:10085000359331A9074803F09DFABAE700F0CFFCC1
:10086000C9E700BFD002002400440258001002581B
:10087000000C02580008025800B589B0002201920D
:100880000292039204920592069207921648174B21
:10089000036003F5827343608260C260026142615B
:1008A0008261C26102624FF4805343628262C2621B
:1008B0000263426382634FF40013C36302640F2335
:1008C00001930293FF2103910493102305931123B5
:1008D000069301A909F004FC10B909B05DF804FB06
:1008E00000F08DFCF9E700BFD40200240040005264
:1008F00008B5FFF763FF08BD08B517F099F90120A7
:100900000FF09EFDFBE708B501200FF099FDFBE716
:1009100008B512F0C3FB08BD08B503480BF05EFB39
:100920000FF07CFDF9E700BFD87D002408B517F073
:1009300057F90FF073FDFAE700B585B000238DF885
:10094000073000930BE04FF0FF33002203A9494822
:1009500000680FF071FF9DF80C308DF807309DF89E
:100960000730DBB2032BFAD801A252F823F000BF04
:100970004709000881090008DB0900082F0A000860
:100980004FF0FF313C4B18680FF0B6FD17F044F9FB
:1009900000223A493A480EF0B9FF10B100F02FFC9E
:1009A000DDE70A22374938480EF0F4FF10B100F0B5
:1009B00026FCD4E7354C23462C22354932480FF02B
:1009C0000BF9344B1870236803B110B100F017FC19
:1009D000C5E702238DF80730C1E74FF0FF3300224F
:1009E00002A92D4800680FF027FF9DF80930012B60
:1009F00003D003238DF80730B1E79DF80800234B9F
:100A00004FF48052254901EB00311F480FF0E4F804
:100A1000204B187040B9009B1C4A11680B4400938E
:100A20004FF4805313609AE700F0E9FB97E7164C08
:100A3000002120460FF061FA009B15498B62009B54
:100A400024334B60114B2C2220460FF0C5F8204672
:100A50000FF036FA0022114609480EF057FF17F042
:100A6000E7F8054B18680FF073FD00238DF8073089
:100A7000009374E724330024901D0024C89E0024B2
:100A8000607E002428F70208988E00249C430024EE
:100A900004000024704B0024E8040024FC500024CF
:100AA00008B5034B00221A60024809F07FFB08BD1D
:100AB000744B002424780024014B1868704700BF51
:100AC000744B002438B53F480FF0C8FC3E4B18600B
:100AD0003E4A012108460FF061FD3D4D28603D4A28
:100AE000012108460FF05AFD3B4C20600021286888
:100AF0000FF0B0FD002120680FF0ACFD374A032154
:100B00000C200FF00DFE364B1860364A02210C20E7
:100B10000FF006FE344B1860344A08210C200FF009
:100B2000FFFD334B1860334A08210C200FF0F8FD0D
:100B3000314B1860314A10210C200FF0F1FD304B81
:100B40001860304A01210C200FF0EAFD2E4B18608E
:100B50002E4A02210C200FF0E3FD2D4B18602D4A88
:100B600000212D480FF0FCFB2C4B18602C4A002173
:100B70002C480FF0F5FB2C4B18602C4A00212C4818
:100B80000FF0EEFB2B4B18602B4A00212B480FF087
:100B9000E7FB2B4B18602B4A00212B480FF0E0FBA2
:100BA0002A4B18602A4A00212A480FF0D9FB2A4B09
:100BB00018602A4A00212A480FF0D2FB294B1860FE
:100BC00038BD00BF50F80208901D0024FCF902084F
:100BD0006C4B002484F8020850710024F4F80208D9
:100BE000243300246CF90208540500240CFA02088E
:100BF000082A002454F90208E4040024E4F9020855
:100C00003004002484F90208C80C002494F8020877
:100C1000E8040024D0F80208F9080008B04A0024CB
:100C2000C0F9020811090008542900240CF902082F
:100C300019090008680C002460F802082D09000852
:100C4000F8500024ACF80208390900089843002441
:100C50009CF90208AD0E0008AC32002430F90208FD
:100C6000070900083C1D002430B587B0ADF804002A
:100C70009DF804309DF80520012B00F0A680022B82
:100C800000F0D6800BB107B030BD072AFBD801A316
:100C900053F822F0B50C0008870C0008110D00086D
:100CA000870C0008870C00086F0D0008870C0008EF
:100CB000E10C0008784C60680BF018F863681B784A
:100CC000012BE0D18DF80C3000228DF80D208DF82D
:100CD0000E30134603A9714800680FF06DFDD2E78E
:100CE0006D4C20680BF002F823681B78012BCAD1E9
:100CF00002238DF80C3000228DF80D2001238DF891
:100D00000E30134603A9654800680FF055FDBAE799
:100D1000634D28680BF000F804238DF80C30002494
:100D20008DF80D402B6893F900208DF80E200122DC
:100D30008DF810208DF8114093F9003007EE903AAD
:100D4000F8EEE77AF3EE046A87EEA67A8DED057A7F
:100D50002346224604A9534800680FF02DFD234680
:100D6000224603A94D4800680FF026FD8BE74C4C46
:100D700060680AF0D1FF04238DF80C3001238DF850
:100D80000D30626892F900108DF80E108DF8103059
:100D90008DF8113092F9003007EE903AF8EEE77ACC
:100DA000F3EE046A87EEA67A8DED057A00231A46E3
:100DB00004A93C4800680FF0FFFC00231A4603A971
:100DC000364800680FF0F8FC5DE7022A19D0052AC2
:100DD0007FF459AF324CE0680AF09EFF04238DF88F
:100DE0000C3003238DF80D30E36893F900308DF853
:100DF0000E3000231A4603A9284800680FF0DCFCD7
:100E000041E7274CA0680AF087FF04238DF80C30D7
:100E100002238DF80D30A36893F900308DF80E3061
:100E200000231A4603A91D4800680FF0C5FC2AE7F5
:100E3000022A1AD0062A7FF426AF174CA0680AF0BF
:100E400055FFA3681B78012B7FF41DAF164B186864
:100E50000FF034FC01238DF8083000231A4602A954
:100E60000E4800680FF0A8FC0DE70D4C20690AF051
:100E700053FF03238DF80C3000228DF80D202369D9
:100E800093F900308DF80E30134603A9034800682B
:100E90000FF092FCF7E600BF40000024243300244A
:100EA00070000024082A00245071002400B583B08B
:100EB0004FF0FF33002201A9044800680FF0BCFC8A
:100EC0000198FFF7D1FE0FF0A9FAF1E754050024CD
:100ED0002DE9F0478CB000240794089409940A94F3
:100EE0000B945A4BD3F8E02042F01002C3F8E020F4
:100EF000D3F8E02002F010020192019AD3F8E0202A
:100F000042F08002C3F8E020D3F8E02002F0800233
:100F10000292029AD3F8E02042F00402C3F8E020E3
:100F2000D3F8E02002F004020392039AD3F8E02001
:100F300042F00102C3F8E020D3F8E02002F0010201
:100F40000492049AD3F8E02042F00202C3F8E020B1
:100F5000D3F8E02002F002020592059AD3F8E020CF
:100F600042F00802C3F8E020D3F8E03003F00803B1
:100F70000693069B364E22462021304603F0C9F8E0
:100F8000DFF8D8A001224FF48061504603F0C1F889
:100F90004FF00409CDF81C900225089509940A9495
:100FA00009270B9707A92B4802F0F4FE4FF0010820
:100FB000CDF81C800894CDF8248007A9304602F0B3
:100FC000E9FE0795089509940A940B9707A922480A
:100FD00002F0E0FE20230793CDF82080099403233C
:100FE0000A9307A9304602F0D5FECDF81C9008956B
:100FF00009940A940B97DFF8689007A9484602F015
:10100000C9FE4FF480630793CDF8208009940A94B9
:1010100007A9504602F0BEFE4FF4C063079308953F
:1010200009940A940B9707A9304602F0B3FE4023B7
:101030000793089509940A940A230B9307A9484635
:1010400002F0A8FE0CB0BDE8F08700BF00440258D3
:10105000000802580010025800000258000C025804
:101060000004025808B51548154B0360A3F17863D6
:10107000A3F57E23A3F24F23436000238360012264
:10108000C260036143618361C361036203F0CCF911
:1010900050B90021094803F0FAFA40B90021074885
:1010A00003F023FB30B908BD00F0A9F8F1E700F028
:1010B000A6F8F3E700F0A3F8F5E700BF54710024A9
:1010C0000058004010B5B6B004460021319132916D
:1010D000339134913591BC2202A82DF053FB226844
:1010E0001B4B9A4201D036B010BD082302930DEB82
:1010F000030005F045F938BB164CD4F8E03043F056
:101100000203C4F8E030D4F8E03003F002030093A7
:10111000009B4FF4406331931223329300233393A7
:1011200034930423359331A90B4802F033FED4F8ED
:10113000E83043F48003C4F8E830D4F8E83003F42E
:1011400080030193019BCEE700F059F8D4E700BF7C
:1011500000580040004402580004025870B584B0A2
:101160000024009401940294039401F0A5F9012550
:101170008DF8005002238DF801304FF0C0430193E9
:1011800019238DF808308DF809408DF80A400326A0
:101190008DF80B608DF80C408DF80D508DF80E40D9
:1011A0008DF80F50684601F0A5F98DF801604FF0F9
:1011B0001043019317238DF808308DF80C508DF8EB
:1011C0000D408DF80E50684601F094F904258DF815
:1011D000015013238DF808308DF80C40684601F05B
:1011E00089F9284601F076F904B070BD08B50368A6
:1011F000B3F1804F00D008BD01F0CAF8FBE772B62A
:10120000FEE7000000B59FB04C2200210BA82DF096
:10121000B9FA2022002103A82DF0B4FA022004F02C
:101220008DF900230093414BDA6A22F00102DA6261
:10123000DB6A03F0010300933D4B9A6942F440429C
:101240009A619B6903F440430093009B384B9B6970
:1012500013F4005FFAD0374BD3F8F42042F00202C7
:10126000C3F8F420D3F8F43003F002030193019B98
:10127000002302932E4B9A6942F440429A619B6983
:1012800003F440430293294BDA6A42F00102DA6226
:10129000DB6A03F001030293029B254B9B6913F465
:1012A000005FFAD0234A936A23F0030343F002035A
:1012B000936223230B934FF480330C9301230E93FB
:1012C00040220F9211930223149315930422169235
:1012D000A022179218931423199315231A93082305
:1012E0001B9300231C931D930BA804F059F9C0B95C
:1012F0003F230393032304930023059308230693BA
:101300004023079308934FF4806209920A930421C3
:1013100003A804F081FD30B904F07CFC1FB05DF837
:1013200004FBFFF76CFFFFF76AFF00BF00040058E3
:10133000004802580044025800B5B1B0BC22002158
:1013400001A82DF01FFA0D4B01930A230A93802365
:101350000B9319220C9206220D9202220E924FF448
:1013600080610F911692179301A805F009F810B942
:1013700031B05DF804FBFFF742FF00BF00030080BF
:1013800010B5FFF7EBFE3D4B5B6913F4003F13D143
:10139000BFF34F8FBFF36F8F384B0022C3F850223B
:1013A000BFF34F8FBFF36F8F5A6942F400325A6117
:1013B000BFF34F8FBFF36F8F00F0BCFFFFF722FF2B
:1013C000FFF7BAFFFFF784FDFFF7C4F9FFF794F9C1
:1013D000FFF752FAFFF746FE00F05CF800F096F8CF
:1013E00000F0C6F800F0E8FA00F012FB00F0A2FDF1
:1013F00000F0DAFD00F062FA0BF026F911F04AFE77
:1014000011F047FE1E4808F0D1FE1E480AF0BBFD51
:101410000AF078FE4FF61F000BF0E4F84FF4FA7074
:1014200000F0C8FF00240B2C06DC174B53F82400F7
:101430000AF05CFC0134F6E70024042C06DC134BB4
:1014400053F824000AF068FC0134F6E7362000F077
:10145000EFFE3621002000F0D1FE342000F0E8FE3F
:101460003421002000F0CAFE094811F083FB0EF081
:101470002DFFFFF727FB0EF04DFFFEE700ED00E02C
:10148000D8770024D87D0024400000247000002478
:1014900028A4012408B50648064B036000234360D6
:1014A00006F060FA00B908BDFFF7A9FEFBE700BF30
:1014B000A07100240018024810B5B0B00446BC2248
:1014C000002101A82DF05EF922680E4B9A4201D04E
:1014D00030B010BD4FF40033019301A804F050FF69
:1014E00068B9094BD3F8DC2042F04002C3F8DC2095
:1014F000D3F8DC3003F040030093009BE8E7FFF7EC
:101500007EFEEEE7001802480044025808B5144871
:10151000144B036003234360836000214161C16178
:10152000C162016341630223012206F05FFD88B9B5
:101530000D480E4B036002234360032282600021AA
:101540004161C161C16201634163012206F04EFD48
:1015500018B908BDFFF753FEEAE7FFF750FEF8E7BA
:101560009C73002404580140CC740024245801408A
:1015700008B51548154B03600223436000218160C4
:101580004161C1610122C260C1620163416306F031
:101590002DFD90B90E480F4B0360032343600122D9
:1015A000826000214161C161C260C1620163416327
:1015B000022306F01BFD18B908BDFFF720FEE9E77E
:1015C000FFF71DFEF8E700BF34740024045C0140FF
:1015D00064750024245C014030B58BB00446026879
:1015E000A44B9A420FD02268A34B9A4258D022684B
:1015F000A24B9A4200F0A2802268A14B9A4200F0CE
:10160000EC800BB030BD9F4B1B68002B2FD09D4A48
:1016100013680133136040230593022306930025CA
:10162000079508950623099305A9974802F0B2FB90
:101630009648974B0360572343608560C5604FF41D
:10164000806303614FF4006343614FF4005383618F
:101650004FF48073C3610562456201F007FAE0B997
:101660008A4BC4F884309C63C4F88030BBE7894B54
:10167000D3F8F02042F48002C3F8F020D3F8F03021
:1016800003F480030193019B00220521572000F001
:10169000BDFE572000F0F0FEB9E7FFF7B0FDDFE731
:1016A000784B1B68002B30D0764A136801331360E7
:1016B0000823059302230693002507950895062322
:1016C000099305A9704802F065FB7348734B0360EA
:1016D0005823436040238360C5604FF480630361F7
:1016E0004FF4006343614FF4005383614FF4807300
:1016F000C3610562456201F0B9F9E0B9664BC4F80F
:1017000084309C63C4F8803071E7624BD3F8F020DA
:1017100042F48002C3F8F020D3F8F03003F48003E1
:101720000293029B00220521572000F06FFE5720F4
:1017300000F0A2FEB8E7FFF762FDDFE7584B1B6839
:10174000002B31D0564A1368013313604FF46053B5
:101750000593022306930025079508950A2309930C
:1017600005A9504802F016FB4F48504B036059231F
:10177000436040238360C5604FF4806303614FF48E
:10178000006343614FF4005383614FF48073C3617E
:101790000562456201F06AF9E0B9434BC4F8843050
:1017A0009C63C4F8803027E73A4BD3F8F02042F42A
:1017B0000002C3F8F020D3F8F03003F400030393E1
:1017C000039B002205215B2000F020FE5B2000F03F
:1017D00053FEB7E7FFF713FDDFE7314B1B68002B24
:1017E0002FD02F4A1368013313600123059302237E
:1017F00006930025079508950A23099305A92C4807
:1018000002F0C8FA2B482C4B03605A2343608560D2
:10181000C5604FF4806303614FF4006343614FF48C
:10182000005383614FF48073C3610562456201F028
:101830001DF9E0B91F4BC4F884309C63C4F88030B4
:10184000DFE6144BD3F8F02042F40002C3F8F02096
:10185000D3F8F03003F400030493049B0022052125
:101860005B2000F0D3FD5B2000F006FEB9E7FFF738
:10187000C6FCDFE70458014024580140045C0140E5
:10188000245C0140B471002400100258BC71002493
:101890001000024000440258347200242800024024
:1018A000B8710024000C0258AC72002440000240C1
:1018B000000002582473002458000240054B064AD9
:1018C0001A6000225A609A60DA601A6101225A6135
:1018D000704700BFFC75002400700052F0B5B9B02D
:1018E0000446002133913491359136913791BC22D1
:1018F00004A82CF047FF22682B4B9A4201D039B044
:10190000F0BD4FF48033049304A804F039FD00289F
:1019100046D1264BD3F8D42042F48032C3F8D420E9
:10192000D3F8D42002F480320192019AD3F8E02057
:1019300042F00402C3F8E020D3F8E02002F00402F1
:101940000292029AD3F8E02042F00802C3F8E020A5
:10195000D3F8E03003F008030393039B4FF488535C
:1019600033930227349701263596032536950C24A8
:10197000379433A90E4802F00DFA042333933497B9
:1019800035963695379433A90A4802F003FA0022B7
:101990000521312000F03AFD312000F06DFDAEE769
:1019A000FFF72DFCB5E700BF00700052004402585D
:1019B00000080258000C025808B51348134B036086
:1019C0004FF480034360002383600722C2600361F9
:1019D00043614FF000528261C361036243628362DC
:1019E000C3624FF0804242638363C3630364436412
:1019F0008364C36403654365836508F071F800B9C7
:101A000008BDFFF7FCFBFBE77876002400380040B8
:101A100008B51448144B03604FF48003436000235F
:101A200083600722C260036143614FF0806282617C
:101A30004FF00052C261036243628362C3624FF09F
:101A4000804242638363C363036443648364C36407
:101A500003654365836508F043F800B908BDFFF7E7
:101A6000CEFBFBE70077002400140058F0B5BBB0B4
:101A70000446002135913691379138913991BC2235
:101A800006A82CF07FFE2368484A934204D0484AB7
:101A900093424ED03BB0F0BD4FF4805306934FF4C9
:101AA00080431D9306A804F06BFC00283ED1414BF7
:101AB000D3F8E82042F48042C3F8E820D3F8E820C5
:101AC00002F480420192019AD3F8E02042F004022D
:101AD000C3F8E020D3F8E02002F004020292029A58
:101AE000D3F8E02042F00202C3F8E020D3F8E0305F
:101AF00003F002030393039B0C23359302273697CD
:101B000000263796032538950524399435A92A48A7
:101B100002F040F94FF44053359336973796389595
:101B2000399435A9254802F035F9B3E7FFF767FB8B
:101B3000BDE74FF4804306934FF0A043319306A8CE
:101B400004F01EFC78BB1B4BD3F8F42042F02002BB
:101B5000C3F8F420D3F8F42002F020020492049A8F
:101B6000D3F8E02042F00102C3F8E020D3F8E030DF
:101B700003F001030593059BE0233593022336937D
:101B800000243794032338930823399335A90C484C
:101B900002F000F922460521562000F037FC5620BD
:101BA00000F06AFC76E7FFF72AFBCCE7003800403C
:101BB000001400580044025800080258000402585B
:101BC0000000025800B583B0114BD3F8F42042F066
:101BD0000202C3F8F420D3F8F43003F002030193B7
:101BE000019B00220F216FF0010000F00FFC00228A
:101BF0000521084600F00AFC052000F03DFC00220B
:101C00000F211C2000F002FC03B05DF804FB00BFB4
:101C1000004402580F2801D90120704710B58AB03E
:101C20000446002201461C2000F0F0FB1C2000F0BE
:101C300023FC1B4B1C601B4BD3F8E82042F0010235
:101C4000C3F8E820D3F8E83003F001030093009BC9
:101C500001A902A804F05EFA079BC3B904F048FA90
:101C600003461148A0FB03239B0C013B0F484FF098
:101C70008042026040F2E732C260436000230361A9
:101C8000836008F02FFC30B101200AB010BD04F0D1
:101C90002FFA4300E5E7054808F088FAF5E700BFAA
:101CA0003C0000240044025883DE1B438877002454
:101CB000FEE7FEE7FEE7FEE7FEE77047704700003D
:101CC00008B5024801F0C8FC08BD00BFBC71002483
:101CD00008B5024801F0C0FC08BD00BF3472002402
:101CE00008B5024801F0B8FC08BD00BFAC72002482
:101CF00008B5024801F0B0FC08BD00BF2473002401
:101D000008B5024808F09EFA08BD00BFD877002445
:101D100008B5024808F096FA08BD00BF887700248D
:101D200008B5044A136801331360034808F08AFABF
:101D300008BD00BF744B00242478002408B5024875
:101D400007F0B6FC08BD00BFFC75002408B50248CA
:101D500008F098F808BD00BF0077002408B50348D4
:101D600006F00AFB024806F007FB08BD9C7300243E
:101D7000CC74002408B5034806F0FEFA024806F0C9
:101D8000FBFA08BD347400246475002408B50248C9
:101D900003F076F808BD00BFB421012408B502485D
:101DA0000AF03CF908BD00BFD87D0024012070472F
:101DB00008B52CF093FB162303604FF0FF3008BDED
:101DC00008B54FF0FF31FFF7F3FFFEE770B50C46A3
:101DD0001646002506E0AFF30080214601F8010B0E
:101DE00001350C46B542F6DB304670BD70B50C4689
:101DF0001646002504E014F8010BAFF3008001350E
:101E0000B542F8DB304670BD4FF0FF3070474FF4FD
:101E100000534B600020704701207047002070473E
:101E200010B503460C4A0D490D48006840B10C48F6
:101E300000680344521A934206D8094A136010BD41
:101E40000748084C0460F2E72CF048FB0C230360C1
:101E50004FF0FF30F3E700BF00000824004000000F
:101E6000D4770024F0390124274AD2F8883043F48B
:101E70007003C2F88830254B1B6803F00F03062B54
:101E800006D8224A136823F00F0343F007031360B8
:101E90001F4B1A6842F001021A6000221A61196889
:101EA0001C4A0A401A60194B1B6813F0080F06D031
:101EB000164A136823F00F0343F007031360144B13
:101EC00000229A61DA611A62134999621349D96250
:101ED000134919635A639963DA6319645A64196878
:101EE00021F4802119601A660E4B1A680E4B1340BC
:101EF000B3F1005F03D20D4B0122C3F808210C4B54
:101F000043F2D2021A60704700ED00E00020005258
:101F1000004402587FEDF6EA000202020000FF01D1
:101F2000800201010010005C0000FFFF00800051F2
:101F30000040005200B589B0002304930593069336
:101F400007930193029303931548164A0260EF2208
:101F50004260836040F2E732C260036143618361A3
:101F600008F0C0FA98B94FF48053049304A90C48C0
:101F700008F0F6FA70B9002301930293039301A9C4
:101F8000074808F089FB40B909B05DF804FBFFF78A
:101F900036F9E8E7FFF733F9EDE7FFF730F9F3E754
:101FA000D87700240000014000B589B000230493D5
:101FB0000593069307930193029303931448154ADC
:101FC0000260EF22426083606322C260036183612A
:101FD00008F088FA90B94FF48053049304A90C4890
:101FE00008F0BEFA68B900230193039301A90848D9
:101FF00008F052FB40B909B05DF804FBFFF7FFF8A9
:10200000E9E7FFF7FCF8EEE7FFF7F9F8F3E700BFC1
:10201000247800240004004000B583B003681A4A05
:10202000934205D0194A934218D003B05DF804FBDF
:10203000174BD3F8F02042F00102C3F8F020D3F898
:10204000F03003F001030093009B002205211920CA
:1020500000F0DCF9192000F00FFAE6E70C4BD3F89A
:10206000E82042F00202C3F8E820D3F8E83003F099
:1020700002030193019B002205211D2000F0C6F9F7
:102080001D2000F0F9F9D0E70000014000040040F5
:1020900000440258DFF834D0FFF7E6FE0C480D4943
:1020A0000D4A002302E0D458C4500433C4188C42B3
:1020B000F9D30A4A0A4C002301E013600432A24219
:1020C000FBD32CF019FBFFF75BF9704700000824E5
:1020D0000000002490020024B86C0808900200243C
:1020E000F0390124FEE7000038B504460D46012909
:1020F0000AD0022D15D072B625700023E36023614B
:1021000023756375A37523E0802200F1180112483E
:1021100006F068F8802204F58C71104805F0E0FFA5
:10212000E7E7802204F118010D4806F05BF88022F1
:1021300004F58C710B4805F0D3FFDCE703F10C01CB
:10214000002224F8112003F18C0124F8112001331E
:102150007F2BF3DD62B638BD9C730024CC74002461
:1021600064750024347400240246017D437D1944C3
:102170000C3130F911000133DBB253753F2B01D91B
:10218000002353757047027D837D1A448C3220F8FA
:1021900012100133DBB283753F2B01D90023837505
:1021A000704703691BB9C36833B900207047002327
:1021B00003610375012070470023C360402303754A
:1021C0000120704730B587B01546C1F3002444EABA
:1021D0004004A4B28DF817100A230293012301933F
:1021E0000DF11700009022462946034802F07AF9C3
:1021F0000028F1D107B030BD5471002438B50D4628
:1022000000F149034F2B0DD800F17904A4B22A46FE
:1022100021460220FFF7D6FF2A4621460320FFF77A
:10222000D1FF38BD062801DD7F24EFE70024EDE76C
:1022300010B50446642000F0BDF8224600210F20AE
:10224000FFF7C0FF224610210620FFF7BBFF224602
:1022500017210020FFF7B6FF224617210120FFF7C4
:10226000B1FF224679210220FFF7ACFF22467921F7
:102270000320FFF7A7FF224612210420FFF7A2FF49
:10228000224603210520FFF79DFF342C14D022465F
:1022900002210720FFF796FF224600210820FFF7C2
:1022A00091FF224622210620FFF78CFF22460121C2
:1022B0000920FFF787FF10BD224642210720FFF7C4
:1022C00081FF224640210820FFF77CFF22460221A1
:1022D0000620FFF777FFE9E7014B1878704700BF4A
:1022E000A07C0024F8B50546084611461C46BDF8FA
:1022F00018700F4E0123337000EB040C1FFA8CFC96
:1023000002EB070E1FFA8EFE0EF1FF3E0CF1FF3CB2
:102310001FFA8EF31FFA8CF20AF03BF93A46214677
:1023200028460AF079F90023337015F055FCF8BD02
:10233000A07C002410B5032000F056F803F072FCD6
:102340000F498B69C3F303230E4AD35C03F01F03C9
:10235000D8408B6903F00F03D35C03F01F0320FA0E
:1023600003F3094A1360094B18600020FFF752FC81
:1023700010B10124204610BD0446FFF723FCF9E705
:102380000044025824FA02083400002430000024DB
:10239000034B1B78034A11680B441360704700BF5E
:1023A00038000024A47C0024014B1868704700BF4B
:1023B000A47C002438B50446FFF7F6FF0546B4F1C7
:1023C000FF3F02D0044B1B781C44FFF7EDFF401B7E
:1023D000A042FAD338BD00BF38000024014B186872
:1023E000000C70470010005C0649CB6823F4E063E2
:1023F0001B041B0C000200F4E0600343024A1A4372
:10240000CA60704700ED00E00000FA0500B5174B08
:10241000DB68C3F30223C3F1070CBCF1040F28BF30
:102420004FF0040C03F1040EBEF1060F14D9033B68
:102430004FF0FF3E0EFA0CFC21EA0C0199400EFA17
:1024400003F322EA03031943002807DB0901C9B299
:10245000074B19545DF804FB0023E9E700F00F0077
:102460000901C9B2034B1954F4E700BF00ED00E0C5
:1024700000E400E014ED00E0002807DB00F01F029C
:10248000400901239340024A42F82030704700BFC0
:1024900000E100E000280CDB00F01F0240090123EE
:1024A00093402030034A42F82030BFF34F8FBFF3F0
:1024B0006F8F704700E100E0BFF35F8F044B5A6AF3
:1024C00022F480325A620022C3F89420704700BF81
:1024D00000ED00E040F00100054BC3F894005A6A9B
:1024E00042F480325A62BFF34F8FBFF36F8F704751
:1024F00000ED00E04278164BC3F898200378FBB15A
:102500004368134AC2F89C30017BC37A1B0643EA36
:102510000173817A43EAC143417B43EA8143817B72
:1025200043EA4143C17B43EA0143417A43EA012341
:10253000017A43EA410301780B43C2F8A0307047A7
:10254000034B0022C3F89C20C3F8A020704700BFB3
:1025500000ED00E0002838D010B50446437F1BB3DF
:102560000223637723791BBB2368194A5A612268C7
:10257000936823F018039360637913BB23684FF0CB
:10258000FF321A612268936823F0600361690B438C
:1025900093602268936823F08003A1690B439360E2
:1025A00001236377002010BD0377FEF7BBF8D7E760
:1025B000E268A168204600F00DF80028DCD0012078
:1025C000F1E7236822691A61DCE70120704700BF48
:1025D000B71DC10410B41F231C46013B34B103F0E6
:1025E0001F0C21FA0CFC1CF0010FF5D0182A22D880
:1025F000DFE802F00F212121212121211D212121AC
:102600002121212119212121212121210D00062B08
:1026100015D80368596101688B6823F018031A43C1
:102620008A60002008E0072BF3D9012004E00F2B7B
:10263000EFD9012000E001205DF8044B7047012034
:10264000FAE70000F0B4876D0468664E664DAC4250
:1026500018BFB44242D01835AC423FD01835AC4216
:102660003CD01835AC4239D01835AC4236D018358C
:10267000AC4233D01835AC4230D005F55675AC427B
:102680002CD01835AC4229D01835AC4226D018359C
:10269000AC4223D01835AC4220D01835AC421DD006
:1026A0001835AC421AD01835AC4217D04F4DAC4259
:1026B00014D01435AC4211D01435AC420ED01435C0
:1026C000AC420BD01435AC4208D01435AC4205D026
:1026D0001435AC4202D01435AC4207D1446E856E3D
:1026E0006560C46E14B1046F456F656004683D4E4B
:1026F0003D4DAC4218BFB44252D01835AC424FD019
:102700001835AC424CD01835AC4249D01835AC42E3
:1027100046D01835AC4243D01835AC4240D005F510
:102720005675AC423CD01835AC4239D01835AC4265
:1027300036D01835AC4233D01835AC4230D01835CD
:10274000AC422DD01835AC422AD01835AC4227D037
:10275000264E274DAC4218BFB44211D0254DAC4295
:102760000ED01435AC420BD01435AC4208D0143521
:10277000AC4205D01435AC4202D01435AC4224D161
:10278000C46D04F01F050124AC407C6004686360E4
:102790008368402B20D0036899600368DA6014E0F6
:1027A000C46D04F01F0C3F2404FA0CF4BC600568EF
:1027B0002C6824F480242C60046863608368402BB8
:1027C00005D0036899600368DA60F0BC704703685D
:1027D0009A600368D960F8E703689A600368D96073
:1027E000F3E700BF100002402800024008540258DE
:1027F0001C5402583054025803682749274A934210
:1028000018BF8B422FD0183293422CD018329342EB
:1028100029D01832934226D01832934223D018324E
:10282000934220D0183293421DD002F55672934243
:1028300019D01832934216D01832934213D018325E
:10284000934210D0183293420DD0183293420AD0DE
:102850001832934207D01832934204D023F0FF037A
:102860008365806D704710B4D9B210390C4AA2FB51
:102870000142C2F302120B4CA25CC2655F2907D968
:10288000094A1A4004328265806D5DF8044B704736
:10289000054A1A408265F7E710000240280002400E
:1028A000ABAAAAAA34FA020800FCFFFF83699BB90D
:1028B000836A012B0AD0022B02D00BB10020704793
:1028C000C36A13F0807F2AD100207047C36AB3F136
:1028D000C07F26D000207047B3F5005F0AD0836A1E
:1028E000022B26D9032B26D1C36A13F0807F24D173
:1028F00000207047836A032B03D8DFE803F0140439
:10290000140A00207047C36A13F0807F0DD10020A5
:102910007047C36AB3F1C07F09D00020704701201F
:102920007047012070470120704701207047012047
:102930007047012070470020704701207047000059
:1029400003682249224A934218BF8B4228D014328E
:10295000934225D01432934222D0143293421FD096
:10296000143293421CD01432934219D01432934241
:1029700016D0DAB2103A1749A1FB02121209164911
:102980001944A8291FD9154B13449B000366144B07
:10299000436602F01F02012303FA02F282667047C7
:1029A000DBB2083B0F4AA2FB03230F4A02EB1312D0
:1029B000920002660D4A4266C3F30413012202FA32
:1029C00003F3836670470832DDE700BF08540258FE
:1029D0001C540258ABAAAAAAF0FBFDBF008200104B
:1029E00080080240CDCCCCCC00960016805802580E
:1029F00001794A1E072A2CD830B40368154D164CAD
:102A0000A34218BFAB4218D01434A34215D01434DB
:102A1000A34212D01434A3420FD01434A3420CD0DA
:102A20001434A34209D01434A34206D00B4B0B44F8
:102A30009B00C3660A4B036705E00A4B0B449B00EF
:102A4000C366094B0367012303FA02F2426730BCF5
:102A500070477047085402581C5402583F820010B7
:102A6000400902403F9600164059025870B504468E
:102A7000FFF79AFC002C00F0B68105462368534905
:102A8000534A934218BF8B420CBF0122002250D000
:102A900030318B424DD018318B424AD018318B42A5
:102AA00047D018318B4244D018318B4241D0183175
:102AB0008B423ED001F556718B423AD018318B4291
:102AC00037D018318B4234D018318B4231D0183185
:102AD0008B422ED018318B422BD018318B4228D00C
:102AE00018318B4225D03B493B4A934218BF8B4259
:102AF00000F03181394A934200F02D811432934223
:102B000000F029811432934200F02581143293425F
:102B100000F021811432934200F01D81143293425F
:102B200000F0198140236365032384F835300120C8
:102B30004AE0022184F83510002184F834107ABB71
:102B4000274A93422CD01832934229D0183293420C
:102B500026D01832934223D01832934220D0183214
:102B600093421DD002F55672934219D01832934207
:102B700016D01832934213D01832934210D0183224
:102B800093420DD0183293420AD01832934207D0A4
:102B90001832934204D01A6822F001021A6003E04E
:102BA0001A6822F001021A6023681A6812F0010FF5
:102BB00018D0FFF7F9FB431B052BF5D920236365DC
:102BC000032384F83530012070BD00BF100002409F
:102BD00028000240085402581C540258305402582D
:102BE000400002401A6881481040A168E2680A4328
:102BF00021690A4361690A43A1690A43E1690A43F9
:102C0000216A0A430243616A042900F099807849E5
:102C1000086878490140B1F1005F11D36168A1F102
:102C20002905A1F13F00032888BF052D06D9A1F190
:102C30004700012802D94F39032901D842F48012F4
:102C40001A602668756925F00705636A1D43042B21
:102C500008D1A36A1D43E36A23B12046FFF726FE8D
:102C6000002872D175612046FFF7C6FDE36D03F0C1
:102C70001F023F239340836023685F495F4A93426A
:102C800018BF8B4242D0183293423FD01832934241
:102C90003CD01832934239D01832934236D0183291
:102CA000934233D01832934230D002F55672934299
:102CB0002CD01832934229D01832934226D01832A1
:102CC000934223D01832934220D0183293421DD021
:102CD000183293421AD01832934217D0484A93427E
:102CE00014D01432934211D0143293420ED01432C5
:102CF00093420BD01432934208D01432934205D041
:102D00001432934202D01432934213D12046FFF77B
:102D100017FEA368802B59D0236E22791A60636E48
:102D2000A26E5A606368013B072B52D90023E36609
:102D30002367636700206065012384F8353043E72B
:102D4000E16A206B01430A4361E740236365012088
:102D500084F8350038E7022284F83520002284F810
:102D600034201A6827491140A268402A2CD0802AB2
:102D700027D00022E06842EAD002206942EAD0026D
:102D8000606942EAD002A06942EAD002E06942EA00
:102D9000D002206A42EA10120A431A6022681A4BD3
:102DA00013441A4AA2FB03231B099B00E365204638
:102DB000FFF722FDE26D02F01F0101228A4042600E
:102DC0005AE74FF48042D5E71022D3E7002363602F
:102DD000A2E72046FFF70CFEE36E00221A60236F85
:102DE000626F5A60A6E70120EEE600BF3F8010FE4A
:102DF0000010005C0000FFFF1000024028000240AD
:102E0000085402580F00FEFFF8ABFDA7CDCCCCCC88
:102E1000002800F03E8170B5044690F83400012887
:102E200000F03981012084F8340094F83500C0B2F4
:102E3000012807D04FF400636365002384F8343021
:102E4000012070BD022084F83500002060652068F4
:102E5000924E934DA84218BFB0422FD01835A842C9
:102E60002CD01835A84229D01835A84226D01835BC
:102E7000A84223D01835A84220D01835A8421DD02A
:102E800005F55675A84219D01835A84216D0183540
:102E9000A84213D01835A84210D01835A8420DD03A
:102EA0001835A8420AD01835A84207D01835A842CC
:102EB00004D0056825F00105056003E0056825F0EC
:102EC000010505602046FFF7BDFB23687349744A7E
:102ED000934218BF8B4238D01832934235D0183203
:102EE000934232D0183293422FD0183293422CD0D2
:102EF0001832934229D01832934226D002F55672E6
:102F0000934222D0183293421FD0183293421CD0E1
:102F10001832934219D01832934216D01832934285
:102F200013D01832934210D0183293420DD01A6841
:102F300022F00E0242F00A021A60236C93B122685A
:102F4000136843F0040313600CE01A6822F01E02B9
:102F500042F016021A60236C23B12268136843F012
:102F60000803136023684D494D4A934218BF8B42B2
:102F700042D0183293423FD0183293423CD018329C
:102F8000934239D01832934236D01832934233D01C
:102F90001832934230D002F5567293422CD0183238
:102FA000934229D01832934226D01832934223D02C
:102FB0001832934220D0183293421DD018329342D7
:102FC0001AD01832934217D0364A934214D0143292
:102FD000934211D0143293420ED0143293420BD04C
:102FE0001432934208D01432934205D014329342E3
:102FF00002D0143293420ED1236E1A6812F4803F2D
:1030000003D01A6842F480721A60E36E1BB11A682A
:1030100042F480721A6023682049214A934218BF03
:103020008B4230D0183293422DD0183293422AD09E
:103030001832934227D01832934224D01832934248
:1030400021D0183293421ED002F5567293421AD004
:103050001832934217D01832934214D01832934248
:1030600011D0183293420ED0183293420BD018323E
:10307000934208D01832934205D01A6842F00102F8
:103080001A600020DDE61A6842F001021A60002092
:10309000D7E6012070470220D3E600BF10000240AF
:1030A000280002400854025870B50446FFF77CF926
:1030B000002C00F09181054694F83530DBB2022BEC
:1030C00006D080236365002384F83430012070BD6E
:1030D00023688C498C4A934218BF8B4230D01832F7
:1030E00093422DD0183293422AD01832934227D0DF
:1030F0001832934224D01832934221D0183293428E
:103100001ED002F5567293421AD01832934217D04D
:103110001832934214D01832934211D0183293428D
:103120000ED0183293420BD01832934208D0183286
:10313000934205D01A6822F00E021A60266809E050
:103140001A6822F01E021A602268536923F0800375
:103150005361266823686B496B4A934218BF8B42C0
:1031600042D0183293423FD0183293423CD01832AA
:10317000934239D01832934236D01832934233D02A
:103180001832934230D002F5567293422CD0183246
:10319000934229D01832934226D01832934223D03A
:1031A0001832934220D0183293421DD018329342E5
:1031B0001AD01832934217D0544A934214D0143282
:1031C000934211D0143293420ED0143293420BD05A
:1031D0001432934208D01432934205D014329342F1
:1031E00002D01432934204D1226E136823F4807308
:1031F000136023684349444A934218BF8B422FD03F
:10320000183293422CD01832934229D0183293426C
:1032100026D01832934223D01832934220D018324D
:1032200093421DD002F55672934219D01832934240
:1032300016D01832934213D01832934210D018325D
:1032400093420DD0183293420AD01832934207D0DD
:103250001832934204D01A6822F001021A6003E087
:103260001A6822F001021A60336813F0010F0ED0C1
:10327000FFF79AF8431B052BF6D920236365032338
:1032800084F83530002384F8343001201FE72368A8
:103290001C491D4A934218BF8B4239D018329342C1
:1032A00036D01832934233D01832934230D018328D
:1032B00093422DD0183293422AD01832934227D00D
:1032C00002F55672934223D01832934220D018321E
:1032D00093421DD0183293421AD01832934217D01D
:1032E0001832934214D01832934211D018329342BC
:1032F0000ED0A16DE36D03F01F02012393404B60DC
:103300000DE000BF1000024028000240085402589F
:10331000A16DE36D03F01F023F2393408B60236890
:103320002E492F4A934218BF8B4242D01832934203
:103330003FD0183293423CD01832934239D01832E1
:10334000934236D01832934233D01832934230D061
:1033500002F5567293422CD01832934229D018327B
:10336000934226D01832934223D01832934220D071
:10337000183293421DD0183293421AD01832934219
:1033800017D0184A934214D01432934211D01432F9
:1033900093420ED0143293420BD01432934208D091
:1033A0001432934205D01432934202D01432934225
:1033B0000BD1636EA26E5A60E36E33B11A6822F4C9
:1033C00080721A60236F626F5A60012384F835306F
:1033D000002084F834007AE6012078E610000240EC
:1033E0002800024008540258002800F0298108B53E
:1033F000024690F83530DBB2022B03D080234365C0
:10340000012008BD0368904890498B4218BF834251
:103410000CBF0121002166D03030834263D01830C8
:10342000834260D0183083425DD0183083425AD036
:103430001830834257D01830834254D000F556706C
:10344000834250D0183083424DD0183083424AD046
:103450001830834247D01830834244D0183083421A
:1034600041D0183083423ED0183083423BD0196897
:1034700021F00E0119601368A0F5956073498B4225
:1034800018BF83426AD072498B4267D018318B4291
:1034900064D018318B4261D018318B425ED0183124
:1034A0008B425BD018318B4258D001F556718B425C
:1034B00054D018318B4251D018318B424ED0183134
:1034C0008B424BD018318B4248D018318B4245D0BB
:1034D00018318B4242D018318B423FD0196821F00D
:1034E000010119603EE0042082F8350081BB584A92
:1034F00093422DD0183293422AD01832934227D0CB
:103500001832934224D01832934221D01832934279
:103510001ED002F5567293421AD01832934217D039
:103520001832934214D01832934211D01832934279
:103530000ED0183293420BD01832934208D0183272
:10354000934205D01A6822F001021A60002058E761
:103550001A6822F001021A60002052E7196821F06F
:10356000010119601368384838498B4218BF8342FB
:1035700042D018318B423FD018318B423CD01831A9
:103580008B4239D018318B4236D018318B4233D030
:1035900018318B4230D001F556718B422CD0183146
:1035A0008B4229D018318B4226D018318B4223D040
:1035B00018318B4220D018318B421DD018318B42EC
:1035C0001AD018318B4217D022498B4214D01431B3
:1035D0008B4211D014318B420ED014318B420BD060
:1035E00014318B4208D014318B4205D014318B42F8
:1035F00002D014318B4217D1116E0B6823F4807303
:103600000B60906DD36D03F01F0101238B4043606D
:10361000536E916E5960D36E33B1196821F4807185
:103620001960136F516F5960012382F83530002300
:1036300082F83430136D2BB1104698470020E0E635
:10364000012070470020DCE6100002402800024004
:103650004000024008540258F0B583B004460023ED
:1036600001937D4B1D687D4BA3FB0535AD0A876D2E
:103670003E68D7F800C0036879497A48834218BF8A
:103680008B420CBF0120002061D0774A93425ED06C
:10369000183293425BD01832934258D0183293427A
:1036A00055D01832934252D0183293424FD002F57F
:1036B000567293424BD01832934248D018329342FC
:1036C00045D01832934242D0183293423FD018323C
:1036D00093423CD01832934239D01832934236D0BC
:1036E0006249634A934218BF8B4212D0614A9342A7
:1036F0000FD0143293420CD01432934209D01432BA
:10370000934206D01432934203D01432934240F0D5
:1037100061821A68E16D01F01F010420884010EAFF
:103720000C0F00F0A78212F0040F00F0A382786063
:1037300012F4004F00F05A8212F4803F40F05082A1
:10374000A36C002B00F046822046984742E2E26DCF
:1037500002F01F0108228A40324241D070BB424A27
:1037600093422BD01832934228D01832934225D05E
:103770001832934222D0183293421FD0183293420B
:103780001CD002F55672934218D01832934215D0CD
:103790001832934212D0183293420FD0183293420B
:1037A0000CD01832934209D01832934206D0183206
:1037B000934203D01A68C2F3C00202E01A68C2F34F
:1037C00080026AB11A6822F004021A60E36D03F005
:1037D0001F0208239340BB60636D43F001036365E0
:1037E000E26D02F01F0226FA02F313F0010F47D038
:1037F00023681B481B498B4218BF83423CD01831B9
:103800008B4239D018318B4236D018318B4233D0AD
:1038100018318B4230D018318B422DD018318B4269
:103820002AD001F556718B4226D018318B4223D015
:1038300018318B4220D018318B421DD018318B4269
:103840001AD018318B4217D018318B4214D018314E
:103850008B4211D01B6813E030000024B5814E1B51
:103860001000024028000240400002400854025864
:103870001C540258305402585B6913F0800F3BD13E
:10388000E36D03F01F03042202FA03F3334240D036
:103890002268964896498A4218BF824235D018312C
:1038A0008A4232D018318A422FD018318A422CD025
:1038B00018318A4229D018318A4226D018318A42DA
:1038C00023D001F556718A421FD018318A421CD08C
:1038D00018318A4219D018318A4216D018318A42DA
:1038E00013D018318A4210D018318A420DD01831C5
:1038F0008A420AD013680CE0012303FA02F2BA608C
:10390000636D43F002036365BAE7126812F0020FB9
:103910003DD1E36D03F01F03102202FA03F333429B
:103920005FD02268714872498A4218BF824234D0FF
:1039300018318A4231D018318A422ED018318A4249
:103940002BD018318A4228D018318A4225D018311C
:103950008A4222D001F556718A421ED018318A421D
:103960001BD018318A4218D018318A4215D018312C
:103970008A4212D018318A420FD018318A420CD0B4
:1039800018318A4209D01268C2F3800208E0BB6095
:10399000636D43F004036365BBE71268C2F3C002C2
:1039A000FAB1BB6023681A6812F4802F0DD01B682F
:1039B00013F4002F04D1236C9BB12046984710E0EC
:1039C000A36C73B1204698470BE01A6812F4807F0D
:1039D00003D11A6822F008021A60236C0BB120464A
:1039E0009847E36D03F01F03202202FA03F33342EA
:1039F00000F0928022683D483D498A4218BF8242C9
:103A00002ED018318A422BD018318A4228D0183152
:103A10008A4225D018318A4222D018318A421FD0DA
:103A200018318A421CD001F556718A4218D01831DB
:103A30008A4215D018318A4212D018318A420FD0EA
:103A400018318A420CD018318A4209D018318A4282
:103A500006D018318A4203D01268C2F3400202E055
:103A60001268C2F30012002A56D0BB6094F83530B9
:103A7000DBB2042B0ED023681A6812F4802F39D0E1
:103A80001B6813F4002F2CD1636C002B44D020460C
:103A9000984741E02268136823F0160313602268F8
:103AA000536923F080035361236CB3B12268136818
:103AB00023F008031360E36D03F01F023F239340DC
:103AC000BB60012384F83530002384F83430236D43
:103AD000002B7FD0204698477CE0A36C002BE5D1DB
:103AE000E9E7E36BC3B12046984715E010000240B8
:103AF000280002401A6812F4807F09D11A6822F067
:103B000010021A60012384F83530002384F8343021
:103B1000E36B0BB120469847636D002B5AD0636D61
:103B200013F0010F52D0042384F8353023689649EE
:103B3000964A934218BF8B422FD0183293422CD012
:103B40001832934229D01832934226D01832934229
:103B500023D01832934220D0183293421DD002F560
:103B60005672934219D01832934216D018329342AB
:103B700013D01832934210D0183293420DD018321D
:103B800093420AD01832934207D01832934204D09D
:103B90001A6822F001021A6003E01A6822F001029A
:103BA0001A60019B01330193AB4204D823681B6860
:103BB00013F0010FF5D123681B6813F0010F0BD030
:103BC000032384F83530002384F83430E36C0BB1E0
:103BD0002046984703B0F0BD012384F83530F2E762
:103BE000236C002BF6D020469847F3E712F0200F05
:103BF0003AD123686449654A934218BF8B422FD05B
:103C0000183293422CD01832934229D01832934262
:103C100026D01832934223D01832934220D0183243
:103C200093421DD002F55672934219D01832934236
:103C300016D01832934213D01832934210D0183253
:103C400093420DD0183293420AD01832934207D0D3
:103C50001832934204D01A6822F004021A6003E07A
:103C60001A6822F008021A60236C002BB2D020469A
:103C70009847AFE70220884010EA0C0F60D012F09E
:103C8000020F5DD0786012F4004F0ED012F4803F26
:103C900005D1636C002B9DD0204698479AE7E36BD3
:103CA000002B97D02046984794E712F0200F40D180
:103CB00023683549354A934218BF8B422FD01832BA
:103CC00093422CD01832934229D01832934226D0F6
:103CD0001832934223D01832934220D018329342A4
:103CE0001DD002F55672934219D01832934216D065
:103CF0001832934213D01832934210D018329342A4
:103D00000DD0183293420AD01832934207D018329D
:103D1000934204D01A6822F00A021A6003E01A687B
:103D200022F014021A60012384F83530002384F84D
:103D30003430E36B002B3FF44DAF2046984749E702
:103D4000082000FA01F111EA0C0F3FF443AF12F022
:103D5000080F3FF43FAF1A6822F00E021A60E36DBD
:103D600003F01F03012202FA03F37B60626584F80B
:103D70003520002384F83430E36C002B3FF42AAF65
:103D80002046984726E700BF100002402800024066
:103D9000406D7047F0B583B000236BE085685E002E
:103DA0000324B44025EA0405CC68B4402C43846065
:103DB000446824EA0C0C4C68C4F300149C4044EAA8
:103DC0000C04446068E0DD08083550F8256003F015
:103DD00007044FEA840C0F2404FA0CF426EA040EBC
:103DE0000C6904FA0CF444EA0E0440F825406BE038
:103DF000092400E0002404FA0EF42C430CF1020C18
:103E0000694D45F82C404FF0B0442568D44325EA6D
:103E100002064F6817F4801F01D042EA05064FF0F2
:103E2000B0452E606D6804EA05064F6817F4001F60
:103E300001D042EA05064FF0B0456E60D5F88450D7
:103E400004EA05064F6817F4003F01D042EA050670
:103E50004FF0B045C5F88460D5F880502C404E68CE
:103E600016F4803F01D042EA05044FF0B042C2F898
:103E7000804001330A6832FA03F400F092804FF078
:103E8000010C0CFA03FC1CEA0202F2D04C6804F0AC
:103E90000304013C012C81D94C6804F00304032C79
:103EA0000CD0C4685D004FF0030C0CFA05FC24EA4A
:103EB0000C0C8C68AC4044EA0C04C4604C6804F000
:103EC0000304022C3FF47FAF04684FEA430E4FF027
:103ED000030C0CFA0EFC24EA0C0C4C6804F00304EE
:103EE00004FA0EF444EA0C0404604C6814F4403FF5
:103EF000BFD02E4CD4F8F45045F00205C4F8F4506D
:103F0000D4F8F44004F002040194019C4FEA930CAD
:103F10000CF10205244C54F8255003F003044FEA39
:103F2000840E0F2404FA0EF425EA0405204CA04266
:103F30003FF460AF04F58064A04222D004F58064B1
:103F4000A04220D004F58064A0421ED004F5806415
:103F5000A0421CD004F58064A0421AD004F580640D
:103F6000A04218D004F58064A04216D004F5806405
:103F7000A04214D004F58064A0423FF439AF0A2473
:103F800039E7012437E7022435E7032433E7042423
:103F900031E705242FE706242DE707242BE7082423
:103FA00029E703B0F0BD00BF0004005800440258E8
:103FB00000000258002331FA03F200F09D80F0B5B2
:103FC0002EE0092500E0002505FA0CFCA44572D07E
:103FD00004685D004FF0030C0CFA05FC44EA0C0485
:103FE00004604FEAD30E0EF1080E50F82E4003F095
:103FF0000705AE000F25B54024EA050440F82E4021
:10400000C46824EA0C04C460446824EA02024260E2
:10401000826822EA0C028260013331FA03F26AD02C
:1040200001229A4012EA010EF6D09E08B51C334CCC
:1040300054F8254003F0030C4FEA8C0C0F2505FAC9
:104040000CF73C402E4DA842BDD005F58065A84236
:1040500021D005F58065A8421FD005F58065A842EE
:104060001DD005F58065A8421BD005F58065A842E6
:1040700019D005F58065A84217D005F58065A842DE
:1040800015D005F58065A84213D005F58065A842D6
:1040900097D00A2598E7012596E7022594E703259E
:1040A00092E7042590E705258EE706258CE707258E
:1040B0008AE7082588E74FF0B044D4F8805025EA15
:1040C0000E05C4F88050D4F8845025EA0E05C4F8D3
:1040D0008450656825EA0E056560256825EA0E05A9
:1040E0002560DFF818C0B41C5CF8245025EA0705E9
:1040F0004CF824506CE7F0BD704700BF0004005836
:10410000000002580369194201D0012070470020C5
:1041100070470AB181617047090481617047036883
:104120009A6912F0020F01D000229A6203689A691C
:1041300012F0010F03D19A6942F001029A617047AF
:1041400010B4019CC1F3090141EA02411943214322
:1041500021F0004102685368640D04F4806444F067
:104160007F7444F4583444F47F7444F0030423EA25
:104170000404214351605DF8044B70472DE9F04180
:10418000044603689F6917F010074ED00E4690460C
:104190001022DA6100252368986910F0200F3DD1C4
:1041A000002D3BD1B6F1FF3FF5D0FEF7FDF8A0EBB7
:1041B0000800B04201D8002EEDD121684A6802F40F
:1041C000804294F84230DBB2886910F4004F04D08A
:1041D000203B18BF012302B9C3B923689B6913F0C0
:1041E000200FD8D1FEF7E0F8A0EB08001928F4D989
:1041F000636C43F020036364202384F84130002380
:1042000084F8423084F840300125E6E74B6843F4F7
:1042100080434B60FEF7C8F88046DEE7002D40D1B2
:104220002022DA610427012500E000252268936935
:1042300013F4807F05D047F001074FF48071D161FE
:10424000012513F4806F06D047F0080722684FF469
:104250008061D161012513F4007F24D047F002076B
:1042600023684FF40072DA6101252046FFF757FFFB
:104270002268536823F0FF7323F48B3323F4FF7316
:1042800023F001035360636C1F436764202384F8A9
:104290004130002384F8423084F840302846BDE89D
:1042A000F0810427C2E7002DF8D0DEE770B50446A0
:1042B0000D46164623689B6913F0020F1DD1324646
:1042C00029462046FFF75AFFC8B9B5F1FF3FF1D0A4
:1042D000FEF76AF8801BA84201D8002DEAD1636C72
:1042E00043F020036364202384F84130002384F8E2
:1042F000423084F84030012000E0002070BD0120F1
:10430000FCE72DE9F0410646884617461D4634680D
:10431000A46938EA04030CBF4FF0010C4FF0000C05
:10432000BC4518D1B5F1FF3FF1D0FEF73DF8069B33
:10433000C01AA84201D8002DE9D1736C43F02003C4
:104340007364202386F84130002386F8423086F8D3
:104350004030012000E00020BDE8F0812DE9F0416F
:1043600082B0044690461D46089E099F194B009353
:104370004FF08073EAB2FFF7E3FE3A46314620463B
:10438000FFF794FFF8B9012D0ED123685FFA88F288
:104390009A6200973346002280212046FFF7B1FF42
:1043A000A8B902B0BDE8F08123684FEA18229A62EA
:1043B0003A4631462046FFF779FF30B923685FFA65
:1043C00088F29A62E5E70120EBE70120E9E70120A6
:1043D000E7E700BF0020008070B505460C46164692
:1043E0002B689B6913F0200F1AD1324621462846CC
:1043F000FFF7C4FEB0B9FDF7D7FF801BA04201D87C
:10440000002CEDD16B6C43F020036B64202385F806
:104410004130002385F8423085F84030012070BDDE
:104420000020FCE70120FAE7002857D010B5044629
:1044300090F84130002B41D0242384F84130226889
:10444000136823F0010313606368226823F070632C
:1044500013612268936823F400439360E368012B9F
:1044600031D0A368226843F404439360E368022BCD
:104470002FD0226851681A4B0B4353602268D368CF
:1044800023F40043D360236962691343A16922685E
:1044900043EA0123D360E369216A22680B43136076
:1044A0002268136843F00103136000206064202336
:1044B00084F84130206384F8420010BD80F8403019
:1044C000FCF700FEB8E7A368226843F4004393605A
:1044D000CCE723684FF400625A60CAE701207047B6
:1044E000008000022DE9F04F83B00D46BDF834A0E6
:1044F0000E9F90F84110C9B2202940F0BC800446BC
:10450000904699460C9BBAF1000F18BF002B16D0AD
:1045100090F84030012B00F0B2804FF0010B80F892
:1045200040B0FDF741FF0646009019235A464FF46C
:1045300000412046FFF7E5FE30B101209CE04FF43A
:1045400000734364012097E0212384F84130402325
:1045500084F84230002363640C9A6262A4F82AA0B3
:104560006363019600974B46424629462046FFF773
:10457000F5FE70B9638D9BB2FF2B0FD9FF22228508
:10458000002300934FF0807329462046FFF7D8FDA3
:1045900021E0002384F8403058466DE0628D92B2ED
:1045A0002285002300934FF00073D2B229462046A3
:1045B000FFF7C6FD0FE0628D92B2228500230093C3
:1045C0004FF00073D2B229462046FFF7B9FD638D44
:1045D0009BB2002B33D0324639462046FFF766FEA9
:1045E00000284ED1626A236812789A62636A0133A6
:1045F0006362638D9BB2013B9BB26385238D013B5C
:104600009BB22385628D92B2002AE0D0002BDED1CE
:1046100000963B46002280212046FFF772FE90BBA9
:10462000638D9BB2FF2BC6D9FF2222850023009306
:104630004FF0807329462046FFF782FDC7E73246D8
:1046400039462046FFF7C8FEF8B923682022DA6110
:1046500021684B6823F0FF7323F48B3323F4FF733B
:1046600023F001034B6084F84120002384F842309A
:1046700084F8403000E0022003B0BDE8F08F022053
:10468000FAE70120F8E70120F6E70120F4E790F8C7
:104690004130DBB2202B24D190F84030012B22D0C6
:1046A000012380F84030242380F8413002681368E9
:1046B00023F0010313600268136823F4805313602E
:1046C00002681368194311600268136843F001031C
:1046D0001360202380F84130002380F840301846D2
:1046E0007047022070470220704790F84130DBB2DB
:1046F000202B22D190F84030012B20D0012380F8CC
:104700004030242380F841300268136823F001030D
:1047100013600268136823F4706343EA0121116097
:104720000268136843F001031360202380F84130CE
:10473000002380F84030184670470220704702205E
:1047400070472DE9F04383B0D0F8008001EBC1033E
:1047500000EB8303DA6D5B6D9A4254D807460C4632
:104760009B1A01EBC10200EB8202926C9A4200D3C9
:104770001A4602F103094FEA990915E006F1030907
:104780004FEA990904EBC40507EB8505E96C3B7C0E
:104790000093B3B2E2B2404607F001F8EB6C334449
:1047A000EB64EB6D3344EB6508EB441303F51063E6
:1047B0009B699BB24B4512D304EBC40207EB820208
:1047C000D16D536D99420AD24BB15B1A04EBC4020E
:1047D00007EB8202966C9E42D0D31E46CEE704EBD6
:1047E000C40007EB80077A6DFB6D9A420FD804F086
:1047F0000F040123A340D8F8344824EA0304C8F87E
:104800003448002000E0012003B0BDE8F083002020
:10481000FAE770B58AB0002800F097800546046872
:1048200090F8BD343BB3032385F8BD34E36B13F438
:10483000807F01D100232B61286806F0D3FC2C4631
:1048400054F8106BEC460FCCACE80F000FCCACE882
:104850000F0094E803008CE803002B1D0ECB3046BC
:1048600006F0FAFB044658B1022385F8BD34012452
:1048700020460AB070BD80F8BC3413F0DFFAD2E7EE
:104880000021286807F0C0F9234616E003EBC302B5
:1048900005EB8202012182F83D1082F83C30A2F83B
:1048A0004430002182F840109164D16403EBC302CC
:1048B00005EB820251650133DBB269688B42E5D3B7
:1048C00016E004EBC40305EB8303002283F87D228A
:1048D00083F87C4283F88022C3F88822C3F88C22B4
:1048E00004EBC40305EB8303C3F894220134E4B260
:1048F000A142E6D82C4654F8106BEC460FCCACE83D
:104900000F000FCCACE80F0094E803008CE8030024
:104910002B1D0ECB304606F0C1FC044660B90023C7
:1049200085F83830012385F8BD346B6A012B08D037
:10493000286807F026F99BE7022385F8BD34012497
:1049400096E7284600F0E4FDF2E7012490E738B549
:1049500090B10446032380F8BD34006807F0D3F813
:10496000054610B10125284638BD204613F0C0FA8F
:10497000002384F8BD34F6E70125F4E7026890F8D7
:10498000BC34012B19D010B50446012380F8BC3487
:10499000836A012B09D0206806F01EFC206807F00E
:1049A000E2F8002084F8BC0410BD8369012BF2D02A
:1049B000936B43F480339363EDE70220704738B57F
:1049C000056890F8BC34012B1CD00446012380F804
:1049D000BC34284606F006FC206807F0D2F8102107
:1049E000206806F005FCA36A012B03D0002084F8A0
:1049F000BC0438BDA369012BF8D0AB6B23F4803322
:104A0000AB63F3E70220F4E770B504460D46006897
:104A1000066C00EB411303F530639A6821690129A4
:104A200011D038498E4256D03DB905EBC50304EB91
:104A30008303D3F89432002B5ED0E9B2204613F002
:104A40007BFA002070BD12F0080F09D02E498E426B
:104A5000F7D912F4004FF4D04FF400429A60F0E717
:104A600012F0200F02D020229A60EAE712F0280FFD
:104A7000E7D125498E4206D912F4004F03D04FF4F6
:104A800000429A60DDE705EBC50204EB8202D2F832
:104A900098121B69C3F31203CB1AC2F89C327DB97A
:104AA00005EBC50204EB8202D2F894226AB105EB51
:104AB000C50204EB8202D2F88C120B44C2F88C328D
:104AC000E9B2204613F038FABBE704F2C4420121F0
:104AD00007F0DCF8F4E712F4004F03D04FF4004283
:104AE0009A60AEE712F0200F01D020229A60E9B25E
:104AF000204613F021FAA4E704F2C442002107F093
:104B0000C5F89AE70A31544F0A30544F38B5044675
:104B100003681D6C03EB4113D3F8081B0E4A954242
:104B200007D903F5306311F4004F02D04FF400426F
:104B30009A60204613F0F8F9074B9D4202D9236989
:104B4000012B01D0002038BD04F2C44201212068AD
:104B500007F09CF8F6E700BF0A30544F90F8BC34D9
:104B6000012B0DD010B50446012380F8BC3480F829
:104B70003810006806F0E7FF002084F8BC0410BD80
:104B80000220704738B505468C4611F0800F29D1B8
:104B900001F00F0E0EEBCE04A40004F51E740444C5
:104BA000211D0EEBCE0E00EB8E0E00208EF87D0246
:104BB0000CF00F0C81F800C0CA600B714A780AB182
:104BC000A1F808C0022B1DD095F8BC34012B1CD0D5
:104BD000012385F8BC34286806F034FC002085F8F1
:104BE000BC0438BD01F00F0000EBC0018900383172
:104BF0002944043100EBC00005EB8000012480F85B
:104C00003D40D5E700234B71DEE70220E9E710B510
:104C100004460A4611F0800F20D101F00F0000EB8E
:104C2000C0039B0003F51E732344191D00EBC00055
:104C300004EB8000002380F87D3202F00F020A703E
:104C400094F8BC34012B19D0012384F8BC342068BB
:104C500006F046FC002084F8BC0410BD01F00F00F3
:104C600000EBC0039B0038332344191D00EBC00048
:104C700004EB8000012380F83D30DEE70220ECE702
:104C800010B501F00F0404EBC401890001F51E7199
:104C90000144043104EBC40C00EB8C0CCCF88C22E6
:104CA000CCF894320023CCF89C328CF87D328CF80E
:104CB0007C420369012B06D064B9DAB2006806F0C1
:104CC0007FFC002010BD04EBC40C00EB8C0CCCF876
:104CD0009022F1E7DAB2006806F078FDF1E701F022
:104CE0000F0101EBC10100EB8101D1F89C0270477B
:104CF00010B501F00F0404EBC40189003831014400
:104D0000043104EBC40C00EB8C0CCCF84C20CCF838
:104D100054300023CCF85C3001238CF83D308CF803
:104D20003C400369012B06D064B9DAB2006806F092
:104D300047FC002010BD04EBC40C00EB8C0CCCF83D
:104D40005020F1E7DAB2006806F040FDF1E738B52F
:104D500001F00F054268954239D804460B4611F020
:104D6000800F1FD101EBC101890001F51E710144C3
:104D7000043103EBC30300EB8303002283F87D229D
:104D800001238B700D7094F8BC34012B21D00123CA
:104D900084F8BC34206806F05BFE8DB1002084F8F6
:104DA000BC0438BD05EBC50189003831014404312C
:104DB00005EBC50300EB8303012283F83D20DFE709
:104DC00004F2C442217C206806F060FFE6E701207F
:104DD000E7E70220E5E701F00F034268934231D88C
:104DE00010B5044611F0800F1ED103EBC3018900FA
:104DF00001F51E710144043103EBC30200EB820292
:104E0000002082F87D0200228A700B7094F8BC3476
:104E1000012B19D0012384F8BC34206806F045FE2C
:104E2000002084F8BC0410BD03EBC30189003831B5
:104E30000144043103EBC30200EB8202012082F83B
:104E40003D00E0E7012070470220ECE708B511F0D3
:104E5000800F0CD101F00F0101EBC101890001F5B8
:104E60001E7101440431006806F03AFC08BD01F0EF
:104E70000F0101EBC1018900383101440431F2E72F
:104E80002DE9F04F83B004460568284606F0B8FEC9
:104E900010B103B0BDE8F08F0646206806F07FFE33
:104EA0000028F6D005F50067BB68C3F30D23C4F8EE
:104EB000FC34206806F073FE10F0020F04D0226864
:104EC000536903F002035361206806F068FE10F096
:104ED000100F14D02268936923F010039361D5F862
:104EE000208008F00F09C8F34343022B69D0062B3A
:104EF00000F08D802268936943F01003936120686D
:104F000006F04DFE10F4002F40F09380206806F06C
:104F100046FE10F4802F40F0FC80206806F03FFE33
:104F20000028C0F27F81206806F039FE10F4006F7F
:104F300009D0BB6813F0010F40F08C8122685369DF
:104F400003F400635361206806F029FE10F0006F3F
:104F500015D02268536903F00063536194F8F43468
:104F6000002B40F07B81012184F8F41423685B6DF1
:104F7000C3F38303C4F8F834204600F0DDFA206858
:104F800006F00DFE10F4805F40F06C81206806F0A2
:104F900006FE10F4005F40F0B881206806F0FFFDC7
:104FA00010F0080F40F0C981206806F0F8FD10F0FD
:104FB000800F00F0DC81AB6923F08003AB61012638
:104FC000C5E147F6F07318EA030F93D04FEA181BB8
:104FD0004FEAC903019309EBC90A04EB8A0AC8F333
:104FE0000A12DAF88C12284606F008FDCBF30A0BF9
:104FF000DAF88C325B44CAF88C32019B4B4404EBE8
:105000008303D3F89C325B44CAF89C3272E70822CF
:1050100004F2C441284606F0F1FCC8F30A1809EB73
:10502000C90204EB8202D2F89C324344C2F89C329B
:1050300060E7206806F0B7FD8046B14635E005EB35
:1050400049130122C3F8082B49462046FFF7DCFC30
:105050003CE005EB49130822C3F8082B49462046DB
:10506000FFF754FD35E009EBC90304EB830393F824
:105070007F32012B41D005EB49130222C3F8082BE4
:105080001AF0200F04D005EB49132022C3F8082B97
:105090001AF4005F05D005EB49134FF40052C3F832
:1050A000082B09F101094FEA5808B8F1000F3FF445
:1050B0002DAF18F0010FF4D05FFA89FB5946206834
:1050C00006F081FD824610F0010FB8D11AF0080FEA
:1050D000BFD11AF0100F04D005EB49131022C3F80A
:1050E000082B1AF0020FCBD06B6913F0800FBAD0E7
:1050F0007B6843F480637B60B5E709EBC90304EB8D
:105100008303002283F87F225946204612F066FF6F
:10511000B1E7206806F04FFD8046B14625E05946CC
:10512000204612F015FF1AF0080F04D005EB4913C2
:105130000822C3F808291AF0100F04D005EB491310
:105140001022C3F808291AF0400F04D005EB4913C8
:105150004022C3F808291AF0020F40D11AF0800F3C
:105160005BD109F101094FEA5808B8F1000F3FF48B
:10517000D4AE18F0010FF4D05FFA89FB59462068CD
:1051800006F02AFD824610F0010FCCD009F00F0383
:10519000012101FA03F27B6B23EA02037B6305EB37
:1051A0004913C3F8081923698B42B8D109EBC90325
:1051B00004EB8303996CDA6C0A44DA64B9F1000FEA
:1051C000ADD109EBC90304EB83035B6D002BA6D1C2
:1051D00004F2C4420121206806F058FD9FE74946C9
:1051E000284606F005F809EBC90304EB830393F89E
:1051F0003F30012B05D005EB49130222C3F80829E3
:10520000ACE709EBC90304EB8303002283F83F20DA
:105210005946204612F0E8FEEDE749462046FFF7E2
:1052200090FA9EE77B6823F001037B6094F8F434E6
:10523000012B08D0204612F0CBFE2268536903F000
:10524000004353616FE6002184F8F414204600F017
:1052500073F9F2E7204612F0A3FE6FE6204612F043
:105260009FFE8CE67B6823F001037B6010212068A1
:1052700005F0BEFF1AE005EB46134FF67F31C3F889
:105280000819D3F8002922F40012C3F80029C3F842
:10529000081BD3F8002B22F40012C3F8002BD3F81C
:1052A000002B42F00062C3F8002B01366368B34262
:1052B000E1D8FB6943F00113FB61236BDBB1D7F845
:1052C000843043F00B03C7F884307B6C43F00B034E
:1052D0007B64D5F8003823F4FE63C5F8003804F287
:1052E000C442217C206806F0D1FC2268536903F493
:1052F000805353614AE67A6942F22B0313437B6180
:105300003B6943F00B033B61E3E7206806F0AEFC2A
:10531000206806F087F8E060266800F0C7FE0146C6
:10532000227B304605F0E6FE204612F022FE22687F
:10533000536903F4005353612FE6204612F013FE25
:105340002268536903F0080353612DE60136636850
:10535000B3420CD906EBC60304EB830393F87F3208
:10536000012BF3D1F1B22046FFF770FDEEE7206884
:1053700006F015FC10F4801F27D1206806F00FFC02
:1053800010F4001F5BD0012328E001366368B342AC
:105390001DD905EB4613D3F8002906EBC60304EB31
:1053A000830393F84030012BEFD1002AEDDA06EBAE
:1053B000C60304EB8303012283F83F2066F07F01DC
:1053C000C9B22046FFF742FDDFE70126DEE722688B
:1053D000536903F480135361CFE7013362689A4243
:1053E00028D905EB4312D2F8001B03EBC30204EBF0
:1053F000820292F88022012AEFD10029EDDA01F42D
:105400008031D4F8FC2402F001029142E5D103EB93
:10541000C30204EB8202012182F87F12AA6942F0E2
:105420008002AA616A6912F0800FD6D17B6843F4CA
:1054300000737B602268536903F400135361206892
:1054400006F0ADFB10F0804F10D1206806F0A7FBEE
:1054500010F0040F3FF41DAD23685D6815F0040FD4
:105460000DD1226853682B43536012E5204612F099
:10547000C1FD2268536903F080435361E5E720468C
:1054800012F0BEFDEDE790F8BC34012B14D010B53E
:105490000446012380F8BC3411F0800F06D1006867
:1054A00005F0CEFE002084F8BC0410BD01F00F0111
:1054B000006805F09DFEF5E70220704710B404680F
:1054C000606A31B940EA0240A06200205DF8044BF6
:1054D00070478C46A36A00EB1340002308E003F1F9
:1054E000400104EB8101496800EB11400133DBB25C
:1054F0000CF1FF318B42F2D340EA02400CF13F0144
:1055000004EB81014860E0E70368596200207047BE
:10551000034602680121C0F80015002083F8F40456
:10552000936943F000639361516D024B0B435365E4
:10553000704700BF0300001070470000134BDB688A
:1055400013F0040F07D1114BDB6803F0070383420C
:105550001AD00120704710B50C4AD36823F0070316
:105560001843D060FCF720FF0446084B5B6813F437
:10557000005F07D1FCF718FF001BB0F57A7FF4D964
:10558000012000E0002010BD0020704700480258B4
:10559000024AD36843F08073D360704700480258D2
:1055A000002800F0188338B50446036813F0010F93
:1055B00025D0944A136903F03803926A102B15D052
:1055C000182B0FD06368B3F5803F3FD0002B53D129
:1055D0008C4B1A6822F480321A601A6822F48022F6
:1055E0001A6038E002F00302022AEBD1854B1B68F7
:1055F00013F4003F03D06368002B00F0EE822368B1
:1056000013F0020F00F0A1807E4A1369926A13F032
:1056100038035AD0182B55D0E368002B00F0DE80F9
:1056200078490A6822F0190213430B60FCF7BCFEAC
:105630000546744B1B6813F0040F40F0AD80FCF777
:10564000B3FE401B0228F4D90320CDE26D4A136853
:1056500043F48033136063682BB3FCF7A5FE054663
:10566000684B1B6813F4003FC9D1FCF79DFE401B3B
:105670006428F5D90320B7E2B3F5A02F09D0614B18
:105680001A6822F480321A601A6822F480221A60A2
:10569000E1E75C4B1A6842F480221A601A6842F40F
:1056A00080321A60D7E7FCF77FFE0546554B1B6832
:1056B00013F4003FA3D0FCF777FE401B6428F5D914
:1056C000032091E212F0030FA6D14E4B1B6813F09A
:1056D000040F03D0E368002B00F08182494A13686D
:1056E00023F01903E1680B431360FCF75DFE0546E8
:1056F000444B1B6813F0040F06D1FCF755FE401B0A
:105700000228F5D903206FE2FCF768FE41F203039B
:10571000984212D82269402A07D03A494B6823F4AC
:105720007C3343EA02334B600FE0364A536823F47C
:105730007C3343F40033536007E0324A536823F06C
:10574000FE43216943EA01635360236813F0100F9D
:1057500000F088802B4A136903F03803926A082B03
:1057600056D0182B50D0E369002B00F0B880254AA2
:10577000136843F080031360FCF716FE0546214BC7
:105780001B6813F4807F40F08880FCF70DFE401BFF
:105790000228F4D9032027E2FCF720FE41F203039C
:1057A000984212D82269402A07D016494B6823F440
:1057B0007C3343EA02334B60C7E7124A536823F451
:1057C0007C3343F400335360BFE70E4A536823F041
:1057D000FE43216943EA01635360B6E7094A13684F
:1057E00023F001031360FCF7DFFD0546054B1B6842
:1057F00013F0040FA9D0FCF7D7FD401B0228F5D900
:105800000320F1E10044025802F00302012AAAD168
:10581000A14B1B6813F4807F03D0E369802B40F019
:10582000E081FCF7DBFD41F20303984212D8226AC3
:10583000202A07D098494B6823F0F84343EA826353
:105840004B600FE0944A536823F0F84343F08043E1
:10585000536007E0904AD36823F07C53216A43EAFF
:105860000163D360236813F0080F60D06369002BD5
:1058700049D0894A536F43F001035367FCF794FD05
:105880000546854B5B6F13F0020F50D1FCF78CFD82
:10589000401B0228F5D90320A6E1FCF79FFD41F249
:1058A0000303984212D8226A202A07D07A494B680B
:1058B00023F0F84343EA82634B60D3E7764A5368A8
:1058C00023F0F84343F080435360CBE7724AD36838
:1058D00023F07C53216A43EA0163D360C2E76E4A36
:1058E000136823F080031360FCF75EFD05466A4BE6
:1058F0001B6813F4807FB5D0FCF756FD401B0228CF
:10590000F5D9032070E1644A536F23F00103536714
:10591000FCF74AFD0546604B5B6F13F0020F06D0A3
:10592000FCF742FD401B0228F5D903205CE1236807
:1059300013F0200F29D0A3699BB1574A136843F491
:1059400080531360FCF730FD0546534B1B6813F47E
:10595000005F1AD1FCF728FD401B0228F5D903206F
:1059600042E14D4A136823F480531360FCF71CFD99
:105970000546494B1B6813F4005F06D0FCF714FD85
:10598000401B0228F5D903202EE1236813F0040FF1
:1059900021D1636A002B00F026813F4A126902F090
:1059A0003802182A00F0EE80022B79D03A4A1368A8
:1059B00023F080731360FCF7F7FC0446364B1B683A
:1059C00013F0007F00F0DC80FCF7EEFC001B0228E7
:1059D000F4D9032008E1314A136843F4807313605B
:1059E000FCF7E2FC05462D4B1B6813F4807F06D1C3
:1059F000FCF7DAFC401B6428F5D90320F4E0A36827
:105A0000012B0AD00BBB244B1A6F22F001021A673C
:105A10001A6F22F004021A6704E01F4A136F43F062
:105A200001031367A36833B3FCF7BEFC05461A4BAA
:105A30001B6F13F0020FACD1FCF7B6FC401B41F218
:105A400088339842F3D90320CEE0052B09D0124BBE
:105A50001A6F22F001021A671A6F22F004021A6705
:105A6000E0E70D4B1A6F42F004021A671A6F42F01A
:105A700001021A67D6E7FCF797FC0546064B1B6F39
:105A800013F0020F85D0FCF78FFC401B41F28833E6
:105A90009842F3D90320A7E0004402580048025876
:105AA000594A136823F080731360FCF77DFC0546A8
:105AB000554B1B6813F0007F06D0FCF775FC401BAC
:105AC0000228F5D903208FE04F4B996A4F4A0A40CC
:105AD000A16AE06A41EA00110A439A62226B013A24
