:020000040800F2
:100000000040002081140008D9100008E110000809
:10001000E3100008E5100008E710000800000000E9
:10002000000000000000000000000000E9100008CF
:10003000EB10000800000000ED100008EF100008B1
:10004000D1140008D1140008D1140008D1140008FC
:10005000D1140008D1140008D1140008D1140008EC
:10006000D1140008D1140008D1140008F9100008B8
:100070000911000819110008291100083911000898
:100080004911000859110008D1140008D1140008C2
:10009000D1140008D1140008D1140008D1140008AC
:1000A000D1140008D1140008D1140008D11400089C
:1000B000D1140008D1140008D1140008D11400088C
:1000C000D1140008D1140008D1140008D11400087C
:1000D00069110008D114000879110008D114000832
:1000E000D1140008D114000800000000D114000849
:1000F000D1140008D1140008D11400088911000897
:10010000D1140008D1140008D1140008D11400083B
:10011000D1140008D1140008D1140008D11400082B
:10012000D1140008D1140008D1140008D11400081B
:10013000D1140008D1140008D1140008D11400080B
:1001400000000000000000000000000000000000AF
:10015000D1140008D1140008D1140008D1140008EB
:10016000D1140008D1140008D1140008D1140008DB
:10017000D1140008D1140008D114000800000000B8
:10018000D1140008D1140008D1140008D1140008BB
:10019000D1140008D1140008D114000899110008E6
:1001A000D1140008D1140008D1140008B1110008BE
:1001B000D1140008D1140008D1140008D11400088B
:1001C000D1140008D1140008D1140008D11400087B
:1001D000D1140008D1140008D1140008D11400086B
:1001E000D1140008D1140008D1140008D11400085B
:1001F000D1140008D1140008D1140008D11400084B
:10020000D1140008D1140008D1140008D11400083A
:10021000D1140008D1140008D1140008D11400082A
:10022000D1140008D1140008D11400080000000007
:10023000D1140008D114000800000000D1140008F7
:10024000D1140008D1140008D1140008D1140008FA
:10025000D1140008D1140008D1140008D1140008EA
:10026000D1140008D1140008D1140008D1140008DA
:10027000D1140008D1140008D114000800000000B7
:10028000D1140008D1140008D114000800000000A7
:0802900000000000D114000879
:1002980010B5054C237833B9044B13B10448AFF3B8
:1002A80000800123237010BD74200024000000008A
:1002B8003496000808B5034B1BB103490348AFF354
:1002C800008008BD00000000782000243496000853
:1002D80053B94AB9002908BF00281CBF4FF0FF31A5
:1002E8004FF0FF3000F074B9ADF1080C6DE904CEA1
:1002F80000F006F8DDF804E0DDE9022304B07047F9
:100308002DE9F047089D04468E46002B4DD18A42C0
:10031800944669D9B2FA82F252B101FA02F3C2F1F3
:10032800200120FA01F10CFA02FC41EA030E944084
:100338004FEA1C48210CBEFBF8F61FFA8CF708FBA5
:1003480016E341EA034306FB07F199420AD91CEB7D
:10035800030306F1FF3080F01F81994240F21C81AF
:10036800023E63445B1AA4B2B3FBF8F008FB1033F7
:1003780044EA034400FB07F7A7420AD91CEB04042C
:1003880000F1FF3380F00A81A74240F207816444FC
:10039800023840EA0640E41B00261DB1D440002381
:1003A800C5E900433146BDE8F0878B4209D9002DE5
:1003B80000F0EF800026C5E9000130463146BDE86F
:1003C800F087B3FA83F6002E4AD18B4202D38242D9
:1003D80000F2F980841A61EB030301209E46002D88
:1003E800E0D0C5E9004EDDE702B9FFDEB2FA82F2DD
:1003F800002A40F09280A1EB0C014FEA1C471FFA3B
:100408008CFE0126200CB1FBF7F307FB131140EA21
:1004180001410EFB03F0884208D91CEB010103F1EE
:10042800FF3802D2884200F2CB804346091AA4B2B0
:10043800B1FBF7F007FB101144EA01440EFB00FE84
:10044800A64508D91CEB040400F1FF3102D2A645E9
:1004580000F2BB800846A4EB0E0440EA03409CE788
:10046800C6F12007B34022FA07FC4CEA030C20FA35
:1004780007F401FA06F31C43F9404FEA1C4900FA55
:1004880006F3B1FBF9F8200C1FFA8CFE09FB1811D2
:1004980040EA014108FB0EF0884202FA06F20BD945
:1004A8001CEB010108F1FF3A80F08880884240F295
:1004B8008580A8F102086144091AA4B2B1FBF9F0D9
:1004C80009FB101144EA014100FB0EFE8E4508D9D4
:1004D8001CEB010100F1FF346CD28E456AD9023859
:1004E800614440EA0840A0FB0294A1EB0E01A1423E
:1004F800C846A64656D353D05DB1B3EB080261EBAC
:100508000E0101FA07F722FA06F3F1401F43C5E985
:10051800007100263146BDE8F087C2F12003D840BB
:100528000CFA02FC21FA03F3914001434FEA1C47FD
:100538001FFA8CFEB3FBF7F007FB10360B0C43EAEF
:10054800064300FB0EF69E4204FA02F408D91CEB9F
:10055800030300F1FF382FD29E422DD9023863449D
:100568009B1B89B2B3FBF7F607FB163341EA03413D
:1005780006FB0EF38B4208D91CEB010106F1FF388C
:1005880016D28B4214D9023E6144C91A46EA004683
:1005980038E72E46284605E70646E3E61846F8E615
:1005A8004B45A9D2B9EB020864EB0C0E0138A3E75E
:1005B8004646EAE7204694E74046D1E7D0467BE73F
:1005C800023B614432E7304609E76444023842E7B7
:1005D800704700BF00B583B0274BD3F8D82042F04E
:1005E8000102C3F8D820D3F8D83003F001030193EF
:1005F800019B002211460B2001F068F90B2001F045
:1006080099F9002211460C2001F060F90C2001F044
:1006180091F9002211460D2001F058F90D2001F042
:1006280089F9002211460E2001F050F90E2001F040
:1006380081F9002211460F2001F048F90F2001F03E
:1006480079F900221146102001F040F9102001F03C
:1006580071F900221146112001F038F9112001F03A
:1006680069F9002211462F2001F030F92F2001F0FE
:1006780061F903B05DF804FB0044025886B0254BCD
:10068800D3F8E02042F01002C3F8E020D3F8E020CD
:1006980002F010020092009AD3F8E02042F08002A3
:1006A800C3F8E020D3F8E02002F080020192019A1A
:1006B800D3F8E02042F00402C3F8E020D3F8E020A9
:1006C80002F004020292029AD3F8E02042F00102FA
:1006D800C3F8E020D3F8E02002F001020392039A65
:1006E800D3F8E02042F00202C3F8E020D3F8E0207B
:1006F80002F002020492049AD3F8E02042F00802C1
:10070800C3F8E020D3F8E03003F008030593059B15
:1007180006B070470044025808B51348134B0360ED
:1007280040F614634360002383600122C2600361C2
:1007380043618361C361036203F00CFB50B900217C
:10074800094803F039FC40B90021074803F062FC6E
:1007580030B908BD00F011F9F1E700F00EF9F3E740
:1007680000F00BF9F5E700BF90200024001C0058AA
:1007780010B5B6B0044600213191329133913491CD
:100788003591BC2202A808F053FE22681C4B9A42FD
:1007980001D036B010BD102302934FF44073279355
:1007A80002A804F077FB40BB164CD4F8E03043F0C5
:1007B8000803C4F8E030D4F8E03003F008030093ED
:1007C800009B4FF440533193122332930023339309
:1007D800022334930423359331A90B4803F010F80E
:1007E800D4F8F43043F08003C4F8F430D4F8F4308B
:1007F80003F080030193019BCBE700F0BEF8D3E739
:10080800001C005800440258000C025800B59FB064
:100818004C2200210BA808F00BFE2022002103A87F
:1008280008F006FE022003F021FC002300933F4B52
:10083800DA6A22F00102DA62DB6A03F0010300934C
:100848003B4B9A6942F440429A619B6903F44043E6
:100858000093009B364A936913F4005FFBD0354B35
:10086800D3F8F42042F00202C3F8F420D3F8F430AD
:1008780003F002030193019B002302932C4B9A6916
:1008880042F440429A619B6903F440430293274B28
:10089800DA6A42F00102DA62DB6A03F001030293CA
:1008A800029B234A936913F4005FFBD0214A936AA1
:1008B80023F0030343F00203936211230B934FF4D5
:1008C80080330C93802312932023139302231493D1
:1008D80015930322169278221792189319931A9354
:1008E8000C231B9300231C931D930BA803F0E6FB1A
:1008F800C0B93F23039303230493002305930823DC
:1009080006934023079308934FF4806209920A9351
:10091800042103A804F00AF830B903F007FF1FB058
:100928005DF804FB72B6FEE772B6FEE700040058F5
:10093800004802580044025800B5B1B0A022002176
:1009480008A808F075FD4FF440730193052302933E
:1009580040230393192204920222059206928022D0
:10096800079201221692179301A804F093FA10B97E
:1009780031B05DF804FB72B6FEE772B6FEE7000020
:1009880000B585B00024009401940294039400F00B
:10099800F3FF01238DF800308DF801404FF010521D
:1009A80001920C228DF808208DF809408DF80A4034
:1009B80003228DF80B208DF80C308DF80D308DF852
:1009C8000E408DF80F30684600F0F4FF042000F068
:1009D800E1FF3F4B5B6913F4003F12D1BFF34F8F28
:1009E800BFF36F8F3A4BC3F85042BFF34F8FBFF33B
:1009F8006F8F5A6942F400325A61BFF34F8FBFF3C9
:100A08006F8F334B5B6913F4803F29D1304B002241
:100A1800C3F88420BFF34F8FD3F88030C3F3C90ED7
:100A2800C3F34E335C0143F6E07C294804EA0C0129
:100A3800734641EA8372C0F86022013BB3F1FF3F7D
:100A4800F7D1203C14F1200FF0D1BFF34F8F204A8B
:100A5800536943F480335361BFF34F8FBFF36F8FF4
:100A680000F0C8FEFFF7D2FEFFF766FFFFF706FEAD
:100A780000F038F8FFF7AEFD00F068F8FFF74CFE1D
:100A880000F038FC00F024FA362000F038FE362159
:100A98006FF0070000F01AFE342000F030FE342119
:100AA8006FF0070000F012FE02210A4800F00EFD68
:100AB8000121094800F00AFD084807F0D1FE08485E
:100AC80000F098FD054C204607F07AFEFBE700BFD2
:100AD80000ED00E03800002400000024D447002086
:100AE8007000002408B51548154B036003234360C4
:100AF800002181604161C1610122C260C16201635C
:100B08004163022305F0C4FE88B90E480E4B03600A
:100B1800022343600122826000214161C161C260F9
:100B2800C1620163416305F0B3FE18B908BDFFF760
:100B380024FFEAE7FFF721FFF8E700BFC4220024FB
:100B480004580140F42300242458014008B51448EF
:100B5800144B036003234360022383600021416137
:100B6800C161C16201634163012205F091FE80B950
:100B78000D480E4B036002234360836000214161EE
:100B8800C161C16201634163012205F081FE18B9A8
:100B980008BDFFF7F2FEEBE7FFF7EFFEF8E700BF4F
:100BA8005C230024045C01408C240024245C014064
:100BB8002DE9F0418AB004460268A44B9A4210D04D
:100BC8002268A34B9A4268D02268A24B9A4200F04E
:100BD800B5802268A04B9A4200F0FF800AB0BDE8B9
:100BE800F0819E4B1B68002B3ED09C4A1368013352
:100BF80013603023059302260696002507954FF0CB
:100C08000308CDF820800627099705A9944802F023
:100C1800F7FD059606960795CDF82080099705A952
:100C2800904802F0EDFD9048904B036057234360D5
:100C38008560C5604FF4806303614FF400634361CE
:100C48004FF4005383614FF48073C3614FF4003352
:100C58000362456201F03CF9E0B9834BC4F8843083
:100C68009C63C4F88030ABE7814BD3F8F02042F4A2
:100C78008002C3F8F020D3F8F03003F48003019326
:100C8800019B00221146572000F020FE572000F05B
:100C980051FEAAE7FFF771FEDFE7704B1B68002BD8
:100CA80033D06E4A13680133136008230593022377
:100CB800069300250795032308930623099305A99E
:100CC800674802F09DFD6B486B4B036058234360F7
:100CD80040238360C5604FF4806303614FF4006371
:100CE80043614FF4005383614FF48073C3614FF441
:100CF80000330362456201F0EBF8E0B95D4BC4F8DC
:100D080084309C63C4F880305EE7594BD3F8F020F8
:100D180042F48002C3F8F020D3F8F03003F48003E3
:100D28000293029B00221146572000F0CFFD572066
:100D380000F000FEB5E7FFF720FEDFE74F4B1B682A
:100D4800002B31D04D4A1368013313604FF400660D
:100D580005960223069300250795032308930A2383
:100D6800099305A9464802F04BFD4648464B0360E7
:100D7800592343608560C5604FF480630361466111
:100D88004FF4005383614FF48073C3614FF4803391
:100D98000362456201F09CF8E0B93A4BC4F884302C
:100DA8009C63C4F8803014E7314BD3F8F02042F448
:100DB8000002C3F8F020D3F8F03003F400030393E3
:100DC800039B002211465B2000F080FD5B2000F0B1
:100DD800B1FDB7E7FFF7D1FDDFE7284B1B68002B14
:100DE8005AD0264A1368013313600123059302235E
:100DF800069300250795032308930A23099305A959
:100E0800224802F0FDFC2248224B03605A2343602B
:100E180040238360C5604FF4806303614FF400632F
:100E280043614FF4005383614FF48073C3614FF4FF
:100E380080330362456201F04BF8002842D1144B1D
:100E4800C4F884309C63C4F88030C7E60458014075
:100E580024580140045C0140245C0140DC2000244B
:100E68000010025800080258E42000244000024004
:100E7800004402585C21002458000240E02000246D
:100E8800000C0258D421002410000240000002582F
:100E98004C220024280002400C4BD3F8F02042F4E6
:100EA8000002C3F8F020D3F8F03003F400030493F1
:100EB800049B002211465B2000F008FD5B2000F037
:100EC80039FD8EE7FFF759FDB9E700BF0044025826
:100ED80008B51348134B03604FF4800343600023A5
:100EE80083600F22C260036143614FF00052826148
:100EF800C361036243628362C3624FF0804242630C
:100F08008363C363036443648364C36403654365A1
:100F1800836506F019F900B908BDFFF72EFDFBE758
:100F28001426002400380040F0B5B9B0044600216A
:100F380033913491359136913791BC2204A808F049
:100F480077FA2268514B9A4201D039B0F0BD4FF47C
:100F58008053049308230D9360230E9303230F9368
:100F68000422109211934FF4806312934FF40053AC
:100F78001B9304A803F08EFF00287DD1444BD3F8BF
:100F8800E82042F48042C3F8E820D3F8E82002F4CD
:100F980080420192019AD3F8E02042F00402C3F89B
:100FA800E020D3F8E02002F004020292029AD3F87B
:100FB800E02042F00202C3F8E020D3F8E03003F06A
:100FC80002030393039B0C233393022734970025D2
:100FD800359536950526379633A92E4802F010FC2C
:100FE8004FF4A0533393349735953695379633A9F4
:100FF800294802F005FC2948294B03602723436050
:101008008560C5604FF4806303614FF400634361FA
:101018004FF4005383614FF48073C36105624562E6
:1010280000F056FF58BB1D4BE3679C631D481E4BE1
:10103800036028234360402383600023C3604FF488
:10104800806202614FF4006242614FF40052826193
:101058004FF48072C2610362436200F039FF88B9BD
:10106800104BA3679C6300221146242000F02EFC3D
:10107800242000F05FFC68E7FFF77FFC7EE7FFF7BE
:101088007CFCD0E7FFF779FCEAE700BF00380040B6
:10109800004402580008025800040258242500247D
:1010A800A00002409C250024B800024082B0074BF3
:1010B800D3F8F42042F00202C3F8F420D3F8F43055
:1010C80003F002030193019B02B0704700440258E9
:1010D80008B503F0CBFDFEE7FEE7FEE7FEE7FEE717
:1010E80070477047704708B500F0B2FB08BD0000B4
:1010F80008B5024801F0C6FE08BD00BFD42100248F
:1011080008B5024801F0BEFE08BD00BF4C2200240D
:1011180008B5024801F0B6FE08BD00BFE42000246F
:1011280008B5024801F0AEFE08BD00BF5C210024EE
:1011380008B5024801F0A6FE08BD00BFA02600249D
:1011480008B5024801F09EFE08BD00BF182700241C
:1011580008B5024801F096FE08BD00BF242500240A
:1011680008B5024806F0A6F808BD00BF14260024FA
:1011780008B5024806F0D6FA08BD00BF902700243B
:1011880008B5024801F07EFE08BD00BF9C2500247A
:1011980008B5034805F024FE024805F021FE08BD05
:1011A800C4220024F423002408B5034805F018FEDF
:1011B800024805F015FE08BD5C2300248C24002499
:1011C8000120704708B508F001F9162303604FF0B5
:1011D800FF3008BD08B508F0F9F816230360FEE7EC
:1011E80008B503460C4A126852B10B4A106803440A
:1011F8000A4A0B49521A934206D8074A136008BD97
:10120800054A08491160F0E708F0E0F80C2303608C
:101218004FF0FF30F3E700BF9C2600240040002079
:101228000024000000000020274AD2F8883043F448
:101238007003C2F88830254B1B6803F00F03062B98
:1012480006D8224A136823F00F0343F007031360FC
:101258001F4B1A6842F001021A6000221A611968CD
:101268001C4A0A401A60194B1B6813F0080F06D075
:10127800164A136823F00F0343F007031360144B57
:1012880000229A61DA611A62134999621349D96294
:10129800134919635A639963DA6319645A641968BC
:1012A80021F4802119601A660E4B1A680E4B134000
:1012B800B3F1005F03D20D4B0122C3F808210C4B98
:1012C80043F2D2021A60704700ED00E0002000529D
:1012D800004402587FEDF6EA000202020000FF0116
:1012E800800201010010005C0000FFFF0080005137
:1012F8000040005208B51748174B03604FF4E1331C
:10130800436000238360C36003610C2242618361F0
:10131800C36103624362836207F084F870B90021F5
:101328000C4807F081F960B900210A4807F0A1F9D3
:1013380050B9084807F059F948B908BDFFF71DFB2F
:10134800EDE7FFF71AFBEFE7FFF717FBF1E7FFF70A
:1013580014FBF2E7902700240044004030B5B7B0F2
:101368000446002131913291339134913591BC2258
:1013780002A808F05DF82268384B9A4201D037B0CD
:1013880030BD0223029302A803F084FD00285CD13B
:10139800334BD3F8E82042F40032C3F8E820D3F8FE
:1013A800E82002F400320092009AD3F8E02042F0DC
:1013B8000102C3F8E020D3F8E03003F00103019301
:1013C800019B0C23319302233293002533953495E6
:1013D8000723359331A9234802F012FA2248234BF8
:1013E80003602B2343608560C5604FF4806303610D
:1013F800456185614FF48073C3610562456200F001
:1014080067FD28BB184BE3679C631948194B0360B9
:101418002C234360402383600023C3604FF4806221
:10142800026143618361C3610362436200F050FD5E
:1014380088B90F4BA3679C6300221146262000F051
:1014480045FA262000F076FA99E7FFF796FA9FE723
:10145800FFF793FAD6E7FFF790FAEAE7004400406F
:101468000044025800000258A026002470000240E0
:101478001827002488000240DFF834D0FFF7D4FE94
:101488000C480D490D4A002302E0D458C4500433D7
:10149800C4188C42F9D30A4A0A4C002301E01360AD
:1014A8000432A242FBD307F097FFFFF769FA7047AF
:1014B80000400020002000247420002488970008A1
:1014C8007420002444280024FEE7000038B50446B0
:1014D8000D46012914D002291FD072B625700023A9
:1014E800E360236123756375A37504F11803283439
:1014F800002223F8022BDA81A342FAD162B638BD62
:10150800082200F118010B4805F0A0FB082204F19D
:101518002801094805F018FBDFE7082200F1180147
:10152800064805F093FB082204F12801044805F059
:101538000BFBD2E7C4220024F42300245C230024FC
:101548008C2400240246437D017D19440C3130F976
:1015580011000133DBB2032B88BF0023537570479A
:10156800837D027D1A44143220F812100133DBB255
:10157800032B88BF00238375704703691BB9C368B1
:1015880033B90020704700230361037501207047B9
:101598000023C3600423037501207047074B98425A
:1015A80003D0074B984204D07047064B01221A61BA
:1015B800F7E7044B01229A64F6E700BFC42200242F
:1015C8005C23002400000024074B984203D0074BFB
:1015D800984204D07047064B0122DA60F7E7044BC3
:1015E80001225A64F6E700BFC42200245C230024C9
:1015F8000000002408B5014600230370437083707F
:10160800C370037143718371C371037283740522BC
:10161800014806F095FF08BD90270024807C70479C
:1016280008B50422411D024805F0BEFF08BD00BFF1
:101638009027002403784372437883728378C372B7
:10164800C378037303794373012383747047837BDF
:101658004371C37B8371037CC371437C03727047FE
:1016680008B5044B834200D008BD0348FFF7E2FFEA
:10167800FAE700BF902700247000002408B5002373
:10168800A0F85E300148FFF7B5FF08BD70000024E0
:10169800F0B587B0C1F3002444EA4004A4B28DF841
:1016A80017101546084F0A260296012301930DF1DB
:1016B8001700009022462946384602F0A5FB00286C
:1016C800F2D107B0F0BD00BF9020002438B50D4618
:1016D80000F149034F2B0DD800F17904A4B22A4632
:1016E80021460220FFF7D4FF2A4621460320FFF7B0
:1016F800CFFF38BD0628CCBF7F240024EEE710B505
:101708000446642000F0B6F8224600210F20FFF7B7
:10171800BFFF224610210620FFF7BAFF22461721F5
:101728000020FFF7B5FF224617210120FFF7B0FF81
:10173800224679210220FFF7ABFF224679210320B8
:10174800FFF7A6FF224612210420FFF7A1FF224639
:1017580003210520FFF79CFF342C14D022460221D8
:101768000720FFF795FF224600210820FFF790FF8A
:10177800224662210620FFF78BFF2246012109201D
:10178800FFF786FF10BD342242210720FFF780FFB4
:10179800342240210820FFF77BFF34220221062053
:1017A800FFF776FFE9E700000F4B1B780BB9012024
:1017B800704710B504464FF47A70B0FBF3F30B4A48
:1017C8001068B0FBF3F000F0C3F80F2C00D808B194
:1017D800012010BD002221464FF0FF3000F076F8BE
:1017E800034B1C600020F4E708200024002000249C
:1017F8000C20002410B5032000F056F802F09EFFDC
:101808000F498B690F4AC3F30323D35C03F01F030B
:10181800D8408B6903F00F03D35C03F01F0320FA51
:1018280003F3094A1360094B18600F20FFF7BCFF48
:1018380010B10124204610BD0446FFF737FCF9E734
:10184800004402584C96000804200024002000247C
:10185800034A1168034B1B780B441360704700BFA1
:101868002028002408200024014B1868704700BF76
:101878002028002438B50446FFF7F6FF0546B4F1E2
:10188800FF3F02D0044B1B781C44FFF7EDFF401BC1
:10189800A042FAD338BD00BF08200024014B1868C5
:1018A800000C70470010005C064AD368000200F480
:1018B800E06023F4E0631B041B0C1843024B034352
:1018C800D360704700ED00E00000FA0500B5164B44
:1018D800DB68C3F30223C3F1070CBCF1040F28BF74
:1018E8004FF0040C03F1040EBEF1060F8CBF033B4E
:1018F80000234FF0FF3E0EFA0CFC21EA0C01994040
:101908000EFA03F322EA03021143002805DB09015A
:10191800C9B2064B19545DF804FB00F00F00090129
:10192800C9B2034B1954F6E700ED00E000E400E00B
:1019380014ED00E0002808DB420900F01F00012335
:1019480003FA00F0014B43F82200704700E100E081
:101958000138B0F1807F0BD24FF0E0235861054A7F
:10196800F02182F823100020986107221A6170473D
:101978000120704700ED00E0BFF35F8F044B5A6A07
:1019880022F480325A620022C3F89420704700BFC4
:1019980000ED00E040F00100054BC3F894005A6ADE
:1019A80042F480325A62BFF34F8FBFF36F8F704794
:1019B80000ED00E04278164BC3F898200378FBB19D
:1019C8004368134AC2F89C30017BC37A1B0643EA7A
:1019D800017301780B43817A43EAC143417B43EAAF
:1019E8008143817B43EA4143C17B43EA0143417A16
:1019F80043EA0123017A43EA4103C2F8A030704761
:101A0800034B0022C3F89C20C3F8A020704700BFF6
:101A180000ED00E0F0B4866D0568914C914FBD4231
:101A280018BFA5420CBF012400241837BD4208BFC7
:101A380044F001041837BD4208BF44F001041837C8
:101A4800BD4208BF44F001041837BD4208BF44F046
:101A580001041837BD4208BF44F001041837BD42DD
:101A680008BF44F0010407F55677BD4208BF44F0AB
:101A780001041837BD4208BF44F001041837BD42BD
:101A880008BF44F001041837BD4208BF44F0010400
:101A98001837BD4208BF44F001041837BD4208BFDB
:101AA80044F001041837BD4208BF44F00104183758
:101AB800BD4208BF44F001046B4FBD4208BF44F06B
:101AC80001041437BD4208BF44F001041437BD4275
:101AD80008BF44F001041437BD4208BF44F00104B4
:101AE8001437BD4208BF44F001041437BD4208BF93
:101AF80044F001041437BD4208BF44F0010414B98E
:101B08005A4CA54207D1446E856E6560C46E14B107
:101B1800046F456F65600568514C524FBD4218BF50
:101B2800A5420CBF012400241837BD4208BF44F069
:101B380001041837BD4208BF44F001041837BD42FC
:101B480008BF44F001041837BD4208BF44F001043F
:101B58001837BD4208BF44F001041837BD4208BF1A
:101B680044F0010407F55677BD4208BF44F001046C
:101B78001837BD4208BF44F001041837BD4208BFFA
:101B880044F001041837BD4208BF44F00104183777
:101B9800BD4208BF44F001041837BD4208BF44F0F5
:101BA80001041837BD4208BF44F0010414B9304C91
:101BB800A54215D1C46D04F01F053F24AC40B460A4
:101BC80005682C6824F480242C60046863608368AA
:101BD800402B3AD0036899600368DA60F0BC70471C
:101BE800214C244FBD4218BFA5420CBF012400243C
:101BF8001437BD4208BF44F001041437BD4208BF82
:101C080044F001041437BD4208BF44F001041437FE
:101C1800BD4208BF44F001041437BD4208BF44F078
:101C2800010414B9114CA542D8D1C46D04F01F05A4
:101C38000124AC407460046863608368402B09D059
:101C4800036899600368DA60C8E703689A60036804
:101C5800D960C3E703689A600368D960BEE700BF2C
:101C680010000240280002400854025894540258B8
:101C7800B80402401C5402580268344B34498A4262
:101C880018BF9A420CBF0123002318318A4208BFAB
:101C980043F0010318318A4208BF43F001031831A9
:101CA8008A4208BF43F0010318318A4208BF43F053
:101CB800010318318A4208BF43F0010318318A42F0
:101CC80008BF43F0010301F556718A4208BF43F08B
:101CD800010318318A4208BF43F0010318318A42D0
:101CE80008BF43F0010318318A4208BF43F00103DB
:101CF80018318A4208BF43F0010318318A4208BFED
:101D080043F0010318318A4208BF43F0010313B9B5
:101D1800104B9A4215D110B4D1B210390E4BA3FB17
:101D28000143C3F302130D4CE35CC3655F290C4BFD
:101D380003EA020388BF04338365806D5DF8044BB2
:101D4800704722F0FF028265806D704710000240E4
:101D580028000240B8040240ABAAAAAA5C96000870
:101D680000FCFFFF0368284A28498B4218BF9342AA
:101D78000CBF0122002214318B4208BF42F001023D
:101D880014318B4208BF42F0010214318B4208BF64
:101D980042F0010214318B4208BF42F001021431B3
:101DA8008B4208BF42F0010212B9194A934212D17C
:101DB800DBB2083B174AA2FB0323174A02EB1312B4
:101DC80092000266154A4266C3F30413012202FA1E
:101DD80003F383667047DAB2103A1149A1FB021285
:101DE800120910491944A8290CD90F4B13449B0018
:101DF80003660E4B436602F01F02012303FA02F248
:101E0800826670470832F0E7085402581C5402589A
:101E180094540258CDCCCCCC009600168058025869
:101E2800ABAAAAAAF0FBFDBF0082001080080240FE
:101E380090F804C00CF1FF3107293AD810B40268B1
:101E48001C4B1D4CA24218BF9A420CBF0123002311
:101E58001434A24208BF43F001031434A24208BF5D
:101E680043F001031434A24208BF43F001031434C1
:101E7800A24208BF43F001031434A24208BF43F052
:101E8800010313B90D4B9A420CD10D4B63449B00CF
:101E9800C3660C4B0367012303FA01F141675DF840
:101EA800044B7047084B63449B00C366074B0367AA
:101EB800F1E77047085402581C54025894540258C9
:101EC8003F960016405902583F82001040090240D0
:101ED80038B50446FFF7C8FC002C00F00C82054614
:101EE8002268644B64498A4218BF9A420CBF012396
:101EF800002318318A4208BF43F0010318318A428F
:101F080008BF43F0010318318A4208BF43F00103B8
:101F180018318A4208BF43F0010318318A4208BFCA
:101F280043F0010318318A4208BF43F0010301F569
:101F380056718A4208BF43F0010318318A4208BF2C
:101F480043F0010318318A4208BF43F001031831F6
:101F58008A4208BF43F0010318318A4208BF43F0A0
:101F6800010318318A4208BF43F0010318318A423D
:101F780008BF43F0010313B9404B9A421AD1022318
:101F880084F83530002384F83430136823F00103D3
:101F9800136023681A6812F0010F7DD0FFF764FC04
:101FA800431B052BF5D920236365032384F83530BB
:101FB800012038BD324B33498A4218BF9A420CBFC0
:101FC8000123002314318A4208BF43F0010314316E
:101FD8008A4208BF43F0010314318A4208BF43F024
:101FE800010314318A4208BF43F0010314318A42C5
:101FF80008BF43F001031BB9234B9A4240F06581A7
:10200800022384F83530002384F8343013681F48DD
:102018001840A368402B00F05F81802B0CBF4FF461
:1020280080410021E5682369DB0843EAD503656937
:1020380043EAD503A56943EAD503E56943EAD5032D
:10204800256A43EA151303430B4313602268104BB8
:102058001344104AA2FB03231B099B00E365204697
:10206800FFF70AFEE26D02F01F0101228A4042607A
:102078005EE000BF1000024028000240B8040240A1
:10208800085402581C540258945402580F00FEFF7A
:10209800F8ABFDA7CDCCCCCC1A689A481040A16803
:1020A800E2680A4321690A4361690A43A1690A434C
:1020B800E1690A43216A0A430243616A042900F07C
:1020C800C8809149086891490140B1F1005F0DD37A
:1020D8006168A1F129001F2800F20F818C4921FABB
:1020E80000F010F0010F01D042F480121A6021684C
:1020F8004A6922F00702636A1A43042B0ED1A06AC8
:102108000243E36A53B1A569002D40F0B880012865
:1021180000F0AF8030F0020000F0A0804A61204655
:10212800FFF7AAFDE36D03F01F023F23934083608E
:102138002268784B78498A4218BF9A420CBF01231B
:10214800002318318A4208BF43F0010318318A423C
:1021580008BF43F0010318318A4208BF43F0010366
:1021680018318A4208BF43F0010318318A4208BF78
:1021780043F0010318318A4208BF43F0010301F517
:1021880056718A4208BF43F0010318318A4208BFDA
:1021980043F0010318318A4208BF43F001031831A4
:1021A8008A4208BF43F0010318318A4208BF43F04E
:1021B800010318318A4208BF43F0010318318A42EB
:1021C80008BF43F0010318318A4208BF43F00103F6
:1021D80052498A4208BF43F0010314318A4208BFBA
:1021E80043F0010314318A4208BF43F0010314315C
:1021F8008A4208BF43F0010314318A4208BF43F002
:10220800010314318A4208BF43F0010314318A42A2
:1022180008BF43F0010313B9414B9A4213D120463A
:10222800FFF7A0FDA368802B58D0236E22791A608F
:10223800636EA26E5A606368013B072B51D9002375
:10224800E3662367636700206065012384F83530FF
:10225800AFE6E16A206B01430A4332E7C3F3006348
:10226800002B3FF45BAF40236365012084F8350001
:102278009FE6B3F1C07F14BF00230123F0E7B5F553
:10228800005F0AD00228EED903287FF447AFC3F3D2
:102298000063002B3FF442AFE5E703283FF63EAF6B
:1022A80001A555F820F000BF6F220008C1220008E0
:1022B8006F220008C7220008C3F30063E9E7B3F1FF
:1022C800C07F14BF00230123E3E740236365032392
:1022D80084F8353001206CE61021A3E60023636002
:1022E800A3E72046FFF7A4FDE36E00221A60236FE0
:1022F800626F5A60A7E701205BE64F3903297FF632
:10230800F3AEF3E63F8010FE0010005C0000FFFF14
:102318003F00C0C310000240280002400854025881
:1023280094540258002800F0D28170B5044690F801
:102338003400012800F0CD81012084F8340094F89D
:102348003500C0B2012807D04FF40063636500234D
:1023580084F83430012070BD022084F83500002054
:10236800606525689548964EB54218BF85420CBFF2
:10237800012000201836B54208BF40F00100183689
:10238800B54208BF40F001001836B54208BF40F01A
:1023980001001836B54208BF40F001001836B542B2
:1023A80008BF40F001001836B54208BF40F00100F0
:1023B80006F55676B54208BF40F001001836B5421A
:1023C80008BF40F001001836B54208BF40F00100D0
:1023D8001836B54208BF40F001001836B54208BFAC
:1023E80040F001001836B54208BF40F00100183629
:1023F800B54208BF40F0010018B97248854240F064
:102408004B81286820F0010028602046FFF702FB76
:1024180022686A4B6A498A4218BF9A420CBF012354
:10242800002318318A4208BF43F0010318318A4259
:1024380008BF43F0010318318A4208BF43F0010383
:1024480018318A4208BF43F0010318318A4208BF95
:1024580043F0010318318A4208BF43F0010301F534
:1024680056718A4208BF43F0010318318A4208BFF7
:1024780043F0010318318A4208BF43F001031831C1
:102488008A4208BF43F0010318318A4208BF43F06B
:10249800010318318A4208BF43F0010318318A4208
:1024A80008BF43F001031BB9464B9A4240F0F9803C
:1024B800136823F01E0343F016031360236C23B143
:1024C8002268136843F00803136022683B4B3C49B9
:1024D8008A4218BF9A420CBF0123002318318A424E
:1024E80008BF43F0010318318A4208BF43F00103D3
:1024F80018318A4208BF43F0010318318A4208BFE5
:1025080043F0010318318A4208BF43F00103183130
:102518008A4208BF43F0010301F556718A4208BF99
:1025280043F0010318318A4208BF43F00103183110
:102538008A4208BF43F0010318318A4208BF43F0BA
:10254800010318318A4208BF43F0010318318A4257
:1025580008BF43F0010318318A4208BF43F0010362
:1025680018318A4208BF43F0010317498A4208BF5D
:1025780043F0010314318A4208BF43F001031431C8
:102588008A4208BF43F0010314318A4208BF43F06E
:10259800010314318A4208BF43F0010314318A420F
:1025A80008BF43F0010314318A4208BF43F0010316
:1025B80073B9064B9A421AD10AE000BF10000240D4
:1025C80028000240B80402400854025894540258A3
:1025D800236E1A6812F4803F03D01A6842F480729E
:1025E8001A60E36E1BB11A6842F480721A6022689E
:1025F800394B3A498A4218BF9A420CBF012300233B
:1026080018318A4208BF43F0010318318A4208BFD3
:1026180043F0010318318A4208BF43F0010318311F
:102628008A4208BF43F0010318318A4208BF43F0C9
:10263800010318318A4208BF43F0010301F55671BE
:102648008A4208BF43F0010318318A4208BF43F0A9
:10265800010318318A4208BF43F0010318318A4246
:1026680008BF43F0010318318A4208BF43F0010351
:1026780018318A4208BF43F0010318318A4208BF63
:1026880043F0010313B9164B9A421AD1136843F069
:102698000103136000205EE6286820F0010028602E
:1026A800B3E6136823F00E0343F00A031360236CA8
:1026B800002B3FF40AAF2268136843F00403136049
:1026C80003E7136843F001031360002043E6012089
:1026D800704702203FE600BF100002402800024079
:1026E800B804024070B50446FFF7BEF8002C00F0AD
:1026F8004882054694F83530DBB2022B06D0802399
:102708006365002384F83430012070BD2268924B41
:1027180092498A4218BF9A420CBF012300231831FC
:102728008A4208BF43F0010318318A4208BF43F0C8
:10273800010318318A4208BF43F0010318318A4265
:1027480008BF43F0010318318A4208BF43F0010370
:1027580018318A4208BF43F0010301F556718A42D5
:1027680008BF43F0010318318A4208BF43F0010350
:1027780018318A4208BF43F0010318318A4208BF62
:1027880043F0010318318A4208BF43F001031831AE
:102798008A4208BF43F0010318318A4208BF43F058
:1027A80001031BB96E4B9A4240F0F780136823F07F
:1027B8001E0313602268536923F08003536126685F
:1027C8002268654B65498A4218BF9A420CBF0123AB
:1027D800002318318A4208BF43F0010318318A42A6
:1027E80008BF43F0010318318A4208BF43F00103D0
:1027F80018318A4208BF43F0010318318A4208BFE2
:1028080043F0010318318A4208BF43F0010301F580
:1028180056718A4208BF43F0010318318A4208BF43
:1028280043F0010318318A4208BF43F0010318310D
:102838008A4208BF43F0010318318A4208BF43F0B7
:10284800010318318A4208BF43F0010318318A4254
:1028580008BF43F0010318318A4208BF43F001035F
:1028680040498A4208BF43F0010314318A4208BF35
:1028780043F0010314318A4208BF43F001031431C5
:102888008A4208BF43F0010314318A4208BF43F06B
:10289800010314318A4208BF43F0010314318A420C
:1028A80008BF43F0010313B92F4B9A4204D1226E9B
:1028B800136823F4807313602268274B27498A42E0
:1028C80018BF9A420CBF0123002318318A4208BF5F
:1028D80043F0010318318A4208BF43F0010318315D
:1028E8008A4208BF43F0010318318A4208BF43F007
:1028F800010318318A4208BF43F0010318318A42A4
:1029080008BF43F0010301F556718A4208BF43F03E
:10291800010318318A4208BF43F0010318318A4283
:1029280008BF43F0010318318A4208BF43F001038E
:1029380018318A4208BF43F0010318318A4208BFA0
:1029480043F0010318318A4208BF43F001036BB911
:10295800034B9A4227D109E01000024028000240A8
:10296800B80402400854025894540258136823F0DB
:1029780001031360336813F0010F19D0FEF774FFD9
:10298800401B0528F6D920236365032384F83530D6
:10299800002384F834300120B7E6136823F00E03CF
:1029A800136026680CE7136823F001031360E1E75E
:1029B8002268754B75498A4218BF9A420CBF012399
:1029C800002318318A4208BF43F0010318318A42B4
:1029D80008BF43F0010318318A4208BF43F00103DE
:1029E80018318A4208BF43F0010318318A4208BFF0
:1029F80043F0010318318A4208BF43F0010301F58F
:102A080056718A4208BF43F0010318318A4208BF51
:102A180043F0010318318A4208BF43F0010318311B
:102A28008A4208BF43F0010318318A4208BF43F0C5
:102A3800010318318A4208BF43F0010318318A4262
:102A480008BF43F001031BB9514B9A4240F09180F3
:102A5800A16DE36D03F01F023F2393408B60226852
:102A6800494B4A498A4218BF9A420CBF01230023A6
:102A780018318A4208BF43F0010318318A4208BF5F
:102A880043F0010318318A4208BF43F001031831AB
:102A98008A4208BF43F0010318318A4208BF43F055
:102AA800010318318A4208BF43F0010301F556714A
:102AB8008A4208BF43F0010318318A4208BF43F035
:102AC800010318318A4208BF43F0010318318A42D2
:102AD80008BF43F0010318318A4208BF43F00103DD
:102AE80018318A4208BF43F0010318318A4208BFEF
:102AF80043F0010318318A4208BF43F00103254916
:102B08008A4208BF43F0010314318A4208BF43F0E8
:102B1800010314318A4208BF43F0010314318A4289
:102B280008BF43F0010314318A4208BF43F0010390
:102B380014318A4208BF43F0010314318A4208BFA6
:102B480043F0010313B9144B9A420BD1636EA26E82
:102B58005A60E36E33B11A6822F480721A60236FE8
:102B6800626F5A60012384F83530002084F83400FD
:102B7800CBE5A16DE36D03F01F02012393404B6089
:102B88006DE70120C1E500BF1000024028000240A7
:102B9800B80402400854025894540258002800F01F
:102BA800628108B5014690F83530DBB2022B03D0BC
:102BB80080234365012008BD02682B4B2B488242C5
:102BC80018BF9A420CBF012300231830824208BF65
:102BD80043F001031830824208BF43F00103183064
:102BE800824208BF43F001031830824208BF43F015
:102BF80001031830824208BF43F0010318308242B3
:102C080008BF43F0010300F55670824208BF43F045
:102C180001031830824208BF43F001031830824292
:102C280008BF43F001031830824208BF43F0010394
:102C38001830824208BF43F001031830824208BFAF
:102C480043F001031830824208BF43F0010313B96F
:102C5800074B9A420ED1042381F83530136823F0CC
:102C6800010313600020A6E710000240280002407C
:102C7800B8040240136823F00E0313600A687C4B03
:102C8800A0F58F60824218BF9A420CBF012300232F
:102C98001830824208BF43F001031830824208BF4F
:102CA80043F001031830824208BF43F00103183093
:102CB800824208BF43F001031830824208BF43F044
:102CC80001031830824208BF43F0010300F5567033
:102CD800824208BF43F001031830824208BF43F024
:102CE80001031830824208BF43F0010318308242C2
:102CF80008BF43F001031830824208BF43F00103C4
:102D08001830824208BF43F001031830824208BFDE
:102D180043F001031BB9574B9A4240F09F80136858
:102D280023F0010313600A68514B5348824218BFCD
:102D38009A420CBF012300231830824208BF43F097
:102D480001031830824208BF43F001031830824261
:102D580008BF43F001031830824208BF43F0010363
:102D68001830824208BF43F001031830824208BF7E
:102D780043F0010300F55670824208BF43F0010397
:102D88001830824208BF43F001031830824208BF5E
:102D980043F001031830824208BF43F001031830A2
:102DA800824208BF43F001031830824208BF43F053
:102DB80001031830824208BF43F0010318308242F1
:102DC80008BF43F001032D48824208BF43F00103C6
:102DD8001430824208BF43F001031430824208BF16
:102DE80043F001031430824208BF43F0010314305A
:102DF800824208BF43F001031430824208BF43F007
:102E080001031430824208BF43F0010313B91C4B7D
:102E18009A4217D10A6E136823F480731360886D81
:102E2800CB6D03F01F020123934043604B6E8A6E03
:102E38005A60CB6E33B11A6822F480721A600B6F35
:102E48004A6F5A60012381F83530002381F8343005
:102E58000B6D53B1084698470020ACE6136823F081
:102E6800010313605FE7012070470020A3E600BF5D
:102E780010000240B80402402800024008540258DA
:102E880094540258F0B583B0044600230193954B3F
:102E98001F68866D356831680268934B9348824293
:102EA80018BF9A420CBF012300231830824208BF82
:102EB80043F001031830824208BF43F00103183081
:102EC800824208BF43F001031830824208BF43F032
:102ED80001031830824208BF43F0010318308242D0
:102EE80008BF43F0010300F55670824208BF43F063
:102EF80001031830824208BF43F0010318308242B0
:102F080008BF43F001031830824208BF43F00103B1
:102F18001830824208BF43F001031830824208BFCC
:102F280043F001031830824208BF43F001031BB984
:102F38006F4B9A4240F08280E36D03F01F03082133
:102F48009940294200F0BE83116811F0040F00F087
:102F5800B983136823F004031360E36D03F01F02C1
:102F680008239340B360636D43F001036365E36D29
:102F780003F01F0325FA03F212F0010F00F0C880D6
:102F8800226859495948824218BF8A420CBF012118
:102F980000211830824208BF41F0010118308242F6
:102FA80008BF41F001011830824208BF41F0010119
:102FB8001830824208BF41F001011830824208BF30
:102FC80041F001011830824208BF41F0010100F5CB
:102FD8005670824208BF41F001011830824208BF92
:102FE80041F001011830824208BF41F00101183058
:102FF800824208BF41F001011830824208BF41F007
:1030080001011830824208BF41F0010118308242A4
:1030180008BF41F0010111B935498A4251D15269BD
:1030280012F0800F6CD1E16D01F01F01042303FA47
:1030380001F10D4200F0D980226853E32D4B2E4850
:10304800824218BF9A420CBF0123002314308242E7
:1030580008BF43F001031430824208BF43F0010364
:103068001430824208BF43F001031430824208BF83
:1030780043F001031430824208BF43F001031BB937
:103088001E4B9A4240F0FD811368E06D00F01F006E
:10309800042585400D4200F0628213F0040F00F011
:1030A8005E82756013F4004F00F0F88113F4803FDE
:1030B80040F0EE81A36C002B00F0E3812046984796
:1030C800DFE11168042101FA03F32B427AD1E36DA1
:1030D80003F01F03102199400D4200F0108322686D
:1030E8007AE000BF002000241000024028000240BF
:1030F800B8040240085402581C5402589454025808
:10310800012202FA03F3B360636D43F002036365BF
:10311800E16D01F01F01042303FA01F1294264D093
:1031280022688E4B8E48824218BF9A420CBF0123F8
:1031380000231830824208BF43F00103183082424E
:1031480008BF43F001031830824208BF43F001036F
:103158001830824208BF43F001031830824208BF8A
:1031680043F001031830824208BF43F0010300F521
:103178005670824208BF43F001031830824208BFEC
:1031880043F001031830824208BF43F001031830AE
:10319800824208BF43F001031830824208BF43F05F
:1031A80001031830824208BF43F0010318308242FD
:1031B80008BF43F00103002B40F09482694B9A4208
:1031C80000F090821368E36D03F01F03102199400B
:1031D8000D4200F0948222681368C3F3800362E012
:1031E800B160636D43F004036365E16D01F01F0195
:1031F800102303FA01F1294200F08182226803F1C9
:10320800804303F500335648824218BF9A420CBFE8
:10321800012300231830824208BF43F0010318300D
:10322800824208BF43F001031830824208BF43F0CE
:1032380001031830824208BF43F00103183082426C
:1032480008BF43F001031830824208BF43F001036E
:1032580000F55670824208BF43F0010318308242DD
:1032680008BF43F001031830824208BF43F001034E
:103278001830824208BF43F001031830824208BF69
:1032880043F001031830824208BF43F001031830AD
:10329800824208BF43F0010313B9324B9A429BD1D3
:1032A8001368C3F3C003002B00F02982B1602368C0
:1032B8001A6812F4802F11D01B6813F4002F06D15E
:1032C800236C002B00F01B822046984717E2A36C62
:1032D800002B00F014822046984710E21A6812F476
:1032E800807F03D11A6822F008021A60236C002B31
:1032F80000F005822046984701E20B68C3F34003BB
:1033080059E22268136823F0160313602268536990
:1033180023F080035361236CBBB12268136823F048
:1033280008031360E36D03F01F023F239340B3606B
:10333800012384F83530002384F83430236D002BC2
:1033480000F09F80204698479BE0A36C002BE4D1B7
:10335800E8E7E36BD3B12046984717E01000024036
:1033680028000240B80402401A6812F4807F09D18C
:103378001A6822F010021A60012384F835300023FD
:1033880084F83430E36B0BB120469847636D002B0B
:1033980077D0636D13F0010F6FD0042384F83530B4
:1033A80022687E4B7E498A4218BF9A420CBF01238D
:1033B800002318318A4208BF43F0010318318A42BA
:1033C80008BF43F0010318318A4208BF43F00103E4
:1033D80018318A4208BF43F0010318318A4208BFF6
:1033E80043F0010318318A4208BF43F0010301F595
:1033F80056718A4208BF43F0010318318A4208BF58
:1034080043F0010318318A4208BF43F00103183121
:103418008A4208BF43F0010318318A4208BF43F0CB
:10342800010318318A4208BF43F0010318318A4268
:1034380008BF43F0010313B95A4B9A4223D11368CA
:1034480023F001031360584BA3FB0737BF0A019B06
:1034580001330193BB4204D823681B6813F0010FA2
:10346800F5D123681B6813F0010F14BF0323012350
:1034780084F83530002384F83430E36C0BB12046EF
:10348800984703B0F0BD136823F001031360DAE72F
:10349800236C002BF5D020469847F2E713F0200F55
:1034A80052D122683D4B3E498A4218BF9A420CBF0E
:1034B8000123002318318A4208BF43F00103183161
:1034C8008A4208BF43F0010318318A4208BF43F01B
:1034D800010318318A4208BF43F0010318318A42B8
:1034E80008BF43F0010318318A4208BF43F00103C3
:1034F80001F556718A4208BF43F0010318318A4228
:1035080008BF43F0010318318A4208BF43F00103A2
:1035180018318A4208BF43F0010318318A4208BFB4
:1035280043F0010318318A4208BF43F00103183100
:103538008A4208BF43F0010313B91A4B9A4209D1D2
:10354800136823F008031360236C002B99D02046DE
:10355800984796E7136823F004031360F4E70225FD
:1035680085400D4200F08A8013F0020F00F086803B
:10357800756013F4004F19D013F4803F06D1636CC3
:10358800002B3FF47EAF204698477AE7E36B002B89
:103598003FF477AF2046984773E700BF100002401A
:1035A80028000240B8040240B5814E1B13F0200FDA
:1035B80058D122688E4B8F498A4218BF9A420CBF55
:1035C8000123002318318A4208BF43F00103183150
:1035D8008A4208BF43F0010318318A4208BF43F00A
:1035E800010318318A4208BF43F0010318318A42A7
:1035F80008BF43F0010318318A4208BF43F00103B2
:1036080001F556718A4208BF43F0010318318A4216
:1036180008BF43F0010318318A4208BF43F0010391
:1036280018318A4208BF43F0010318318A4208BFA3
:1036380043F0010318318A4208BF43F001031831EF
:103648008A4208BF43F0010313B96B4B9A4210D169
:10365800136823F014031360012384F83530002322
:1036680084F83430E36B002B3FF40BAF20469847C7
:1036780007E7136823F00A031360EDE7082505FA46
:1036880000F008423FF4FDAE13F0080F3FF4F9AE26
:10369800136823F00E031360E36D03F01F03012288
:1036A80002FA03F37360626584F83520002384F816
:1036B8003430E36C002B3FF4E4AE20469847E0E654
:1036C8002268EDE525FA03F111F0010F7FF4A7ACAC
:1036D800E16D01F01F01042303FA01F10D423FF4EB
:1036E80084AD2268136813F0020F7FF479ADE16DA1
:1036F80001F01F01102303FA01F10D42E0D1E26D40
:1037080002F01F02202303FA02F22A423FF43EAEDF
:103718002168374B3748814218BF99420CBF0123B3
:1037280000231830814208BF43F00103183081425A
:1037380008BF43F001031830814208BF43F001037A
:103748001830814208BF43F001031830814208BF96
:1037580043F001031830814208BF43F0010300F52C
:103768005670814208BF43F001031830814208BFF8
:1037780043F001031830814208BF43F001031830B9
:10378800814208BF43F001031830814208BF43F06B
:1037980001031830814208BF43F001031830814209
:1037A80008BF43F001031BB9134B99427FF4A5AD41
:1037B8000B68C3F30013002B3FF4E8ADB26094F834
:1037C8003530DBB2042B3FF49CAD23681A6812F441
:1037D800802F3FF4C9AD1B6813F4002F7FF4B9ADF7
:1037E800636C002B3FF4D2AD20469847CEE500BF6E
:1037F8001000024028000240B8040240406D7047A3
:103808000B68002B00F00F812DE9F04F83B04FF0CB
:10381800000C6246844C854D854EDFF81C8261E0C1
:1038280083684FF0030A0AFA0CFA23EA0A0ACB68FB
:1038380003FA0CF343EA0A038360436823EA0E0E93
:103848004B68C3F30013934043EA0E03436056E00A
:10385800002303FA0BF343EA0A03CEF808304FF0CB
:10386800B0431B686FEA090E4F6817F4801F0CBF3E
:103878000EEA030349EA03034FF0B04ACAF80030DE
:10388800DAF804304F6817F4001F0CBF0EEA030380
:1038980049EA03034FF0B04ACAF80430DAF8843032
:1038A8004F6817F4003F0CBF0EEA030349EA03030D
:1038B8004FF0B04ACAF88430DAF880304F6817F40D
:1038C800803F0CBF0EEA030349EA03034FF0B04EF2
:1038D800CEF8803001320B680CF1020C33FA02F793
:1038E80000F09E804FF0010E0EFA02FE1EEA030958
:1038F800F0D04B6803F00303013B012B90D94B68D0
:1039080003F00303032B27D0C3684FF0030E0EFA0E
:103918000CFE23EA0E0E8B6803FA0CF343EA0E033F
:10392800C3604B6803F00303022B15D14FEAD20E94
:1039380000EB8E0EDEF820A002F007034FEA830B9F
:103948000F2303FA0BF32AEA030A0B6903FA0BF3B2
:1039580043EA0A03CEF8203003684FF0030E0EFA4C
:103968000CFE23EA0E0E4B6803F0030303FA0CF374
:1039780043EA0E0303604B6813F4403FAAD0D4F81F
:10398800F43043F00203C4F8F430D4F8F43003F010
:1039980002030193019B22F0030EAE44DEF808A057
:1039A80002F003034FEA830B0F2303FA0BF32AEA0F
:1039B800030AB0423FF44CAF1E4B984220D040451A
:1039C80020D003F5006398421ED003F58063984227
:1039D8001CD003F5806398421AD003F5806398429F
:1039E80018D003F58063984216D003F58063984297
:1039F80014D003F5806398420CBF09230A2328E7F3
:103A0800012326E7022324E7032322E7042320E7F0
:103A180005231EE706231CE707231AE7082318E7F0
:103A280003B0BDE8F08F7047004402580004005806
:103A380000000258000402580008025803689A69F6
:103A480012F0020F01D000229A6203689A6912F0FC
:103A5800010F03D19A6942F001029A61704730B4AC
:103A6800029C05686868234343EA0243C1F30901DD
:103A78000B4323F00043640D04F4806444F07F7426
:103A880044F4583444F47F7444F0030420EA0404F2
:103A980023436B6030BC70472DE9F0470446036848
:103AA8009F6917F0100751D00E4690461022DA6130
:103AB80000252F464FF0200921688B6913F0200F4D
:103AC8003DD1002D3BD1B6F1FF3FF6D0FDF7CCFE3E
:103AD8003D46A0EB0800B04201D8002EECD1226888
:103AE800506894F84230DBB2916911F4004F04D069
:103AF80010F4804F01D1202B19D13D464FF0010A17
:103B080023689B6913F0200FD6D1FDF7ADFEA0EB1B
:103B180008001928F4D9636C43F02003636484F81F
:103B2800419084F8427084F840705546E8E753683D
:103B380043F480435360FDF797FE8046DDE7002D90
:103B48003FD12023CB610427012500E0002522680E
:103B5800936913F4807F05D047F001074FF4807113
:103B6800D161012513F4806F2DD047F00807226832
:103B78004FF48061D16113F4007F05D047F002074C
:103B880023684FF40072DA612046FFF757FF226876
:103B9800536823F0FF7323F48B3323F4FF7323F06C
:103BA80001035360636C1F436764202384F841302A
:103BB800002384F8423084F8403001252846BDE8C7
:103BC800F0870427C3E713F4007FD7D1002DF5D081
:103BD800DAE770B504460D46164623689B6913F06C
:103BE800020F1DD1324629462046FFF755FFC8B9B6
:103BF800B5F1FF3FF1D0FDF737FE801BA84201D891
:103C0800002DEAD1636C43F020036364202384F819
:103C18004130002384F8423084F84030012000E02D
:103C2800002070BD0120FCE72DE9F04180460F46D9
:103C380016461D46D8F800309C6937EA04020CBFC6
:103C48004FF0010C4FF0000CB4451AD1B5F1FF3F0D
:103C5800F2D0FDF709FE069BC01AA84201D8002D34
:103C6800E8D1D8F8443043F02003C8F84430202382
:103C780088F84130002388F8423088F84030012025
:103C880000E00020BDE8F0812DE9F04182B0044653
:103C980090461D46089E099F194B00934FF080736C
:103CA800EAB2FFF7DCFE3A4631462046FFF791FFBD
:103CB80008BB012D10D123685FFA88F29A62009739
:103CC8003346002280212046FFF7AEFF003818BF98
:103CD800012002B0BDE8F08123684FEA18229A62F9
:103CE8003A4631462046FFF774FF30B923685FFA39
:103CF80088F29A62E3E70120EBE70120E9E700BFD9
:103D08000020008070B505460C4616462B689B6956
:103D180013F0200F1AD1324621462846FFF7BCFE81
:103D2800B0B9FDF7A1FD801BA04201D8002CEDD150
:103D38006B6C43F020036B64202385F8413000232B
:103D480085F8423085F84030012070BD0020FCE73E
:103D58000120FAE7002853D010B5044690F8413006
:103D6800002B43D0242384F841302268136823F0C1
:103D7800010313602268636823F07063136122688B
:103D8800936823F400439360E368012B2268A368D7
:103D98000CBF43F4004343F404439360E368022BED
:103DA80029D022685168174B0B4353602268D368A7
:103DB80023F40043D3602268236961690B43A16936
:103DC80043EA0123D3602268E369216A0B43136045
:103DD8002268136843F00103136000206064202305
:103DE80084F84130206384F8420010BD80F84030E8
:103DF800FCF7BEFCB6E723684FF400625A60D0E7D0
:103E080001207047008000022DE9F04F83B00D4675
:103E1800BDF834A00E9F90F84110C9B2202940F097
:103E2800BF800446904699460C9BCBB1BAF1000F6F
:103E380016D090F84030012B00F0B6804FF0010BFF
:103E480080F840B0FDF710FD0646009019235A4649
:103E58004FF400412046FFF7E7FE30B10120A0E013
:103E68004FF40073636401209BE0212384F8413000
:103E7800402384F84230002363640C9A6262A4F8F9
:103E88002AA06363019600974B464246294620467E
:103E9800FFF7FAFEA0B9638D9BB2FF2B15D9FF225D
:103EA8002285002300934FF0807329462046FFF7B0
:103EB800D6FD4FF000084FF080094FF0007A20E05F
:103EC800002384F8403058466BE0628D92B2228518
:103ED800002300934FF00073D2B229462046FFF723
:103EE800BEFDE6E7628D92B22285CDF8008053468A
:103EF800D2B229462046FFF7B2FD638D9BB2002B54
:103F080032D0324639462046FFF763FE00284DD1AD
:103F18002368626A12789A62636A01336362638D06
:103F2800013B9BB26385238D013B9BB22385628D48
:103F380092B2002BE1D1002ADFD000963B464246E0
:103F480049462046FFF770FE90BB638D9BB2FF2B5E
:103F5800C8D9FF222285CDF800804FF0807329460A
:103F68002046FFF77CFDC8E7324639462046FFF772
:103F7800C9FEF8B923682022DA6121684B6823F06A
:103F8800FF7323F48B3323F4FF7323F001034B6097
:103F980084F84120002384F8423084F8403000E05F
:103FA800022003B0BDE8F08F0220FAE70120F8E70D
:103FB8000120F6E70120F4E790F84130DBB2202B2E
:103FC80024D190F84030012B22D0012380F84030D2
:103FD800242380F841300268136823F0010313603A
:103FE8000268136823F48053136002681368194346
:103FF80011600268136843F001031360202380F8FE
:104008004130002380F8403018467047022070473E
:104018000220704790F84130DBB2202B22D190F873
:104028004030012B20D0012380F84030242380F831
:1040380041300268136823F00103136002681368B3
:1040480023F4706343EA012111600268136843F0A6
:1040580001031360202380F84130002380F84030AA
:1040680018467047022070470220704738B5124B37
:10407800DB6813F0040F07D10F4BDB6803F007036D
:10408800181A18BF012038BD0B4AD36823F007035C
:104098001843D060FDF7E8FB0446074D6B6813F43E
:1040A800005F07D1FDF7E0FB001BB0F57A7FF5D97B
:1040B8000120E8E70020E6E700480258002800F061
:1040C8001883F8B50446036813F0010F25D0944A05
:1040D800136903F03803926A102B15D0182B0FD0F0
:1040E8006368B3F5803F3FD0002B53D18C4B1A68DF
:1040F80022F480321A601A6822F480221A6038E0AA
:1041080002F00302022AEBD1854B1B6813F4003F2F
:1041180003D06368002B00F0EE82236813F0020FCF
:1041280000F0A1807E4A1369926A13F038035AD0CE
:10413800182B55D0E268002A00F0DE8078490B6819
:1041480023F0190313430B60FDF78EFB0546744EED
:10415800336813F0040F40F0AD80FDF785FB401B7A
:104168000228F5D90320CDE26D4A136843F4803361
:10417800136063682BB3FDF777FB0546684E336819
:1041880013F4003FC9D1FDF76FFB401B6428F6D933
:104198000320B7E2B3F5A02F09D0614B1A6822F4C7
:1041A80080321A601A6822F480221A60E1E75C4BB8
:1041B8001A6842F480221A601A6842F480321A603F
:1041C800D7E7FDF751FB0546554E336813F4003F1A
:1041D800A3D0FDF749FB401B6428F6D9032091E2E0
:1041E80012F0030FA6D14E4B1B6813F0040F03D037
:1041F800E368002B00F08182494A136823F0190311
:10420800E1680B431360FDF72FFB0546444E336806
:1042180013F0040F06D1FDF727FB401B0228F6D93F
:1042280003206FE2FDF73AFB41F20303984212D8EC
:104238002269402A07D03A494B6823F47C3343EA81
:1042480002334B600FE0364A536823F47C3343F45F
:104258000033536007E0324A5368216923F0FE4374
:1042680043EA01635360236813F0100F00F088805D
:104278002B4A136903F03803926A082B56D0182B7F
:1042880050D0E369002B00F0B880254A136843F04A
:1042980080031360FDF7E8FA0546214E336813F4EE
:1042A800807F40F08880FDF7DFFA401B0228F5D9AF
:1042B800032027E2FDF7F2FA41F20303984212D8ED
:1042C8002269402A07D016494B6823F47C3343EA15
:1042D80002334B60C7E7124A536823F47C3343F434
:1042E80000335360BFE70E4A5368216923F0FE4349
:1042F80043EA01635360B6E7094A136823F00103F0
:104308001360FDF7B1FA0546054E336813F0040F44
:10431800A9D0FDF7A9FA401B0228F6D90320F1E13C
:104328000044025802F00302012AAAD1A14B1B68DB
:1043380013F4807F03D0E369802B40F0E081FDF720
:10434800ADFA41F20303984212D8226A202A07D014
:1043580098494B6823F0F84343EA82634B600FE0C7
:10436800944A536823F0F84343F08043536007E0CE
:10437800904AD368216A23F07C5343EA0163D360EF
:10438800236813F0080F60D06369002B49D0894A6D
:10439800536F43F001035367FDF766FA0546854EF0
:1043A800736F13F0020F50D1FDF75EFA401B02281D
:1043B800F6D90320A6E1FDF771FA41F2030398420A
:1043C80012D8226A202A07D07A494B6823F0F8438A
:1043D80043EA82634B60D3E7764A536823F0F84395
:1043E80043F080435360CBE7724AD368216A23F0D5
:1043F8007C5343EA0163D360C2E76E4A136823F033
:1044080080031360FDF730FA05466A4E336813F4EB
:10441800807FB5D0FDF728FA401B0228F6D9032083
:1044280070E1644A536F23F001035367FDF71CFAE8
:104438000546604E736F13F0020F06D0FDF714FAAD
:10444800401B0228F6D903205CE1236813F0200FF3
:1044580029D0A3699BB1574A136843F4805313606A
:10446800FDF702FA0546534E336813F4005F1AD17C
:10447800FDF7FAF9401B0228F6D9032042E14D4A1C
:10448800136823F480531360FDF7EEF90546494E8F
:10449800336813F4005F06D0FDF7E6F9401B0228E5
:1044A800F6D903202EE1236813F0040F21D1626AA4
:1044B800002A00F026813F4B1B6903F03803182BB4
:1044C80000F0EE80022A79D03A4A136823F080730C
:1044D8001360FDF7C9F90446364D2B6813F0007FC9
:1044E80000F0DC80FDF7C0F9001B0228F5D9032095
:1044F80008E1314A136843F480731360FDF7B4F997
:1045080005462D4E336813F4807F06D1FDF7ACF9CC
:10451800401B6428F6D90320F4E0A368012B0AD0D5
:104528000BBB244B1A6F22F001021A671A6F22F094
:1045380004021A6704E01F4A136F43F0010313676C
:10454800A36833B3FDF790F905461A4E41F2883750
:10455800336F13F0020FAAD1FDF786F9401BB8425A
:10456800F6D90320CEE0052B09D0124B1A6F22F0A2
:1045780001021A671A6F22F004021A67E0E70D4B6E
:104588001A6F42F004021A671A6F42F001021A67A2
:10459800D6E7FDF769F90546064E41F28837336FCD
:1045A80013F0020F83D0FDF75FF9401BB842F6D92C
:1045B8000320A7E00044025800480258584A1368EC
:1045C80023F080731360FDF74FF90546544E3368A6
:1045D80013F0007F06D0FDF747F9401B0228F6D9F3
:1045E80003208FE04E4B996A4E4A0A40A16A0A435B
:1045F800E16A42EA01129A62626B013A520292B28D
:10460800A16B0139090401F4FE010A43216B013948
:10461800C1F308010A43E16B0139090601F0FE41C3
:104628000A431A63DA6A22F00102DA62586BA16C53
:104638003D4A024042EAC1025A63DA6A22F00C0299
:10464800216C0A43DA62DA6A22F00202616C0A43D8
:10465800DA62DA6A42F48032DA62DA6A42F4003202
:10466800DA62DA6A42F48022DA62DA6A42F0010235
:10467800DA621A6842F080721A60FDF7F5F80446AB
:10468800274D2B6813F0007F06D1FDF7EDF8001BCE
:104698000228F6D9032035E0002033E0002031E07D
:1046A8001F4B996A1B6B012A2DD001F00302A06AE7
:1046B80082422AD1C1F30511E26A914227D1C3F39C
:1046C8000801226B013A914223D1C3F34621626B60
:1046D800013A91421FD1C3F30641A26B013A9142BC
:1046E8001BD1C3F30663E06B0138181A18BF012009
:1046F80008E001207047012004E0012002E00120C9
:1047080000E00020F8BD0120FCE70120FAE70120C5
:10471800F8E70120F6E70120F4E70120F2E700BFFF
:10472800004402580CFCFFFF0700FFFF024A136811
:1047380043F400231360704700440258734B1B690D
:1047480003F03803102B00F0DC80182B10D00BB1CD
:104758006F4870476D4B1B6813F0200F00F0D38033
:104768006A4B1868C0F3C1006A4B23FA00F070471F
:1047780030B4664A916A946AC4F30510D56A536BDB
:1047880014F47C7F00F09E80C3F3CC0305F0010590
:1047980005FB03F307EE903AF8EE677A01F00301A0
:1047A800012964D0022900F08F80E1B1574B1B6BBF
:1047B800C3F3080307EE103AB8EE477ADFED566AFE
:1047C80067EEA67A77EE277AB7EE007A77EE877AE1
:1047D80007EE100AF8EE476A9FED506A86EE267AD1
:1047E80067EE877A5FE0136813F0200F22D0116814
:1047F800136BC1F3C101474ACA4007EE102AF8EE0D
:10480800476A07EE100AB8EE476A86EE867AC3F35F
:10481800080306EE903AF8EE666A9FED3F6A67EE87
:10482800867A76EEA77AF7EE006A77EEA67A67EED2
:10483800277A38E0354B1B6BC3F3080307EE103AB1
:10484800B8EE477ADFED346A67EEA67A77EE277A14
:10485800B7EE007A77EE877A07EE100AF8EE476A25
:104868009FED2F6A86EE267A67EE877A1BE0274B44
:104878001B6BC3F3080307EE103AB8EE477ADFED77
:10488800266A67EEA67A77EE277AB7EE007A77EE91
:10489800877A07EE100AF8EE476A9FED206A86EEDF
:1048A800267A67EE877A194B1B6BC3F346230133CD
:1048B80007EE103AB8EE477AC7EE876AFCEEE67A5A
:1048C80017EE900A30BC7047104B1B6BC3F30803FC
:1048D80007EE103AB8EE477ADFED0F6A67EEA67A70
:1048E80077EE277AB7EE007A77EE877A07EE100A26
:1048F800F8EE476A9FED0B6A86EE267A67EE877AAE
:10490800D1E7094870470348704700BF0044025880
:1049180000093D000090D003000000390024744ACB
:104928000024744C001BB74B00366E01002800F0C1
:10493800C3802DE9F0410D460446654B1B6803F022
:104948000F038B420BD2624A136823F00F030B4309
:104958001360136803F00F038B4240F0AF802368A5
:1049680013F0040F0CD022695A4B9B6903F07003B3
:104978009A4205D957498B6923F0700313438B6119
:10498800236813F0080F0CD06269524BDB6903F0FF
:1049980070039A4205D94F49CB6923F0700313433A
:1049A800CB61236813F0100F0CD0A269494BDB6967
:1049B80003F4E0639A4205D94649CB6923F4E063DE
:1049C8001343CB61236813F0200F0CD0E269414BED
:1049D8001B6A03F070039A4205D93E490B6A23F01B
:1049E800700313430B62236813F0020F74D0E1685D
:1049F800384A926902F00F02914265D9354A9369A3
:104A080023F00F030B439361236813F0010F41D088
:104A1800304A936923F47063A1680B439361626819
:104A2800022A0AD0032A27D0012A2CD0294B1B6836
:104A380013F0040F06D10120C1E0264B1B6813F4C4
:104A4800003F3DD023490B6923F0070313430B6153
:104A5800FCF70AFF06461F4F41F288383B6903F00E
:104A680038036268B3EBC20F14D0FCF7FDFE801B5D
:104A78004045F3D90320A2E0164B1B6813F0007FD2
:104A8800E0D101209BE0134B1B6813F4807FD9D140
:104A9800012094E0236813F0020F20D0E2680D4B48
:104AA8009B6903F00F039A4219D20A498B6923F0D4
:104AB8000F0313438B6112E00120704701207EE051
:104AC80001207CE001207AE013F0010FA0D1E5E796
:104AD800002000520044025813F0010F98D1394BBE
:104AE8001B6803F00F03AB420AD9364A136823F058
:104AF8000F032B431360136803F00F03AB42E1D19C
:104B0800236813F0040F0CD022692F4B9B6903F024
:104B180070039A4205D22C498B6923F07003134322
:104B28008B61236813F0080F0CD06269264BDB6990
:104B380003F070039A4205D22349CB6923F070032E
:104B48001343CB61236813F0100F0CD0A2691E4BDE
:104B5800DB6903F4E0639A4205D21B49CB6923F46D
:104B6800E0631343CB61236813F0200F0CD0E26994
:104B7800154B1B6A03F070039A4205D212490B6A5F
:104B880023F0700313430B62FFF7D8FD0E498B69BE
:104B98000E4AC3F30323D35C03F01F03D8408B6989
:104BA80003F00F03D35C03F01F0320FA03F3084A52
:104BB8001360084B1860084B1868FCF7F5FDBDE852
:104BC800F08100BF00200052004402584C960008B3
:104BD80004200024002000240C20002408B5FFF73E
:104BE800ADFD0B4A93690B49C3F30323CB5C03F078
:104BF8001F0320FA03F3926902F00F02885C00F0A9
:104C08001F0023FA00F0044A1060044A136008BD2C
:104C1800004402584C960008042000240020002478
:104C280008B5FFF7DBFF054BDB69C3F30213044A42
:104C3800D35C03F01F03D84008BD00BF00440258EE
:104C48004C96000808B5FFF7C9FF054BDB69C3F3AD
:104C58000223044AD35C03F01F03D84008BD00BFF9
:104C6800004402584C9600087047000008B5064BEF
:104C78005B6E13F4806F00D108BDFFF7F5FF024BA0
:104C88004FF480629A66F7E700440258F8B53E4B45
:104C98009B6A03F00303032B74D006460F463A4A77
:104CA800136823F080631360FCF7DEFD0446364D7D
:104CB8002B6813F0006F06D0FCF7D6FD031B022B00
:104CC800F6D903205FE0304B9A6A316822F47C32CF
:104CD80042EA01329A62B268013A520292B2F1682B
:104CE8000139090401F4FE010A4371680139C1F36D
:104CF80008010A4331690139090601F0FE410A43F6
:104D08009A63DA6A22F0C00271690A43DA62DA6ADF
:104D180022F02002B1690A43DA62DA6A22F010024C
:104D2800DA62D86BF169194A024042EAC102DA63D1
:104D3800DA6A42F01002DA62C7B91A46DB6A43F44B
:104D48000023D362104A136843F080631360FCF7B2
:104D58008BFD04460C4D2B6813F0006F10D1FCF747
:104D680083FD001B0228F6D903200CE0012F064A18
:104D7800D36A0CBF43F4801343F40013D362E1E712
:104D8800002000E00120F8BD004402580700FFFFA2
:104D9800F8B53E4B9B6A03F00303032B74D0064619
:104DA8000F463A4A136823F080531360FCF75CFD02
:104DB8000446364D2B6813F0005F06D0FCF754FD0F
:104DC800031B022BF6D903205FE0304B9A6A316847
:104DD80022F07C7242EA01529A62B268013A5202A7
:104DE80092B2F1680139090401F4FE010A437168BD
:104DF8000139C1F308010A4331690139090601F093
:104E0800FE410A431A64DA6A22F4406271690A436D
:104E1800DA62DA6A22F40072B1690A43DA62DA6A9B
:104E280022F48072DA62586CF169194A024042EA47
:104E3800C1025A64DA6A42F48072DA62C7B91A4661
:104E4800DB6A43F48003D362104A136843F080534B
:104E58001360FCF709FD04460C4D2B6813F0005F46
:104E680010D1FCF701FD001B0228F6D903200CE045
:104E7800012F064AD36A0CBF43F4000343F0807342
:104E8800D362E1E7002000E00120F8BD00440258A9
:104E98000700FFFF2DE9F8430446036813F0006F8D
:104EA8002BD0436EB3F5001F21D00CD8CBB1B3F58E
:104EB800801F06D102210430FFF7E8FE0646EEB94E
:104EC80004E001261AE0B3F5401F08D1964A136D95
:104ED80023F44013616E0B43136500260EE0012690
:104EE8000CE0914AD36A43F40033D362EEE702211F
:104EF8002430FFF74DFF0646E1E70026236813F448
:104F0800807F25D0636D042B34D8DFE803F0030AD3
:104F180010171700844AD36A43F40033D362354626
:104F28000DE00021201DFFF7B1FE054607E0002136
:104F380004F12400FFF72CFF054600E03546E5B9EB
:104F4800794A136D23F00703616D0B43136500E085
:104F58003546236813F4007F21D0A36D802B3BD006
:104F680010D89BB3402B0AD10021201DFFF78EFEDD
:104F780005460CE001263546EBE72E46E9E7012613
:104F880035460CE0C02B02D0B3F5807F1BD155BB52
:104F9800654A136D23F4E073A16D0B431365236811
:104FA80013F4806F45D0D4F8A430B3F5800F38D00F
:104FB8001ED883B3B3F5001F17D10021201DFFF7BA
:104FC80065FE05461AE001263546E8E7564AD36AE3
:104FD80043F40033D362DAE7002104F12400FFF739
:104FE800D7FE0546D3E72E46D9E70126354620E009
:104FF800B3F5C00F02D0B3F5000F09D1C5B94A4ABD
:10500800936D23F46003D4F8A4100B43936510E068
:10501800012635460DE0444AD36A43F40033D3628F
:10502800ECE7002104F12400FFF7B2FE0546E5E7AE
:105038002E46236813F4006F23D0D4F8A830B3F1B8
:10504800007F41D00DD8002B38D0B3F1807F05D137
:105058000021201DFFF71AFE054608E00126354607
:105068000FE0B3F1407F02D0B3F1806F23D1002D60
:1050780031D12D4A936D23F0E063D4F8A8100B4387
:105088009365236813F0007F2ED0A36C202B3FD0AC
:1050980026D833B1102B20D1234AD36A43F40033E6
:1050A800D362002D3AD1204AD36C23F03003A16C8F
:1050B8000B43D36418E001263546E2E71A4AD36A5F
:1050C80043F40033D362D2E7002104F12400FFF750
:1050D8005FFE0546CBE72E46D3E70126354603E0BB
:1050E800302BDED001263546236813F4805F2CD0A0
:1050F800E36DB3F5005F4DD018D8002B44D0B3F55D
:10510800805F0DD10021201DFFF7C0FD054613E08B
:105118000221201DFFF7BAFD0546C2E72E46E3E748
:105128000126354611E000BF00440258B3F5405F40
:1051380002D0B3F5804F24D1002D32D1804A136DAF
:1051480023F4E043E16D0B431365236813F4005F18
:1051580036D0236EB3F5003F50D027D83BB1B3F516
:10516800803F20D10121201DFFF790FD0546002D2D
:105178004BD1734A136D23F4E023216E0B4313655F
:105188001EE001263546E0E76D4AD36A43F4003352
:10519800D362D1E7002104F12400FFF7F9FD0546A9
:1051A800CAE72E46D1E70126354609E023F48032C6
:1051B800B2F5802FDBD0B3F5403FD8D00126354675
:1051C800236813F4804F2FD0D4F8AC30B3F1005FCC
:1051D80043D01FD83BB1B3F1805F18D10121201D06
:1051E800FFF754FD0546002D3ED1554A936D23F037
:1051F800E043D4F8AC100B43936515E0012104F1AA
:105208002400FFF7C5FD0546B1E72E46D8E701267D
:10521800354609E023F08052B2F1804FE3D0B3F174
:10522800405FE0D001263546236813F4004F09D0CB
:10523800E36EB3F1805F19D0B3F1005F24D0D3B12E
:1052480001263546236813F0807F32D0636C032B28
:1052580059D8DFE803F026215226012104F1240061
:10526800FFF796FD0546BEE72E46DDE7344AD36ACA
:1052780043F40033D3626DB9314A136D23F04053C0
:10528800E16E0B431365DDE70121201DFFF7FEFCEE
:105298000546F0E72E46D5E7294AD36A43F400339A
:1052A800D3629DBB264AD36C23F00303616C0B4386
:1052B800D364236813F4800F2AD1236813F0010FF5
:1052C80000F0AA80A36F282B00F2A480DFE803F087
:1052D80092A2A2A2A2A2A2A28DA2A2A2A2A2A2A2CB
:1052E8009BA2A2A2A2A2A2A292A2A2A2A2A2A2A2AD
:1052F80092A2A2A2A2A2A2A292000221201DFFF7BE
:10530800C5FC0546CDE701263546D2E72E46D0E74F
:105318000C4A136843F480731360FCF7A5FA074638
:10532800DFF82080D8F8003013F4807F0CD1FCF728
:105338009BFAC01B6428F5D903263546BDE700BF94
:105348000044025800480258002D4CD19F4B1B6F57
:10535800D4F8B020534013F4407F0CD09B4B1A6F05
:1053680022F44072196F41F480311967196F21F4E2
:10537800803119671A67D4F8B030B3F5807F14D03C
:10538800D4F8B03003F44072B2F5407F21D08F4A90
:10539800136923F47C5313618C4A116FD4F8B0302D
:1053A800C3F30B030B43136787E7FCF75DFA074664
:1053B800DFF8188241F28839D8F8703013F0020FFC
:1053C800DED1FCF751FAC01B4845F5D9032635460E
:1053D80073E77E4801697E4A02EA131321F47C527E
:1053E80013430361D8E72E4667E70121201DFFF725
:1053F8004DFC0546E5B9754A536D23F03803A16F96
:105408000B43536508E0012104F12400FFF7C0FCB9
:105418000546EFE701263546236813F0020F16D03C
:10542800636F052B27D8DFE803F00A051F0A0A0A6D
:105438002E46F1E70121201DFFF728FC0546EDB9AE
:10544800624A536D23F00703616F0B43536523686A
:1054580013F0040F22D0D4F89030052B43D8DFE89E
:1054680003F0140F3B141414012104F12400FFF776
:105478008FFC0546E3E701263546E8E72E46E6E7D2
:105488000121201DFFF702FC05467DBB4F4A936DA5
:1054980023F00703D4F890100B439365236813F0A7
:1054A800200F32D0D4F88C30B3F1005F4BD022D823
:1054B8003BB1B3F1805F1BD10021201DFFF7E6FB54
:1054C8000546002D46D1414A536D23F0E043D4F8F8
:1054D8008C100B43536518E0012104F12400FFF7F9
:1054E80057FC0546D1E701263546D7E72E46D5E7CE
:1054F8000126354609E023F08052B2F1804FE0D012
:10550800B3F1405FDDD001263546236813F0400F24
:105518002FD0D4F89830B3F5006F4AD01FD83BB1DC
:10552800B3F5806F18D10021201DFFF7AFFB0546AA
:10553800002D45D1254A936D23F4E053D4F89810F3
:105548000B43936515E0022104F12400FFF720FCCA
:105558000546B6E72E46D8E70126354609E023F486
:105568008062B2F5805FE3D0B3F5406FE0D00126EA
:105578003546236813F0800F36D0D4F89C30B3F545
:10558800804F00F0E68025D83BB1B3F5005F19D114
:105598000021201DFFF77AFB0546002D40F0E08032
:1055A8000A4A936D23F46043D4F89C100B43936527
:1055B8001AE0022104F12400FFF7EAFB0546B7E7E9
:1055C8002E46D6E7012635460EE000BF00440258B5
:1055D800CFFFFF0023F40052B2F5004FDDD0B3F542
:1055E800C04FDAD001263546236813F0080F0DD0D6
:1055F800D4F88030B3F5805F00F0B480974A536DDB
:1056080023F44053D4F880100B435365236813F0F8
:10561800100F0DD0D4F89430B3F5807F00F0AB8034
:105628008E4A936D23F44073D4F894100B4393651A
:10563800236813F4002F0ED0D4F8A030B3F5803FC0
:1056480000F0B180B3F5003F00F0A380002B00F01C
:105658009B8001263546236813F4802F0FD0D4F899
:105668008430B3F5001F00F0B680B3F5401F00F09A
:10567800A880B3F5801F00F09F8001263546236877
:1056880013F4803F09D0E36C002B00F0AD80B3F534
:10569800803F00F0B78001263546236813F0005F8D
:1056A80040F0B880236813F4003F0DD0E36FB3F5E2
:1056B800807F00F0BB8040F2B68023F48073B3F59E
:1056C800007F00F0B8800126236813F4801F06D0FD
:1056D800624A136D23F00043216F0B43136523685F
:1056E80013F0805F07D05D4A136923F48043D4F830
:1056F800B4100B431361236813F4001F06D0574AF4
:10570800136D23F08073A16E0B431365236813F0A8
:10571800804F09D0514B1A6922F400421A611A6964
:10572800D4F8B8100A431A612368002BC0F28E809F
:10573800236813F4000F07D0484A536D23F440033D
:10574800D4F888100B435365301E18BF0120BDE8FC
:10575800F883022104F12400FFF71AFB05461CE731
:105768002E4641E7022104F12400FFF711FB00282F
:1057780018BF012642E7022104F12400FFF708FBC5
:10578800002818BF01264BE70021201DFFF77EFAED
:1057980005467DB9314A936D23F44033D4F8A010FF
:1057A8000B43936557E7022104F12400FFF7F0FA51
:1057B8000546EEE72E464EE7284AD36A43F40033FF
:1057C800D3627DB9254A536D23F44013D4F884106D
:1057D8000B43536553E7012104F12400FFF7D8FA7E
:1057E8000546EEE72E464AE71C4AD36A43F40033DF
:1057F800D3626DB9194AD36C23F48033E16C0B433F
:10580800D3644AE70221201DFFF740FA0546F0E776
:105818002E4642E7022104F12400FFF7B9FA0028D6
:1058280018BF01263EE733B101264DE70B4AD36A7C
:1058380043F40033D3623DB9084A536D23F44073EF
:10584800E16F0B4353653FE72E463DE7034AD36CB0
:1058580023F04053216D0B43D36469E70044025899
:1058680008B5FFF7BBF9054B1B6AC3F30213044ADB
:10587800D35C03F01F03D84008BD00BF00440258A2
:105888004C96000870B4774A946A956AC5F3053156
:10589800D66AD36B15F47C3F00F0DE80C3F3CC03EB
:1058A800C6F3001606FB03F307EE903AF8EE676AB4
:1058B80004F00304012C64D0022C00F0B080E4B1A1
:1058C800684B9B6BC3F3080307EE903AF8EE677AD0
:1058D8009FED657A66EE876A77EEA67AB7EE007A6C
:1058E80077EE877A07EE101AB8EE477A9FED5F6A6F
:1058F800C6EE076A67EEA67A5FE0136813F0200F1A
:1059080022D01468936BC4F3C104594AE24007EEED
:10591800902AF8EE677A07EE101AB8EE476A87EE13
:10592800867AC3F3080307EE903AF8EE677A9FED9C
:105938004E6A66EE866A77EEA66AF7EE007A76EE2B
:10594800A77A67EE277A38E0464B9B6BC3F30803C8
:1059580007EE903AB8EE677ADFED437A66EEA77AFB
:1059680077EE277AB7EE007A77EE877A07EE101A85
:10597800F8EE476A9FED3F6A86EE267A67EE877AE9
:105988001BE0384B9B6BC3F3080307EE903AF8EE25
:10599800677A9FED357A66EE876A77EEA67AB7EE74
:1059A800007A77EE877A07EE101AF8EE476A9FEDCD
:1059B8002F6A86EE267A67EE877A2A4A936BC3F3B4
:1059C800462306EE903AF8EE666AB7EE006A76EE7F
:1059D800866A87EEA67ABCEEC77A80ED007A936B6A
:1059E800C3F3064306EE903AF8EE666A76EE866AE8
:1059F80087EEA67ABCEEC77A80ED017A936BC3F383
:105A0800066307EE103AB8EE477A37EE067AC7EE25
:105A1800876AFCEEE66AC0ED026A70BC7047114BFB
:105A28009B6BC3F3080307EE903AF8EE677A9FED95
:105A38000E7A66EE876A77EEA67AB7EE007A77EE88
:105A4800877A07EE101AF8EE476A9FED0B6A86EE22
:105A5800267A67EE877AB0E70023036043608360A5
:105A6800DBE700BF00440258000000390024744AF4
:105A78000090D0030024744C001BB74B70B4774AD5
:105A8800946A956AC5F30551D66A536C15F07C7F04
:105A980000F0DE80C3F3CC03C6F3002606FB03F355
:105AA80007EE903AF8EE676A04F00304012C64D01C
:105AB800022C00F0B080E4B1684B1B6CC3F3080300
:105AC80007EE903AF8EE677A9FED657A66EE876A98
