:020000040800F2
:1000000000000824090B0008A1090008AB0900083A
:10001000B1090008B7090008BD0900080000000088
:1000200000000000000000000000000051D60008A1
:10003000C309000800000000A1D8000845A5000879
:10004000590B0008590B0008590B0008590B000800
:10005000590B0008590B0008590B0008590B0008F0
:10006000590B0008590B0008590B0008590B0008E0
:10007000590B0008590B0008590B0008590B0008D0
:10008000590B0008590B0008590B0008590B0008C0
:10009000590B0008590B0008590B0008590B0008B0
:1000A000590B0008590B0008590B0008590B0008A0
:1000B000D1090008590B0008590B0008590B00081A
:1000C000590B0008590B0008590B0008590B000880
:1000D000590B0008590B0008590B0008590B000870
:1000E000590B0008590B000800000000590B0008CC
:1000F000590B0008590B0008590B0008590B000850
:10010000590B0008E5090008590B0008590B0008B5
:10011000590B0008590B0008590B0008590B00082F
:10012000590B0008590B0008590B0008590B00081F
:10013000590B0008590B0008590B0008590B00080F
:1001400000000000000000000000000000000000AF
:10015000590B0008590B0008590B0008590B0008EF
:10016000590B0008590B0008590B0008590B0008DF
:10017000590B0008590B0008590B0008000000003B
:10018000590B0008590B0008590B0008590B0008BF
:10019000590B0008590B0008590B0008590B0008AF
:1001A000590B0008590B0008590B0008590B00089F
:1001B000590B0008590B0008590B0008590B00088F
:1001C000590B0008590B0008590B0008590B00087F
:1001D000590B0008590B0008590B0008590B00086F
:1001E000590B0008590B0008590B0008590B00085F
:1001F000590B0008590B0008590B0008590B00084F
:10020000590B0008590B0008590B0008590B00083E
:10021000590B0008590B0008590B0008590B00082E
:10022000590B0008590B0008590B0008000000008A
:10023000590B0008590B000800000000590B00087A
:10024000590B0008590B0008590B0008590B0008FE
:10025000590B0008590B0008590B0008590B0008EE
:10026000590B0008590B0008590B0008590B0008DE
:10027000590B0008590B0008590B0008000000003A
:10028000590B0008590B0008590B0008000000002A
:0802900000000000590B0008FA
:1002A00010B5054C237833B9044B13B10448AFF3B0
:1002B00000800123237010BD940000240000000082
:1002C000E0DC000808B5034B1BB103490348AFF35A
:1002D000008008BD0000000098000024E0DC000859
:1002E000034613F8012B002AFBD1181A0138704776
:1002F00080B582B000AF0023FB7100F0E9F9244B18
:100300005B6903F40033002B1BD1BFF34F8F00BF99
:10031000BFF36F8F00BF1E4B0022C3F85022BFF304
:100320004F8F00BFBFF36F8F00BF194B5B69184A37
:1003300043F400335361BFF34F8F00BFBFF36F8FA0
:1003400000E000BF00F00AFC00F030F800F0FCF81C
:1003500000F0DCF806F08CFE0AF00EF90D4A0021E0
:100360000D480AF08AF903460C4A13600C4A002132
:100370000C480AF082F903460B4A13600AF042F96E
:10038000FB790133FB714FF47A7000F043FCF7E71F
:1003900000ED00E078DD0008010600082C010024D3
:1003A0009CDD000811060008FC03002480B59EB007
:1003B00000AF07F12C034C22002118460DF0C6FBBC
:1003C00007F10C032022002118460DF0BFFB02208C
:1003D00000F074FF0023BB60494BDB6A484A23F0FE
:1003E0000103D362464BDB6A03F00103BB60454B5C
:1003F0009B69444A43F440439361424B9B6903F435
:100400004043BB60BB6800BF3E4B9B6903F4005395
:10041000B3F5005FF8D13C4BD3F8F4303A4A43F0DF
:100420000203C2F8F430384BD3F8F43003F002037F
:100430007B607B6800233B60324B9B69314A43F40D
:10044000404393612F4B9B6903F440433B602C4B2B
:10045000DB6A2B4A43F00103D362294BDB6A03F0CA
:1004600001033B603B6800BF264B9B6903F40053CC
:10047000B3F5005FF8D10123FB624FF480333B6397
:1004800002233B6502237B650423BB65A023FB6538
:1004900002233B6614237B660223BB660823FB66AC
:1004A00000233B6700237B6707F12C03184600F00D
:1004B0003FFF0346002B01D000F050F93F23FB60C3
:1004C00003233B6100237B610823BB614023FB6165
:1004D00040233B624FF480637B624023BB6207F1A1
:1004E0000C030421184601F051FB0346002B01D0F8
:1004F00000F034F901F000FD00BF7837BD4680BD43
:1005000000040058004802580044025880B400AF6C
:100510000B4B0C4A1A600A4B00225A60084B00220F
:100520009A60074B0022DA60054B00221A61044BE7
:1005300001225A6100BFBD465DF8047B704700BFD1
:10054000B00000240070005280B58AB000AF07F1FF
:10055000140300221A605A609A60DA601A61264B0E
:10056000D3F8E030244A43F08003C2F8E030224B55
:10057000D3F8E03003F080033B613B691E4BD3F8B6
:10058000E0301D4A43F00403C2F8E0301A4BD3F8C0
:10059000E03003F00403FB60FB68174BD3F8E03056
:1005A000154A43F00103C2F8E030134BD3F8E030B2
:1005B00003F00103BB60BB680F4BD3F8E0300E4A79
:1005C00043F00803C2F8E0300B4BD3F8E03003F0FF
:1005D00008037B607B6801237B610023BB610123EF
:1005E000FB6107F114031946044800F09FFC00BFAB
:1005F0002837BD4680BD00BF00440258000802589D
:1006000080B582B000AF786001200AF0C8F8FBE73F
:1006100080B584B002AF786000222449244808F0F5
:10062000C3FD0346002B02D000F098F834E04FF4ED
:10063000805300931F4B002207211C4809F066FAE3
:100640000346002B02D000F089F825E00A221A495F
:100650001A4808F00DFE0346002B02D000F07EF889
:100660001AE01748FFF73CFE0246164B14491348A0
:1006700008F0D1FF03461A46134B1A70114B1B6842
:10068000002B03D0104B1B78002B02D000F066F833
:1006900002E00A4809F00BFA00220021044808F0A1
:1006A00083FD0A480AF07BF8B6E700BFC82400249F
:1006B000CC2400247414002410DD00080435002428
:1006C00000000024701400246C14002440420F0029
:1006D00080B584B000AF3B4600221A605A609A6031
:1006E000DA6000F0A7FB01233B7000237B704FF022
:1006F00010437B6017233B7200237B720023BB7285
:100700000323FB7201233B7300237B730123BB7321
:100710000123FB733B46184600F0C4FB01237B70AA
:1007200013233B7200233B733B46184600F0BAFB91
:10073000042000F097FB00BF1037BD4680BD80B598
:1007400082B000AF78607B681B68B3F1804F01D145
:1007500000F040FA00BF0837BD4680BD80B400AF4E
:1007600072B600BFFEE7000080B582B000AF0C4B50
:10077000D3F8F4300A4A43F00203C2F8F430084BCD
:10078000D3F8F43003F002037B607B6800220F2172
:100790006FF0010000F026FB00BF0837BD4680BDAA
:1007A0000044025880B5BAB000AF786007F1D403B6
:1007B00000221A605A609A60DA601A6107F1180321
:1007C000BC22002118460DF0C1F97B681B683B4A2A
:1007D00093426ED14FF48033BB6100237B6607F1F7
:1007E0001803184601F0B6FD0346002B01D0FFF7B1
:1007F000B5FF334BD3F8D430314A43F48033C2F8D9
:10080000D4302F4BD3F8D43003F480337B617B6931
:100810002B4BD3F8E0302A4A43F00403C2F8E0300F
:10082000274BD3F8E03003F004033B613B69244BD2
:10083000D3F8E030224A43F00803C2F8E030204BFE
:10084000D3F8E03003F00803FB60FB684FF48853F3
:10085000C7F8D4300223C7F8D8300123C7F8DC30FA
:100860000323C7F8E0300C23C7F8E43007F1D403C2
:100870001946144800F05AFB0423C7F8D430022369
:10088000C7F8D8300123C7F8DC300323C7F8E030BD
:100890000C23C7F8E43007F1D40319460A4800F0E6
:1008A00045FB00220521312000F09CFA312000F0A8
:1008B000B3FA00BFE837BD4680BD00BF00700052EC
:1008C0000044025800080258000C025880B590B04D
:1008D00000AF78607B680F2B27D8002279681C2036
:1008E00000F080FA1C2000F097FA294A7B68136018
:1008F000284BD3F8E830274A43F00103C2F8E83028
:10090000244BD3F8E83003F00103FB60FB6807F1E8
:10091000100207F114031146184601F0BDFCBB6A32
:10092000BB63BB6B002B06D101E001232CE001F07F
:100930009DFCF86304E001F099FC03465B00FB6357
:10094000FB6B154AA2FB03239B0C013B7B63134B00
:100950004FF080421A60114B40F2E732DA600F4AE2
:100960007B6B53600D4B00221A610C4B00229A6086
:100970000A4805F0D9FA0346002B04D1074805F0D0
:1009800035FB034600E0012318464037BD4680BDD5
:10099000240000240044025883DE1B4374240024F6
:1009A00080B500AF01F0BAFCFEE780B400AFFEE70F
:1009B00080B400AFFEE780B400AFFEE780B400AFC4
:1009C000FEE780B400AF00BFBD465DF8047B704712
:1009D00080B500AF024805F081FB00BF80BD00BFBD
:1009E0007424002480B500AF024804F0A9F800BFC9
:1009F00080BD00BFB000002480B400AF374BD3F8F7
:100A00008830364A43F47003C2F88830344B1B6890
:100A100003F00F03062B07D8314B1B6823F00F039D
:100A20002F4A43F0070313602E4B1B682D4A43F0F7
:100A3000010313602B4B00221A612A4B1A682949C3
:100A4000294B13400B60264B1B6803F00803002B57
:100A500007D0234B1B6823F00F03214A43F0070301
:100A60001360204B00229A611E4B0022DA611D4B5D
:100A700000221A621B4B1D4A9A621A4B1C4ADA6208
:100A8000184B1C4A1A63174B00225A63154B194A1C
:100A90009A63144B0022DA63124B164A1A64114B04
:100AA00000225A640F4B1B680E4A23F48023136004
:100AB0000C4B00221A66104B1A68104B1340B3F10E
:100AC000005F02D20E4B01221A600E4B43F2D2029B
:100AD0001A6000BFBD465DF8047B704700ED00E082
:100AE00000200052004402587FEDF6EA00020202A4
:100AF0000000FF01800201010010005C0000FFFF08
:100B00000881005100400052DFF834D0FFF774FF35
:100B10000C480D490D4A002302E0D458C450043358
:100B2000C4188C42F9D30A4A0A4C002301E013602E
:100B30000432A242FBD30CF0D5FFFFF7D9FB70477C
:100B4000000008240000002494000024ECDE0008CB
:100B5000940000248C8F0024FEE7000080B582B052
:100B600000AF032000F033F901F0D6F90246154B2F
:100B70009B691B0A03F00F031349CB5C03F01F03AF
:100B800022FA03F37B600F4B9B6903F00F030E4ABD
:100B9000D35C03F01F037A6822FA03F30B4A136055
:100BA0000B4A7B6813600020FFF790FE0346002B82
:100BB00001D0012302E0FFF7D7FD002318460837D4
:100BC000BD4680BD00440258C0DD0008200000245E
:100BD0001C00002480B400AF064B1B781A46064B5D
:100BE0001B681344044A136000BFBD465DF8047BD4
:100BF000704700BF28000024C024002480B400AF48
:100C0000034B1B681846BD465DF8047B704700BF68
:100C1000C024002480B584B000AF7860FFF7EEFFF9
:100C2000B8607B68FB60FB68B3F1FF3F05D00A4BFF
:100C30001B781A46FB681344FB6000BFFFF7DEFF1A
:100C40000246BB68D31AFA689A42F7D800BF00BFC1
:100C50001037BD4680BD00BF2800002480B400AF1F
:100C6000034B1B681B0C1846BD465DF8047B7047A0
:100C70000010005C80B485B000AF78607B6803F042
:100C80000703FB600B4BDB68BB60BA684FF6FF03E2
:100C90001340BB60FB681A02BB681A43064B134340
:100CA000BB60044ABB68D36000BF1437BD465DF823
:100CB000047B704700ED00E00000FA0580B400AF4F
:100CC000044BDB681B0A03F007031846BD465DF8BA
:100CD000047B704700ED00E080B483B000AF0346B2
:100CE000FB80B7F90630002B0BDBFB8803F01F02FB
:100CF0000749B7F906305B09012000FA02F241F812
:100D0000232000BF0C37BD465DF8047B704700BF51
:100D100000E100E080B483B000AF03463960FB809F
:100D2000B7F90630002B0ADB3B68DAB20C49B7F999
:100D300006301201D2B20B4483F800230AE03B686C
:100D4000DAB20849FB8803F00F03043B1201D2B268
:100D50000B441A7600BF0C37BD465DF8047B704724
:100D600000E100E000ED00E080B489B000AFF86081
:100D7000B9607A60FB6803F00703FB61FB69C3F1AC
:100D80000703042B28BF0423BB61FB690433062B34
:100D900002D9FB69033B00E000237B614FF0FF3287
:100DA000BB6902FA03F3DA43BB681A407B699A40D5
:100DB0004FF0FF317B6901FA03F3D9437B680B40A5
:100DC000134318462437BD465DF8047B704780B551
:100DD00082B000AF78607868FFF74CFF00BF08373B
:100DE000BD4680BD80B586B000AF0346B9607A606D
:100DF000FB81FFF763FF78617A68B9687869FFF76C
:100E0000B3FF0246B7F90E3011461846FFF782FFCE
:100E100000BF1837BD4680BD80B582B000AF034625
:100E2000FB80B7F906301846FFF756FF00BF0837BA
:100E3000BD4680BD80B400AFBFF35F8F00BF074BDE
:100E40005B6A064A23F480335362054B00225A60E2
:100E500000BFBD465DF8047B704700BF00ED00E0B9
:100E600090ED00E080B483B000AF78600B4A7B68FF
:100E700043F0010353600A4B5B6A094A43F4803331
:100E80005362BFF34F8F00BFBFF36F8F00BF00BF30
:100E90000C37BD465DF8047B704700BF90ED00E065
:100EA00000ED00E080B483B000AF78607B685A78D2
:100EB0001D4B9A607B681B78002B29D01A4A7B68EF
:100EC0005B68D3607B681B7B1A077B68DB7A1B0639
:100ED0001A437B689B7ADB041A437B685B7B9B0429
:100EE0001A437B689B7B5B041A437B68DB7B1B0498
:100EF0001A437B685B7A1B021A437B681B7A5B0090
:100F000013437A6812781146074A0B43136105E0D0
:100F1000054B0022DA60044B00221A6100BF0C3737
:100F2000BD465DF8047B704790ED00E080B489B069
:100F300000AF786039600023FB61894B7B6194E1ED
:100F40003B681A680121FB6901FA03F313403B6116
:100F50003B69002B00F086813B685B6803F003036C
:100F6000012B05D03B685B6803F00303022B30D1F3
:100F70007B689B68BB61FB695B00032202FA03F399
:100F8000DB43BA691340BB613B68DA68FB695B000D
:100F900002FA03F3BA691343BB617B68BA699A60CA
:100FA0007B685B68BB610122FB6902FA03F3DB43E8
:100FB000BA691340BB613B685B681B0903F001021F
:100FC000FB6902FA03F3BA691343BB617B68BA6930
:100FD0005A603B685B6803F00303032B17D07B6800
:100FE000DB68BB61FB695B00032202FA03F3DB43AE
:100FF000BA691340BB613B689A68FB695B0002FAFF
:1010000003F3BA691343BB617B68BA69DA603B6872
:101010005B6803F00303022B23D1FB69DA087B68CA
:10102000083253F82230BB61FB6903F007039B00D1
:101030000F2202FA03F3DB43BA691340BB613B683A
:101040001A69FB6903F007039B0002FA03F3BA690C
:101050001343BB61FB69DA087B680832B96943F85E
:1010600022107B681B68BB61FB695B00032202FAEC
:1010700003F3DB43BA691340BB613B685B6803F071
:101080000302FB695B0002FA03F3BA691343BB6115
:101090007B68BA691A603B685B6803F44033002BD5
:1010A00000F0E0802F4BD3F8F4302E4A43F00203D7
:1010B000C2F8F4302B4BD3F8F43003F00203FB609A
:1010C000FB68294AFB699B08023352F82330BB6155
:1010D000FB6903F003039B000F2202FA03F3DB43D7
:1010E000BA691340BB617B68204A934252D07B6847
:1010F0001F4A934231D07B681E4A93422BD07B68B3
:101100001D4A934225D07B681C4A93421FD07B68BE
:101110001B4A934219D07B681A4A934213D07B68CA
:10112000194A93420DD07B68184A934207D07B68D6
:10113000174A934201D109232DE00A232BE008230B
:1011400029E0072327E0062325E0052323E00423E5
:1011500021E003231FE002231DE001231BE000BF69
:101160008000005800440258000400580000025853
:101170000004025800080258000C025800100258DF
:101180000014025800180258001C0258002002588F
:10119000002402580023FA6902F0030292009340EF
:1011A000BA691343BB613849FB699B080233BA69CA
:1011B00041F823204FF0B0431B68BB613B69DB4320
:1011C000BA691340BB613B685B6803F48013002B72
:1011D00003D0BA693B691343BB614FF0B042BB69AE
:1011E00013604FF0B0435B68BB613B69DB43BA6996
:1011F0001340BB613B685B6803F40013002B03D012
:10120000BA693B691343BB614FF0B042BB6953609D
:101210007B695B68BB613B69DB43BA691340BB61B7
:101220003B685B6803F40033002B03D0BA693B6969
:101230001343BB617B69BA695A607B691B68BB61F8
:101240003B69DB43BA691340BB613B685B6803F4ED
:101250008033002B03D0BA693B691343BB617B69C0
:10126000BA691A60FB690133FB613B681A68FB6964
:1012700022FA03F3002B7FF463AE00BF00BF2437D4
:10128000BD465DF8047B70470004005880B485B00B
:1012900000AF78600B467B807B681A697B881340BF
:1012A000002B02D00123FB7301E00023FB73FB7BC7
:1012B00018461437BD465DF8047B704780B584B08E
:1012C00000AF7860194BDB6803F00403042B0AD0ED
:1012D000164BDB6803F007037A689A4201D00123BA
:1012E0001FE000231DE0114BDB6823F007020F49CC
:1012F0007B681343CB60FFF781FCF86009E0FFF7E0
:101300007DFC0246FB68D31AB3F57A7F01D901232D
:1013100007E0064B5B6803F40053B3F5005FEED1C2
:10132000002318461037BD4680BD00BF0048025854
:1013300080B58CB000AF78607B68002B02D10123B0
:1013400000F01DBC7B681B6803F00103002B00F05C
:101350008780994B1B6903F03803FB62964B9B6AAD
:10136000BB62FB6A102B07D0FB6A182B10D1BB6A3B
:1013700003F00303022B0BD18F4B1B6803F40033E4
:10138000002B6CD07B685B68002B68D10123F6E3EF
:101390007B685B68B3F5803F06D1874B1B68864A44
:1013A00043F4803313602EE07B685B68002B0CD124
:1013B000814B1B68804A23F4803313607E4B1B688B
:1013C0007D4A23F4802313601DE07B685B68B3F5DE
:1013D000A02F0CD1784B1B68774A43F4802313600D
:1013E000754B1B68744A43F4803313600BE0724BF7
:1013F0001B68714A23F4803313606F4B1B686E4A7D
:1014000023F4802313607B685B68002B13D0FFF705
:10141000F5FB786208E0FFF7F1FB02467B6AD31A1E
:10142000642B01D90323AAE3634B1B6803F4003345
:10143000002BF0D014E0FFF7E1FB786208E0FFF743
:10144000DDFB02467B6AD31A642B01D9032396E3A2
:10145000594B1B6803F40033002BF0D100E000BFB0
:101460007B681B6803F00203002B00F0CB80524B1B
:101470001B6903F038033B624F4B9B6AFB613B6A7D
:10148000002B07D03B6A182B56D1FB6903F00303EE
:10149000002B51D1484B1B6803F00403002B05D0EF
:1014A0007B68DB68002B01D1012368E3424B1B689A
:1014B00023F019027B68DB683F4913430B60FFF799
:1014C0009DFB786208E0FFF799FB02467B6AD31A1E
:1014D000022B01D9032352E3374B1B6803F00403AB
:1014E000002BF0D0FFF7BAFB034641F20302934210
:1014F00017D87B681B69402B08D12F4B5B6823F4FE
:101500007C332D4A43F4003353607BE02A4B5B6805
:1015100023F47C327B681B691B03274913434B6010
:1015200070E0254B5B6823F0FE427B681B691B065D
:10153000214913434B6065E07B68DB68002B48D092
:101540001D4B1B6823F019027B68DB681A491343A3
:101550000B60FFF753FB786208E0FFF74FFB024692
:101560007B6AD31A022B01D9032308E3124B1B68B1
:1015700003F00403002BF0D0FFF770FB034641F2A9
:10158000030293421AD87B681B69402B08D10A4B8F
:101590005B6823F47C33084A43F40033536031E042
:1015A000054B5B6823F47C327B681B691B03024993
:1015B00013434B6026E000BF004402589A4B5B681F
:1015C00023F0FE427B681B691B06974913434B605F
:1015D00018E0954B1B68944A23F001031360FFF752
:1015E0000DFB786208E0FFF709FB02467B6AD31A1D
:1015F000022B01D90323C2E28B4B1B6803F00403C7
:10160000002BF0D17B681B6803F01003002B00F067
:10161000A980854B1B6903F03803BB61824B9B6A31
:101620007B61BB69082B07D0BB69182B3AD17B695A
:1016300003F00303012B35D17B4B1B6803F480734C
:10164000002B05D07B68DB69802B01D0012396E25B
:10165000FFF704FB034641F20302934217D87B686D
:101660001B6A202B08D1704B5B6823F0F8436E4A4D
:1016700043F08043536075E06B4B5B6823F0F842A6
:101680007B681B6A9B06684913434B606AE0664BA4
:10169000DB6823F07C527B681B6A1B06624913439C
:1016A000CB605FE07B68DB69002B42D05E4B1B6840
:1016B0005D4A43F080031360FFF7A0FA786208E008
:1016C000FFF79CFA02467B6AD31A022B01D9032347
:1016D00055E2554B1B6803F48073002BF0D0FFF7E5
:1016E000BDFA034641F20302934217D87B681B6A96
:1016F000202B08D14C4B5B6823F0F8434A4A43F057
:10170000804353602EE0484B5B6823F0F8427B68CF
:101710001B6A9B06444913434B6023E0424BDB6842
:1017200023F07C527B681B6A1B063F491343CB6046
:1017300018E03D4B1B683C4A23F080031360FFF721
:101740005DFA786208E0FFF759FA02467B6AD31A1D
:10175000022B01D9032312E2334B1B6803F480737D
:10176000002BF0D17B681B6803F00803002B36D0F8
:101770007B685B69002B19D02B4B5B6F2A4A43F0C7
:1017800001035367FFF73AFA786208E0FFF736FA89
:1017900002467B6AD31A022B01D90323EFE1224BC5
:1017A0005B6F03F00203002BF0D018E01E4B5B6F61
:1017B0001D4A23F001035367FFF720FA786208E01F
:1017C000FFF71CFA02467B6AD31A022B01D90323C6
:1017D000D5E1154B5B6F03F00203002BF0D17B6862
:1017E0001B6803F02003002B39D07B689B69002B1A
:1017F0001CD00D4B1B680C4A43F480531360FFF759
:10180000FDF9786208E0FFF7F9F902467B6AD31A1E
:10181000022B01D90323B2E1034B1B6803F40053ED
:10182000002BF0D01BE000BF004402589B4B1B680C
:101830009A4A23F480531360FFF7E0F9786208E0D6
:10184000FFF7DCF902467B6AD31A022B01D9032386
:1018500095E1924B1B6803F40053002BF0D17B6899
:101860001B6803F00403002B00F081808C4B1B6885
:101870008B4A43F480731360FFF7C0F9786208E085
:10188000FFF7BCF902467B6AD31A642B01D9032304
:1018900075E1834B1B6803F48073002BF0D07B68E9
:1018A0009B68012B06D17D4B1B6F7C4A43F00103E3
:1018B00013672DE07B689B68002B0CD1774B1B6F67
:1018C000764A23F001031367744B1B6F734A23F0AE
:1018D000040313671CE07B689B68052B0CD16F4BDE
:1018E0001B6F6E4A43F0040313676C4B1B6F6B4A0C
:1018F00043F0010313670BE0684B1B6F674A23F04B
:1019000001031367654B1B6F644A23F004031367DD
:101910007B689B68002B15D0FFF770F978620AE0AE
:10192000FFF76CF902467B6AD31A41F28832934280
:1019300001D9032323E1594B1B6F03F00203002B52
:10194000EED014E0FFF75AF978620AE0FFF756F993
:1019500002467B6AD31A41F28832934201D90323AB
:101960000DE14E4B1B6F03F00203002BEED17B68A1
:101970005B6A002B00F00281484B1B6903F03803BF
:10198000182B00F0BD807B685B6A022B40F09E80C4
:10199000424B1B68414A23F080731360FFF72EF916
:1019A000786208E0FFF72AF902467B6AD31A022B15
:1019B00001D90323E3E0394B1B6803F00073002BCC
:1019C000F0D1364B9A6A374B13407A68916A7A683D
:1019D000D26A12010A43314913438B627B681B6B45
:1019E000013BC3F308027B685B6B013B5B029BB26C
:1019F0001A437B689B6B013B1B0403F4FE031A43F1
:101A00007B68DB6B013B1B0603F0FE43234913435A
:101A10000B63224BDB6A214A23F00103D3621F4B85
:101A20005A6B214B13407A68926CD2001B491343C6
:101A30004B631A4BDB6A23F00C027B681B6C174963
:101A40001343CB62154BDB6A23F002027B685B6CAD
:101A500012491343CB62114BDB6A104A43F48033C3
:101A6000D3620E4BDB6A0D4A43F40033D3620B4B57
:101A7000DB6A0A4A43F48023D362084BDB6A074AD5
:101A800043F00103D362054B1B68044A43F08073A3
:101A90001360FFF7B3F8786211E000BF004402580A
:101AA000004802580CFCFFFF0700FFFFFFF7A6F8F5
:101AB00002467B6AD31A022B01D903235FE0324B23
:101AC0001B6803F00073002BF0D057E02E4B1B680F
:101AD0002D4A23F080731360FFF790F8786208E0D6
:101AE000FFF78CF802467B6AD31A022B01D9032335
:101AF00045E0254B1B6803F00073002BF0D13DE05F
:101B0000214B9B6A3B61204B1B6BFB607B685B6AD4
:101B1000012B31D03B6903F003027B689B6A9A4238
:101B20002AD13B691B0903F03F027B68DB6A9A42BA
:101B300022D1FB68C3F308027B681B6B013B9A420E
:101B40001AD1FB685B0A03F07F027B685B6B013B89
:101B50009A4211D1FB681B0C03F07F027B689B6BE0
:101B6000013B9A4208D1FB681B0E03F07F027B68A1
:101B7000DB6B013B9A4201D0012300E000231846B1
:101B80003037BD4680BD00BF0044025880B586B0E6
:101B900000AF786039607B68002B01D101239CE1A4
:101BA0008A4B1B6803F00F033A689A4210D9874B9F
:101BB0001B6823F00F0285493B6813430B60834B7E
:101BC0001B6803F00F033A689A4201D0012384E1B5
:101BD0007B681B6803F00403002B10D07B681A6934
:101BE0007B4B9B6903F070039A4208D9784B9B6941
:101BF00023F070027B681B69754913438B617B6816
:101C00001B6803F00803002B10D07B685A69704BE7
:101C1000DB6903F070039A4208D96D4BDB6923F04E
:101C200070027B685B696A491343CB617B681B6800
:101C300003F01003002B10D07B689A69644BDB69BA
:101C400003F4E0639A4208D9614BDB6923F4E06254
:101C50007B689B695E491343CB617B681B6803F01B
:101C60002003002B10D07B68DA69594B1B6A03F004
:101C700070039A4208D9564B1B6A23F070027B68A6
:101C8000DB69534913430B627B681B6803F0020353
:101C9000002B10D07B68DA684D4B9B6903F00F0373
:101CA0009A4208D94A4B9B6923F00F027B68DB6894
:101CB000474913438B617B681B6803F00103002BCA
:101CC00055D0434B9B6923F470627B689B68404905
:101CD00013438B617B685B68022B07D13C4B1B680D
:101CE00003F40033002B21D10123F6E07B685B680D
:101CF000032B07D1364B1B6803F00073002B15D163
:101D00000123EAE07B685B68012B07D1304B1B683D
:101D100003F48073002B09D10123DEE02C4B1B68F8
:101D200003F00403002B01D10123D6E0284B1B69EB
:101D300023F007027B685B68254913430B61FEF7BC
:101D40005DFF78610AE0FEF759FF02467B69D31A0E
:101D500041F28832934201D90323BEE01C4B1B6938
:101D600003F038027B685B68DB009A42EBD17B684A
:101D70001B6803F00203002B10D07B68DA68144B59
:101D80009B6903F00F039A4208D2114B9B6923F021
:101D90000F027B68DB680E4913438B610B4B1B689A
:101DA00003F00F033A689A4214D2084B1B6823F0E1
:101DB0000F0206493B6813430B60044B1B6803F09A
:101DC0000F033A689A4205D0012386E000200052B2
:101DD000004402587B681B6803F00403002B10D0FA
:101DE0007B681A693F4B9B6903F070039A4208D2E3
:101DF0003C4B9B6923F070027B681B693949134394
:101E00008B617B681B6803F00803002B10D07B6894
:101E10005A69344BDB6903F070039A4208D2314BA4
:101E2000DB6923F070027B685B692E491343CB6149
:101E30007B681B6803F01003002B10D07B689A6945
:101E4000284BDB6903F4E0639A4208D2254BDB6937
:101E500023F4E0627B689B6922491343CB617B6872
:101E60001B6803F02003002B10D07B68DA691D4B40
:101E70001B6A03F070039A4208D21A4B1B6A23F0C4
:101E800070027B68DB69174913430B6200F044F86A
:101E90000246144B9B691B0A03F00F031249CB5CEB
:101EA00003F01F0322FA03F33B610E4B9B6903F01F
:101EB0000F030D4AD35C03F01F033A6922FA03F3C0
:101EC0000A4A13600A4A3B6913600A4B1B681846AA
:101ED000FEF7FCFC0346FB73FB7B18461837BD4638
:101EE00080BD00BF00440258C0DD0008200000246F
:101EF0001C0000242400002480B400AF054B1B68A4
:101F0000044A43F40023136000BFBD465DF8047B20
:101F1000704700BF0044025880B489B000AFB34B93
:101F20001B6903F03803182B00F2558101A252F807
:101F300023F000BF991F0008D7210008D72100080F
:101F4000D7210008D7210008D7210008D721000891
:101F5000D7210008BF1F0008D7210008D72100089B
:101F6000D7210008D7210008D7210008D721000871
:101F7000D7210008C51F0008D7210008D721000875
:101F8000D7210008D7210008D7210008D721000851
:101F9000D7210008CB1F0008944B1B6803F02003D7
:101FA000002B09D0914B1B68DB0803F00303904A18
:101FB00022FA03F3BB6111E18D4BBB610EE18D4B46
:101FC000BB610BE18C4BBB6108E1884B9B6A03F062
:101FD00003037B61854B9B6A1B0903F03F033B6155
:101FE000824BDB6A03F00103FB60804B5B6BDB0819
:101FF000C3F30C03FA6802FB03F307EE903AF8EE22
:10200000677AC7ED027A3B69002B00F0E1807B69BB
:10201000022B00F083807B69022B00F2A1807B6998
:10202000002B03D07B69012B56D099E06F4B1B68C6
:1020300003F02003002B2DD06C4B1B68DB0803F052
:1020400003036B4A22FA03F37B607B6807EE903A46
:10205000F8EE676A3B6907EE903AF8EE677A86EE2B
:10206000A77A624B1B6BC3F3080307EE903AF8EEB6
:10207000676A97ED026ADFED615AC6EE257A76EE61
:10208000A77AF7EE006A77EEA67A67EE277AC7EDB1
:10209000077A87E03B6907EE903AF8EE677ADFED62
:1020A000586A86EEA77A514B1B6BC3F3080307EE01
:1020B000903AF8EE676A97ED026ADFED505AC6EE85
:1020C000257A76EEA77AF7EE006A77EEA67A67EEC3
:1020D000277AC7ED077A65E03B6907EE903AF8EE9C
:1020E000677ADFED486A86EEA77A404B1B6BC3F335
:1020F000080307EE903AF8EE676A97ED026ADFEDA3
:102100003F5AC6EE257A76EEA77AF7EE006A77EEAA
:10211000A67A67EE277AC7ED077A43E03B6907EEB8
:10212000903AF8EE677ADFED386A86EEA77A2F4BA1
:102130001B6BC3F3080307EE903AF8EE676A97ED5E
:10214000026ADFED2E5AC6EE257A76EEA77AF7EE12
:10215000006A77EEA67A67EE277AC7ED077A21E064
:102160003B6907EE903AF8EE677ADFED266A86EE75
:10217000A77A1E4B1B6BC3F3080307EE903AF8EEE9
:10218000676A97ED026ADFED1D5AC6EE257A76EE94
:10219000A77AF7EE006A77EEA67A67EE277AC7EDA0
:1021A000077A00BF114B1B6B5B0A03F07F030133FF
:1021B0003B603B6807EE903AB8EE677AD7ED076A66
:1021C000C6EE877AFCEEE77A17EE903ABB6105E03F
:1021D0000023BB6102E0074BBB6100BFBB6918462F
:1021E0002437BD465DF8047B704700BF00440258A9
:1021F0000090D00300093D0000366E01000000464B
:102200000024744C0024744A001BB74B80B582B084
:1022100000AFFFF781FE0246104B9B691B0A03F0DB
:102220000F030F49CB5C03F01F0322FA03F37B601B
:102230000A4B9B6903F00F03094AD35C03F01F03A9
:102240007A6822FA03F3074A1360074A7B6813602F
:10225000044B1B6818460837BD4680BD0044025831
:10226000C0DD0008200000241C00002480B500AF61
:10227000FFF7CCFF0246064BDB691B0903F007039F
:102280000449CB5C03F01F0322FA03F3184680BD18
:1022900000440258C0DD000880B483B000AF78600D
:1022A00039607B683F221A601A4B1B6903F00702F2
:1022B0007B685A60174B9B6903F470627B689A6075
:1022C000144B9B6903F00F027B68DA60114B9B692A
:1022D00003F070027B681A610E4BDB6903F0700239
:1022E0007B685A610B4BDB6903F4E0627B689A619F
:1022F000084B1B6A03F070027B68DA61064B1B68AF
:1023000003F00F023B681A6000BF0C37BD465DF852
:10231000047B7047004402580020005280B500AF93
:10232000074B5B6E03F48063B3F5806F05D100F05B
:1023300009F8034B4FF480629A6600BF80BD00BF6E
:102340000044025880B400AF00BFBD465DF8047B76
:102350007047000080B586B000AF78600023FB7541
:102360000023BB757B681B6803F00063002B3FD024
:102370007B685B6EB3F5401F2AD0B3F5401F24D8AD
:10238000B3F5001F18D0B3F5001F1ED8002B03D0E3
:10239000B3F5801F07D018E0A34BDB6AA24A43F4D1
:1023A0000033D36215E07B6804330221184601F044
:1023B000F9FF0346FB750CE07B68243302211846C5
:1023C00002F0A2F80346FB7503E00123FB7500E071
:1023D00000BFFB7D002B09D1934B1B6D23F44012F2
:1023E0007B685B6E904913430B6501E0FB7DBB7519
:1023F0007B681B6803F48073002B3DD07B685B6DAA
:10240000042B26D801A252F823F000BF2124000893
:102410002F240008412400085924000859240008EA
:10242000814BDB6A804A43F40033D36215E07B685A
:1024300004330021184601F0B5FF0346FB750CE09C
:102440007B6824330021184602F05EF80346FB75D2
:1024500003E00123FB7500E000BFFB7D002B09D1E9
:10246000714B1B6D23F007027B685B6D6E49134354
:102470000B6501E0FB7DBB757B681B6803F4007393
:10248000002B42D07B689B6DB3F5807F2BD0B3F5DA
:10249000807F25D8C02B28D0C02B21D8802B16D0E8
:1024A000802B1DD8002B02D0402B07D018E05E4BAC
:1024B000DB6A5D4A43F40033D36217E07B68043380
:1024C0000021184601F06EFF0346FB750EE07B68A5
:1024D00024330021184602F017F80346FB7505E087
:1024E0000123FB7502E000BF00E000BFFB7D002B75
:1024F00009D14D4B1B6D23F4E0727B689B6D4A49FB
:1025000013430B6501E0FB7DBB757B681B6803F41F
:102510008063002B49D07B68D3F8A430B3F5000F5B
:1025200030D0B3F5000F2AD8B3F5C00F2CD0B3F5D7
:10253000C00F24D8B3F5800F18D0B3F5800F1ED884
:10254000002B03D0B3F5001F07D018E0364BDB6A31
:10255000354A43F40033D36217E07B68043300212B
:10256000184601F01FFF0346FB750EE07B6824331D
:102570000021184601F0C8FF0346FB7505E0012362
:10258000FB7502E000BF00E000BFFB7D002B0AD11D
:10259000254B9B6D23F460027B68D3F8A43022495D
:1025A00013438B6501E0FB7DBB757B681B6803F4FF
:1025B0000063002B4BD07B68D3F8A830B3F1806F59
:1025C00030D0B3F1806F2AD8B3F1407F2ED0B3F171
:1025D000407F24D8B3F1007F18D0B3F1007F1ED81C
:1025E000002B03D0B3F1807F07D018E00E4BDB6ADD
:1025F0000D4A43F40033D36219E07B6804330021B1
:10260000184601F0CFFE0346FB7510E07B682433CB
:102610000021184601F078FF0346FB7507E001230F
:10262000FB7504E000BF02E00044025800BFFB7DE0
:10263000002B0AD1994B9B6D23F0E0627B68D3F8A5
:10264000A830964913438B6501E0FB7DBB757B6821
:102650001B6803F00073002B32D07B689B6C302B1F
:102660001CD0302B17D8202B0CD0202B13D8002BAC
:1026700016D0102B0FD1894BDB6A884A43F4003304
:10268000D3620EE07B6804330221184601F08AFE13
:102690000346FB7505E00123FB7502E000BF00E087
:1026A00000BFFB7D002B09D17C4BDB6C23F030029B
:1026B0007B689B6C79491343CB6401E0FB7DBB7560
:1026C0007B681B6803F48053002B47D07B68DB6D6D
:1026D000B3F5804F30D0B3F5804F2AD8B3F5405FC3
:1026E0002CD0B3F5405F24D8B3F5005F18D0B3F514
:1026F000005F1ED8002B03D0B3F5805F07D018E031
:10270000664BDB6A654A43F40033D36217E07B68AB
:1027100004330021184601F045FE0346FB750EE028
:102720007B6824330021184601F0EEFE0346FB755A
:1027300005E00123FB7502E000BF00E000BFFB7D68
:10274000002B09D1554B1B6D23F4E0427B68DB6DF8
:10275000524913430B6501E0FB7DBB757B681B6829
:1027600003F40053002B49D07B681B6EB3F5A02FF8
:102770002ED0B3F5A02F28D8B3F5802F2AD0B3F5EB
:10278000802F22D8B3F5403F26D0B3F5403F1CD868
:10279000B3F5003F10D0B3F5003F16D8002B1DD085
:1027A000B3F5803F11D17B6804330121184601F055
:1027B000F9FD0346FB7512E07B68243301211846BE
:1027C00001F0A2FE0346FB7509E00123FB7506E05C
:1027D00000BF04E000BF02E000BF00E000BFFB7DDF
:1027E000002B09D12D4B1B6D23F4E0227B681B6E5F
:1027F0002A4913430B6501E0FB7DBB757B681B68B1
:1028000003F48043002B4DD07B68D3F8AC30B3F198
:10281000A04F2ED0B3F1A04F28D8B3F1804F2AD0CB
:10282000B3F1804F22D8B3F1405F26D0B3F1405FBF
:102830001CD8B3F1005F10D0B3F1005F16D8002BA5
:102840001DD0B3F1805F11D17B680433012118469C
:1028500001F0A8FD0346FB7512E07B6824330121DB
:10286000184601F051FE0346FB7509E00123FB7594
:1028700006E000BF04E000BF02E000BF00E000BFD0
:10288000FB7D002B0CD1054B9B6D23F0E0427B6858
:10289000D3F8AC30014913438B6503E00044025880
:1028A000FB7DBB757B681B6803F40043002B2FD0B6
:1028B0007B68DB6EB3F1005F0ED0B3F1005F14D81C
:1028C000002B15D0B3F1805F0FD1AF4BDB6AAE4A5E
:1028D00043F40033D3620CE07B68043301211846D3
:1028E00001F060FD0346FB7503E00123FB7500E08A
:1028F00000BFFB7D002B09D1A34B1B6D23F0405281
:102900007B68DB6EA04913430B6501E0FB7DBB7563
:102910007B681B6803F08073002B32D07B685B6C94
:10292000032B1BD801A252F823F000BF6329000833
:102930003D2900084B29000863290008924BDB6AF7
:10294000914A43F40033D3620CE07B6804330221E4
:10295000184601F027FD0346FB7503E00123FB75D4
:1029600000E000BFFB7D002B09D1874BDB6C23F01F
:1029700003027B685B6C84491343CB6401E0FB7DFD
:10298000BB757B681B6803F48003002B00F0868016
:102990007E4B1B687D4A43F480731360FEF72EF96B
:1029A000386109E0FEF72AF902463B69D31A642B25
:1029B00002D90323FB7505E0744B1B6803F4807395
:1029C000002BEFD0FB7D002B66D16F4B1A6F7B681D
:1029D000D3F8B030534003F44073002B13D06A4B4C
:1029E0001B6F23F44073FB60674B1B6F664A43F415
:1029F00080331367644B1B6F634A23F48033136780
:102A0000614AFB6813677B68D3F8B030B3F5807F09
:102A100015D1FEF7F3F838610BE0FEF7EFF8024648
:102A20003B69D31A41F28832934202D90323FB75E2
:102A300005E0554B1B6F03F00203002BEDD0FB7D2F
:102A4000002B26D17B68D3F8B03003F44073B3F584
:102A5000407F0DD14C4B1B6923F47C527B68D3F82B
:102A6000B03019094A4B0B40474913430B6105E04D
:102A7000454B1B69444A23F47C531361424B1A6F44
:102A80007B68D3F8B030C3F30B033F4913430B67A4
:102A900004E0FB7DBB7501E0FB7DBB757B681B68BB
:102AA00003F00103002B00F085807B689B6F282BCF
:102AB00066D801A252F823F0952B0008812B00085C
:102AC000812B0008812B0008812B0008812B000836
:102AD000812B0008812B00085D2B0008812B00084A
:102AE000812B0008812B0008812B0008812B000816
:102AF000812B0008812B00086F2B0008812B000818
:102B0000812B0008812B0008812B0008812B0008F5
:102B1000812B0008812B0008952B0008812B0008D1
:102B2000812B0008812B0008812B0008812B0008D5
:102B3000812B0008812B0008952B0008812B0008B1
:102B4000812B0008812B0008812B0008812B0008B5
:102B5000812B0008812B0008952B00087B6804332B
:102B60000121184601F01EFC0346FB7513E07B684B
:102B700024330121184601F0C7FC0346FB750AE027
:102B80000123FB7507E000BF0044025800480258CB
:102B9000CFFFFF0000BFFB7D002B09D1964B5B6D83
:102BA00023F038027B689B6F934913434B6501E028
:102BB000FB7DBB757B681B6803F00203002B38D0DC
:102BC0007B685B6F052B21D801A252F823F000BF70
:102BD000132C0008E92B0008FB2B0008132C00081D
:102BE000132C0008132C00087B68043301211846BD
:102BF00001F0D8FB0346FB750CE07B682433012110
:102C0000184601F081FC0346FB7503E00123FB75C8
:102C100000E000BFFB7D002B09D1774B5B6D23F0FB
:102C200007027B685B6F744913434B6501E0FB7DD2
:102C3000BB757B681B6803F00403002B3AD07B68EC
:102C4000D3F89030052B21D801A252F823F000BF11
:102C5000932C0008692C00087B2C0008932C00089A
:102C6000932C0008932C00087B680433012118463C
:102C700001F098FB0346FB750CE07B6824330121CF
:102C8000184601F041FC0346FB7503E00123FB7588
:102C900000E000BFFB7D002B0AD1574B9B6D23F05A
:102CA00007027B68D3F89030534913438B6501E0EA
:102CB000FB7DBB757B681B6803F02003002B4BD0AA
:102CC0007B68D3F88C30B3F1A04F2ED0B3F1A04F76
:102CD00028D8B3F1804F2AD0B3F1804F22D8B3F176
:102CE000405F26D0B3F1405F1CD8B3F1005F10D035
:102CF000B3F1005F16D8002B1DD0B3F1805F11D166
:102D00007B6804330021184601F04CFB0346FB7539
:102D100012E07B6824330221184601F0F5FB0346DC
:102D2000FB7509E00123FB7506E000BF04E000BF6E
:102D300002E000BF00E000BFFB7D002B0AD12E4B5C
:102D40005B6D23F0E0427B68D3F88C302A49134353
:102D50004B6501E0FB7DBB757B681B6803F040039E
:102D6000002B4DD07B68D3F89830B3F5A05F2ED000
:102D7000B3F5A05F28D8B3F5805F2AD0B3F5805FA4
:102D800022D8B3F5406F26D0B3F5406F1CD8B3F509
:102D9000006F10D0B3F5006F16D8002B1DD0B3F51F
:102DA000806F11D17B6804330021184601F0FAFAD4
:102DB0000346FB7512E07B6824330221184601F0BC
:102DC000A3FB0346FB7509E00123FB7506E000BF8A
:102DD00004E000BF02E000BF00E000BFFB7D002B6D
:102DE0000CD1054B9B6D23F4E0527B68D3F89830EF
:102DF000014913438B6503E000440258FB7DBB751A
:102E00007B681B6803F08003002B4BD07B68D3F8F2
:102E10009C30B3F5204F2ED0B3F5204F28D8B3F512
:102E2000004F2AD0B3F5004F22D8B3F5C04F26D0BB
:102E3000B3F5C04F1CD8B3F5804F10D0B3F5804F19
:102E400016D8002B1DD0B3F5005F11D17B68043379
:102E50000021184601F0A6FA0346FB7512E07B68D4
:102E600024330221184601F04FFB0346FB7509E0AD
:102E70000123FB7506E000BF04E000BF02E000BFD5
:102E800000E000BFFB7D002B0AD19D4B9B6D23F41E
:102E900060427B68D3F89C30994913438B6501E00D
:102EA000FB7DBB757B681B6803F00803002B1AD001
:102EB0007B68D3F88030B3F5805F0AD17B68243318
:102EC0000221184601F020FB0346002B01D001230C
:102ED000BB758B4B5B6D23F440527B68D3F880301D
:102EE000874913434B657B681B6803F01003002B75
:102EF0001AD07B68D3F89430B3F5807F0AD17B6811
:102F000024330221184601F0FFFA0346002B01D0BA
:102F10000123BB757A4B9B6D23F440727B68D3F819
:102F20009430774913438B657B681B6803F4002357
:102F3000002B34D07B68D3F8A030B3F5003F1DD010
:102F4000B3F5003F17D8002B03D0B3F5803F09D06D
:102F500011E07B6804330021184601F023FA034690
:102F6000FB750CE07B6824330221184601F0CCFA93
:102F70000346FB7503E00123FB7500E000BFFB7D0A
:102F8000002B0AD15E4B9B6D23F440327B68D3F853
:102F9000A0305B4913438B6501E0FB7DBB757B680B
:102FA0001B6803F48023002B33D07B68D3F8843074
:102FB000B3F5401F1CD0B3F5401F16D8B3F5801FE2
:102FC00003D0B3F5001F07D00FE04D4BDB6A4C4A2E
:102FD00043F40033D3620CE07B68243301211846AC
:102FE00001F092FA0346FB7503E00123FB7500E054
:102FF00000BFFB7D002B0AD1414B5B6D23F44012D7
:103000007B68D3F884303E4913434B6501E0FB7D78
:10301000BB757B681B6803F48033002B29D07B6869
:10302000DB6C002B03D0B3F5803F07D00FE0344BAF
:10303000DB6A334A43F40033D3620BE07B6804332A
:103040000221184601F0AEF90346FB7502E00123A8
:10305000FB7500BFFB7D002B09D1294BDB6C23F4F2
:1030600080327B68DB6C26491343CB6401E0FB7D37
:10307000BB757B681B6803F00053002B0AD07B688C
:1030800024330221184601F03FFA0346002B01D0F9
:103090000123BB757B681B6803F40033002B33D01E
:1030A0007B68DB6FB3F5407F17D0B3F5407F11D855
:1030B000B3F5007F13D0B3F5007F0BD8002B10D0F1
:1030C000B3F5807F06D10E4BDB6A0D4A43F4003323
:1030D000D36207E00123FB7504E000BF02E000BFFC
:1030E00000E000BFFB7D002B0CD1054B5B6D23F492
:1030F00040727B68DB6F024913434B6504E000BFFD
:1031000000440258FB7DBB757B681B6803F4801389
:10311000002B08D0314B1B6D23F000427B681B6FE6
:103120002E4913430B657B681B6803F08053002B0B
:1031300009D02A4B1B6923F480427B68D3F8B43052
:10314000264913430B617B681B6803F40013002BB3
:1031500008D0224B1B6D23F080727B689B6E1F4949
:1031600013430B657B681B6803F08043002B0DD075
:103170001A4B1B69194A23F400431361174B1A6950
:103180007B68D3F8B830154913430B617B681B6823
:10319000002B08DA114BDB6C23F040527B681B6D6F
:1031A0000E491343CB647B681B6803F40003002BB8
:1031B00009D00A4B5B6D23F440027B68D3F888305A
:1031C000064913434B65BB7D002B01D1002300E072
:1031D000012318461837BD4680BD00BF0044025881
:1031E00080B590B000AF78607B68B3F5807F40F029
:1031F0009580974B1B6D03F007033B633B6B042BE0
:1032000000F2888001A252F823F000BF21320008AA
:1032100049320008713200080D3300089932000865
:103220008B4B1B6803F00073B3F1007F08D107F1EB
:103230002403184600F064FFBB6AFB6300F094BCF3
:103240000023FB6300F090BC814B1B6803F000631C
:10325000B3F1006F08D107F11803184600F0A8FC7D
:10326000BB69FB6300F080BC0023FB6300F07CBC07
:10327000774B1B6803F00053B3F1005F08D107F1EF
:103280000C03184600F0E8FDFB68FB6300F06CBC23
:103290000023FB6300F068BC6D4BDB6C03F0405314
:1032A0007B636B4B1B6803F00403042B0CD17B6B1B
:1032B000002B09D1664B1B68DB0803F00303654A4A
:1032C00022FA03F3FB631FE0614B1B6803F4807376
:1032D000B3F5807F06D17B6BB3F1805F02D15E4B8B
:1032E000FB6311E05A4B1B6803F40033B3F5003F56
:1032F00006D17B6BB3F1005F02D1584BFB6303E057
:103300000023FB6300F030BC00F02EBC544BFB6389
:1033100000F02ABC0023FB6300F026BC7B68B3F5F9
:10332000007F40F09F804A4B1B6D03F4E0733B63CA
:103330003B6BB3F5807F4DD03B6BB3F5807F00F2E4
:1033400084803B6BC02B7DD03B6BC02B7DD83B6B0F
:10335000802B2DD03B6B802B77D83B6B002B03D081
:103360003B6B402B12D070E0394B1B6803F00073AD
:10337000B3F1007F07D107F12403184600F0C0FE27
:10338000BB6AFB63F0E30023FB63EDE3304B1B6898
:1033900003F00063B3F1006F07D107F1180318467B
:1033A00000F006FCBB69FB63DEE30023FB63DBE3A9
:1033B000274B1B6803F00053B3F1005F07D107F1FF
:1033C0000C03184600F048FDFB68FB63CCE30023C8
:1033D000FB63C9E31E4BDB6C03F040537B631C4B68
:1033E0001B6803F00403042B0CD17B6B002B09D169
:1033F000174B1B68DB0803F00303164A22FA03F39A
:10340000FB631EE0124B1B6803F48073B3F5807FEF
:1034100006D17B6BB3F1805F02D10F4BFB6310E0F1
:103420000B4B1B6803F40033B3F5003F06D17B6BF5
:10343000B3F1005F02D1094BFB6302E00023FB63A1
:1034400092E391E3064BFB638EE30023FB638BE384
:10345000004402580090D00300093D0000366E0180
:103460000080BB007B68B3F5806F40F09C809D4B73
:103470009B6D03F460033B633B6BB3F5000F54D0CB
:103480003B6BB3F5000F00F28B803B6BB3F5C00FC5
:1034900000F083803B6BB3F5C00F00F281803B6B83
:1034A000B3F5800F2FD03B6BB3F5800F78D83B6B13
:1034B000002B04D03B6BB3F5001F12D070E0894B9A
:1034C0001B6803F00073B3F1007F07D107F12403F9
:1034D000184600F015FEBB6AFB6345E30023FB635F
:1034E00042E3804B1B6803F00063B3F1006F07D128
:1034F00007F11803184600F05BFBBB69FB6333E37D
:103500000023FB6330E3774B1B6803F00053B3F1F8
:10351000005F07D107F10C03184600F09DFCFB6823
:10352000FB6321E30023FB631EE36E4BDB6C03F0C4
:1035300040537B636B4B1B6803F00403042B0CD1DB
:103540007B6B002B09D1674B1B68DB0803F003037F
:10355000654A22FA03F3FB631EE0624B1B6803F427
:103560008073B3F5807F06D17B6BB3F1805F02D1AE
:103570005E4BFB6310E05B4B1B6803F40033B3F559
:10358000003F06D17B6BB3F1005F02D1584BFB6368
:1035900002E00023FB63E7E2E6E2564BFB63E3E273
:1035A0000023FB63E0E27B68B3F5006F40F0A78087
:1035B0004C4B9B6D03F0E0633B633B6BB3F1806F5F
:1035C00055D03B6BB3F1806F00F296803B6BB3F14B
:1035D000407F00F084803B6BB3F1407F00F28C8031
:1035E0003B6BB3F1007F30D03B6BB3F1007F00F257
:1035F00083803B6B002B04D03B6BB3F1807F12D0F8
:103600007AE0384B1B6803F00073B3F1007F07D1F9
:1036100007F12403184600F073FDBB6AFB63A3E2C5
:103620000023FB63A0E22F4B1B6803F00063B3F1A0
:10363000006F07D107F11803184600F0B9FABB690B
:10364000FB6391E20023FB638EE2264B1B6803F0D1
:103650000053B3F1005F07D107F10C03184600F0E7
:10366000FBFBFB68FB637FE20023FB637CE21D4BFB
:10367000DB6C03F040537B631A4B1B6803F00403BD
:10368000042B0CD17B6B002B09D1164B1B68DB087C
:1036900003F00303144A22FA03F3FB631EE0114B09
:1036A0001B6803F48073B3F5807F06D17B6BB3F1A5
:1036B000805F02D10D4BFB6310E00A4B1B6803F4E3
:1036C0000033B3F5003F06D17B6BB3F1005F02D14D
:1036D000074BFB6302E00023FB6345E244E2054B3A
:1036E000FB6341E2004402580090D00300093D0012
:1036F00000366E010080BB000023FB6334E27B6870
:10370000B3F5805F40F09C809B4B1B6D03F4E0435E
:10371000BB63BB6BB3F5804F54D0BB6BB3F5804F2D
:1037200000F28B80BB6BB3F5405F00F08380BB6B16
:10373000B3F5405F00F28180BB6BB3F5005F2FD023
:10374000BB6BB3F5005F78D8BB6B002B04D0BB6BB1
:10375000B3F5805F12D070E0874B1B6803F00073F5
:10376000B3F1007F07D107F12403184600F0C8FC2D
:10377000BB6AFB63F8E10023FB63F5E17E4B1B684A
:1037800003F00063B3F1006F07D107F11803184687
:1037900000F00EFABB69FB63E6E10023FB63E3E1A3
:1037A000754B1B6803F00053B3F1005F07D107F1BD
:1037B0000C03184600F050FBFB68FB63D4E10023C8
:1037C000FB63D1E16C4BDB6C03F040537B636A4BD2
:1037D0001B6803F00403042B0CD17B6B002B09D175
:1037E000654B1B68DB0803F00303644A22FA03F30A
:1037F000FB631EE0604B1B6803F48073B3F5807FAE
:1038000006D17B6BB3F1805F02D15D4BFB6310E0AF
:10381000594B1B6803F40033B3F5003F06D17B6BB3
:10382000B3F1005F02D1574BFB6302E00023FB635F
:103830009AE199E1544BFB6396E10023FB6393E12A
:103840007B68B3F5002F73D14B4B9B6D03F4403372
:10385000BB63BB6BB3F5003F2FD0BB6BB3F5003F31
:1038600063D8BB6B002B04D0BB6BB3F5803F12D089
:103870005BE0414B1B6803F00063B3F1006F07D1BD
:1038800007F11803184600F093F9BB69FB636BE17D
:103890000023FB6368E1384B1B6803F00053B3F16E
:1038A000005F07D107F10C03184600F0D5FA7B69D9
:1038B000FB6359E10023FB6356E12F4BDB6C03F004
:1038C00040537B632C4B1B6803F00403042B0CD187
:1038D0007B6B002B09D1284B1B68DB0803F003032B
:1038E000264A22FA03F3FB631EE0234B1B6803F412
:1038F0008073B3F5807F06D17B6BB3F1805F02D11B
:103900001F4BFB6310E01C4B1B6803F40033B3F543
:10391000003F06D17B6BB3F1005F02D1194BFB6313
:1039200002E00023FB631FE11EE10023FB631BE1B8
:103930007B68B3F5803F3ED10F4BDB6C03F48033E3
:10394000BB63BB6B002B04D0BB6BB3F5803F1DD0BA
:103950002EE0094B1B6803F00073B3F1007F07D121
:1039600007F12403184600F0CBFBBB6AFB63FBE0C6
:103970000023FB63F8E000BF004402580090D0032E
:1039800000093D0000366E010080BB00794B1B68CA
:1039900003F00063B3F1006F07D107F11803184675
:1039A00000F006F93B6AFB63DEE00023FB63DBE02B
:1039B0000023FB63D8E07B68B3F5804F40F085803F
:1039C0006C4B9B6D03F0E043BB63BB6BB3F1A04F4B
:1039D0006BD0BB6BB3F1A04F74D8BB6BB3F1804F0E
:1039E00056D0BB6BB3F1804F6CD8BB6BB3F1405F6B
:1039F0003BD0BB6BB3F1405F64D8BB6BB3F1005FEE
:103A000021D0BB6BB3F1005F5CD8BB6B002B04D043
:103A1000BB6BB3F1805F04D054E000F0B3F8F863FF
:103A2000A2E0544B1B6803F00063B3F1006F07D1B1
:103A300007F11803184600F0BBF8FB69FB6393E03D
:103A40000023FB6390E04B4B1B6803F00053B3F182
:103A5000005F07D107F10C03184600F0FDF93B6940
:103A6000FB6381E00023FB637EE0424B1B6803F0B5
:103A70000403042B09D13F4B1B68DB0803F003034D
:103A80003D4A22FA03F3FB636EE00023FB636BE025
:103A9000384B1B6803F48073B3F5807F02D1374B3A
:103AA000FB6361E00023FB635EE0324B1B6803F4C1
:103AB0000033B3F5003F02D1314BFB6354E00023E8
:103AC000FB6351E00023FB634EE07B68B3F5004FDE
:103AD00048D1284B1B6D03F04053BB63BB6BB3F164
:103AE000005F2AD0BB6BB3F1005F38D8BB6B002BF3
:103AF00004D0BB6BB3F1805F0DD030E01D4B1B6871
:103B000003F40033B3F5003F02D11D4BFB632BE000
:103B10000023FB6328E0174B1B6803F00073B3F12D
:103B2000007F07D107F12403184600F0E9FABB6AC9
:103B3000FB6319E00023FB6316E00E4B1B6803F0E8
:103B40000063B3F1006F07D107F11803184600F0C6
:103B50002FF8FB69FB6307E00023FB6304E000230D
:103B6000FB6301E00023FB63FB6B18464037BD4657
:103B700080BD00BF004402580090D00300093D0002
:103B800000366E0180B500AFFEF740FB0246064BE3
:103B90001B6A1B0903F007030449CB5C03F01F03F6
:103BA00022FA03F3184680BD00440258C0DD000825
:103BB00080B489B000AF7860A14B9B6A03F0030327
:103BC000BB619F4B9B6A1B0B03F03F037B619C4BCC
:103BD000DB6A1B0903F001033B61994BDB6BDB08DC
:103BE000C3F30C033A6902FB03F307EE903AF8EED5
:103BF000677AC7ED037A7B69002B00F01181BB69FE
:103C0000022B00F08380BB69022B00F2A180BB690C
:103C1000002B03D0BB69012B56D099E0884B1B6861
:103C200003F02003002B2DD0854B1B68DB0803F02D
:103C30000303844A22FA03F3BB60BB6807EE903AA1
:103C4000F8EE676A7B6907EE903AF8EE677A86EEDF
:103C5000A77A7B4B9B6BC3F3080307EE903AF8EE11
:103C6000676A97ED036ADFED785AC6EE257A76EE3D
:103C7000A77AF7EE006A77EEA67A67EE277AC7EDA5
:103C8000077A87E07B6907EE903AF8EE677ADFED16
:103C90006F6A86EEA77A6A4B9B6BC3F3080307EE45
:103CA000903AF8EE676A97ED036ADFED675AC6EE61
:103CB000257A76EEA77AF7EE006A77EEA67A67EEB7
:103CC000277AC7ED077A65E07B6907EE903AF8EE50
:103CD000677ADFED5F6A86EEA77A594B9B6BC3F379
:103CE000080307EE903AF8EE676A97ED036ADFED96
:103CF000565AC6EE257A76EEA77AF7EE006A77EE88
:103D0000A67A67EE277AC7ED077A43E07B6907EE6C
:103D1000903AF8EE677ADFED4F6A86EEA77A484B65
:103D20009B6BC3F3080307EE903AF8EE676A97EDD2
:103D3000036ADFED455AC6EE257A76EEA77AF7EEEE
:103D4000006A77EEA67A67EE277AC7ED077A21E058
:103D50007B6907EE903AF8EE677ADFED3D6A86EE12
:103D6000A77A374B9B6BC3F3080307EE903AF8EE44
:103D7000676A97ED036ADFED345AC6EE257A76EE70
:103D8000A77AF7EE006A77EEA67A67EE277AC7ED94
:103D9000077A00BF2A4B9B6B5B0A03F07F0307EE99
:103DA000903AF8EE677AB7EE007A37EE877AD7ED79
:103DB000076AC6EE877AFCEEE77A17EE902A7B68F0
:103DC0001A601F4B9B6B1B0C03F07F0307EE903AAE
:103DD000F8EE677AB7EE007A37EE877AD7ED076AA2
:103DE000C6EE877AFCEEE77A17EE902A7B685A6077
:103DF000134B9B6B1B0E03F07F0307EE903AF8EE1C
:103E0000677AB7EE007A37EE877AD7ED076AC6EEA3
:103E1000877AFCEEE77A17EE902A7B689A6008E0D2
:103E20007B6800221A607B6800225A607B6800224F
:103E30009A6000BF2437BD465DF8047B704700BF21
:103E4000004402580090D003000000460024744C47
:103E50000024744A001BB74B80B489B000AF78606F
:103E6000A14B9B6A03F00303BB619F4B9B6A1B0D35
:103E700003F03F037B619C4BDB6A1B0A03F00103E9
:103E80003B61994B5B6CDB08C3F30C033A6902FBA3
:103E900003F307EE903AF8EE677AC7ED037A7B6991
:103EA000002B00F01181BB69022B00F08380BB69FD
:103EB000022B00F2A180BB69002B03D0BB69012B50
:103EC00056D099E0884B1B6803F02003002B2DD0BF
:103ED000854B1B68DB0803F00303844A22FA03F3D3
:103EE000BB60BB6807EE903AF8EE676A7B6907EE45
:103EF000903AF8EE677A86EEA77A7B4B1B6CC3F399
:103F0000080307EE903AF8EE676A97ED036ADFED73
:103F1000785AC6EE257A76EEA77AF7EE006A77EE43
:103F2000A67A67EE277AC7ED077A87E07B6907EE06
:103F3000903AF8EE677ADFED6F6A86EEA77A6A4B01
:103F40001B6CC3F3080307EE903AF8EE676A97ED2F
:103F5000036ADFED675AC6EE257A76EEA77AF7EEAA
:103F6000006A77EEA67A67EE277AC7ED077A65E0F2
:103F70007B6907EE903AF8EE677ADFED5F6A86EECE
:103F8000A77A594B1B6CC3F3080307EE903AF8EE7F
:103F9000676A97ED036ADFED565AC6EE257A76EE2C
:103FA000A77AF7EE006A77EEA67A67EE277AC7ED72
:103FB000077A43E07B6907EE903AF8EE677ADFED27
:103FC0004F6A86EEA77A484B1B6CC3F3080307EED3
:103FD000903AF8EE676A97ED036ADFED455AC6EE50
:103FE000257A76EEA77AF7EE006A77EEA67A67EE84
:103FF000277AC7ED077A21E07B6907EE903AF8EE61
:10400000677ADFED3D6A86EEA77A374B1B6CC3F308
:10401000080307EE903AF8EE676A97ED036ADFED62
:10402000345AC6EE257A76EEA77AF7EE006A77EE76
:10403000A67A67EE277AC7ED077A00BF2A4B1B6C7A
:104040005B0A03F07F0307EE903AF8EE677AB7EE6B
:10405000007A37EE877AD7ED076AC6EE877AFCEEEC
:10406000E77A17EE902A7B681A601F4B1B6C1B0CBB
:1040700003F07F0307EE903AF8EE677AB7EE007A26
:1040800037EE877AD7ED076AC6EE877AFCEEE77AD5
:1040900017EE902A7B685A60134B1B6C1B0E03F0C3
:1040A0007F0307EE903AF8EE677AB7EE007A37EEC4
:1040B000877AD7ED076AC6EE877AFCEEE77A17EEC5
:1040C000902A7B689A6008E07B6800221A607B680F
:1040D00000225A607B6800229A6000BF2437BD46E8
:1040E0005DF8047B704700BF004402580090D00385
:1040F000000000460024744C0024744A001BB74B97
:1041000080B489B000AF7860A04B9B6A03F00303D2
:10411000BB619E4B9B6A1B0903F03F037B619B4B7A
:10412000DB6A03F001033B61984B5B6BDB08C3F375
:104130000C033A6902FB03F307EE903AF8EE677A54
:10414000C7ED037A7B69002B00F01181BB69022B5C
:1041500000F08380BB69022B00F2A180BB69002BB9
:1041600003D0BB69012B56D099E0884B1B6803F044
:104170002003002B2DD0854B1B68DB0803F00303C5
:10418000834A22FA03F3BB60BB6807EE903AF8EE6D
:10419000676A7B6907EE903AF8EE677A86EEA77A4F
:1041A0007A4B1B6BC3F3080307EE903AF8EE676A8D
:1041B00097ED036ADFED775AC6EE257A76EEA77A99
:1041C000F7EE006A77EEA67A67EE277AC7ED077AF0
:1041D00087E07B6907EE903AF8EE677ADFED6E6A6A
:1041E00086EEA77A694B1B6BC3F3080307EE903A80
:1041F000F8EE676A97ED036ADFED665AC6EE257A38
:1042000076EEA77AF7EE006A77EEA67A67EE277A5F
:10421000C7ED077A65E07B6907EE903AF8EE677ABA
:10422000DFED5E6A86EEA77A584B1B6BC3F308037B
:1042300007EE903AF8EE676A97ED036ADFED555A9C
:10424000C6EE257A76EEA77AF7EE006A77EEA67AC2
:1042500067EE277AC7ED077A43E07B6907EE903A6D
:10426000F8EE677ADFED4E6A86EEA77A474B1B6B56
:10427000C3F3080307EE903AF8EE676A97ED036A16
:10428000DFED445AC6EE257A76EEA77AF7EE006A9D
:1042900077EEA67A67EE277AC7ED077A21E07B6989
:1042A00007EE903AF8EE677ADFED3B6A86EEA77A82
:1042B000364B1B6BC3F3080307EE903AF8EE676AC0
:1042C00097ED036ADFED335AC6EE257A76EEA77ACC
:1042D000F7EE006A77EEA67A67EE277AC7ED077ADF
:1042E00000BF2A4B1B6B5B0A03F07F0307EE903A7B
:1042F000F8EE677AB7EE007A37EE877AD7ED076A7D
:10430000C6EE877AFCEEE77A17EE902A7B681A6091
:104310001E4B1B6B1B0C03F07F0307EE903AF8EE6D
:10432000677AB7EE007A37EE877AD7ED076AC6EE7E
:10433000877AFCEEE77A17EE902A7B685A60134B77
:104340001B6B1B0E03F07F0307EE903AF8EE677AC3
:10435000B7EE007A37EE877AD7ED076AC6EE877A2E
:10436000FCEEE77A17EE902A7B689A6008E07B689B
:1043700000221A607B6800225A607B6800229A60E3
:1043800000BF2437BD465DF8047B704700440258E7
:104390000090D003000000460024744C0024744AAE
:1043A000001BB74B80B584B000AF78603960002344
:1043B000FB73534B9B6A03F00303032B01D10123CF
:1043C00099E04F4B1B684E4A23F080631360FCF763
:1043D00015FCB86008E0FCF711FC0246BB68D31A74
:1043E000022B01D9032386E0454B1B6803F00063D1
:1043F000002BF0D1424B9B6A23F47C327B681B6814
:104400001B033F4913438B627B685B68013BC3F32B
:1044100008027B689B68013B5B029BB21A437B6886
:10442000DB68013B1B0403F4FE031A437B681B6932
:10443000013B1B0603F0FE43314913438B63304BB2
:10444000DB6A23F0C0027B685B692D491343CB62B2
:104450002B4BDB6A23F020027B689B6928491343BE
:10446000CB62274BDB6A264A23F01003D362244B2E
:10447000DA6B244B13407A68D269D2002049134387
:10448000CB631F4BDB6A1E4A43F01003D3623B68C9
:10449000002B06D11A4BDB6A194A43F40023D3627E
:1044A0000FE03B68012B06D1154BDB6A144A43F43D
:1044B0008013D36205E0124BDB6A114A43F4001308
:1044C000D3620F4B1B680E4A43F080631360FCF706
:1044D00095FBB86008E0FCF791FB0246BB68D31A75
:1044E000022B01D9032306E0054B1B6803F0006390
:1044F000002BF0D0FB7B18461037BD4680BD00BFB7
:10450000004402580700FFFF80B584B000AF786018
:1045100039600023FB73534B9B6A03F00303032BA7
:1045200001D1012399E04F4B1B684E4A23F0805381
:104530001360FCF763FBB86008E0FCF75FFB024622
:10454000BB68D31A022B01D9032386E0454B1B68B5
:1045500003F00053002BF0D1424B9B6A23F07C7296
:104560007B681B681B053F4913438B627B685B6854
:10457000013BC3F308027B689B68013B5B029BB273
:104580001A437B68DB68013B1B0403F4FE031A43F8
:104590007B681B69013B1B0603F0FE433149134353
:1045A0000B64304BDB6A23F440627B685B692D4906
:1045B0001343CB622B4BDB6A23F400727B689B694D
:1045C00028491343CB62274BDB6A264A23F48073C6
:1045D000D362244B5A6C244B13407A68D269D200C0
:1045E000204913434B641F4BDB6A1E4A43F480731C
:1045F000D3623B68002B06D11A4BDB6A194A43F49D
:104600008003D3620FE03B68012B06D1154BDB6AB8
:10461000144A43F40003D36205E0124BDB6A114AEB
:1046200043F08073D3620F4B1B680E4A43F08053F4
:104630001360FCF7E3FAB86008E0FCF7DFFA024623
:10464000BB68D31A022B01D9032306E0054B1B6874
:1046500003F00053002BF0D0FB7B18461037BD460B
:1046600080BD00BF004402580700FFFF80B58AB03C
:1046700000AF78607B68002B01D1012375E07B6877
:1046800093F83030DBB2002B05D17B6800221A761C
:104690007868FCF787F87B68042283F83020786814
:1046A00000F068F80346002B01D001235DE007F11C
:1046B00008031946786800F0A9FD0346002B01D0D5
:1046C000012352E03B7EDBB27B627B7EDBB23B624E
:1046D0007B689B6B012B0AD17B6A002B02D13B6A62
:1046E000002B04D07B684FF400729A650BE07B6866
:1046F0009B6B012B04D17B684FF480729A6502E0BA
:104700007B6800229A657B68DB681946786800F050
:1047100067FE0346002B01D0012326E0FCF76EFA6A
:10472000F86111E0FCF76AFA0246FB69D31AB3F1AB
:10473000FF3F09D17B684FF000425A637B6801223A
:1047400083F83020032310E0786800F05BFF034615
:10475000042BE7D17B6800225A637B680022DA626F
:104760007B68012283F83020002318462837BD4695
:1047700080BD000090B58DB002AF786000237B62F1
:104780000023FB6000233B6100237B610023BB61AE
:104790004FF48030FEF724FD78627B6A002B09D14C
:1047A0007B68012283F830207B684FF000625A63F7
:1047B00001236AE07B6A1B0A364AA2FB03231B091A
:1047C000FB617B681C686A4607F1180393E80300E5
:1047D00082E8030007F10C030ECB204601F07EFEB9
:1047E0007B681B68184601F0C1FEFB695B007A6AB2
:1047F000B2FBF3F37B62284A7B6AB2FBF3F301332B
:104800001846FCF707FA786800F0EAFF38623B6A5E
:10481000002B0BD07B68012283F830207B685A6B19
:104820003B6A1A437B685A6301232EE0786800F0E4
:1048300009FF38623B6A002B0BD07B68012283F8AA
:1048400030207B685A6B3B6A1A437B685A630123AA
:104850001BE07B681B684FF40071184601F01CFFD9
:1048600038623B6A002B0FD07B681B680B4A9A6347
:104870007B685A6B3B6A1A437B685A637B680122E8
:1048800083F83020012300E0002318462C37BD4672
:1048900090BD00BF598B4F0110210100FF0FE01F99
:1048A00080B58CB000AFF860B9607A603B607B681F
:1048B000BB62BB68002B07D1FB685B6B43F00062F7
:1048C000FB685A6301238DE0FB6893F83030DBB25C
:1048D000012B40F08680FB6800225A63BA6A3B686D
:1048E0001A44FB681B6D9A4207D9FB685B6B43F067
:1048F0000072FB685A63012374E0FB68032283F8AB
:104900003020FB681B680022DA62FB68BA685A62D2
:104910003B685A02FB689A62FB689B6B012B02D0D2
:10492000BB6A5B02BB624FF0FF333B613B685B02DB
:104930007B619023BB610223FB6100233B62002368
:104940007B62FB681B6807F110021146184601F0F4
:1049500077FEFB681B68DA68FB681B6842F0400260
:10496000DA60FB681B68BA689A65FB681B680122FD
:104970001A653B68012B0AD9FB688222DA62FB6860
:104980001B68B96A184601F0CDFEF86209E0FB68C1
:104990008122DA62FB681B68B96A184601F09FFE43
:1049A000F862FB6A002B12D0FB681B680F4A9A63FF
:1049B000FB685A6BFB6A1A43FB685A63FB68012267
:1049C00083F83020FB680022DA6201230AE0FB68EA
:1049D0001B68DA6BFB681B6842F49572DA6300238C
:1049E00000E0022318463037BD4680BDFF0FE01FB0
:1049F00080B58CB000AFF860B9607A603B607B68CE
:104A0000BB62BB68002B07D1FB685B6B43F00062A5
:104A1000FB685A6301238DE0FB6893F83030DBB20A
:104A2000012B40F08680FB6800225A63BA6A3B681B
:104A30001A44FB681B6D9A4207D9FB685B6B43F015
:104A40000072FB685A63012374E0FB68032283F859
:104A50003020FB681B680022DA62FB68BA68DA6102
:104A60003B685A02FB681A62FB689B6B012B02D001
:104A7000BB6A5B02BB624FF0FF333B613B685B028A
:104A80007B619023BB610023FB6100233B62002319
:104A90007B62FB681B6807F110021146184601F0A3
:104AA000CFFDFB681B68DA68FB681B6842F04002B8
:104AB000DA60FB681B68BA689A65FB681B680122AC
:104AC0001A653B68012B0AD9FB68A022DA62FB68F1
:104AD0001B68B96A184601F06BFEF86209E0FB68D2
:104AE0009022DA62FB681B68B96A184601F03DFE45
:104AF000F862FB6A002B12D0FB681B680F4A9A63AE
:104B0000FB685A6BFB6A1A43FB685A63FB68012215
:104B100083F83020FB680022DA6201230AE0FB6898
:104B20001B68DA6BFB681B6842F48D72DA63002342
:104B300000E0022318463037BD4680BDFF0FE01F5E
:104B400080B584B000AF78607B68DB6AFB607B680F
:104B50001B685B6B03F40043002B08D0FB6803F079
:104B60000803002B03D0786801F026F99AE17B68EE
:104B70001B685B6B03F48073002B00F0AC807B68D8
:104B80001B684FF480729A637B681B68D96B7B68E3
:104B90001A68594B0B40D3637B681B68DA6B7B68E0
:104BA0001B6822F08052DA637B681B68DA687B68D6
:104BB0001B6822F04002DA60FB6803F00803002B58
:104BC00038D0FB6803F00203002B04D1FB6803F02C
:104BD0002003002B11D07B681B68184601F00CFEE7
:104BE000B860BB68002B08D07B685A6BBB681A435F
:104BF0007B685A63786800F05BF97B681B683F4A02
:104C00009A637B68012283F830207B680022DA6295
:104C1000FB6803F00103002B04D1FB6803F00203DF
:104C2000002B03D0786802F0B1FA3BE1786802F01B
:104C3000A3FA37E1FB6803F08003002B00F0328118
:104C40007B681B6800229A627B681B680022DA621C
:104C50007B681B6800221A65FB6803F00203002BC7
:104C600004D1FB6803F02003002B11D07B681B6884
:104C7000184601F0C1FDB860BB68002B08D07B6806
:104C80005A6BBB681A437B685A63786800F010F966
:104C90007B68012283F830207B680022DA62FB689F
:104CA00003F01003002B04D1FB6803F02003002B5A
:104CB00002D0786802F060FAFB6803F00103002B71
:104CC00005D1FB6803F00203002B00F0EB8078684D
:104CD00002F05CFAE6E07B681B685B6B03F48043E0
:104CE000002B0DD0FB6803F00803002B08D0786878
:104CF00001F0A8F8D6E000BFC53EFFFF3A0F00184C
:104D00007B681B685B6B03F03A03002B00F09D800F
:104D10007B681B685B6B03F00203002B05D07B688C
:104D20005B6B43F002027B685A637B681B685B6BBA
:104D300003F00803002B05D07B685B6B43F008028F
:104D40007B685A637B681B685B6B03F02003002B56
:104D500005D07B685B6B43F020027B685A637B68FD
:104D60001B685B6B03F01003002B05D07B685B6B4B
:104D700043F010027B685A637B681B684B4A9A6356
:104D80007B681B68DA6B7B681B6822F49D72DA63B0
:104D90007B681B68DA687B681B6822F04002DA6077
:104DA0007B681B68DA6A7B681B6842F40052DA622F
:104DB0007B681B68DA687B681B6842F08002DA60F7
:104DC0007B681B68184601F017FD02467B685B6B29
:104DD0001A437B685A637B681B68DA687B681B68C8
:104DE00022F08002DA607B681B684FF400629A63ED
:104DF000FB6803F00803002B0AD07B68012283F8CC
:104E000030207B680022DA62786800F051F849E0CF
:104E1000FB6803F08003002B44D07B685B6B002BA6
:104E200040D07B681B68DA6B7B681B6822F080527D
:104E3000DA637B681B6800221A657B68012283F8AD
:104E40003020786800F034F82CE07B681B685B6BDE
:104E500003F08053002B25D07B681B684FF08052F5
:104E60009A637B681B681B6D03F00403002B0CD155
:104E7000FB6803F02003002B03D0786801F04AF8A8
:104E800010E0786801F032F80CE0FB6803F02003D2
:104E9000002B03D0786801F033F803E0786801F064
:104EA0001BF8FFE700BF1037BD4680BD3A0F001862
:104EB00080B483B000AF786000BF0C37BD465DF8AA
:104EC000047B704780B483B000AF786039607B6842
:104ED000DB6D9B0FDAB23B681A707B68DB6D9B0E53
:104EE000DBB203F00F03DAB23B685A707B68DB6D0C
:104EF0001B0EDBB203F00303DAB23B689A707B68E7
:104F0000DB6D1B0CDAB23B68DA707B68DB6D1B0A69
:104F1000DAB23B681A717B68DB6DDAB23B685A71B2
:104F20007B681B6E1B0D9AB23B68DA807B681B6E38
:104F30001B0CDBB203F00F03DAB23B681A727B681A
:104F40001B6EDB0BDBB203F00103DAB23B685A7273
:104F50007B681B6E9B0BDBB203F00103DAB23B688C
:104F60009A727B681B6E5B0BDBB203F00103DAB253
:104F70003B68DA727B681B6E1B0BDBB203F001032C
:104F8000DAB23B681A733B6800225A737B689B6BEA
:104F9000002B63D17B681B6E9A0040F6FC731340B4
:104FA0007A68526E920F1A433B681A617B685B6E97
:104FB000DB0EDBB203F00703DAB23B681A757B68DD
:104FC0005B6E1B0EDBB203F00703DAB23B685A7567
:104FD0007B685B6E5B0DDBB203F00703DAB23B6804
:104FE0009A757B685B6E9B0CDBB203F00703DAB249
:104FF0003B68DA757B685B6EDB0BDBB203F00703A3
:10500000DAB23B681A763B681B695A1C7B689A6463
:105010003B681B7EDBB203F007030233012202FA76
:1050200003F37A68926C03FB02F27B689A643B6834
:105030001B7ADBB203F00F0301229A407B68DA642B
:105040007B689B6C7A68D26C520A03FB02F27B6825
:105050001A657B684FF400725A6531E07B689B6B80
:10506000012B1DD17B681B6E1B0403F47C127B6833
:105070005B6E1B0C1A433B681A613B681B6901336A
:105080009A027B689A647B689A6C7B681A657B6875
:105090004FF40072DA647B68DA6C7B685A650FE063
:1050A0007B681B68584A9A637B685B6B43F080524D
:1050B0007B685A637B68012283F8302001239DE0DE
:1050C0007B685B6E9B0BDBB203F00103DAB23B68DB
:1050D0005A767B685B6EDB09DBB203F07F03DAB2E2
:1050E0003B689A767B685B6EDBB203F07F03DAB2D3
:1050F0003B68DA767B689B6EDB0FDAB23B681A7727
:105100007B689B6E5B0FDBB203F00303DAB23B6894
:105110005A777B689B6E9B0EDBB203F00703DAB213
:105120003B689A777B689B6E9B0DDBB203F00F03A5
:10513000DAB23B68DA777B689B6E5B0DDBB203F01B
:105140000103DAB23B6883F820203B68002283F831
:1051500021207B689B6E1B0CDBB203F00103DAB2EB
:105160003B6883F822207B689B6EDB0BDBB203F08D
:105170000103DAB23B6883F823207B689B6E9B0BAC
:10518000DBB203F00103DAB23B6883F824207B68CA
:105190009B6E5B0BDBB203F00103DAB23B6883F872
:1051A00025207B689B6E1B0BDBB203F00103DAB298
:1051B0003B6883F826207B689B6E9B0ADBB203F07A
:1051C0000303DAB23B6883F827207B689B6E1B0AD7
:1051D000DBB203F00303DAB23B6883F828207B6874
:1051E0009B6E5B08DBB203F07F03DAB23B6883F8A7
:1051F00029203B68012283F82A20002318460C3717
:10520000BD465DF8047B7047FF0FE01F80B594B08A
:1052100000AF78603960002387F84F307B6893F8DF
:105220003030DBB2032B01D10123A7E007F10803E3
:105230001946786800F062FBB864BB6C002B11D093
:105240007B681B684F4A9A637B685A6BBB6C1A4336
:105250007B685A637B68012283F83020012387F83A
:105260004F3070E0BB689B09DBB203F00303DAB296
:105270003B681A70BB685B09DBB203F00103DAB26A
:105280003B685A70BB681B0A9BB223F0FF039AB2BB
:10529000BB681B0E9BB213439AB23B685A80FB68F3
:1052A0001A06FB681B0203F47F031A43FB681B0A00
:1052B00003F47F431A43FB681B0E1A433B685A6092
:1052C0003B69DAB23B681A723B691B0ADAB23B6887
:1052D0005A723B691B0DDBB203F00F03DAB23B6875
:1052E0009A723B691B0C9BB223F0FF039AB27B6955
:1052F0009BB2DBB29BB213439AB23B689A817B6943
:105300009B0ADBB203F03F03DAB23B689A737B6916
:105310001B0ADBB203F00303DAB23B68DA737B6982
:105320001B09DBB203F00F03DAB23B681A747B6926
:10533000DBB203F00F03DAB23B685A74BB691B0E91
:10534000DAB23B689A747B681B684FF400711846A8
:1053500001F0A2F9B864BB6C002B0DD07B681B6810
:10536000084A9A637B68BA6C5A637B68012283F8A7
:105370003020012387F84F3097F84F3018465037C8
:10538000BD4680BDFF0FE01F80B483B000AF7860E2
:1053900039607B689A6B3B681A607B68DA6B3B68A4
:1053A0005A607B681A6C3B689A607B685A6C3B68F1
:1053B000DA607B689A6C3B681A617B68DA6C3B68E0
:1053C0005A617B681A6D3B689A617B685A6D3B68CD
:1053D000DA61002318460C37BD465DF8047B704740
:1053E00090B58DB002AF7860396000233B62002336
:1053F00087F827307B68032283F830207B689B6B1B
:10540000032B2ED03B68B3F5004F06D17B685B6B56
:1054100043F080527B685A6329E03B68B3F5804FC4
:105420000AD1786800F062FBF8617B685A6BFB690F
:105430001A437B685A631AE03B68002B0AD17868EC
:1054400000F09FFBF8617B685A6BFB691A437B682D
:105450005A630CE07B685B6B43F000627B685A63C5
:1054600005E07B685B6B43F080527B685A637B6826
:105470005B6B002B07D07B681B685E4A9A63012335
:1054800087F8273094E04FF48030FDF7A9FE3862AA
:105490003B6A002B00F083807B685B68BB607B68A5
:1054A0009B68FB603B683B617B681B697B617B6839
:1054B0005A693B6A5049A1FB03131B0E9A4203D35E
:1054C0007B685B69BB615AE07B689B6DB3F5007FCD
:1054D00003D17B685B69BB6151E07B689B6DB3F571
:1054E000807F26D17B685B69002B0ED13B6A434AE3
:1054F000934206D93B6A404AA2FB03235B0EBB6181
:105500003DE07B685B69BB6139E07B685B695B00A0
:105510003A6AB2FBF3F3394A934206D93B6A364AF8
:10552000A2FB03235B0EBB6129E07B685B69BB6167
:1055300025E07B685B69002B0ED13B6A304A9342C1
:1055400006D93B6A2C4AA2FB03231B0EBB6116E063
:105550007B685B69BB6112E07B685B695B003A6AF0
:10556000B2FBF3F3264A934206D93B6A224AA2FBD6
:1055700003231B0EBB6102E07B685B69BB617B6838
:105580001C686A4607F1140393E8030082E80300ED
:1055900007F108030ECB204600F0A0FF08E07B686F
:1055A0005B6B43F000627B685A63012387F8273006
:1055B0007B681B684FF40071184601F06DF8F861C4
:1055C000FB69002B0CD07B681B680A4A9A637B68D6
:1055D0005A6BFB691A437B685A63012387F82730AB
:1055E0007B68012283F8302097F8273018462C3743
:1055F000BD4690BDFF0FE01F893BE65580F0FA02E3
:1056000040787D0180B586B000AF78600023FB60F4
:1056100007F10C031946786800F040FA78617B695D
:10562000002B05D07B685A6B7B691A437B685A63F1
:10563000FB685B0A03F00F033B613B6918461837B0
:10564000BD4680BD80B590B000AF786000237B81FF
:10565000FBF7D4FAF8637B681B68184600F097FFE5
:105660000346002B02D14FF08063B5E07B689B6B53
:10567000032B2ED07B681B68184601F0E2F9B86353
:10568000BB6B002B01D0BB6BA6E07B681B680021C5
:10569000184600F0C2FF02467B68DA667B681B682A
:1056A0000421184600F0B9FF02467B681A677B6840
:1056B0001B680821184600F0B0FF02467B685A6755
:1056C0007B681B680C21184600F0A7FF02467B6828
:1056D0009A677B689B6B032B1DD019E07B681B6866
:1056E00007F10A021146184601F0EAF9B863BB6BEC
:1056F000002B01D0BB6B6FE0FBF780FA0246FB6B1F
:10570000D31A41F28732934202D94FF0004363E04B
:105710007B89002BE2D07B689B6B032B36D07B8987
:105720001A467B685A647B681A687B685B6C1B044A
:105730001946104601F0A4F9B863BB6B002B01D0E9
:10574000BB6B49E07B681B680021184600F065FFD1
:1057500002467B68DA657B681B680421184600F006
:105760005CFF02467B681A667B681B680821184646
:1057700000F053FF02467B685A667B681B680C2169
:10578000184600F04AFF02467B689A667B681B68F1
:105790000421184600F041FF03461A0D7B681A6485
:1057A00007F10C0319467868FFF78CFB0346002BC2
:1057B00002D04FF080530FE07B681A687B685B6C07
:1057C0001B041946104601F053F8B863BB6B002B5D
:1057D00001D0BB6B00E0002318464037BD4680BDBA
:1057E00080B586B000AF78600023BB6000237B618A
:1057F00000233B617B681B68184601F05CF8F86089
:10580000FB68002B01D0FB6872E07B681B681846C0
:1058100001F06FF8F860FB68B3F1004F0DD17B68C1
:105820000022DA637B681B68184601F044F8F860D0
:10583000FB68002B04D0FB685AE07B680122DA6326
:105840007B68DB6B012B37D17B681B680021184616
:1058500001F06FF8F860FB68002B2DD04FF08053FB
:1058600046E07B681B680021184601F062F8F8608A
:10587000FB68002B01D0FB683AE07B681B681E497F
:10588000184601F079F8F860FB68002B02D04FF061
:1058900080532DE07B681B680021184600F0BDFE98
:1058A00078617B69DB0F012B01D1012300E000232C
:1058B0003B61BB680133BB60BB684FF6FE7293422D
:1058C00002D83B69002BCCD0BB684FF6FE729342E6
:1058D00002D94FF080730BE07B6800229A637B69EA
:1058E00003F08043002B02D07B6801229A630023DF
:1058F00018461837BD4680BD000010C180B58CB079
:1059000000AF78603960FBF779F978623B68BB6279
:105910007B681B680021184600F07FFE034603F0F9
:105920000073B3F1007F02D14FF40063B0E07B68F5
:105930001B684021184600F0AFFE38623B6A002B1E
:1059400005D07B685A6B7B685A633B6AA0E07B6832
:105950001A687B685B6C1B041946104600F0E9FF6F
:1059600038623B6A002B05D07B685A6B7B685A63B0
:105970003B6A8DE04FF0FF33BB604023FB60602348
:105980003B6102237B610023BB610123FB617B68D8
:105990001B6807F108021146184600F051FE7B68AB
:1059A0001B68184601F0D1F838623B6A002B2BD0F7
:1059B0007B685A6B7B685A633B6A69E07B681B684B
:1059C0005B6B03F40043002B13D00023FB620DE05C
:1059D0007B681B68184600F0ABFD0246BB6A1A6084
:1059E000BB6A0433BB62FB6A0133FB62FB6A072BB1
:1059F000EED9FBF703F902467B6AD31AB3F1FF3FF6
:105A000002D14FF0004343E07B681B685B6B03F4FB
:105A10009573002BD2D07B681B685B6B03F0080387
:105A2000002B01D0082333E07B681B685B6B03F01D
:105A30000203002B01D002232AE07B681B685B6B0A
:105A400003F02003002B17D0202321E07B681B6884
:105A5000184600F06DFD0246BB6A1A60BB6A04334B
:105A6000BB62FBF7CBF802467B6AD31AB3F1FF3F68
:105A700002D14FF000430BE07B681B685B6B03F4C3
:105A80008053002BE2D17B681B68034A9A63002392
:105A900018463037BD4680BD3A0F001880B584B037
:105AA00000AF786039603B68002B02D14FF0006393
:105AB00018E07B681A687B685B6C1B04194610460B
:105AC00001F020F8F860FB68002B01D0FB6809E0CA
:105AD0007B681B680021184600F09FFD02463B686A
