:020000040800F2
:1000000000000824E11900082D1500083315000828
:10001000391500083F1500084515000800000000CC
:100020000000000000000000000000004B15000868
:100030005915000800000000671500087515000834
:10004000311A0008311A0008311A0008311A000864
:10005000311A0008311A0008311A0008311A000854
:10006000311A0008311A0008311A000881150008F9
:1000700095150008A9150008BD150008D115000840
:10008000E5150008311A0008311A0008311A000875
:10009000311A0008311A0008311A0008311A000814
:1000A000311A0008311A0008311A0008311A000804
:1000B000F9150008311A0008311A0008311A000831
:1000C000311A0008311A0008311A00080D1600080C
:1000D000311A0008311A0008311A0008311A0008D4
:1000E000311A0008311A000800000000311A000817
:1000F000311A0008311A0008311A0008311A0008B4
:10010000311A0008311A0008311A0008311A0008A3
:10011000311A0008311A0008311A0008311A000893
:10012000311A0008311A0008311A0008311A000883
:10013000311A0008311A0008311A0008311A000873
:1001400000000000000000000000000000000000AF
:10015000311A0008311A0008311A0008311A000853
:10016000311A0008311A0008311A0008311A000843
:10017000311A0008311A0008311A0008311A000833
:10018000311A0008311A0008311A0008311A000823
:10019000311A0008311A0008311A00082116000827
:1001A000311A0008311A0008311A00083D160008FB
:1001B000311A0008311A0008311A0008311A0008F3
:1001C000311A0008311A0008311A0008311A0008E3
:1001D000311A0008311A0008311A0008311A0008D3
:1001E000311A0008311A0008311A0008311A0008C3
:1001F000311A0008311A0008311A0008311A0008B3
:10020000311A0008311A0008311A0008311A0008A2
:10021000311A0008311A0008311A0008311A000892
:10022000311A0008311A0008311A000800000000D5
:10023000311A0008311A000800000000311A0008C5
:10024000311A0008311A0008311A0008311A000862
:10025000311A0008311A0008311A0008311A000852
:10026000311A0008311A0008311A0008311A000842
:10027000311A0008311A0008311A00080000000085
:10028000311A0008311A0008311A00080000000075
:0802900000000000311A000813
:1002A00010B5054C237833B9044B13B10448AFF3B0
:1002B00000800123237010BD7C000024000000009A
:1002C00000E2000808B5034B1BB103490348AFF334
:1002D000008008BD000000008000002400E200084B
:1002E00001F0FF01102A2BDB10F0070F08D010F8E7
:1002F000013B013A8B422DD010F0070F42B3F6D1EB
:10030000F0B441EA012141EA014122F007047FF003
:1003100000070023F0E80256083C85EA010586EA5A
:10032000010685FA47F5A3FA87F586FA47F6A5FA96
:1003300087F68EB9EED1F0BC01F0FF0102F00702A2
:1003400032B110F8013B013A83EA010313B1F8D14D
:100350000020704701387047002D06BF354603382E
:10036000073815F0010F07D1013015F4807F02BF67
:10037000013015F4C03F0130F0BC0138704700BFB8
:1003800080B500AF0D4B0E4A1A600C4B00221A715B
:100390000A4B00225A71094B00225A61074B002276
:1003A0009A61064B01221A62044801F065FF034678
:1003B000002B01D000F050FC00BF80BD980000244D
:1003C000004C025880B485B000AF78607B681B6831
:1003D0000B4A93420ED10B4BD3F8E030094A43F459
:1003E0000023C2F8E030074BD3F8E03003F40023D9
:1003F000FB60FB6800BF1437BD465DF8047B7047A7
:10040000004C02580044025880B582B000AF214B26
:10041000D3F8D8301F4A43F00103C2F8D8301D4B3F
:10042000D3F8D83003F001037B607B680022002101
:100430000B2001F070FE0B2001F087FE002200214E
:100440000C2001F068FE0C2001F07FFE002200214C
:100450000D2001F060FE0D2001F077FE002200214A
:100460000E2001F058FE0E2001F06FFE0022002148
:100470000F2001F050FE0F2001F067FE0022002146
:10048000102001F048FE102001F05FFE00BF083789
:10049000BD4680BD0044025880B588B000AF3B1D0A
:1004A00000221A605A609A60DA601A615A619A6191
:1004B000284B294A1A60274B284A5A60254B0022AC
:1004C0009A60244B0222DA60224B04221A61214BEB
:1004D00010225A611F4B00229A611E4B0022DA61E2
:1004E0001C4B00221A621B4B4FF480525A62194B6C
:1004F00000229A62174B0022DA62164B00221A631E
:10050000144B00225A63134B00229A63114B0022B2
:10051000DA63104B00221A640F237B600F23BB6049
:10052000FF23FB600F233B6110237B611123BB6121
:100530000023FB613B1D0022194606480AF0C6FA5B
:100540000346002B01D000F087FB00BF2037BD46DB
:1005500080BD00BFBC000024004000520441005296
:1005600080B5B6B000AF07F1C40300221A605A602C
:100570009A60DA601A61434B1B68002B7ED1414BB5
:1005800001221A6007F10803BC22002118460CF072
:1005900013FE4FF08073BB600023FB6407F1080378
:1005A000184606F0CBFB0346002B01D000F054FBAD
:1005B000354BD3F8D430344A43F48053C2F8D430A6
:1005C000314BD3F8D43003F480537B607B684FF613
:1005D0008073C7F8C4300223C7F8C8300023C7F8B7
:1005E000CC300323C7F8D0300C23C7F8D43007F140
:1005F000C4031946254804F071FD4CF23373C7F863
:10060000C4300223C7F8C8300023C7F8CC30032316
:10061000C7F8D0300C23C7F8D43007F1C40319460B
:100620001B4804F05BFD8023C7F8C4300223C7F8E1
:10063000C8300023C7F8CC300323C7F8D0300923D3
:10064000C7F8D43007F1C4031946124804F046FD38
:100650008023C7F8C4300223C7F8C8300023C7F886
:10066000CC300323C7F8D0300C23C7F8D43007F1BF
:10067000C4031946084804F031FD00E000BFD83734
:10068000BD4680BD080100240044025800100258F5
:10069000000C0258000802580004025880B582B0CD
:1006A00000AF7860FFF75CFF00BF0837BD4680BD34
:1006B00080B58CB000AF07F11C0300221A605A60AD
:1006C0009A60DA601A61404BD3F8E0303E4A43F05A
:1006D0001003C2F8E0303C4BD3F8E03003F01003D5
:1006E000BB61BB69384BD3F8E030374A43F0800335
:1006F000C2F8E030344BD3F8E03003F080037B6184
:100700007B69314BD3F8E0302F4A43F00403C2F841
:10071000E0302D4BD3F8E03003F004033B613B693C
:10072000294BD3F8E030284A43F00103C2F8E03007
:10073000254BD3F8E03003F00103FB60FB68224B4C
:10074000D3F8E030204A43F00803C2F8E0301E4BF3
:10075000D3F8E03003F00803BB60BB681A4BD3F852
:10076000E030194A43F00203C2F8E030164BD3F8E8
:10077000E03003F002037B607B6801224FF480616C
:10078000124804F05BFE4FF48073FB6100233B6270
:1007900000237B6207F11C0319460C4804F09EFC01
:1007A0004FF48063FB6101233B6200237B620023E3
:1007B000BB6207F11C031946044804F08FFC00BF1C
:1007C0003037BD4680BD00BF0044025800000258CB
:1007D00080B500AF1B4B1C4A1A601A4B1B4A5A606B
:1007E000184B00229A60174B0122DA60154B002249
:1007F0001A61144B00225A61124B00229A61114B6C
:100800000022DA610F4B00221A620E4804F030FE1B
:100810000346002B01D000F01FFA0021094805F023
:100820001DFA0346002B01D000F016FA00210548FE
:1008300005F05FFA0346002B01D000F00DFA00BF6F
:1008400080BD00BF0C010024001C0058B175703041
:1008500080B5B8B000AF786007F1CC0300221A6011
:100860005A609A60DA601A6107F11003BC22002115
:1008700018460CF0A1FC7B681B68254A934242D1C4
:1008800010233B610023C7F8A43007F1100318467A
:1008900006F054FA0346002B01D000F0DDF91D4BA1
:1008A000D3F8E0301B4A43F00803C2F8E030194B9C
:1008B000D3F8E03003F00803FB60FB684FF44053CB
:1008C000C7F8CC301223C7F8D0300023C7F8D43093
:1008D0000023C7F8D8300423C7F8DC3007F1CC0375
:1008E00019460D4804F0FAFB0A4BD3F8F430094AD4
:1008F00043F08003C2F8F430064BD3F8F43003F031
:100900008003BB60BB6800BFE037BD4680BD00BF51
:10091000001C005800440258000C025880B500AF7B
:1009200000F06DF9314B5B6903F40033002B14BF09
:1009300001230023DBB2002B1BD1BFF34F8F00BF7D
:10094000BFF36F8F00BF294B0022C3F85022BFF3C3
:100950004F8F00BFBFF36F8F00BF244B5B69234AEB
:1009600043F400335361BFF34F8F00BFBFF36F8F6A
:1009700000E000BF01F032FA00F040F800F00CF99E
:10098000FFF796FEFFF740FDFFF7FAFC00F010FAC4
:1009900000F0B6F900F066F900F0ACFFFFF718FFC1
:1009A00000F058FCFFF778FD362001F0ACF9362155
:1009B0006FF0070001F07CF9342001F0A4F9342134
:1009C0006FF0070001F074F90221094801F032F8D4
:1009D0000121084801F02EF8012001F091FA0648A3
:1009E0000BF002F804480AF0C9FEFBE700ED00E056
:1009F000A40700247C0700242010002480B59EB0AA
:100A000000AF07F12C034C22002118460CF0D4FB58
:100A100007F10C032022002118460CF0CDFB022028
:100A200005F0B4F90023BB60584BDB6A574A23F04A
:100A30000103D362554BDB6A03F00103BB60544BE7
:100A40009B69534A43F440439361514B9B6903F4C0
:100A50004043BB60BB684E4B9B6903F40053B3F546
:100A6000005F14BF01230023DBB2002B00D0F2E7AC
:100A7000484BD3F8F430474A43F00203C2F8F4304D
:100A8000444BD3F8F43003F002037B607B6800230F
:100A90003B603F4B9B693E4A43F4404393613C4B70
:100AA0009B6903F440433B60384BDB6A374A43F0B1
:100AB0000103D362354BDB6A03F001033B603B6803
:100AC000334B9B6903F40053B3F5005F14BF01235C
:100AD0000023DBB2002B00D0F2E72E4B9B6A23F001
:100AE00003032C4A43F0020393622123FB624FF479
:100AF00080333B6301237B6402233B6502237B65D8
:100B00000423BB65A023FB6502233B6614237B669D
:100B10000A23BB660823FB6600233B6700237B6731
:100B200007F12C03184605F06BF90346002B14BFA0
:100B300001230023DBB2002B01D000F08DF83F230E
:100B4000FB6003233B6100237B610823BB614023DF
:100B5000FB6140233B624FF480637B624023BB62B6
:100B600007F10C030421184605F078FD0346002B1D
:100B700014BF01230023DBB2002B01D000F06CF87E
:100B800005F022FF00BF7837BD4680BD0004005845
:100B9000004802580044025880B5B0B000AF3B1D79
:100BA000BC22002118460CF007FB4FF440737B6019
:100BB0000A23BB628023FB6219233B6310237B6300
:100BC0000223BB634FF48063FB6300233B64002379
:100BD0007B640223BB658023FB653B1D184606F042
:100BE000ADF80346002B14BF01230023DBB2002B1A
:100BF00001D000F031F800BFC037BD4680BD80B5E0
:100C000084B000AF3B4600221A605A609A60DA60F6
:100C100001F0B6FA01233B7000237B704FF0C04314
:100C20007B6014233B7200237B720023BB7203237F
:100C3000FB7201233B7300237B730023BB730123EF
:100C4000FB733B46184601F0D3FA042001F0B0FADA
:100C500000BF1037BD4680BD80B400AF72B600BF84
:100C6000FEE7000080B500AF074B084A1A60064B4C
:100C700000225A60044808F0EDF90346002B01D029
:100C8000FFF7EAFF00BF80BD5801002400180248AA
:100C900080B5B2B000AF786007F10C03BC22002130
:100CA00018460CF089FA7B681B68134A93421ED1E0
:100CB0004FF40033FB600023C7F8883007F10C03C2
:100CC000184606F03BF80346002B01D0FFF7C4FF9F
:100CD0000A4BD3F8DC30094A43F04003C2F8DC3059
:100CE000064BD3F8DC3003F04003BB60BB6800BFA9
:100CF000C837BD4680BD00BF0018024800440258F6
:100D000080B500AF264B274A1A60254B03225A6054
:100D1000234B00229A60224B00225A61204B002272
:100D2000DA611F4B0122DA601D4B0022DA621C4B94
:100D300000221A631A4B00225A6302230122002167
:100D4000174808F0E9F90346002B01D0FFF784FFAC
:100D5000154B164A1A60144B02225A60124B01229C
:100D60009A60114B00225A610F4B0022DA610E4B40
:100D70000122DA600C4B0022DA620B4B00221A636C
:100D8000094B00225A63022301220021064808F081
:100D9000C3F90346002B01D0FFF75EFF00BF80BD03
:100DA0006C0100240458014004020024245801402E
:100DB00080B500AF234B244A1A60224B03225A60AD
:100DC000204B02229A601F4B00225A611D4B0022C9
:100DD000DA611C4B0022DA621A4B00221A63194BAB
:100DE00000225A63022301220021164808F094F9D8
:100DF0000346002B01D0FFF72FFF144B144A1A6053
:100E0000124B02225A60114B01229A600F4B0022B2
:100E10005A610E4B0022DA610C4B0022DA620B4B56
:100E200000221A63094B00225A6302230122002187
:100E3000064808F071F90346002B01D0FFF70CFFBC
:100E400000BF80BD9C020024045C014034030024E8
:100E5000245C014080B58CB000AF78607B681B6873
:100E6000A84A934278D1A84B1B68002B16D1A74BF8
:100E7000D3F8F030A54A43F48003C2F8F030A34B16
:100E8000D3F8F03003F48003BB61BB69002200217A
:100E9000572001F040F9572001F057F99A4B1B6891
:100EA0000133994A13603023FB6102233B62002324
:100EB0007B620023BB620623FB6207F11C03194619
:100EC000934804F00BF90223FB6102233B620023E9
:100ED0007B620023BB620623FB6207F11C031946F9
:100EE0008C4804F0FBF88C4B8C4A1A608A4B5722D2
:100EF0005A60894B00229A60874B0022DA60864B49
:100F00004FF480621A61844B4FF400625A61824B45
:100F10004FF400529A61804B4FF48072DA617E4B3D
:100F20004FF400321A627C4B00225A627A4801F078
:100F30008DFA0346002B01D0FFF78EFE7B68764AC0
:100F4000C3F88420744A7B6893637B68724AC3F851
:100F50008020714A7B6893637B681B68704A934268
:100F600068D1694B1B68002B16D1684BD3F8F03061
:100F7000664A43F48003C2F8F030644BD3F8F03093
:100F800003F480037B617B6900220021572001F07C
:100F9000C2F8572001F0D9F85B4B1B6801335A4A5D
:100FA00013600823FB6102233B6200237B62002362
:100FB000BB620623FB6207F11C031946544804F088
:100FC0008DF8584B584A1A60564B58225A60554B68
:100FD00040229A60534B0022DA60524B4FF48062F9
:100FE0001A61504B4FF400625A614E4B4FF400525D
:100FF0009A614C4B4FF48072DA614A4B4FF40032E5
:101000001A62484B00225A62464801F01FFA034612
:10101000002B01D0FFF720FE7B68424AC3F88420F2
:10102000404A7B6893637B683E4AC3F880203D4A10
:101030007B6893637B681B683C4A934240F08A80DC
:101040003B4B1B68002B16D1304BD3F8F0302F4AA6
:1010500043F40003C2F8F0302C4BD3F8F03003F423
:1010600000033B613B69002200215B2001F053F843
:101070005B2001F06AF82E4B1B6801332C4A136089
:101080004FF40063FB6102233B6200237B62002379
:10109000BB620A23FB6207F11C031946254804F0D2
:1010A0001DF8254B254A1A60234B59225A60224BC2
:1010B00000229A60204B0022DA601F4B4FF48062BE
:1010C0001A611D4B4FF400625A611B4B4FF40052E2
:1010D0009A61194B4FF48072DA61174B4FF48032EA
:1010E0001A62154B00225A62134801F0AFF9034609
:1010F000002B01D0FFF7B0FD7B680F4AC3F88420B6
:101100001EE000BF04580140AC0500240044025812
:101110000010025800080258CC03002410000240BE
:10112000245801404404002428000240045C01408B
:10113000B0050024000C0258BC040024400002400A
:101140003D4A7B6893637B683B4AC3F880203A4AF8
:101150007B6893637B681B68384A934268D1384B3D
:101160001B68002B16D1374BD3F8F030354A43F4C7
:101170000003C2F8F030334BD3F8F03003F400032F
:10118000FB60FB68002200215B2000F0C4FF5B20B5
:1011900000F0DBFF2A4B1B680133294A136001234F
:1011A000FB6102233B6200237B620023BB620A23B4
:1011B000FB6207F11C031946234803F08FFF234B02
:1011C000234A1A60214B5A225A60204B40229A60CF
:1011D0001E4B0022DA601D4B4FF480621A611B4BDC
:1011E0004FF400625A61194B4FF400529A61174B49
:1011F0004FF48072DA61154B4FF480321A62134B50
:1012000000225A62114801F021F90346002B01D057
:10121000FFF722FD7B680D4AC3F884200B4A7B68E8
:1012200093637B68094AC3F88020084A7B6893630C
:1012300000BF3037BD4680BDBC040024245C0140A3
:10124000B005002400440258000002583405002470
:101250005800024080B500AF274B284A1A60264B41
:101260004FF480025A60244B00229A60224B1F22C6
:10127000DA60214B00221A611F4B00225A611E4B7B
:101280004FF000529A611C4B4FF08052DA611A4BBA
:1012900000221A62184B00225A62174B00229A62EF
:1012A000154B0022DA62144B4FF080425A63124B06
:1012B00000229A63104B0022DA630F4B00221A645B
:1012C0000D4B00225A640C4B00229A640A4B0022F8
:1012D000DA64094B00221A65074B00225A65064B57
:1012E00000229A65044809F021F80346002B01D03A
:1012F000FFF7B2FC00BF80BDB40500240030014000
:1013000080B5B8B000AF786007F1CC0300221A6056
:101310005A609A60DA601A6107F11003BC2200215A
:1013200018460BF049FF7B681B686C4A934240F0FB
:10133000D0804FF480533B6104237B616C23BB61FD
:101340000523FB6102233B6203237B628023BB6294
:101350000023FB6200233B634FF48053FB6607F1DD
:101360001003184605F0EAFC0346002B01D0FFF7F6
:1013700073FC5B4BD3F8F030594A43F48053C2F806
:10138000F030574BD3F8F03003F48053FB60FB6828
:10139000534BD3F8E030524A43F00103C2F8E03037
:1013A0004F4BD3F8E03003F00103BB60BB68102360
:1013B000C7F8CC300223C7F8D0300123C7F8D430A7
:1013C0000323C7F8D8300523C7F8DC3007F1CC0376
:1013D0001946444803F082FEE023C7F8CC300223CC
:1013E000C7F8D0300023C7F8D4300323C7F8D8306B
:1013F0000523C7F8DC3007F1CC031946394803F060
:101400006DFE394B394A1A60374B25225A60364BEC
:1014100000229A60344B0022DA60334B4FF4806232
:101420001A61314B4FF480525A612F4B4FF4804276
:101430009A612D4B0022DA612B4B4FF440321A6235
:10144000294B00225A62284801F000F80346002B7D
:1014500001D0FFF701FC7B68234ADA67224A7B68E8
:101460009363234B234A1A60214B26225A60204B58
:1014700040229A601E4B0022DA601D4B4FF48062BE
:101480001A611B4B4FF480525A61194B4FF4804242
:101490009A61174B0022DA61154B4FF440321A6201
:1014A000134B00225A62124800F0D0FF0346002B73
:1014B00001D0FFF7D1FB7B680D4A9A670C4A7B6825
:1014C000936300220021232000F025FE232000F05A
:1014D0003CFE00BFE037BD4680BD00BF003001408C
:1014E00000440258000002583C06002470000240EC
:1014F000B40600248800024080B483B000AF0A4BD9
:10150000D3F8F430084A43F00203C2F8F430064B33
:10151000D3F8F43003F002037B607B6800BF0C3724
:10152000BD465DF8047B70470044025880B400AFAC
:10153000FEE780B400AFFEE780B400AFFEE780B402
:1015400000AFFEE780B400AFFEE780B400AF00BF9D
:10155000BD465DF8047B704780B400AF00BFBD4658
:101560005DF8047B704780B400AF00BFBD465DF8F6
:10157000047B704780B500AF00F0A2FC00BF80BDC7
:1015800080B500AF024802F08BFA00BF80BD00BFFB
:10159000CC03002480B500AF024802F081FA00BFFE
:1015A00080BD00BF4404002480B500AF024802F0B3
:1015B00077FA00BF80BD00BFBC04002480B500AF37
:1015C000024802F06DFA00BF80BD00BF3405002460
:1015D00080B500AF024802F063FA00BF80BD00BFD3
:1015E0003C06002480B500AF024802F059FA00BF63
:1015F00080BD00BFB406002480B500AF024809F0EA
:101600000CFB00BF80BD00BF3007002480B500AFD9
:10161000024808F091FF00BF80BD00BFB405002460
:1016200080B500AF034808F023FA034808F020FA19
:1016300000BF80BD6C0100240402002480B500AF0F
:10164000034808F015FA034808F012FA00BF80BDFD
:101650009C0200243403002480B400AF0123184608
:10166000BD465DF8047B704780B582B000AF7860FE
:1016700039600BF055FD034616221A604FF0FF3318
:1016800018460837BD4680BD80B582B000AF78608F
:101690004FF0FF317868FFF7E7FFFEE780B586B0CF
:1016A00000AFF860B9607A6000237B610AE0AFF3B5
:1016B00000800146BB685A1CBA60CAB21A707B69C6
:1016C00001337B617A697B689A42F0DB7B6818465C
:1016D0001837BD4680BD80B586B000AFF860B960F0
:1016E0007A6000237B6109E0BB685A1CBA601B78F2
:1016F0001846AFF300807B6901337B617A697B68B0
:101700009A42F1DB7B6818461837BD4680BD80B42D
:1017100083B000AF78604FF0FF3318460C37BD46FA
:101720005DF8047B704780B483B000AF78603960A7
:101730003B684FF400525A60002318460C37BD46F0
:101740005DF8047B704780B483B000AF78600123FC
:1017500018460C37BD465DF8047B704780B485B0F1
:1017600000AFF860B9607A60002318461437BD46B0
:101770005DF8047B7047000080B586B000AF7860EC
:10178000144A154BD31A7B617B693B61134B1B6871
:10179000002B02D1114B124A1A60104B1A687B6859
:1017A00013443A699A4207D20BF0BAFC03460C2262
:1017B0001A604FF0FF3309E0084B1B68FB60074BD2
:1017C0001A687B681344054A1360FB68184618378B
:1017D000BD4680BD00000824000400002C07002442
:1017E000200A002480B400AF374BD3F88830364A43
:1017F00043F47003C2F88830344B1B6803F00F03C6
:10180000062B07D8314B1B6823F00F032F4A43F0F8
:10181000070313602E4B1B682D4A43F0010313602E
:101820002B4B00221A612A4B1A682949294B134075
:101830000B60264B1B6803F00803002B07D0234BDB
:101840001B6823F00F03214A43F007031360204B6A
:1018500000229A611E4B0022DA611D4B00221A629F
:101860001B4B1D4A9A621A4B1C4ADA62184B1C4ADF
:101870001A63174B00225A63154B194A9A63144B8B
:101880000022DA63124B164A1A64114B00225A6482
:101890000F4B1B680E4A23F4802313600C4B00226D
:1018A0001A66104B1A68104B1340B3F1005F02D256
:1018B0000E4B01221A600E4B43F2D2021A6000BF97
:1018C000BD465DF8047B704700ED00E0002000524B
:1018D000004402587FEDF6EA000202020000FF0118
:1018E000800201010010005C0000FFFF0881005130
:1018F0000040005280B588B000AF07F1100300220D
:101900001A605A609A60DA603B1D00221A605A60C1
:101910009A601E4B4FF080421A601C4B00225A60A6
:101920001A4B10229A60194B194ADA60174B4FF480
:1019300000721A61154B00229A61144809F016F9D9
:101940000346002B01D0FFF787F94FF480533B612A
:1019500007F1100319460D4809F07EFA0346002BE3
:1019600001D0FFF779F900237B600023FB603B1D6A
:101970001946064809F0D2FC0346002B01D0FFF7B8
:101980006BF900BF2037BD4680BD00BF3007002483
:10199000FF3A580880B584B000AF78607B681B6858
:1019A000B3F1804F16D10D4BD3F8E8300B4A43F01A
:1019B0000103C2F8E830094BD3F8E83003F0010323
:1019C000FB60FB68002200211C2000F0A4FB1C200F
:1019D00000F0BBFB00BF1037BD4680BD004402587D
:1019E000DFF834D0FFF7FEFE0C480D490D4A002306
:1019F00002E0D458C4500433C4188C42F9D30A4AC4
:101A00000A4C002301E013600432A242FBD30BF026
:101A10009FFBFEF783FF70470000082400000024AE
:101A20007C000024B0F000087C000024200A002480
:101A3000FEE7000080B584B000AF78600B46FB7015
:101A4000FB78012B0DD17B681833042219462548F9
:101A500007F07AFF7B68203304221946224807F0FA
:101A6000BDFEFB78022B0DD17B681833042219468A
:101A70001E4807F069FF7B682033042219461C4882
:101A800007F0ACFE72B600BF7B68FA781A707B680C
:101A90000022DA607B6800221A617B6800221A75D6
:101AA0007B6800225A757B6800229A750023FB60D0
:101AB0000EE07B68FA680C32002123F812107B6874
:101AC000FA681032002123F81210FB680133FB6022
:101AD000FB68032BEDDD62B600BF00BF1037BD46CB
:101AE00080BD00BF6C010024040200249C0200247D
:101AF0003403002480B485B000AF78607B681B7D20
:101B00001A467B685B7D1A447B680C3233F81230CE
:101B1000FB817B685B7D0133DAB27B685A757B6839
:101B20005B7D012B02D97B6800225A75B7F90E3014
:101B300018461437BD465DF8047B704780B483B007
:101B400000AF78600B467B807B681B7D1A467B6804
:101B50009B7D1A447B681032798823F812107B68C9
:101B60009B7D0133DAB27B689A757B689B7D012B84
:101B700002D97B6800229A7500BF0C37BD465DF81C
:101B8000047B704780B483B000AF78607B681B69CA
:101B9000002B07D07B6800221A617B6800221A752F
:101BA00001230CE07B68DB68002B07D07B680022F8
:101BB000DA607B6802221A75012300E000231846D0
:101BC0000C37BD465DF8047B7047000080B483B0DD
:101BD00000AF78607B68094A934202D1084B01222A
:101BE0001A617B68074A934202D1074B01221A61AE
:101BF00000BF0C37BD465DF8047B70476C010024C4
:101C00007C0700249C020024A407002480B483B035
:101C100000AF78607B68094A934202D1084B0122E9
:101C2000DA607B68074A934202D1074B0122DA60EF
:101C300000BF0C37BD465DF8047B70476C01002483
:101C40007C0700249C020024A407002480B588B0EF
:101C500004AF0346FB800B46BB801346FB70FB883A
:101C60005B001AB2BB881B0A9BB21BB203F00103D4
:101C70001BB213431BB2FB80BB88DBB2FB7300BFFC
:101C8000FB7899B2FA880A2302930123019307F1A2
:101C90000F0300930123054803F07AFC0346002B51
:101CA000EED100BF00BF1037BD4680BD0C0100243F
:101CB00080B582B000AF78600B46FB707B68062B66
:101CC00007DC7B6813F1490F03DB7B6879337B60AA
:101CD00007E07B68062B02DD7F237B6001E00023A9
:101CE0007B607B689BB2FA7819460220FFF7AEFF53
:101CF0007B689BB2FA7819460320FFF7A7FF00BF65
:101D00000837BD4680BD80B582B000AF0346FB7189
:101D1000642000F0F5F8FB791A4600210F20FFF748
:101D200095FFFB791A4610210620FFF78FFFFB79FC
:101D30001A4617210020FFF789FFFB791A46172161
:101D40000120FFF783FFFB791A4679210220FFF774
:101D50007DFFFB791A4679210320FFF777FFFB7996
:101D60001A4612210420FFF771FFFB791A4603215E
:101D70000520FFF76BFFFB79342B12D1FB791A4654
:101D800042210720FFF762FFFB791A464021082015
:101D9000FFF75CFFFB791A4602210620FFF756FF8A
:101DA00011E0FB791A4602210720FFF74FFFFB796C
:101DB0001A4600210820FFF749FFFB791A466221E5
:101DC0000620FFF743FFFB791A4601210920FFF7A0
:101DD0003DFF00BF0837BD4680BD000080B582B022
:101DE00000AF032000F08CF904F0FEFD0246154B15
:101DF0009B691B0A03F00F031349CB5C03F01F031D
:101E000022FA03F37B600F4B9B6903F00F030E4A2A
:101E1000D35C03F01F037A6822FA03F30B4A1360C2
:101E20000B4A7B6813600F2000F014F80346002B68
:101E300001D0012302E0FFF75FFB002318460837BB
:101E4000BD4680BD00440258BCE4000804000024E4
:101E50000000002480B582B000AF7860154B1B787D
:101E6000002B01D1012321E0134B1A68114B1B7881
:101E700019464FF47A73B3FBF1F3B2FBF3F3184650
:101E800000F071F90346002B01D001230EE07B68BE
:101E90000F2B0AD8002279684FF0FF3000F03BF991
:101EA000064A7B681360002300E0012318460837C8
:101EB000BD4680BD0C000024000000240800002462
:101EC00080B400AF064B1B781A46064B1B681344C0
:101ED000044A136000BFBD465DF8047B704700BF35
:101EE0000C000024CC07002480B400AF034B1B6817
:101EF0001846BD465DF8047B704700BFCC07002440
:101F000080B584B000AF7860FFF7EEFFB8607B6803
:101F1000FB60FB68B3F1FF3F05D00A4B1B781A4604
:101F2000FB681344FB6000BFFFF7DEFF0246BB689F
:101F3000D31AFA689A42F7D800BF00BF1037BD46DF
:101F400080BD00BF0C00002480B400AF034B1B68B1
:101F50001B0C1846BD465DF8047B70470010005C02
:101F600080B485B000AF78607B6803F00703FB6046
:101F70000B4BDB68BB60BA684FF6FF031340BB60D6
:101F8000FB681A02BB681A43064B1343BB60044A42
:101F9000BB68D36000BF1437BD465DF8047B704753
:101FA00000ED00E00000FA0580B400AF044BDB68F0
:101FB0001B0A03F007031846BD465DF8047B704713
:101FC00000ED00E080B483B000AF0346FB80B7F9BA
:101FD0000630002B0BDBFB8803F01F020749B7F923
:101FE00006305B09012000FA02F241F8232000BF0D
:101FF0000C37BD465DF8047B704700BF00E100E090
:1020000080B483B000AF03463960FB80B7F9063077
:10201000002B0ADB3B68DAB20C49B7F90630120133
:10202000D2B20B4483F800230AE03B68DAB20849D5
:10203000FB8803F00F03043B1201D2B20B441A7663
:1020400000BF0C37BD465DF8047B704700E100E03F
:1020500000ED00E080B489B000AFF860B9607A604C
:10206000FB6803F00703FB61FB69C3F10703042B63
:1020700028BF0423BB61FB690433062B02D9FB692B
:10208000033B00E000237B614FF0FF32BB6902FAA3
:1020900003F3DA43BB681A407B699A404FF0FF3183
:1020A0007B6901FA03F3D9437B680B40134318465D
:1020B0002437BD465DF8047B7047000080B582B0D0
:1020C00000AF78607B68013BB3F1807F01D30123CF
:1020D0000FE00A4A7B68013B53600F214FF0FF304D
:1020E000FFF78EFF054B00229A60044B07221A600F
:1020F000002318460837BD4680BD00BF10E000E051
:1021000080B582B000AF78607868FFF729FF00BF24
:102110000837BD4680BD80B586B000AF0346B960C4
:102120007A60FB81FFF740FF78617A68B968786967
:10213000FFF790FF0246B7F90E3011461846FFF739
:102140005FFF00BF1837BD4680BD80B582B000AFCD
:102150000346FB80B7F906301846FFF733FF00BF90
:102160000837BD4680BD80B582B000AF7860786822
:10217000FFF7A4FF034618460837BD4680BD0000A0
:1021800080B400AFBFF35F8F00BF074B5B6A064AA6
:1021900023F480335362054B00225A6000BFBD46D2
:1021A0005DF8047B704700BF00ED00E090ED00E0BB
:1021B00080B483B000AF78600B4A7B6843F00103C2
:1021C00053600A4B5B6A094A43F480335362BFF39E
:1021D0004F8F00BFBFF36F8F00BF00BF0C37BD46EE
:1021E0005DF8047B704700BF90ED00E000ED00E07B
:1021F00080B483B000AF78607B685A781D4B9A60DA
:102200007B681B78002B29D01A4A7B685B68D360F7
:102210007B681B7B1A077B68DB7A1B061A437B688B
:102220009B7ADB041A437B685B7B9B041A437B68C5
:102230009B7B5B041A437B68DB7B1B041A437B6834
:102240005B7A1B021A437B681B7A5B0013437A6834
:1022500012781146074A0B43136105E0054B002233
:10226000DA60044B00221A6100BF0C37BD465DF8EE
:10227000047B704790ED00E080B582B000AF7860DD
:102280007B68002B01D1012354E07B685B7FDBB2CC
:10229000002B05D17B6800221A777868FEF792F848
:1022A0007B6802225A777B681B79002B0CD17B68F4
:1022B0001B68224A5A617B681B689A687B681B68A6
:1022C00022F018029A600CE07B6899687B68DB68F2
:1022D0001A46786800F034F80346002B01D0012339
:1022E00028E07B685B79002B05D17B681B684FF089
:1022F000FF321A6104E07B681B687A6812691A6110
:102300007B681B689B6823F060017B685A697B6867
:102310001B680A439A607B681B689B6823F08001F6
:102320007B689A697B681B680A439A607B68012214
:102330005A77002318460837BD4680BDB71DC10433
:1023400080B487B000AFF860B9607A600023FB7595
:102350001F233B6100BF3B695A1E3A61002B09D025
:102360003B6903F01F03BA6822FA03F303F0010389
:10237000002BF0D07B68182B46D801A252F823F02E
:102380000F24000809240008092400080924000873
:102390000924000809240008092400080924000869
:1023A000FD23000809240008092400080924000866
:1023B0000924000809240008092400080924000849
:1023C000F123000809240008092400080924000852
:1023D0000924000809240008092400080924000829
:1023E000E52300083B69062B13D90123FB7510E098
:1023F0003B69072B0FD90123FB750CE03B690F2BC1
:102400000BD90123FB7508E00123FB7506E000BF33
:1024100004E000BF02E000BF00E000BFFB7D002B36
:102420000DD1FB681B68BA685A61FB681B689B6822
:1024300023F01801FB681B687A680A439A60FB7DE9
:1024400018461C37BD465DF8047B704780B586B0E2
:1024500000AF7860FFF748FD38617B68002B01D141
:10246000012316E37B681B68664A93424AD07B6867
:102470001B68654A934245D07B681B68634A934258
:1024800040D07B681B68624A93423BD07B681B68E4
:10249000604A934236D07B681B685F4A934231D0D2
:1024A0007B681B685D4A93422CD07B681B685C4A42
:1024B000934227D07B681B685A4A934222D07B689C
:1024C0001B68594A93421DD07B681B68574A934248
:1024D00018D07B681B68564A934213D07B681B68F0
:1024E000544A93420ED07B681B68534A934209D0EA
:1024F0007B681B68514A934204D07B681B68504A32
:10250000934201D1012300E00023002B00F03B8126
:102510007B68022283F835207B68002283F8342010
:102520007B681B68374A93424AD07B681B68364AEF
:10253000934245D07B681B68344A934240D07B6805
:102540001B68334A93423BD07B681B68314A9342F5
:1025500036D07B681B68304A934231D07B681B6859
:102560002E4A93422CD07B681B682D4A934227D079
:102570007B681B682B4A934222D07B681B682A4ADF
:1025800093421DD07B681B68284A934218D07B6811
:102590001B68274A934213D07B681B68254A9342E5
:1025A0000ED07B681B68244A934209D07B681B6865
:1025B000224A934204D07B681B68214A934208D187
:1025C0007B681B681A687B681B6822F001021A602E
:1025D00007E07B681B681A687B681B6822F00102B1
:1025E0001A602FE0FFF780FC02463B69D31A052BE7
:1025F00028D97B6820225A657B68032283F835201E
:10260000012346E210000240280002404000024040
:10261000580002407000024088000240A0000240C2
:10262000B800024010040240280402404004024066
:10263000580402407004024088040240A004024092
:10264000B80402407B681B681B6803F00103002B81
:10265000C8D17B681B681B687B617A69834B134018
:102660007B617B689A687B68DB681A437B681B69BF
:102670001A437B685B691A437B689B691A437B68D2
:10268000DB691A437B681B6A13437A6913437B61D6
:102690007B685B6A042B07D17B68DA6A7B681B6BFB
:1026A00013437A6913437B61714B1A68714B134072
:1026B000B3F1005F28D37B685B68282B03D97B6864
:1026C0005B682E2B17D97B685B683E2B03D97B6830
:1026D0005B68422B0FD97B685B68462B03D97B680C
:1026E0005B68482B07D97B685B684E2B05D97B68F4
:1026F0005B68522B01D8012300E00023002B03D09C
:102700007B6943F480137B617B681B687A691A607C
:102710007B681B685B697B617B6923F007037B61D6
:102720007B685B6A7A6913437B617B685B6A042B15
:1027300017D17B689B6A7A6913437B617B68DB6A8C
:10274000002B0ED0786802F03FFB0346002B08D028
:102750007B6840225A657B68012283F8352001237B
:1027600097E17B681B687A695A61786802F07AFAA7
:102770000346BB607B68DB6D03F01F033F229A407A
:10278000BB689A60CDE07B681B683B4A934222D0CD
:102790007B681B68394A93421DD07B681B68384AA6
:1027A000934218D07B681B68364A934213D07B68EB
:1027B0001B68354A93420ED07B681B68334A9342AC
:1027C00009D07B681B68324A934204D07B681B683F
:1027D000304A934201D1012300E00023002B00F096
:1027E00097807B681B68244A934221D07B681B68D2
:1027F000224A93421CD07B681B68214A934217D01F
:102800007B681B681F4A934212D07B681B681E4A74
:1028100093420DD07B681B681C4A934208D07B68AA
:102820001B681B4A934203D07B681B68194A93427A
:1028300000BF7B68022283F835207B68002283F882
:1028400034207B681B681B687B617A69124B1340DC
:102850007B617B689B68402B20D07B689B68802BCA
:1028600002D14FF480431AE0002318E03F8010FEAD
:102870000010005C0000FFFF085402581C5402586E
:102880003054025844540258585402586C54025858
:1028900080540258945402580F00FEFF10237A68A7
:1028A000D268D2081A437B681B69DB081A437B682D
:1028B0005B69DB081A437B689B69DB081A437B680A
:1028C000DB69DB081A437B681B6A1B0913437A69BF
:1028D00013437B617B681B687A691A607B681B689D
:1028E0001A466E4B13446E4AA2FB03231B099A003F
:1028F0007B68DA65786802F0B5F90346FB607B68AF
:10290000DB6D03F01F0301229A40FB685A6008E068
:102910007B6840225A657B68032283F835200123B7
:10292000B7E07B681B685F4A934272D07B681B6884
:102930005D4A93426DD07B681B685C4A934268D0C5
:102940007B681B685A4A934263D07B681B68594A6C
:1029500093425ED07B681B68574A934259D07B688C
:102960001B68564A934254D07B681B68544A934272
:102970004FD07B681B68534A93424AD07B681B68E0
:10298000514A934245D07B681B68504A934240D0DD
:102990007B681B684E4A93423BD07B681B684D4A5C
:1029A000934236D07B681B684B4A934231D07B6898
:1029B0001B684A4A93422CD07B681B68484A934262
:1029C00027D07B681B68474A934222D07B681B68EC
:1029D000454A93421DD07B681B68444A934218D0F5
:1029E0007B681B68424A934213D07B681B68414A4C
:1029F00093420ED07B681B683F4A934209D07B68A4
:102A00001B683E4A934204D07B681B683C4A934251
:102A100001D1012300E00023002B32D0786802F0BE
:102A20004FFA7B689B68802B02D17B6800225A603A
:102A30007B685A687B681B6ED2B21A607B685B6EDB
:102A40007A68926E5A607B685B68002B10D07B6856
:102A50005B68082B0CD8786802F0CCFA7B68DB6ED8
:102A600000221A607B681B6F7A68526F5A6008E018
:102A70007B680022DA667B6800221A677B68002286
:102A80005A677B6800225A657B68012283F83520EB
:102A9000002318461837BD4680BD00BFF8ABFDA720
:102AA000CDCCCCCC100002402800024040000240B7
:102AB000580002407000024088000240A00002401E
:102AC000B8000240100402402804024040040240C2
:102AD000580402407004024088040240A0040240EE
:102AE000B8040240085402581C540258305402588A
:102AF00044540258585402586C5402588054025896
:102B00009454025880B586B000AFF860B9607A601E
:102B10003B600023FB75FB68002B01D1012326E2FB
:102B2000FB6893F83430012B01D102231FE2FB68CC
:102B3000012283F83420FB6893F83530DBB2012B97
:102B400040F00A82FB68022283F83520FB680022ED
:102B50005A65FB681B68684A93424AD0FB681B6849
:102B6000664A934245D0FB681B68654A934240D051
:102B7000FB681B68634A93423BD0FB681B68624A50
:102B8000934236D0FB681B68604A934231D0FB68A1
:102B90001B685F4A93422CD0FB681B685D4A9342D6
:102BA00027D0FB681B685C4A934222D0FB681B68F5
:102BB0005A4A93421DD0FB681B68594A934218D069
:102BC000FB681B68574A934213D0FB681B68564A40
:102BD00093420ED0FB681B68544A934209D0FB68AD
:102BE0001B68534A934204D0FB681B68514A9342C6
:102BF00008D1FB681B681A68FB681B6822F0010299
:102C00001A6007E0FB681B681A68FB681B6822F003
:102C100001021A603B687A68B968F86801F076FECC
:102C2000FB681B68344A93424AD0FB681B68334AEE
:102C3000934245D0FB681B68314A934240D0FB6801
:102C40001B68304A93423BD0FB681B682E4A934274
:102C500036D0FB681B682D4A934231D0FB681B6855
:102C60002B4A93422CD0FB681B682A4A934227D0F8
:102C7000FB681B68284A934222D0FB681B68274ADE
:102C800093421DD0FB681B68254A934218D0FB680D
:102C90001B68244A934213D0FB681B68224A934264
:102CA0000ED0FB681B68214A934209D0FB681B6861
:102CB0001F4A934204D0FB681B681E4A934201D10D
:102CC000012300E00023002B36D0FB681B681B6843
:102CD00023F01E02FB681B6842F016021A60FB68B4
:102CE0001B6C002B3ED0FB681B681A68FB681B68D6
:102CF00042F008021A6035E010000240280002404D
:102D0000400002405800024070000240880002402B
:102D1000A0000240B8000240100402402804024013
:102D200040040240580402407004024088040240FB
:102D3000A0040240B8040240FB681B681B6823F033
:102D40000E02FB681B6842F00A021A60FB681B6CEB
:102D5000002B07D0FB681B681A68FB681B6842F0F1
:102D600004021A60FB681B68834A934272D0FB68B6
:102D70001B68824A93426DD0FB681B68804A93426D
:102D800068D0FB681B687F4A934263D0FB681B686E
:102D90007D4A93425ED0FB681B687C4A934259D0BF
:102DA000FB681B687A4A934254D0FB681B68794AD7
:102DB00093424FD0FB681B68774A93424AD0FB6826
:102DC0001B68764A934245D0FB681B68744A93425D
:102DD00040D0FB681B68734A93423BD0FB681B687A
:102DE000714A934236D0FB681B68704A934231D0D7
:102DF000FB681B686E4A93422CD0FB681B686D4AC7
:102E0000934227D0FB681B686B4A934222D0FB6831
:102E10001B686A4A93421DD0FB681B68684A93424C
:102E200018D0FB681B68674A934213D0FB681B6885
:102E3000654A93420ED0FB681B68644A934209D0EE
:102E4000FB681B68624A934204D0FB681B68614AB6
:102E5000934201D1012300E00023002B1AD0FB682C
:102E60001B6E1B6803F48033002B07D0FB681B6EBE
:102E70001A68FB681B6E42F480721A60FB68DB6E96
:102E8000002B07D0FB68DB6E1A68FB68DB6E42F430
:102E900080721A60FB681B68374A93424AD0FB680D
:102EA0001B68364A934245D0FB681B68344A9342FC
:102EB00040D0FB681B68334A93423BD0FB681B68D9
:102EC000314A934236D0FB681B68304A934231D076
:102ED000FB681B682E4A93422CD0FB681B682D4A66
:102EE000934227D0FB681B682B4A934222D0FB6891
:102EF0001B682A4A93421DD0FB681B68284A9342EC
:102F000018D0FB681B68274A934213D0FB681B68E4
:102F1000254A93420ED0FB681B68244A934209D08D
:102F2000FB681B68224A934204D0FB681B68214A55
:102F3000934208D1FB681B681A68FB681B6842F063
:102F400001021A6012E0FB681B681A68FB681B68C4
:102F500042F001021A6009E0FB684FF400625A6512
:102F6000FB68002283F834200123FB75FB7D1846A3
:102F70001837BD4680BD00BF100002402800024047
:102F800040000240580002407000024088000240A9
:102F9000A0000240B8000240100402402804024091
:102FA0004004024058040240700402408804024079
:102FB000A0040240B8040240085402581C540258AD
:102FC0003054025844540258585402586C54025811
:102FD000805402589454025880B586B000AF78608F
:102FE000FEF782FF38617B68002B01D10123DCE210
:102FF0007B6893F83530DBB2022B08D07B688022E7
:103000005A657B68002283F834200123CDE27B6877
:103010001B68764A93424AD07B681B68744A934285
:1030200045D07B681B68734A934240D07B681B681D
:10303000714A93423BD07B681B68704A934236D0FA
:103040007B681B686E4A934231D07B681B686D4A6F
:1030500093422CD07B681B686B4A934227D07B68D5
:103060001B686A4A934222D07B681B68684A934275
:103070001DD07B681B68674A934218D07B681B6829
:10308000654A934213D07B681B68644A93420ED012
:103090007B681B68624A934209D07B681B68614A5F
:1030A000934204D07B681B685F4A934201D101239D
:1030B00000E00023002B13D07B681B681A687B6834
:1030C0001B6822F01E021A607B681B685A697B68C5
:1030D0001B6822F080025A617B681B687B610AE0F2
:1030E0007B681B681A687B681B6822F00E021A60F6
:1030F0007B681B687B617B681B683C4A934272D08B
:103100007B681B683A4A93426DD07B681B68394ADA
:10311000934268D07B681B68374A934263D07B68D0
:103120001B68364A93425ED07B681B68344A9342E0
:1031300059D07B681B68334A934254D07B681B6824
:10314000314A93424FD07B681B68304A93424AD041
:103150007B681B682E4A934245D07B681B682D4ACA
:10316000934240D07B681B682B4A93423BD07B68DC
:103170001B682A4A934236D07B681B68284A9342D0
:1031800031D07B681B68274A93422CD07B681B6830
:10319000254A934227D07B681B68244A934222D059
:1031A0007B681B68224A93421DD07B681B68214ABA
:1031B000934218D07B681B681F4A934213D07B68E8
:1031C0001B681E4A93420ED07B681B681C4A9342C0
:1031D00009D07B681B681B4A934204D07B681B683C
:1031E000194A934232D1012331E000BF100002405E
:1031F0002800024040000240580002407000024097
:1032000088000240A0000240B800024010040240C2
:103210002804024040040240580402407004024066
:1032200088040240A0040240B80402400854025836
:103230001C540258305402584454025858540258EE
:103240006C54025880540258945402580023002BA6
:1032500007D07B681B6E1A687B681B6E22F4807235
:103260001A607B681B686D4A93424AD07B681B6872
:103270006B4A934245D07B681B686A4A934240D0B0
:103280007B681B68684A93423BD07B681B68674A2F
:10329000934236D07B681B68654A934231D07B6885
:1032A0001B68644A93422CD07B681B68624A934235
:1032B00027D07B681B68614A934222D07B681B68D9
:1032C0005F4A93421DD07B681B685E4A934218D0C8
:1032D0007B681B685C4A934213D07B681B685B4A1F
:1032E00093420ED07B681B68594A934209D07B6891
:1032F0001B68584A934204D07B681B68564A934225
:1033000008D17B681B681A687B681B6822F0010281
:103310001A6007E07B681B681A687B681B6822F0EC
:1033200001021A6013E0FEF7DFFD02463B69D31A83
:10333000052B0CD97B6820225A657B68032283F811
:1033400035207B68002283F8342001232DE17B693E
:103350001B6803F00103002BE5D17B681B682F4A33
:1033600093424AD07B681B682D4A934245D07B68C4
:103370001B682C4A934240D07B681B682A4A9342C0
:103380003BD07B681B68294A934236D07B681B6818
:10339000274A934231D07B681B68264A93422CD03F
:1033A0007B681B68244A934227D07B681B68234AAA
:1033B000934222D07B681B68214A93421DD07B68D0
:1033C0001B68204A934218D07B681B681E4A9342B0
:1033D00013D07B681B681D4A93420ED07B681B6824
:1033E0001B4A934209D07B681B681A4A934204D057
:1033F0007B681B68184A934201D1012300E0002337
:10340000002B2BD07B689B6DBB607B68DB6D03F072
:103410001F033F229A40BB689A602AE010000240D6
:103420002800024040000240580002407000024064
:1034300088000240A0000240B80002401004024090
:103440002804024040040240580402407004024034
:1034500088040240A0040240B80402407B689B6DCF
:10346000FB607B68DB6D03F01F0301229A40FB6861
:103470005A607B681B684F4A934272D07B681B6816
:103480004D4A93426DD07B681B684C4A934268D08A
:103490007B681B684A4A934263D07B681B68494A31
:1034A00093425ED07B681B68474A934259D07B6841
:1034B0001B68464A934254D07B681B68444A934237
:1034C0004FD07B681B68434A93424AD07B681B6895
:1034D000414A934245D07B681B68404A934240D0A2
:1034E0007B681B683E4A93423BD07B681B683D4A21
:1034F000934236D07B681B683B4A934231D07B684D
:103500001B683A4A93422CD07B681B68384A934226
:1035100027D07B681B68374A934222D07B681B68A0
:10352000354A93421DD07B681B68344A934218D0B9
:103530007B681B68324A934213D07B681B68314A10
:1035400093420ED07B681B682F4A934209D07B6858
:103550001B682E4A934204D07B681B682C4A934216
:1035600001D1012300E00023002B15D07B685B6EA6
:103570007A68926E5A607B68DB6E002B0CD07B6899
:10358000DB6E1A687B68DB6E22F480721A607B68DF
:103590001B6F7A68526F5A607B68012283F835206E
:1035A0007B68002283F83420002318461837BD4674
:1035B00080BD00BF100002402800024040000240D1
:1035C000580002407000024088000240A000024003
:1035D000B8000240100402402804024040040240A7
:1035E000580402407004024088040240A0040240D3
:1035F000B8040240085402581C540258305402586F
:1036000044540258585402586C540258805402587A
:103610009454025880B584B000AF78607B68002B6A
:1036200001D1012337E27B6893F83530DBB2022BFE
:1036300004D07B6880225A6501232CE27B681B68DA
:103640005C4A93424AD07B681B685B4A934245D0F0
:103650007B681B68594A934240D07B681B68584A74
:1036600093423BD07B681B68564A934236D07B68B6
:103670001B68554A934231D07B681B68534A93427A
:103680002CD07B681B68524A934227D07B681B680A
:10369000504A934222D07B681B684F4A93421DD008
:1036A0007B681B684D4A934218D07B681B684C4A64
:1036B000934213D07B681B684A4A93420ED07B68C2
:1036C0001B68494A934209D07B681B68474A93426A
:1036D00004D07B681B68464A934201D1012300E075
:1036E0000023002B00F086807B68042283F83520BD
:1036F0007B681B682F4A93424AD07B681B682E4A1E
:10370000934245D07B681B682C4A934240D07B682B
:103710001B682B4A93423BD07B681B68294A934223
:1037200036D07B681B68284A934231D07B681B687F
:10373000264A93422CD07B681B68254A934227D0A7
:103740007B681B68234A934222D07B681B68224A0D
:1037500093421DD07B681B68204A934218D07B6837
:103760001B681F4A934213D07B681B681D4A934213
:103770000ED07B681B681C4A934209D07B681B688B
:103780001A4A934204D07B681B68194A934208D1B5
:103790007B681B681A687B681B6822F001021A604C
:1037A00078E17B681B681A687B681B6822F001025D
:1037B0001A606FE110000240280002404000024001
:1037C000580002407000024088000240A000024001
:1037D000B8000240100402402804024040040240A5
:1037E000580402407004024088040240A0040240D1
:1037F000B80402407B681B681A687B681B6822F06B
:103800000E021A607B681B686C4A93424AD07B6840
:103810001B686B4A934245D07B681B68694A934298
:1038200040D07B681B68684A93423BD07B681B682A
:10383000664A934236D07B681B68654A934231D012
:103840007B681B68634A93422CD07B681B68624A82
:10385000934227D07B681B68604A934222D07B68E2
:103860001B685F4A93421DD07B681B685D4A934288
:1038700018D07B681B685C4A934213D07B681B6836
:103880005A4A93420ED07B681B68594A934209D02A
:103890007B681B68574A934204D07B681B68564A72
:1038A000934208D17B681B681A687B681B6822F00A
:1038B00001021A6007E07B681B681A687B681B6856
:1038C00022F001021A607B681B683C4A934272D066
:1038D0007B681B683A4A93426DD07B681B68394A03
:1038E000934268D07B681B68374A934263D07B68F9
:1038F0001B68364A93425ED07B681B68344A934209
:1039000059D07B681B68334A934254D07B681B684C
:10391000314A93424FD07B681B68304A93424AD069
:103920007B681B682E4A934245D07B681B682D4AF2
:10393000934240D07B681B682B4A93423BD07B6804
:103940001B682A4A934236D07B681B68284A9342F8
:1039500031D07B681B68274A93422CD07B681B6858
:10396000254A934227D07B681B68244A934222D081
:103970007B681B68224A93421DD07B681B68214AE2
:10398000934218D07B681B681F4A934213D07B6810
:103990001B681E4A93420ED07B681B681C4A9342E8
:1039A00009D07B681B681B4A934204D07B681B6864
:1039B000194A934232D1012331E000BF1000024086
:1039C00028000240400002405800024070000240BF
:1039D00088000240A0000240B800024010040240EB
:1039E000280402404004024058040240700402408F
:1039F00088040240A0040240B8040240085402585F
:103A00001C54025830540258445402585854025816
:103A10006C54025880540258945402580023002BCE
:103A200028D07B681B6E1A687B681B6E22F480723C
:103A30001A607B689B6DFB607B68DB6D03F01F0386
:103A400001229A40FB685A607B685B6E7A68926ECE
:103A50005A607B68DB6E002B0CD07B68DB6E1A68CB
:103A60007B68DB6E22F480721A607B681B6F7A6859
:103A7000526F5A607B68012283F835207B680022F0
:103A800083F834207B681B6D002B03D07B681B6D93
:103A900078689847002318461037BD4680BD00BFA0
:103AA00080B58AB000AF78600023FB60674B1B686D
:103AB000674AA2FB03239B0A7B627B689B6D3B6288
:103AC0007B689B6DFB613B6A1B68BB61FB691B6884
:103AD0007B617B681B685F4A93424AD07B681B68A6
:103AE0005D4A934245D07B681B685C4A934240D054
:103AF0007B681B685A4A93423BD07B681B68594AD3
:103B0000934236D07B681B68574A934231D07B681A
:103B10001B68564A93422CD07B681B68544A9342D8
:103B200027D07B681B68534A934222D07B681B686E
:103B3000514A93421DD07B681B68504A934218D06B
:103B40007B681B684E4A934213D07B681B684D4AC2
:103B500093420ED07B681B684B4A934209D07B6826
:103B60001B684A4A934204D07B681B68484A9342C8
:103B700001D1012300E00023002B00F02B847B689F
:103B8000DB6D03F01F0308229A40BB691340002B32
:103B900000F0A2807B681B682E4A93424AD07B6863
:103BA0001B682D4A934245D07B681B682B4A934281
:103BB00040D07B681B682A4A93423BD07B681B68D5
:103BC000284A934236D07B681B68274A934231D0FB
:103BD0007B681B68254A93422CD07B681B68244A6B
:103BE000934227D07B681B68224A934222D07B688D
:103BF0001B68214A93421DD07B681B681F4A934271
:103C000018D07B681B681E4A934213D07B681B68E0
:103C10001C4A93420ED07B681B681B4A934209D012
:103C20007B681B68194A934204D07B681B68184A5A
:103C300093422FD17B681B681B6803F00403002BA1
:103C400014BF01230023DBB22EE000BF00000024DC
:103C5000B5814E1B10000240280002404000024087
:103C6000580002407000024088000240A00002405C
:103C7000B800024010040240280402404004024000
:103C8000580402407004024088040240A00402402C
:103C9000B80402407B681B681B6803F00803002B14
:103CA00014BF01230023DBB2002B15D07B681B68F7
:103CB0001A687B681B6822F004021A607B68DB6D5F
:103CC00003F01F0308229A403B6A9A607B685B6D91
:103CD00043F001027B685A657B68DB6D03F01F03CC
:103CE000BA6922FA03F303F00103002B6ED07B685C
:103CF0001B68694A93424AD07B681B68674A9342B3
:103D000045D07B681B68664A934240D07B681B683D
:103D1000644A93423BD07B681B68634A934236D027
:103D20007B681B68614A934231D07B681B68604A9C
:103D300093422CD07B681B685E4A934227D07B68F5
:103D40001B685D4A934222D07B681B685B4A9342A2
:103D50001DD07B681B685A4A934218D07B681B6849
:103D6000584A934213D07B681B68574A93420ED03F
:103D70007B681B68554A934209D07B681B68544A8C
:103D8000934204D07B681B68524A93420AD17B68F5
:103D90001B685B6903F08003002B14BF0123002321
:103DA000DBB203E07B681B681B680023002B0DD08F
:103DB0007B68DB6D03F01F0301229A403B6A9A6027
:103DC0007B685B6D43F002027B685A657B68DB6D44
:103DD00003F01F0304229A40BB691340002B00F03C
:103DE0008F807B681B682C4A93424AD07B681B6893
:103DF0002A4A934245D07B681B68294A934240D0A7
:103E00007B681B68274A93423BD07B681B68264A25
:103E1000934236D07B681B68244A934231D07B683A
:103E20001B68234A93422CD07B681B68214A93422B
:103E300027D07B681B68204A934222D07B681B688E
:103E40001E4A93421DD07B681B681D4A934218D0BE
:103E50007B681B681B4A934213D07B681B681A4A15
:103E600093420ED07B681B68184A934209D07B6846
:103E70001B68174A934204D07B681B68154A93421B
:103E80002AD17B681B681B6803F00203002B14BF58
:103E900001230023DBB223E010000240280002408F
:103EA000400002405800024070000240880002407A
:103EB000A0000240B8000240100402402804024062
:103EC000400402405804024070040240880402404A
:103ED000A0040240B80402407B681B681B680023F2
:103EE000002B0DD07B68DB6D03F01F0304229A408A
:103EF0003B6A9A607B685B6D43F004027B685A659D
:103F00007B68DB6D03F01F0310229A40BB691340EE
:103F1000002B00F0A6807B681B68854A93424AD03C
:103F20007B681B68834A934245D07B681B68824A42
:103F3000934240D07B681B68804A93423BD07B68A9
:103F40001B687F4A934236D07B681B687D4A934248
:103F500031D07B681B687C4A93422CD07B681B68FD
:103F60007A4A934227D07B681B68794A934222D0D1
:103F70007B681B68774A93421DD07B681B68764A32
:103F8000934218D07B681B68744A934213D07B68B5
:103F90001B68734A93420ED07B681B68714A934238
:103FA00009D07B681B68704A934204D07B681B6809
:103FB0006E4A93420AD17B681B681B6803F00803B2
:103FC000002B14BF01230023DBB209E07B681B68D0
:103FD0001B6803F00403002B14BF01230023DBB292
:103FE000002B3ED07B68DB6D03F01F0310229A404C
:103FF0003B6A9A607B681B681B6803F48023002B74
:1040000018D07B681B681B6803F40023002B08D1C1
:104010007B681B6C002B24D07B681B6C78689847EE
:104020001FE07B689B6C002B1BD07B689B6C7868C7
:10403000984716E07B681B681B6803F48073002BAD
:1040400007D17B681B681A687B681B6822F008022E
:104050001A607B681B6C002B03D07B681B6C786834
:1040600098477B68DB6D03F01F0320229A40BB69F1
:104070001340002B00F010817B681B682C4A934290
:104080004AD07B681B682B4A934245D07B681B68EB
:10409000294A934240D07B681B68284A93423BD010
:1040A0007B681B68264A934236D07B681B68254A8A
:1040B000934231D07B681B68234A93422CD07B68A3
:1040C0001B68224A934227D07B681B68204A934290
:1040D00022D07B681B681F4A93421DD07B681B68F7
:1040E0001D4A934218D07B681B681C4A934213D028
:1040F0007B681B681A4A93420ED07B681B68194A7A
:10410000934209D07B681B68174A934204D07B68AE
:104110001B68164A93422BD17B681B681B6803F00F
:104120001003002B14BF01230023DBB22AE000BFE1
:1041300010000240280002404000024058000240A7
:104140007000024088000240A0000240B800024017
:104150001004024028040240400402405804024077
:104160007004024088040240A0040240B8040240E7
:104170007B681B681B6803F00203002B14BF01233C
:104180000023DBB2002B00F087807B68DB6D03F03F
:104190001F0320229A403B6A9A607B6893F835306F
:1041A000DBB2042B39D17B681B681A687B681B68FB
:1041B00022F016021A607B681B685A697B681B68CC
:1041C00022F080025A617B681B6C002B03D17B6854
:1041D0009B6C002B07D07B681B681A687B681B6888
:1041E00022F008021A607B68DB6D03F01F033F2298
:1041F0009A403B6A9A607B68012283F835207B688D
:10420000002283F834207B681B6D002B00F04A836A
:104210007B681B6D7868984744E37B681B681B6864
:1042200003F48023002B18D07B681B681B6803F401
:104230000023002B08D17B685B6C002B2CD07B68A3
:104240005B6C7868984727E07B68DB6B002B23D09A
:104250007B68DB6B786898471EE07B681B681B688F
:1042600003F48073002B0FD17B681B681A687B688E
:104270001B6822F010021A607B68012283F8352047
:104280007B68002283F834207B68DB6B002B03D033
:104290007B68DB6B786898477B685B6D002B00F070
:1042A00006837B685B6D03F00103002B00F08880C0
:1042B0007B68042283F835207B681B687A4A934226
:1042C0004AD07B681B68794A934245D07B681B685B
:1042D000774A934240D07B681B68764A93423BD032
:1042E0007B681B68744A934236D07B681B68734AAC
:1042F000934231D07B681B68714A93422CD07B6813
:104300001B68704A934227D07B681B686E4A9342B1
:1043100022D07B681B686D4A93421DD07B681B6866
:104320006B4A934218D07B681B686A4A934213D049
:104330007B681B68684A93420ED07B681B68674A9B
:10434000934209D07B681B68654A934204D07B681E
:104350001B68644A934208D17B681B681A687B68B3
:104360001B6822F001021A6007E07B681B681A686C
:104370007B681B6822F001021A60FB680133FB6056
:104380007A6A9A4207D37B681B681B6803F00103B3
:10439000002BF2D100E000BF7B681B681B6803F0B4
:1043A0000103002B04D07B68032283F8352003E04F
:1043B0007B68012283F835207B68002283F8342053
:1043C0007B68DB6C002B00F072827B68DB6C7868AA
:1043D00098476CE27B681B68434A934222D07B6813
:1043E0001B68424A93421DD07B681B68404A934237
:1043F00018D07B681B683F4A934213D07B681B68C8
:104400003D4A93420ED07B681B683C4A934209D0D8
:104410007B681B683A4A934204D07B681B68394A20
:10442000934201D1012300E00023002B00F03F82E2
:104430007B681B681B683B617B68DB6D03F01F03B7
:1044400004229A407B691340002B00F0CD803B6929
:1044500003F00403002B00F0C7807B68DB6D03F0E2
:104460001F0304229A40FB695A603B6903F400432E
:10447000002B49D03B6903F48033002B09D17B68C2
:104480009B6C002B00F010827B689B6C78689847CF
:104490000AE27B681B6C002B00F006827B681B6CB9
:1044A0007868984700E200BF1000024028000240F0
:1044B0004000024058000240700002408800024064
:1044C000A0000240B800024010040240280402404C
:1044D0004004024058040240700402408804024034
:1044E000A0040240B8040240085402581C54025868
:1044F0003054025844540258585402586C540258CC
:1045000080540258945402583B6903F02003002B56
:1045100060D17B681B687F4A93424AD07B681B68E6
:104520007D4A934245D07B681B687C4A934240D0C9
:104530007B681B687A4A93423BD07B681B68794A48
:10454000934236D07B681B68774A934231D07B68B0
:104550001B68764A93422CD07B681B68744A93424E
:1045600027D07B681B68734A934222D07B681B6804
:10457000714A93421DD07B681B68704A934218D0E1
:104580007B681B686E4A934213D07B681B686D4A38
:1045900093420ED07B681B686B4A934209D07B68BC
:1045A0001B686A4A934204D07B681B68684A93423E
:1045B00008D17B681B681A687B681B6822F00802B8
:1045C0001A6007E07B681B681A687B681B6822F02A
:1045D00004021A607B681B6C002B00F065817B680D
:1045E0001B6C786898475FE17B68DB6D03F01F0305
:1045F00002229A407B691340002B00F0C5803B6982
:1046000003F00203002B00F0BF807B68DB6D03F03A
:104610001F0302229A40FB695A603B6903F400437E
:10462000002B18D03B6903F48033002B09D17B6841
:104630005B6C002B00F03A817B685B6C7868984774
:1046400034E17B68DB6B002B00F030817B68DB6B37
:10465000786898472AE13B6903F02003002B40F07B
:1046600089807B681B682B4A93424AD07B681B6811
:10467000294A934245D07B681B68284A934240D020
:104680007B681B68264A93423BD07B681B68254A9F
:10469000934236D07B681B68234A934231D07B68B3
:1046A0001B68224A93422CD07B681B68204A9342A5
:1046B00027D07B681B681F4A934222D07B681B6807
:1046C0001D4A93421DD07B681B681C4A934218D038
:1046D0007B681B681A4A934213D07B681B68194A8F
:1046E00093420ED07B681B68174A934209D07B68BF
:1046F0001B68164A934204D07B681B68144A934295
:1047000028D17B681B681A687B681B6822F014023A
:104710001A6027E0100002402800024040000240DA
:10472000580002407000024088000240A000024091
:10473000B800024010040240280402404004024035
:10474000580402407004024088040240A004024061
:10475000B80402407B681B681A687B681B6822F0FB
:104760000A021A607B68012283F835207B680022E8
:1047700083F834207B68DB6B002B00F097807B682C
:10478000DB6B7868984791E07B68DB6D03F01F0373
:1047900008229A407B691340002B00F088803B6917
:1047A00003F00803002B00F082807B681B68414AFD
:1047B00093424AD07B681B683F4A934245D07B684E
:1047C0001B683E4A934240D07B681B683C4A934238
:1047D0003BD07B681B683B4A934236D07B681B68A2
:1047E000394A934231D07B681B68384A93422CD0B7
:1047F0007B681B68364A934227D07B681B68354A22
:10480000934222D07B681B68334A93421DD07B6859
:104810001B68324A934218D07B681B68304A934227
:1048200013D07B681B682F4A93420ED07B681B68AD
:104830002D4A934209D07B681B682C4A934204D0CE
:104840007B681B682A4A934208D17B681B681A68F8
:104850007B681B6822F01C021A6007E07B681B68FB
:104860001A687B681B6822F00E021A607B68DB6D99
:1048700003F01F0301229A40FB695A607B68012202
:104880005A657B68012283F835207B68002283F813
:1048900034207B68DB6C002B09D07B68DB6C78688C
:1048A000984704E000BF02E000BF00E000BF2837E7
:1048B000BD4680BD1000024028000240400002407A
:1048C000580002407000024088000240A0000240F0
:1048D000B800024010040240280402404004024094
:1048E000580402407004024088040240A0040240C0
:1048F000B804024080B483B000AF78607B685B6D21
:1049000018460C37BD465DF8047B704780B487B00D
:1049100000AFF860B9607A603B60FB689B6D7B61BB
:10492000FB689B6D3B61FB681B687F4A934272D0BA
:10493000FB681B687D4A93426DD0FB681B687C4A0C
:10494000934268D0FB681B687A4A934263D0FB6845
:104950001B68794A93425ED0FB681B68774A934292
:1049600059D0FB681B68764A934254D0FB681B6899
:10497000744A93424FD0FB681B68734A93424AD0F3
:10498000FB681B68714A934245D0FB681B68704AFC
:10499000934240D0FB681B686E4A93423BD0FB6851
:1049A0001B686D4A934236D0FB681B686B4A934282
:1049B00031D0FB681B686A4A93422CD0FB681B68A5
:1049C000684A934227D0FB681B68674A934222D00B
:1049D000FB681B68654A93421DD0FB681B68644AEC
:1049E000934218D0FB681B68624A934213D0FB685D
:1049F0001B68614A93420ED0FB681B685F4A934272
:104A000009D0FB681B685E4A934204D0FB681B68B0
:104A10005C4A934201D1012300E00023002B0DD01A
:104A2000FB685B6EFA68926E5A60FB68DB6E002B67
:104A300004D0FB681B6FFA68526F5A60FB681B68F2
:104A4000394A93424AD0FB681B68384A934245D0A2
:104A5000FB681B68364A934240D0FB681B68354AA6
:104A600093423BD0FB681B68334A934236D0FB68C5
:104A70001B68324A934231D0FB681B68304A93422C
:104A80002CD0FB681B682F4A934227D0FB681B6819
:104A90002D4A934222D0FB681B682C4A93421DD0BA
:104AA000FB681B682A4A934218D0FB681B68294A96
:104AB000934213D0FB681B68274A93420ED0FB68D1
:104AC0001B68264A934209D0FB681B68244A93421C
:104AD00004D0FB681B68234A934201D1012300E004
:104AE0000023002B59D0FB68DB6D03F01F033F222E
:104AF0009A407B699A60FB681B681A68FB681B68B0
:104B000022F480221A60FB681B683A685A60FB68CE
:104B10009B68402B38D1FB681B687A689A60FB68F9
:104B20001B68BA68DA6086E0100002402800024084
:104B300040000240580002407000024088000240DD
:104B4000A0000240B80002401004024028040240C5
:104B500040040240580402407004024088040240AD
:104B6000A0040240B8040240085402581C540258E1
:104B70003054025844540258585402586C54025845
:104B80008054025894540258FB681B68BA689A60B3
:104B9000FB681B687A68DA604DE0FB681B68294A8D
:104BA000934222D0FB681B68274A93421DD0FB68C2
:104BB0001B68264A934218D0FB681B68244A93421C
:104BC00013D0FB681B68234A93420ED0FB681B6816
:104BD000214A934209D0FB681B68204A934204D0C3
:104BE000FB681B681E4A934201D1012300E00023A9
:104BF000002B20D0FB68DB6D03F01F0301229A40DD
:104C00003B695A60FB681B683A685A60FB689B689E
:104C1000402B08D1FB681B687A689A60FB681B68A8
:104C2000BA68DA6007E0FB681B68BA689A60FB68DC
:104C30001B687A68DA6000BF1C37BD465DF8047BEC
:104C4000704700BF085402581C5402583054025890
:104C500044540258585402586C5402588054025814
:104C60009454025880B485B000AF78607B681B68AC
:104C7000424A93424AD07B681B68414A934245D0DE
:104C80007B681B683F4A934240D07B681B683E4A62
:104C900093423BD07B681B683C4A934236D07B688A
:104CA0001B683B4A934231D07B681B68394A934268
:104CB0002CD07B681B68384A934227D07B681B68DE
:104CC000364A934222D07B681B68354A93421DD0F6
:104CD0007B681B68334A934218D07B681B68324A52
:104CE000934213D07B681B68304A93420ED07B6896
:104CF0001B682F4A934209D07B681B682D4A934258
:104D000004D07B681B682C4A934201D1012300E048
:104D10000023002B24D07B681B68DBB2103B274AA2
:104D2000A2FB03231B09FB60FB6803F00703244A73
:104D3000D35C1A467B68DA65FB68032B08D97B686D
:104D40001B681A461F4B13401A1D7B689A650DE0BD
:104D50007B681B681A461B4B13407A68936505E015
:104D60007B681B6823F0FF027B689A657B689B6DFC
:104D700018461437BD465DF8047B704710000240AA
:104D800028000240400002405800024070000240EB
:104D900088000240A0000240B80002401004024017
:104DA00028040240400402405804024070040240BB
:104DB00088040240A0040240B8040240ABAAAAAA98
:104DC000CCE4000800FCFFFF80B485B000AF786041
:104DD0000023FB737B689B69002B20D17B689B6A57
:104DE000032B58D801A252F823F000BFFD4D000854
:104DF0000F4E0008FD4D0008974E00087B68DB6AE7
:104E000003F08073002B48D00123FB7345E07B68DF
:104E1000DB6AB3F1C07F42D10123FB733FE07B68C3
:104E20009B69B3F5005F23D17B689B6A032B38D85D
:104E300001A252F823F000BF494E00084F4E00086F
:104E4000494E0008614E00080123FB7330E07B6887
:104E5000DB6A03F08073002B25D00123FB7322E073
:104E60007B68DB6AB3F1C07F1FD10123FB731CE0B9
:104E70007B689B6A022B02D9032B03D018E0012325
:104E8000FB7315E07B68DB6A03F08073002B0ED0A8
:104E90000123FB730BE000BF0AE000BF08E000BF86
:104EA00006E000BF04E000BF02E000BF00E000BF7A
:104EB000FB7B18461437BD465DF8047B704700BF86
:104EC00080B485B000AF78607B681B68BB607B688E
:104ED0001B68384A934222D07B681B68364A93424B
:104EE0001DD07B681B68354A934218D07B681B68CD
:104EF000334A934213D07B681B68324A93420ED0E8
:104F00007B681B68304A934209D07B681B682F4A34
:104F1000934204D07B681B682D4A934201D1012340
:104F200000E00023002B1AD07B681B68DBB2083B33
:104F3000284AA2FB03231B09FB60FA68264B134493
:104F40009B001A467B681A667B68244A5A66FB688F
:104F500003F01F0301229A407B689A6624E07B6875
:104F60001B68DBB2103B1E4AA2FB03231B09FB603C
:104F7000BB681C4A934206D8BB681B4A934202D9BD
:104F8000FB680833FB60FA68184B13449B001A4611
:104F90007B681A667B68164A5A66FB6803F01F0333
:104FA00001229A407B689A6600BF1437BD465DF8BF
:104FB000047B7047085402581C540258305402585D
:104FC00044540258585402586C54025880540258A1
:104FD00094540258CDCCCCCC009600168058025880
:104FE000ABAAAAAAB80402400F0402400082001033
:104FF0008008024080B485B000AF78607B685B6851
:10500000DBB2FB60FB68002B4AD0FB68082B47D85B
:105010007B681B68254A934222D07B681B68244A20
:1050200093421DD07B681B68224A934218D07B684C
:105030001B68214A934213D07B681B681F4A934226
:105040000ED07B681B681E4A934209D07B681B68A0
:105050001C4A934204D07B681B681B4A934201D1CF
:10506000012300E00023002B0AD0FA68174B1344F9
:105070009B001A467B68DA667B68154A1A6709E066
:10508000FA68144B13449B001A467B68DA667B6807
:10509000114A1A67FB68013B01229A407B685A67F4
:1050A00000BF1437BD465DF8047B704708540258B2
:1050B0001C54025830540258445402585854025850
:1050C0006C54025880540258945402583F9600166B
:1050D000405902583F8200104009024080B489B014
:1050E00000AF786039600023FB61894B7B6194E1FC
:1050F0003B681A680121FB6901FA03F313403B6125
:105100003B69002B00F086813B685B6803F003037A
:10511000012B05D03B685B6803F00303022B30D101
:105120007B689B68BB61FB695B00032202FA03F3A7
:10513000DB43BA691340BB613B68DA68FB695B001B
:1051400002FA03F3BA691343BB617B68BA699A60D8
:105150007B685B68BB610122FB6902FA03F3DB43F6
:10516000BA691340BB613B685B681B0903F001022D
:10517000FB6902FA03F3BA691343BB617B68BA693E
:105180005A603B685B6803F00303032B17D07B680E
:10519000DB68BB61FB695B00032202FA03F3DB43BC
:1051A000BA691340BB613B689A68FB695B0002FA0D
:1051B00003F3BA691343BB617B68BA69DA603B6881
:1051C0005B6803F00303022B23D1FB69DA087B68D9
:1051D000083253F82230BB61FB6903F007039B00E0
:1051E0000F2202FA03F3DB43BA691340BB613B6849
:1051F0001A69FB6903F007039B0002FA03F3BA691B
:105200001343BB61FB69DA087B680832B96943F86C
:1052100022107B681B68BB61FB695B00032202FAFA
:1052200003F3DB43BA691340BB613B685B6803F07F
:105230000302FB695B0002FA03F3BA691343BB6123
:105240007B68BA691A603B685B6803F44033002BE3
:1052500000F0E0802F4BD3F8F4302E4A43F00203E5
:10526000C2F8F4302B4BD3F8F43003F00203FB60A8
:10527000FB68294AFB699B08023352F82330BB6163
:10528000FB6903F003039B000F2202FA03F3DB43E5
:10529000BA691340BB617B68204A934252D07B6855
:1052A0001F4A934231D07B681E4A93422BD07B68C1
:1052B0001D4A934225D07B681C4A93421FD07B68CD
:1052C0001B4A934219D07B681A4A934213D07B68D9
:1052D000194A93420DD07B68184A934207D07B68E5
:1052E000174A934201D109232DE00A232BE008231A
:1052F00029E0072327E0062325E0052323E00423F4
:1053000021E003231FE002231DE001231BE000BF77
:105310008000005800440258000400580000025861
:105320000004025800080258000C025800100258ED
:105330000014025800180258001C0258002002589D
:10534000002402580023FA6902F0030292009340FD
:10535000BA691343BB613849FB699B080233BA69D8
:1053600041F823204FF0B0431B68BB613B69DB432E
:10537000BA691340BB613B685B6803F48013002B80
:1053800003D0BA693B691343BB614FF0B042BB69BC
:1053900013604FF0B0435B68BB613B69DB43BA69A4
:1053A0001340BB613B685B6803F40013002B03D020
:1053B000BA693B691343BB614FF0B042BB695360AC
:1053C0007B695B68BB613B69DB43BA691340BB61C6
:1053D0003B685B6803F40033002B03D0BA693B6978
:1053E0001343BB617B69BA695A607B691B68BB6107
:1053F0003B69DB43BA691340BB613B685B6803F4FC
:105400008033002B03D0BA693B691343BB617B69CE
:10541000BA691A60FB690133FB613B681A68FB6972
:1054200022FA03F3002B7FF463AE00BF00BF2437E2
:10543000BD465DF8047B70470004005880B483B01B
:1054400000AF78600B467B8013467B707B78002B27
:1054500003D07A887B689A6103E07B881A047B68B2
:105460009A6100BF0C37BD465DF8047B70470000B1
:1054700080B582B000AF78607B68002B01D101233A
:105480007FE07B6893F84130DBB2002B06D17B686C
:10549000002283F840207868FBF7DAF97B68242241
:1054A00083F841207B681B681A687B681B6822F0C0
:1054B00001021A607B685A687B681B6822F0706280
:1054C0001A617B681B689A687B681B6822F400423B
:1054D0009A607B68DB68012B07D17B689A687B68E0
:1054E0001B6842F400429A6006E07B689A687B6819
:1054F0001B6842F404429A607B68DB68022B04D18B
:105500007B681B684FF400625A607B681B685968AF
:105510007B681A681D4B0B4353607B681B68DA6815
:105520007B681B6822F40042DA607B681A697B683A
:105530005B6942EA03017B689B691A027B681B680E
:105540000A43DA607B68D9697B681A6A7B681B68E2
:105550000A431A607B681B681A687B681B6842F004
:1055600001021A607B6800225A647B68202283F85B
:1055700041207B6800221A637B68002283F8422066
:10558000002318460837BD4680BD00BF00800002DA
:1055900080B588B002AFF860084611461A46034647
:1055A0007B810B463B811346FB80FB6893F84130BF
:1055B000DBB2202B40F0F9803B6A002B02D0BB8C81
:1055C000002B05D1FB684FF400725A640123EDE013
:1055D000FB6893F84030012B01D10223E6E0FB6821
:1055E000012283F84020FCF77FFC78617B690093FF
:1055F000192301224FF40041F86800F055F90346E1
:10560000002B01D00123D1E0FB68212283F8412047
:10561000FB68402283F84220FB6800225A64FB6842
:105620003A6A5A62FB68BA8C5A85FB6800225A6350
:10563000F8883A8979897B690193BB6A00930346AC
:10564000F86800F0B9F80346002B05D0FB6800228B
:1056500083F840200123A9E0FB685B8D9BB2FF2B00
:105660000ED9FB68FF221A85FB681B8DDAB2798997
:10567000002300934FF08073F86800F0BDFA0FE04C
:10568000FB685B8D9AB2FB681A85FB681B8DDAB2EA
:105690007989002300934FF00073F86800F0ACFAAA
:1056A0007A69B96AF86800F03FF90346002B01D027
:1056B00001237BE0FB685B6A1A78FB681B689A62CF
:1056C000FB685B6A5A1CFB685A62FB685B8D9BB285
:1056D000013B9AB2FB685A85FB681B8D013B9AB26D
:1056E000FB681A85FB685B8D9BB2002B34D0FB688E
:1056F0001B8D002B30D17B690093BB6A0022802177
:10570000F86800F0D1F80346002B01D001234DE0EA
:10571000FB685B8D9BB2FF2B0ED9FB68FF221A85BD
:10572000FB681B8DDAB27989002300934FF08073F8
:10573000F86800F061FA0FE0FB685B8D9AB2FB68D5
:105740001A85FB681B8DDAB27989002300934FF02C
:105750000073F86800F050FAFB685B8D9BB2002B79
:105760009ED17A69B96AF86800F01EF90346002BE9
:1057700001D001231AE0FB681B682022DA61FB6874
:105780001B685968FB681A680A4B0B405360FB683A
:10579000202283F84120FB68002283F84220FB6826
:1057A000002283F84020002300E002231846183727
:1057B000BD4680BD00E800FE80B586B002AFF8604F
:1057C000084611461A4603467B810B463B81134629
:1057D000FB80FB88DAB27989204B00934FF080730D
:1057E000F86800F009FAFA69B969F86800F09CF8FD
:1057F0000346002B01D001232CE0FB88012B05D1AF
:105800003B89DAB2FB681B689A6215E03B891B0A88
:105810009BB2DAB2FB681B689A62FA69B969F868E8
:1058200000F082F80346002B01D0012312E03B89EF
:10583000DAB2FB681B689A62FB690093BB690022BD
:105840008021F86800F030F80346002B01D00123D6
:1058500000E0002318461037BD4680BD00200080C0
:1058600080B483B000AF78607B681B689B6903F0ED
:105870000203022B03D17B681B6800229A627B68BB
:105880001B689B6903F00103012B07D07B681B6831
:105890009A697B681B6842F001029A6100BF0C376D
:1058A000BD465DF8047B704780B584B000AFF860FA
:1058B000B9603B601346FB7122E03B68B3F1FF3FE8
:1058C0001ED0FCF711FB0246BB69D31A3A689A4214
:1058D00002D33B68002B13D1FB685B6C43F02002C2
:1058E000FB685A64FB68202283F84120FB68002291
:1058F00083F84220FB68002283F8402001230FE058
:10590000FB681B689A69BB681340BA689A420CBF6F
:1059100001230023DBB21A46FB799A42CDD0002343
:1059200018461037BD4680BD80B584B000AFF86022
:10593000B9607A602CE07A68B968F86800F070F8AD
:105940000346002B01D001232AE0BB68B3F1FF3FDF
:105950001ED0FCF7C9FA02467B68D31ABA689A428D
:1059600002D3BB68002B13D1FB685B6C43F02002B1
:10597000FB685A64FB68202283F84120FB68002200
:1059800083F84220FB68002283F84020012307E0CF
:10599000FB681B689B6903F00203022BCBD1002339
:1059A00018461037BD4680BD80B584B000AFF860A2
:1059B000B9607A6028E07A68B968F86800F030F871
:1059C0000346002B01D0012326E0FCF78DFA0246A6
:1059D0007B68D31ABA689A4202D3BB68002B13D1F2
:1059E000FB685B6C43F02002FB685A64FB68202272
:1059F00083F84120FB68002283F84220FB680022E4
:105A000083F84020012307E0FB681B689B6903F0D3
:105A10002003202BCFD1002318461037BD4680BD70
:105A200080B58AB000AFF860B9607A60002387F86B
:105A30002730FB681B689B69BB6100233B627B6866
:105A4000FB61BB6903F01003002B75D0FB681B687A
:105A50001022DA6156E0BB68B3F1FF3F52D0FCF789
:105A600043FA0246FB69D31ABA689A4202D3BB686A
:105A7000002B47D1FB681B685B6803F480437B61A4
:105A8000FB6893F84230FB74FB681B689B6903F466
:105A90000043B3F5004F2ED17B69B3F5804F2AD078
:105AA000FB7C202B27D0FB681B685A68FB681B68AF
:105AB00042F480425A60FCF717FAF8611BE0FCF7E9
:105AC00013FA0246FB69D31A192B14D9FB685B6CD5
:105AD00043F02002FB685A64FB68202283F84120CF
