:020000040800F2
:1000000000000824AD140008651100086B110008F9
:1000100071110008771100087D1100080000000030
:100020000000000000000000000000008311000834
:1000300091110008000000009F110008AD11000898
:10004000FD140008FD140008FD140008FD1400084C
:10005000FD140008FD140008FD140008FD1400083C
:10006000FD140008FD140008FD140008BD1100086F
:10007000D1110008FD140008FD140008FD1400084B
:10008000FD140008FD140008FD140008FD1400080C
:10009000FD140008FD140008FD140008FD140008FC
:1000A000FD140008FD140008FD140008FD140008EC
:1000B000E5110008FD140008FD140008FD140008F7
:1000C000FD140008FD140008FD140008FD140008CC
:1000D000F9110008FD140008FD140008FD140008C3
:1000E000FD140008FD14000800000000FD140008C5
:1000F000FD140008FD140008FD140008FD1400089C
:10010000FD140008FD140008FD140008FD1400088B
:10011000FD140008FD140008FD140008FD1400087B
:10012000FD140008FD140008FD140008FD1400086B
:10013000FD140008FD140008FD140008FD1400085B
:1001400000000000000000000000000000000000AF
:10015000FD140008FD140008FD140008FD1400083B
:10016000FD140008FD140008FD140008FD1400082B
:10017000FD140008FD140008FD1400080000000034
:10018000FD140008FD140008FD140008FD1400080B
:10019000FD140008FD140008FD140008FD140008FB
:1001A000FD140008FD140008FD140008FD140008EB
:1001B000FD140008FD140008FD140008FD140008DB
:1001C000FD140008FD140008FD140008FD140008CB
:1001D000FD1400080D120008FD140008FD140008AD
:1001E000FD140008FD140008FD140008FD140008AB
:1001F000FD140008FD140008FD140008FD1400089B
:10020000FD140008FD140008FD140008FD1400088A
:10021000FD140008FD140008FD140008FD1400087A
:10022000FD140008FD140008FD1400080000000083
:10023000FD140008FD14000800000000FD14000873
:10024000FD140008FD140008FD140008FD1400084A
:10025000FD140008FD140008FD140008FD1400083A
:10026000FD140008FD140008FD140008FD1400082A
:10027000FD140008FD140008FD1400080000000033
:10028000FD140008FD140008FD1400080000000023
:0802900000000000FD1400084D
:1002980010B5054C237833B9044B13B10448AFF3B8
:1002A80000800123237010BD2C01002400000000F1
:1002B800FC0A010808B5034B1BB103490348AFF317
:1002C800008008BD0000000030010024FC0A01087D
:1002D80053B94AB9002908BF00281CBF4FF0FF31A5
:1002E8004FF0FF3000F074B9ADF1080C6DE904CEA1
:1002F80000F006F8DDF804E0DDE9022304B07047F9
:100308002DE9F047089D04468E46002B4DD18A42C0
:10031800944669D9B2FA82F252B101FA02F3C2F1F3
:10032800200120FA01F10CFA02FC41EA030E944084
:100338004FEA1C48210CBEFBF8F61FFA8CF708FBA5
:1003480016E341EA034306FB07F199420AD91CEB7D
:10035800030306F1FF3080F01F81994240F21C81AF
:10036800023E63445B1AA4B2B3FBF8F008FB1033F7
:1003780044EA034400FB07F7A7420AD91CEB04042C
:1003880000F1FF3380F00A81A74240F207816444FC
:10039800023840EA0640E41B00261DB1D440002381
:1003A800C5E900433146BDE8F0878B4209D9002DE5
:1003B80000F0EF800026C5E9000130463146BDE86F
:1003C800F087B3FA83F6002E4AD18B4202D38242D9
:1003D80000F2F980841A61EB030301209E46002D88
:1003E800E0D0C5E9004EDDE702B9FFDEB2FA82F2DD
:1003F800002A40F09280A1EB0C014FEA1C471FFA3B
:100408008CFE0126200CB1FBF7F307FB131140EA21
:1004180001410EFB03F0884208D91CEB010103F1EE
:10042800FF3802D2884200F2CB804346091AA4B2B0
:10043800B1FBF7F007FB101144EA01440EFB00FE84
:10044800A64508D91CEB040400F1FF3102D2A645E9
:1004580000F2BB800846A4EB0E0440EA03409CE788
:10046800C6F12007B34022FA07FC4CEA030C20FA35
:1004780007F401FA06F31C43F9404FEA1C4900FA55
:1004880006F3B1FBF9F8200C1FFA8CFE09FB1811D2
:1004980040EA014108FB0EF0884202FA06F20BD945
:1004A8001CEB010108F1FF3A80F08880884240F295
:1004B8008580A8F102086144091AA4B2B1FBF9F0D9
:1004C80009FB101144EA014100FB0EFE8E4508D9D4
:1004D8001CEB010100F1FF346CD28E456AD9023859
:1004E800614440EA0840A0FB0294A1EB0E01A1423E
:1004F800C846A64656D353D05DB1B3EB080261EBAC
:100508000E0101FA07F722FA06F3F1401F43C5E985
:10051800007100263146BDE8F087C2F12003D840BB
:100528000CFA02FC21FA03F3914001434FEA1C47FD
:100538001FFA8CFEB3FBF7F007FB10360B0C43EAEF
:10054800064300FB0EF69E4204FA02F408D91CEB9F
:10055800030300F1FF382FD29E422DD9023863449D
:100568009B1B89B2B3FBF7F607FB163341EA03413D
:1005780006FB0EF38B4208D91CEB010106F1FF388C
:1005880016D28B4214D9023E6144C91A46EA004683
:1005980038E72E46284605E70646E3E61846F8E615
:1005A8004B45A9D2B9EB020864EB0C0E0138A3E75E
:1005B8004646EAE7204694E74046D1E7D0467BE73F
:1005C800023B614432E7304609E76444023842E7B7
:1005D800704700BF80B500AF0D4B0E4A1A600C4B38
:1005E80000221A710A4B00225A71094B00225A61E3
:1005F800074B00229A61064B01221A62044801F057
:1006080063F90346002B01D000F050FB00BF80BD0A
:1006180048010024004C025880B485B000AF7860CF
:100628007B681B680B4A93420ED10B4BD3F8E03022
:10063800094A43F40023C2F8E030074BD3F8E0300E
:1006480003F40023FB60FB6800BF1437BD465DF868
:10065800047B7047004C02580044025880B582B0B1
:1006680000AF114BD3F8D8300F4A43F00103C2F85A
:10067800D8300D4BD3F8D83003F001037B607B688A
:10068800002200210B2001F07BF80B2001F092F8EA
:10069800002200210C2001F073F80C2001F08AF8E8
:1006A80000BF0837BD4680BD0044025880B588B0F9
:1006B80000AF3B1D00221A605A609A60DA601A6126
:1006C8005A619A61284B294A1A60274B284A5A606E
:1006D800254B00229A60244B0022DA60224B00222C
:1006E8001A61214B00225A611F4B00229A611E4B4E
:1006F8000022DA611C4B00221A621B4B4FF4805215
:100708005A62194B00229A62174B0022DA62164B82
:1007180000221A63144B00225A63134B00229A6377
:10072800114B0022DA63104B00221A6408237B6005
:100738000F23BB607F23FB6008233B6110237B6191
:100748001123BB610023FB613B1D002219460648AB
:1007580008F07EFB0346002B01D000F0A7FA00BF8B
:100768002037BD4680BD00BF6C0100240040005208
:100778000441005280B5B6B000AF07F1C4030022AF
:100788001A605A609A60DA601A61394B1B68002B4C
:1007980069D1374B01221A6007F10803BC220021F6
:1007A800184610F09FF94FF08073BB600023FB647C
:1007B80007F10803184606F0ADF90346002B01D0EF
:1007C80000F074FA2B4BD3F8D4302A4A43F4805300
:1007D800C2F8D430274BD3F8D43003F480537B606D
:1007E8007B684FF4F863C7F8C4300223C7F8C830F1
:1007F8000023C7F8CC300323C7F8D0300C23C7F840
:10080800D43007F1C40319461B4803F071FC4CF2BD
:100818003303C7F8C4300223C7F8C8300023C7F829
:10082800CC300323C7F8D0300C23C7F8D43007F1F5
:10083800C4031946114803F05BFC8023C7F8C43091
:100848000223C7F8C8300023C7F8CC300323C7F801
:10085800D0300923C7F8D43007F1C4031946084833
:1008680003F046FC00E000BFD837BD4680BD00BF9E
:10087800B80100240044025800100258000C025825
:100888000008025880B582B000AF7860FFF772FFA9
:1008980000BF0837BD4680BD80B58CB000AF07F1FA
:1008A8001C0300221A605A609A60DA601A613E4B93
:1008B800D3F8E0303C4A43F01003C2F8E0303A4B3A
:1008C800D3F8E03003F01003BB61BB69364BD3F8B3
:1008D800E030354A43F08003C2F8E030324BD3F8B9
:1008E800E03003F080037B617B692F4BD3F8E03065
:1008F8002D4A43F00403C2F8E0302B4BD3F8E03024
:1009080003F004033B613B69274BD3F8E030264AE8
:1009180043F00103C2F8E030234BD3F8E03003F092
:100928000103FB60FB68204BD3F8E0301E4A43F01C
:100938000203C2F8E0301C4BD3F8E03003F00203A6
:10094800BB60BB68184BD3F8E030174A43F0080384
:10095800C2F8E030144BD3F8E03003F008037B60B2
:100968007B6801224021114803F072FD0123FB61DD
:1009780000233B6201237B6207F11C0319460B48E5
:1009880003F0B6FB4023FB6101233B6200237B623B
:100998000023BB6207F11C031946044803F0A8FBB7
:1009A80000BF3037BD4680BD0044025800080258D9
:1009B80080B500AF00F03EF9284B5B6903F40033C3
:1009C800002B14BF01230023DBB2002B1BD1BFF384
:1009D8004F8F00BFBFF36F8F00BF204B0022C3F8BB
:1009E8005022BFF34F8F00BFBFF36F8F00BF1B4B69
:1009F8005B691A4A43F400335361BFF34F8F00BF5A
:100A0800BFF36F8F00E000BF00F076FD00F02AF81A
:100A180000F0F0F8FFF740FFFFF748FEFFF71EFE73
:100A28000FF030FB00F08EFC00F046F900F09CF966
:100A3800FFF7D0FD0BF0B0FE4FF61F000CF070F87A
:100A48004FF4FA7000F0B4FD05480BF0CDFC0448F3
:100A58000BF010FD012000F0ABFDF8E700ED00E021
:100A6800CC05002480B59EB000AF07F12C034C22C2
:100A78000021184610F036F807F10C032022002157
:100A8800184610F02FF8022004F0FEFF0023BB6088
:100A9800554BDB6A544A23F00103D362524BDB6A9D
:100AA80003F00103BB60514B9B69504A43F4404338
:100AB80093614E4B9B6903F44043BB60BB684B4B4F
:100AC8009B6903F40053B3F5005F14BF01230023AF
:100AD800DBB2002B00D0F2E7454BD3F8F430444AA0
:100AE80043F00203C2F8F430414BD3F8F43003F07A
:100AF80002037B607B6800233B603C4B9B693B4A5D
:100B080043F440439361394B9B6903F440433B6092
:100B1800354BDB6A344A43F00103D362324BDB6A5C
:100B280003F001033B603B68304B9B6903F40053BF
:100B3800B3F5005F14BF01230023DBB2002B00D004
:100B4800F2E72323FB624FF480333B630123BB634B
:100B58004023FB6301237B6402233B6502237B65FF
:100B68000423BB65A023FB6502233B6604237B6645
:100B78000223BB660823FB6600233B6700237B67D1
:100B880007F12C03184604F0C9FF0346002B14BFD5
:100B980001230023DBB2002B01D000F087F83F23AC
:100BA800FB6003233B6100237B610823BB61402377
:100BB800FB6140233B624FF480637B624023BB624E
:100BC80007F10C030421184605F0D6FB0346002B59
:100BD80014BF01230023DBB2002B01D000F066F81C
:100BE80000BF7837BD4680BD000400580048025851
:100BF8000044025880B5B0B000AF3B1DBC220021B4
:100C080018460FF06FFF4FF000437B6000237B65B1
:100C18003B1D184605F07EFF0346002B14BF012339
:100C28000023DBB2002B01D000F040F800BFC03732
:100C3800BD4680BD80B584B000AF3B4600221A6037
:100C48005A609A60DA6000F0C3FD01233B7002230A
:100C58007B704FF0C0437B6019233B7200237B728B
:100C68000023BB720323FB7200233B7301237B73B6
:100C78000023BB730123FB733B46184600F0E0FDDD
:100C8800042000F0BDFD00BF1037BD4680BD80B513
:100C980082B000AF78607B681B68B3F1804F01D1E8
:100CA80000F066FC00BF0837BD4680BD80B400AFC9
:100CB80072B600BFFEE7000080B500AF284B294A96
:100CC8001A60274B4FF480025A60254B00229A6025
:100CD800234B0722DA60224B00221A61204B0022A4
:100CE8005A611F4B4FF000529A611D4B4FF0405212
:100CF800DA611B4B00221A62194B00225A62184B08
:100D080000229A62164B0022DA62154B4FF080429D
:100D18005A63134B4FF080529A63114B0022DA63E7
:100D28000F4B00221A640E4B00225A640C4B00220F
:100D38009A640B4B0022DA64094B00221A65084BAF
:100D480000225A65064B00229A65054807F04AFAC0
:100D58000346002B01D0FFF7A9FF00BF80BD00BFED
:100D6800BC0100240038004080B500AF274B284A5A
:100D78001A60264B4FF480025A60244B00229A6076
:100D8800224B0722DA60214B00221A611F4B0022F6
:100D98005A611E4B4FF000529A611C4B4FF0805223
:100DA800DA611A4B00221A62184B00225A62174B5A
:100DB80000229A62154B0022DA62144B4FF08042EF
:100DC8005A63124B00229A63104B0022DA630F4BCE
:100DD80000221A640D4B00225A640C4B00229A64BC
:100DE8000A4B0022DA64094B00221A65074B0022DD
:100DF8005A65064B00229A65044807F0F3F9034642
:100E0800002B01D0FFF752FF00BF80BD4402002431
:100E18000034014080B5BAB000AF786007F1D40360
:100E280000221A605A609A60DA601A6107F11803A2
:100E3800BC22002118460FF055FE7B681B687C4ACF
:100E4800934240F0A7804FF48053BB614FF4804336
:100E58007B6707F11803184605F05CFE0346002B74
:100E680001D0FFF723FF734BD3F8E830714A43F4FE
:100E78008043C2F8E8306F4BD3F8E83003F480437E
:100E88007B617B696B4BD3F8E0306A4A43F002031D
:100E9800C2F8E030674BD3F8E03003F002033B615F
:100EA8003B694FF47043C7F8D4300223C7F8D830F1
:100EB8000023C7F8DC300023C7F8E0300523C7F863
:100EC800E43007F1D40319465B4803F011F95B4B92
:100ED8005B4A1A60594B27225A60584B00229A6085
:100EE800564B0022DA60554B4FF480621A61534B1F
:100EF80000225A61514B00229A61504B0022DA615C
:100F08004E4B00221A624D4B00225A624B4800F0A9
:100F1800C5FD0346002B01D0FFF7C8FE7B68474A92
:100F2800DA67464A7B689363464B474A1A60454BE3
:100F380028225A60434B40229A60424B0022DA60D2
:100F4800404B4FF480621A613E4B00225A613D4B80
:100F580000229A613B4B0022DA613A4B00221A6266
:100F6800384B00225A62374800F098FD0346002BA0
:100F780001D0FFF79BFE7B68324A9A67314A7B684B
:100F8800936300220021242000F0FAFB242000F0C3
:100F980011FC48E07B681B682C4A934243D14FF40C
:100FA8000053BB614FF44033BB6707F11803184681
:100FB80005F0B0FD0346002B01D0FFF777FE1D4B6F
:100FC800D3F8F0301B4A43F40053C2F8F030194B01
:100FD800D3F8F03003F40053FB60FB68154BD3F8EB
:100FE800E030144A43F01003C2F8E030114BD3F854
:100FF800E03003F01003BB60BB684FF4F043C7F860
:10100800D4300223C7F8D8300023C7F8DC300023D7
:10101800C7F8E0300523C7F8E43007F1D4031946D0
:101028000B4803F065F800BFE837BD4680BD00BF38
:10103800003800400044025800040258CC02002442
:1010480010000240440300242800024000340140FC
:101058000010025880B483B000AF0A4BD3F8F430C4
:10106800084A43F00203C2F8F430064BD3F8F430D0
:1010780003F002037B607B6800BF0C37BD465DF858
:10108800047B70470044025880B590B000AF786088
:101098007B680F2B27D8002279681C2000F070FB92
:1010A8001C2000F087FB294A7B681360284BD3F883
:1010B800E830274A43F00103C2F8E830244BD3F85C
:1010C800E83003F00103FB60FB6807F1100207F149
:1010D80014031146184605F0DBFCBB6ABB63BB6B07
:1010E800002B06D101E001232CE005F0A5FCF863F4
:1010F80004E005F0A1FC03465B00FB63FB6B154AAB
:10110800A2FB03239B0C013B7B63134B4FF08042F4
:101118001A60114B40F2E732DA600F4A7B6B53607A
:101128000D4B00221A610C4B00229A600A4807F006
:10113800DFFE0346002B04D1074807F03BFF0346B8
:1011480000E0012318464037BD4680BD0800002452
:101158000044025883DE1B43BC03002480B400AF64
:10116800FEE780B400AFFEE780B400AFFEE780B4CE
:1011780000AFFEE780B400AFFEE780B400AF00BF69
:10118800BD465DF8047B704780B400AF00BFBD4624
:101198005DF8047B704780B400AF00BFBD465DF8C2
:1011A800047B704780B400AF00BFBD465DF8047B88
:1011B8007047000080B500AF024801F07BFC00BF1B
:1011C80080BD00BFCC02002480B500AF024801F00A
:1011D80071FC00BF80BD00BF4403002480B500AF90
:1011E800024807F05FFF00BF80BD00BFBC030024BA
:1011F80080B500AF024807F0D1FA00BF80BD00BF3C
:10120800BC01002480B500AF024803F091FA00BF8A
:1012180080BD00BF340B002480B582B000AF786079
:1012280003480BF03BF900BF0837BD4680BD00BF3F
:10123800CC05002480B400AF374BD3F88830364A49
:1012480043F47003C2F88830344B1B6803F00F0373
:10125800062B07D8314B1B6823F00F032F4A43F0A6
:10126800070313602E4B1B682D4A43F001031360DC
:101278002B4B00221A612A4B1A682949294B134023
:101288000B60264B1B6803F00803002B07D0234B89
:101298001B6823F00F03214A43F007031360204B18
:1012A80000229A611E4B0022DA611D4B00221A624D
:1012B8001B4B1D4A9A621A4B1C4ADA62184B1C4A8D
:1012C8001A63174B00225A63154B194A9A63144B39
:1012D8000022DA63124B164A1A64114B00225A6430
:1012E8000F4B1B680E4A23F4802313600C4B00221B
:1012F8001A66104B1A68104B1340B3F1005F02D204
:101308000E4B01221A600E4B43F2D2021A6000BF44
:10131800BD465DF8047B704700ED00E000200052F8
:10132800004402587FEDF6EA000202020000FF01C5
:10133800800201010010005C0000FFFF08810051DD
:101348000040005280B500AF224B234A1A60214B5F
:101358004FF4E1325A601F4B00229A601D4B002265
:10136800DA601C4B00221A611A4B0C225A61194B85
:1013780000229A61174B0022DA61164B00221A628A
:10138800144B00225A62134B00229A62114808F04B
:1013980089F80346002B01D0FFF788FC00210D488F
:1013A80009F026F80346002B01D0FFF77FFC002147
:1013B800084809F05BF80346002B01D0FFF776FCDC
:1013C800044808F0DCFF0346002B01D0FFF76EFC51
:1013D80000BF80BD080400240044004080B5B8B0B8
:1013E80000AF786007F1CC0300221A605A609A6057
:1013F800DA601A6107F11003BC22002118460FF0C9
:1014080071FB7B681B68244A934241D102233B61EC
:101418000023C7F8843007F11003184605F07AFB5B
:101428000346002B01D0FFF741FC1C4BD3F8E830F2
:101438001A4A43F40033C2F8E830184BD3F8E830BE
:1014480003F40033FB60FB68144BD3F8E030134A15
:1014580043F00103C2F8E030104BD3F8E03003F05A
:101468000103BB60BB680C23C7F8CC300223C7F864
:10147800D0300023C7F8D4300023C7F8D83007236A
:10148800C7F8DC3007F1CC031946054802F030FEF6
:1014980000BFE037BD4680BD00440040004402580C
:1014A80000000258DFF834D0FFF7C4FE0C480D499D
:1014B8000D4A002302E0D458C4500433C4188C42A7
:1014C800F9D30A4A0A4C002301E013600432A2420D
:1014D800FBD30FF0E3FAFFF76BFA7047000008241C
:1014E800000000242C010024D00B01082C0100244A
:1014F800B8120024FEE7000080B582B000AF0320D8
:1015080000F033F905F0EEF80246154B9B691B0A0B
:1015180003F00F031349CB5C03F01F0322FA03F314
:101528007B600F4B9B6903F00F030E4AD35C03F0FB
:101538001F037A6822FA03F30B4A13600B4A7B688D
:1015480013600F20FFF7A0FD0346002B01D00123F5
:1015580002E0FFF77FFD002318460837BD4680BD2F
:1015680000440258580B010804000024000000241D
:1015780080B400AF064B1B781A46064B1B68134411
:10158800044A136000BFBD465DF8047B704700BF86
:101598000C0000249804002480B400AF034B1B689F
:1015A8001846BD465DF8047B704700BF98040024C8
:1015B80080B584B000AF7860FFF7EEFFB8607B6855
:1015C800FB60FB68B3F1FF3F05D00A4B1B781A4656
:1015D800FB681344FB6000BFFFF7DEFF0246BB68F1
:1015E800D31AFA689A42F7D800BF00BF1037BD4631
:1015F80080BD00BF0C00002480B400AF034B1B6803
:101608001B0C1846BD465DF8047B70470010005C53
:1016180080B485B000AF78607B6803F00703FB6097
:101628000B4BDB68BB60BA684FF6FF031340BB6027
:10163800FB681A02BB681A43064B1343BB60044A93
:10164800BB68D36000BF1437BD465DF8047B7047A4
:1016580000ED00E00000FA0580B400AF044BDB6841
:101668001B0A03F007031846BD465DF8047B704764
:1016780000ED00E080B483B000AF0346FB80B7F90B
:101688000630002B0BDBFB8803F01F020749B7F974
:1016980006305B09012000FA02F241F8232000BF5E
:1016A8000C37BD465DF8047B704700BF00E100E0E1
:1016B80080B483B000AF03463960FB80B7F90630C9
:1016C800002B0ADB3B68DAB20C49B7F90630120185
:1016D800D2B20B4483F800230AE03B68DAB2084927
:1016E800FB8803F00F03043B1201D2B20B441A76B5
:1016F80000BF0C37BD465DF8047B704700E100E091
:1017080000ED00E080B489B000AFF860B9607A609D
:10171800FB6803F00703FB61FB69C3F10703042BB4
:1017280028BF0423BB61FB690433062B02D9FB697C
:10173800033B00E000237B614FF0FF32BB6902FAF4
:1017480003F3DA43BB681A407B699A404FF0FF31D4
:101758007B6901FA03F3D9437B680B4013431846AE
:101768002437BD465DF8047B704780B582B000AF72
:1017780078607868FFF74CFF00BF0837BD4680BD2A
:1017880080B586B000AF0346B9607A60FB81FFF789
:1017980063FF78617A68B9687869FFF7B3FF024632
:1017A800B7F90E3011461846FFF782FF00BF183709
:1017B800BD4680BD80B582B000AF0346FB80B7F957
:1017C80006301846FFF756FF00BF0837BD4680BDF4
:1017D80080B400AFBFF35F8F00BF074B5B6A064A58
:1017E80023F480335362054B00225A6000BFBD4684
:1017F8005DF8047B704700BF00ED00E090ED00E06D
:1018080080B483B000AF78600B4A7B6843F0010373
:1018180053600A4B5B6A094A43F480335362BFF34F
:101828004F8F00BFBFF36F8F00BF00BF0C37BD469F
:101838005DF8047B704700BF90ED00E000ED00E02C
:1018480080B483B000AF78607B685A781D4B9A608B
:101858007B681B78002B29D01A4A7B685B68D360A9
:101868007B681B7B1A077B68DB7A1B061A437B683D
:101878009B7ADB041A437B685B7B9B041A437B6877
:101888009B7B5B041A437B68DB7B1B041A437B68E6
:101898005B7A1B021A437B681B7A5B0013437A68E6
:1018A80012781146074A0B43136105E0054B0022E5
:1018B800DA60044B00221A6100BF0C37BD465DF8A0
:1018C800047B704790ED00E080B582B000AF78608F
:1018D8007B68002B01D1012354E07B685B7FDBB27E
:1018E800002B05D17B6800221A777868FEF794FEF2
:1018F8007B6802225A777B681B79002B0CD17B68A6
:101908001B68224A5A617B681B689A687B681B6857
:1019180022F018029A600CE07B6899687B68DB68A3
:101928001A46786800F034F80346002B01D00123EA
:1019380028E07B685B79002B05D17B681B684FF03A
:10194800FF321A6104E07B681B687A6812691A61C1
:101958007B681B689B6823F060017B685A697B6819
:101968001B680A439A607B681B689B6823F08001A8
:101978007B689A697B681B680A439A607B680122C6
:101988005A77002318460837BD4680BDB71DC104E5
:1019980080B487B000AFF860B9607A600023FB7547
:1019A8001F233B6100BF3B695A1E3A61002B09D0D7
:1019B8003B6903F01F03BA6822FA03F303F001033B
:1019C800002BF0D07B68182B46D801A252F823F0E0
:1019D800671A0008611A0008611A0008611A0008ED
:1019E800611A0008611A0008611A0008611A0008E3
:1019F800551A0008611A0008611A0008611A0008DF
:101A0800611A0008611A0008611A0008611A0008C2
:101A1800491A0008611A0008611A0008611A0008CA
:101A2800611A0008611A0008611A0008611A0008A2
:101A38003D1A00083B69062B13D90123FB7510E0FA
:101A48003B69072B0FD90123FB750CE03B690F2B72
:101A58000BD90123FB7508E00123FB7506E000BFE5
:101A680004E000BF02E000BF00E000BFFB7D002BE8
:101A78000DD1FB681B68BA685A61FB681B689B68D4
:101A880023F01801FB681B687A680A439A60FB7D9B
:101A980018461C37BD465DF8047B704780B586B094
:101AA80000AF7860FFF778FD38617B68002B01D1C3
:101AB800012316E37B681B68664A93424AD07B6819
:101AC8001B68654A934245D07B681B68634A93420A
:101AD80040D07B681B68624A93423BD07B681B6896
:101AE800604A934236D07B681B685F4A934231D084
:101AF8007B681B685D4A93422CD07B681B685C4AF4
:101B0800934227D07B681B685A4A934222D07B684D
:101B18001B68594A93421DD07B681B68574A9342F9
:101B280018D07B681B68564A934213D07B681B68A1
:101B3800544A93420ED07B681B68534A934209D09B
:101B48007B681B68514A934204D07B681B68504AE3
:101B5800934201D1012300E00023002B00F03B81D8
:101B68007B68022283F835207B68002283F83420C2
:101B78007B681B68374A93424AD07B681B68364AA1
:101B8800934245D07B681B68344A934240D07B68B7
:101B98001B68334A93423BD07B681B68314A9342A7
:101BA80036D07B681B68304A934231D07B681B680B
:101BB8002E4A93422CD07B681B682D4A934227D02B
:101BC8007B681B682B4A934222D07B681B682A4A91
:101BD80093421DD07B681B68284A934218D07B68C3
:101BE8001B68274A934213D07B681B68254A934297
:101BF8000ED07B681B68244A934209D07B681B6817
:101C0800224A934204D07B681B68214A934208D138
:101C18007B681B681A687B681B6822F001021A60DF
:101C280007E07B681B681A687B681B6822F0010262
:101C38001A602FE0FFF7B0FC02463B69D31A052B68
:101C480028D97B6820225A657B68032283F83520CF
:101C5800012346E2100002402800024040000240F2
:101C6800580002407000024088000240A000024074
:101C7800B800024010040240280402404004024018
:101C8800580402407004024088040240A004024044
:101C9800B80402407B681B681B6803F00103002B33
:101CA800C8D17B681B681B687B617A69834B1340CA
:101CB8007B617B689A687B68DB681A437B681B6971
:101CC8001A437B685B691A437B689B691A437B6884
:101CD800DB691A437B681B6A13437A6913437B6188
:101CE8007B685B6A042B07D17B68DA6A7B681B6BAD
:101CF80013437A6913437B61714B1A68714B134024
:101D0800B3F1005F28D37B685B68282B03D97B6815
:101D18005B682E2B17D97B685B683E2B03D97B68E1
:101D28005B68422B0FD97B685B68462B03D97B68BD
:101D38005B68482B07D97B685B684E2B05D97B68A5
:101D48005B68522B01D8012300E00023002B03D04D
:101D58007B6943F480137B617B681B687A691A602E
:101D68007B681B685B697B617B6923F007037B6188
:101D78007B685B6A7A6913437B617B685B6A042BC7
:101D880017D17B689B6A7A6913437B617B68DB6A3E
:101D9800002B0ED0786802F021F80346002B08D0FB
:101DA8007B6840225A657B68012283F8352001232D
:101DB80097E17B681B687A695A61786801F05CFF73
:101DC8000346BB607B68DB6D03F01F033F229A402C
:101DD800BB689A60CDE07B681B683B4A934222D07F
:101DE8007B681B68394A93421DD07B681B68384A58
:101DF800934218D07B681B68364A934213D07B689D
:101E08001B68354A93420ED07B681B68334A93425D
:101E180009D07B681B68324A934204D07B681B68F0
:101E2800304A934201D1012300E00023002B00F047
:101E380097807B681B68244A934221D07B681B6883
:101E4800224A93421CD07B681B68214A934217D0D0
:101E58007B681B681F4A934212D07B681B681E4A26
:101E680093420DD07B681B681C4A934208D07B685C
:101E78001B681B4A934203D07B681B68194A93422C
:101E880000BF7B68022283F835207B68002283F834
:101E980034207B681B681B687B617A69124B13408E
:101EA8007B617B689B68402B20D07B689B68802B7C
:101EB80002D14FF480431AE0002318E03F8010FE5F
:101EC8000010005C0000FFFF085402581C54025820
:101ED8003054025844540258585402586C5402580A
:101EE80080540258945402580F00FEFF10237A6859
:101EF800D268D2081A437B681B69DB081A437B68DF
:101F08005B69DB081A437B689B69DB081A437B68BB
:101F1800DB69DB081A437B681B6A1B0913437A6970
:101F280013437B617B681B687A691A607B681B684E
:101F38001A466E4B13446E4AA2FB03231B099A00F0
:101F48007B68DA65786801F097FE0346FB607B687A
:101F5800DB6D03F01F0301229A40FB685A6008E01A
:101F68007B6840225A657B68032283F83520012369
:101F7800B7E07B681B685F4A934272D07B681B6836
:101F88005D4A93426DD07B681B685C4A934268D077
:101F98007B681B685A4A934263D07B681B68594A1E
:101FA80093425ED07B681B68574A934259D07B683E
:101FB8001B68564A934254D07B681B68544A934224
:101FC8004FD07B681B68534A93424AD07B681B6892
:101FD800514A934245D07B681B68504A934240D08F
:101FE8007B681B684E4A93423BD07B681B684D4A0E
:101FF800934236D07B681B684B4A934231D07B684A
:102008001B684A4A93422CD07B681B68484A934213
:1020180027D07B681B68474A934222D07B681B689D
:10202800454A93421DD07B681B68444A934218D0A6
:102038007B681B68424A934213D07B681B68414AFD
:1020480093420ED07B681B683F4A934209D07B6855
:102058001B683E4A934204D07B681B683C4A934203
:1020680001D1012300E00023002B32D0786801F071
:1020780031FF7B689B68802B02D17B6800225A6005
:102088007B685A687B681B6ED2B21A607B685B6E8D
:102098007A68926E5A607B685B68002B10D07B6808
:1020A8005B68082B0CD8786801F0AEFF7B68DB6EA4
:1020B80000221A607B681B6F7A68526F5A6008E0CA
:1020C8007B680022DA667B6800221A677B68002238
:1020D8005A677B6800225A657B68012283F835209D
:1020E800002318461837BD4680BD00BFF8ABFDA7D2
:1020F800CDCCCCCC10000240280002404000024069
:10210800580002407000024088000240A0000240CF
:10211800B800024010040240280402404004024073
:10212800580402407004024088040240A00402409F
:10213800B8040240085402581C540258305402583B
:1021480044540258585402586C5402588054025847
:102158009454025880B586B000AFF860B9607A60D0
:102168003B600023FB75FB68002B01D1012326E2AD
:10217800FB6893F83430012B01D102231FE2FB687E
:10218800012283F83420FB6893F83530DBB2012B49
:1021980040F00A82FB68022283F83520FB6800229F
:1021A8005A65FB681B68684A93424AD0FB681B68FB
:1021B800664A934245D0FB681B68654A934240D003
:1021C800FB681B68634A93423BD0FB681B68624A02
:1021D800934236D0FB681B68604A934231D0FB6853
:1021E8001B685F4A93422CD0FB681B685D4A934288
:1021F80027D0FB681B685C4A934222D0FB681B68A7
:102208005A4A93421DD0FB681B68594A934218D01A
:10221800FB681B68574A934213D0FB681B68564AF1
:1022280093420ED0FB681B68544A934209D0FB685E
:102238001B68534A934204D0FB681B68514A934277
:1022480008D1FB681B681A68FB681B6822F001024A
:102258001A6007E0FB681B681A68FB681B6822F0B5
:1022680001021A603B687A68B968F86801F058FB9F
:10227800FB681B68344A93424AD0FB681B68334AA0
:10228800934245D0FB681B68314A934240D0FB68B3
:102298001B68304A93423BD0FB681B682E4A934226
:1022A80036D0FB681B682D4A934231D0FB681B6807
:1022B8002B4A93422CD0FB681B682A4A934227D0AA
:1022C800FB681B68284A934222D0FB681B68274A90
:1022D80093421DD0FB681B68254A934218D0FB68BF
:1022E8001B68244A934213D0FB681B68224A934216
:1022F8000ED0FB681B68214A934209D0FB681B6813
:102308001F4A934204D0FB681B681E4A934201D1BE
:10231800012300E00023002B36D0FB681B681B68F4
:1023280023F01E02FB681B6842F016021A60FB6865
:102338001B6C002B3ED0FB681B681A68FB681B6887
:1023480042F008021A6035E01000024028000240FE
:1023580040000240580002407000024088000240DD
:10236800A0000240B80002401004024028040240C5
:1023780040040240580402407004024088040240AD
:10238800A0040240B8040240FB681B681B6823F0E5
:102398000E02FB681B6842F00A021A60FB681B6C9D
:1023A800002B07D0FB681B681A68FB681B6842F0A3
:1023B80004021A60FB681B68834A934272D0FB6868
:1023C8001B68824A93426DD0FB681B68804A93421F
:1023D80068D0FB681B687F4A934263D0FB681B6820
:1023E8007D4A93425ED0FB681B687C4A934259D071
:1023F800FB681B687A4A934254D0FB681B68794A89
:1024080093424FD0FB681B68774A93424AD0FB68D7
:102418001B68764A934245D0FB681B68744A93420E
:1024280040D0FB681B68734A93423BD0FB681B682B
:10243800714A934236D0FB681B68704A934231D088
:10244800FB681B686E4A93422CD0FB681B686D4A78
:10245800934227D0FB681B686B4A934222D0FB68E3
:102468001B686A4A93421DD0FB681B68684A9342FE
:1024780018D0FB681B68674A934213D0FB681B6837
:10248800654A93420ED0FB681B68644A934209D0A0
:10249800FB681B68624A934204D0FB681B68614A68
:1024A800934201D1012300E00023002B1AD0FB68DE
:1024B8001B6E1B6803F48033002B07D0FB681B6E70
:1024C8001A68FB681B6E42F480721A60FB68DB6E48
:1024D800002B07D0FB68DB6E1A68FB68DB6E42F4E2
:1024E80080721A60FB681B68374A93424AD0FB68BF
:1024F8001B68364A934245D0FB681B68344A9342AE
:1025080040D0FB681B68334A93423BD0FB681B688A
:10251800314A934236D0FB681B68304A934231D027
:10252800FB681B682E4A93422CD0FB681B682D4A17
:10253800934227D0FB681B682B4A934222D0FB6842
:102548001B682A4A93421DD0FB681B68284A93429D
:1025580018D0FB681B68274A934213D0FB681B6896
:10256800254A93420ED0FB681B68244A934209D03F
:10257800FB681B68224A934204D0FB681B68214A07
:10258800934208D1FB681B681A68FB681B6842F015
:1025980001021A6012E0FB681B681A68FB681B6876
:1025A80042F001021A6009E0FB684FF400625A65C4
:1025B800FB68002283F834200123FB75FB7D184655
:1025C8001837BD4680BD00BF1000024028000240F9
:1025D800400002405800024070000240880002405B
:1025E800A0000240B8000240100402402804024043
:1025F800400402405804024070040240880402402B
:10260800A0040240B8040240085402581C5402585E
:102618003054025844540258585402586C540258C2
:10262800805402589454025880B584B000AF786042
:102638007B68002B01D1012337E27B6893F83530A2
:10264800DBB2022B04D07B6880225A6501232CE27E
:102658007B681B685C4A93424AD07B681B685B4A6C
:10266800934245D07B681B68594A934240D07B68A7
:102678001B68584A93423BD07B681B68564A934272
:1026880036D07B681B68554A934231D07B681B68FB
:10269800534A93422CD07B681B68524A934227D0F6
:1026A8007B681B68504A934222D07B681B684F4A5C
:1026B80093421DD07B681B684D4A934218D07B68B3
:1026C8001B684C4A934213D07B681B684A4A934262
:1026D8000ED07B681B68494A934209D07B681B6807
:1026E800474A934204D07B681B68464A934201D10B
:1026F800012300E00023002B00F086807B68042281
:1027080083F835207B681B682F4A93424AD07B6840
:102718001B682E4A934245D07B681B682C4A93421B
:1027280040D07B681B682B4A93423BD07B681B6870
:10273800294A934236D07B681B68284A934231D095
:102748007B681B68264A93422CD07B681B68254A05
:10275800934227D07B681B68234A934222D07B6828
:102768001B68224A93421DD07B681B68204A93420B
:1027780018D07B681B681F4A934213D07B681B687C
:102788001D4A93420ED07B681B681C4A934209D0AD
:102798007B681B681A4A934204D07B681B68194AF5
:1027A800934208D17B681B681A687B681B6822F013
:1027B80001021A6078E17B681B681A687B681B68ED
:1027C80022F001021A606FE1100002402800024066
:1027D8004000024058000240700002408800024059
:1027E800A0000240B8000240100402402804024041
:1027F8004004024058040240700402408804024029
:10280800A0040240B80402407B681B681A687B6811
:102818001B6822F00E021A607B681B686C4A9342A0
:102828004AD07B681B686B4A934245D07B681B681B
:10283800694A934240D07B681B68684A93423BD000
:102848007B681B68664A934236D07B681B68654A7A
:10285800934231D07B681B68634A93422CD07B68D3
:102868001B68624A934227D07B681B68604A934280
:1028780022D07B681B685F4A93421DD07B681B6827
:102888005D4A934218D07B681B685C4A934213D018
:102898007B681B685A4A93420ED07B681B68594A6A
:1028A800934209D07B681B68574A934204D07B68DF
:1028B8001B68564A934208D17B681B681A687B6874
:1028C8001B6822F001021A6007E07B681B681A681F
:1028D8007B681B6822F001021A607B681B683C4A0F
:1028E800934272D07B681B683A4A93426DD07B68EA
:1028F8001B68394A934268D07B681B68374A934201
:1029080063D07B681B68364A93425ED07B681B683D
:10291800344A934259D07B681B68334A934254D057
:102928007B681B68314A93424FD07B681B68304AEA
:1029380093424AD07B681B682E4A934245D07B68F5
:102948001B682D4A934240D07B681B682B4A9342F0
:102958003BD07B681B682A4A934236D07B681B6849
:10296800284A934231D07B681B68274A93422CD06F
:102978007B681B68254A934227D07B681B68244ADA
:10298800934222D07B681B68224A93421DD07B6801
:102998001B68214A934218D07B681B681F4A9342E0
:1029A80013D07B681B681E4A93420ED07B681B6855
:1029B8001C4A934209D07B681B681B4A934204D087
:1029C8007B681B68194A934232D1012331E000BF6A
:1029D8001000024028000240400002405800024017
:1029E8007000024088000240A0000240B800024087
:1029F80010040240280402404004024058040240E7
:102A08007004024088040240A0040240B804024056
:102A1800085402581C54025830540258445402585E
:102A2800585402586C54025880540258945402580E
:102A38000023002B28D07B681B6E1A687B681B6EEE
:102A480022F480721A607B689B6DFB607B68DB6D8B
:102A580003F01F0301229A40FB685A607B685B6E93
:102A68007A68926E5A607B68DB6E002B0CD07B68AC
:102A7800DB6E1A687B68DB6E22F480721A607B68F2
:102A88001B6F7A68526F5A607B68012283F8352081
:102A98007B68002283F834207B681B6D002B03D0F1
:102AA8007B681B6D78689847002318461037BD4629
:102AB80080BD00BF80B58AB000AF78600023FB609E
:102AC800674B1B68674AA2FB03239B0A7B627B68F0
:102AD8009B6D3B627B689B6DFB613B6A1B68BB61BE
:102AE800FB691B687B617B681B685F4A93424AD01D
:102AF8007B681B685D4A934245D07B681B685C4ACB
:102B0800934240D07B681B685A4A93423BD07B680B
:102B18001B68594A934236D07B681B68574A9342D0
:102B280031D07B681B68564A93422CD07B681B685F
:102B3800544A934227D07B681B68534A934222D059
:102B48007B681B68514A93421DD07B681B68504ABA
:102B5800934218D07B681B684E4A934213D07B6817
:102B68001B684D4A93420ED07B681B684B4A9342C0
:102B780009D07B681B684A4A934204D07B681B686B
:102B8800484A934201D1012300E00023002B00F0C2
:102B98002B847B68DB6D03F01F0308229A40BB6916
:102BA8001340002B00F0A2807B681B682E4A9342DA
:102BB8004AD07B681B682D4A934245D07B681B68C6
:102BC8002B4A934240D07B681B682A4A93423BD0E9
:102BD8007B681B68284A934236D07B681B68274A63
:102BE800934231D07B681B68254A93422CD07B687E
:102BF8001B68244A934227D07B681B68224A934269
:102C080022D07B681B68214A93421DD07B681B68D1
:102C18001F4A934218D07B681B681E4A934213D000
:102C28007B681B681C4A93420ED07B681B681B4A52
:102C3800934209D07B681B68194A934204D07B6889
:102C48001B68184A93422FD17B681B681B6803F0E6
:102C58000403002B14BF01230023DBB22EE000BFC6
:102C680000000024B5814E1B1000024028000240DD
:102C780040000240580002407000024088000240B4
:102C8800A0000240B800024010040240280402409C
:102C98004004024058040240700402408804024084
:102CA800A0040240B80402407B681B681B6803F05C
:102CB8000803002B14BF01230023DBB2002B15D01F
:102CC8007B681B681A687B681B6822F004021A601C
:102CD8007B68DB6D03F01F0308229A403B6A9A6009
:102CE8007B685B6D43F001027B685A657B68DB6D2E
:102CF80003F01F03BA6922FA03F303F00103002B60
:102D08006ED07B681B68694A93424AD07B681B680F
:102D1800674A934245D07B681B68664A934240D015
:102D28007B681B68644A93423BD07B681B68634A94
:102D3800934236D07B681B68614A934231D07B68E6
:102D48001B68604A93422CD07B681B685E4A93429A
:102D580027D07B681B685D4A934222D07B681B683A
:102D68005B4A93421DD07B681B685A4A934218D02D
:102D78007B681B68584A934213D07B681B68574A84
:102D880093420ED07B681B68554A934209D07B68F2
:102D98001B68544A934204D07B681B68524A93428A
:102DA8000AD17B681B685B6903F08003002B14BFA2
:102DB80001230023DBB203E07B681B681B68002348
:102DC800002B0DD07B68DB6D03F01F0301229A40B6
:102DD8003B6A9A607B685B6D43F002027B685A65C8
:102DE8007B68DB6D03F01F0304229A40BB69134024
:102DF800002B00F08F807B681B682C4A93424AD0D6
:102E08007B681B682A4A934245D07B681B68294A1D
:102E1800934240D07B681B68274A93423BD07B682B
:102E28001B68264A934236D07B681B68244A934223
:102E380031D07B681B68234A93422CD07B681B687F
:102E4800214A934227D07B681B68204A934222D0AC
:102E58007B681B681E4A93421DD07B681B681D4A0D
:102E6800934218D07B681B681B4A934213D07B6837
:102E78001B681A4A93420ED07B681B68184A934213
:102E880009D07B681B68174A934204D07B681B688B
:102E9800154A93422AD17B681B681B6803F002031A
:102EA800002B14BF01230023DBB223E010000240F3
:102EB80028000240400002405800024070000240D2
:102EC80088000240A0000240B800024010040240FE
:102ED80028040240400402405804024070040240A2
:102EE80088040240A0040240B80402407B681B68C2
:102EF8001B680023002B0DD07B68DB6D03F01F03DC
:102F080004229A403B6A9A607B685B6D43F0040236
:102F18007B685A657B68DB6D03F01F0310229A40BB
:102F2800BB691340002B00F0A6807B681B68854AAC
:102F380093424AD07B681B68834A934245D07B689A
:102F48001B68824A934240D07B681B68804A934240
:102F58003BD07B681B687F4A934236D07B681B68EE
:102F68007D4A934231D07B681B687C4A93422CD0BF
:102F78007B681B687A4A934227D07B681B68794A2A
:102F8800934222D07B681B68774A93421DD07B68A6
:102F98001B68764A934218D07B681B68744A934230
:102FA80013D07B681B68734A93420ED07B681B68FA
:102FB800714A934209D07B681B68704A934204D0D7
:102FC8007B681B686E4A93420AD17B681B681B6842
:102FD80003F00803002B14BF01230023DBB209E030
:102FE8007B681B681B6803F00403002B14BF0123D4
:102FF8000023DBB2002B3ED07B68DB6D03F01F03A0
:1030080010229A403B6A9A607B681B681B6803F42D
:103018008023002B18D07B681B681B6803F40023EF
:10302800002B08D17B681B6C002B24D07B681B6CA1
:10303800786898471FE07B689B6C002B1BD07B68E7
:103048009B6C7868984716E07B681B681B6803F4DC
:103058008073002B07D17B681B681A687B681B6824
:1030680022F008021A607B681B6C002B03D07B6877
:103078001B6C786898477B68DB6D03F01F03202280
:103088009A40BB691340002B00F010817B681B68D5
:103098002C4A93424AD07B681B682B4A934245D0FE
:1030A8007B681B68294A934240D07B681B68284A82
:1030B80093423BD07B681B68264A934236D07B6894
:1030C8001B68254A934231D07B681B68234A934288
:1030D8002CD07B681B68224A934227D07B681B68E8
:1030E800204A934222D07B681B681F4A93421DD016
:1030F8007B681B681D4A934218D07B681B681C4A72
:10310800934213D07B681B681A4A93420ED07B689F
:103118001B68194A934209D07B681B68174A934277
:1031280004D07B681B68164A93422BD17B681B68C6
:103138001B6803F01003002B14BF01230023DBB22C
:103148002AE000BF10000240280002404000024070
:10315800580002407000024088000240A00002406F
:10316800B800024010040240280402404004024013
:10317800580402407004024088040240A00402403F
:10318800B80402407B681B681B6803F00203002B2D
:1031980014BF01230023DBB2002B00F087807B687B
:1031A800DB6D03F01F0320229A403B6A9A607B681C
:1031B80093F83530DBB2042B39D17B681B681A6869
:1031C8007B681B6822F016021A607B681B685A69C4
:1031D8007B681B6822F080025A617B681B6C002B9D
:1031E80003D17B689B6C002B07D07B681B681A682F
:1031F8007B681B6822F008021A607B68DB6D03F0AD
:103208001F033F229A403B6A9A607B68012283F839
:1032180035207B68002283F834207B681B6D002BE7
:1032280000F04A837B681B6D7868984744E37B68A5
:103238001B681B6803F48023002B18D07B681B686D
:103248001B6803F40023002B08D17B685B6C002B00
:103258002CD07B685B6C7868984727E07B68DB6BD1
:10326800002B23D07B68DB6B786898471EE07B686F
:103278001B681B6803F48073002B0FD17B681B68E5
:103288001A687B681B6822F010021A607B680122AA
:1032980083F835207B68002283F834207B68DB6B59
:1032A800002B03D07B68DB6B786898477B685B6D85
:1032B800002B00F006837B685B6D03F00103002B95
:1032C80000F088807B68042283F835207B681B68BF
:1032D8007A4A93424AD07B681B68794A934245D020
:1032E8007B681B68774A934240D07B681B68764AA4
:1032F80093423BD07B681B68744A934236D07B6804
:103308001B68734A934231D07B681B68714A9342A9
:103318002CD07B681B68704A934227D07B681B6857
:103328006E4A934222D07B681B686D4A93421DD037
:103338007B681B686B4A934218D07B681B686A4A93
:10334800934213D07B681B68684A93420ED07B680F
:103358001B68674A934209D07B681B68654A934299
:1033680004D07B681B68644A934208D17B681B6859
:103378001A687B681B6822F001021A6007E07B6804
:103388001B681A687B681B6822F001021A60FB68D8
:103398000133FB607A6A9A4207D37B681B681B6813
:1033A80003F00103002BF2D100E000BF7B681B682B
:1033B8001B6803F00103002B04D07B68032283F809
:1033C800352003E07B68012283F835207B680022E2
:1033D80083F834207B68DB6C002B00F072827B68FA
:1033E800DB6C786898476CE27B681B68434A9342B9
:1033F80022D07B681B68424A93421DD07B681B68B9
:10340800404A934218D07B681B683F4A934213D0C6
:103418007B681B683D4A93420ED07B681B683C4A18
:10342800934209D07B681B683A4A934204D07B6870
:103438001B68394A934201D1012300E00023002B85
:1034480000F03F827B681B681B683B617B68DB6D13
:1034580003F01F0304229A407B691340002B00F0FD
:10346800CD803B6903F00403002B00F0C7807B6824
:10347800DB6D03F01F0304229A40FB695A603B6925
:1034880003F40043002B49D03B6903F48033002B3D
:1034980009D17B689B6C002B00F010827B689B6CC9
:1034A800786898470AE27B681B6C002B00F006825C
:1034B8007B681B6C7868984700E200BF10000240E8
:1034C80028000240400002405800024070000240BC
:1034D80088000240A0000240B800024010040240E8
:1034E800280402404004024058040240700402408C
:1034F80088040240A0040240B8040240085402585C
:103508001C54025830540258445402585854025813
:103518006C54025880540258945402583B6903F082
:103528002003002B60D17B681B687F4A93424AD0F6
:103538007B681B687D4A934245D07B681B687C4A40
:10354800934240D07B681B687A4A93423BD07B68A1
:103558001B68794A934236D07B681B68774A934246
:1035680031D07B681B68764A93422CD07B681B68F5
:10357800744A934227D07B681B68734A934222D0CF
:103588007B681B68714A93421DD07B681B68704A30
:10359800934218D07B681B686E4A934213D07B68AD
:1035A8001B686D4A93420ED07B681B686B4A934236
:1035B80009D07B681B686A4A934204D07B681B6801
:1035C800684A934208D17B681B681A687B681B6845
:1035D80022F008021A6007E07B681B681A687B689B
:1035E8001B6822F004021A607B681B6C002B00F039
:1035F80065817B681B6C786898475FE17B68DB6D49
:1036080003F01F0302229A407B691340002B00F04D
:10361800C5803B6903F00203002B00F0BF807B6884
:10362800DB6D03F01F0302229A40FB695A603B6975
:1036380003F40043002B18D03B6903F48033002BBC
:1036480009D17B685B6C002B00F03A817B685B6C6E
:103658007868984734E17B68DB6B002B00F0308199
:103668007B68DB6B786898472AE13B6903F02003A5
:10367800002B40F089807B681B682B4A93424AD014
:103688007B681B68294A934245D07B681B68284A97
:10369800934240D07B681B68264A93423BD07B68A4
:1036A8001B68254A934236D07B681B68234A93429D
:1036B80031D07B681B68224A93422CD07B681B68F8
:1036C800204A934227D07B681B681F4A934222D026
:1036D8007B681B681D4A93421DD07B681B681C4A87
:1036E800934218D07B681B681A4A934213D07B68B0
:1036F8001B68194A93420ED07B681B68174A93428D
:1037080009D07B681B68164A934204D07B681B6803
:10371800144A934228D17B681B681A687B681B6827
:1037280022F014021A6027E010000240280002402C
:1037380040000240580002407000024088000240E9
:10374800A0000240B80002401004024028040240D1
:1037580040040240580402407004024088040240B9
:10376800A0040240B80402407B681B681A687B68A2
:103778001B6822F00A021A607B68012283F8352050
:103788007B68002283F834207B68DB6B002B00F019
:1037980097807B68DB6B7868984791E07B68DB6D86
:1037A80003F01F0308229A407B691340002B00F0A6
:1037B80088803B6903F00803002B00F082807B6857
:1037C8001B68414A93424AD07B681B683F4A934230
:1037D80045D07B681B683E4A934240D07B681B6893
:1037E8003C4A93423BD07B681B683B4A934236D0A5
:1037F8007B681B68394A934231D07B681B68384A1A
:1038080093422CD07B681B68364A934227D07B684A
:103818001B68354A934222D07B681B68334A93421F
:103828001DD07B681B68324A934218D07B681B689E
:10383800304A934213D07B681B682F4A93420ED0BC
:103848007B681B682D4A934209D07B681B682C4A09
:10385800934204D07B681B682A4A934208D17B684C
:103868001B681A687B681B6822F01C021A6007E054
:103878007B681B681A687B681B6822F00E021A6056
:103888007B68DB6D03F01F0301229A40FB695A60D5
:103898007B6801225A657B68012283F835207B68A2
:1038A800002283F834207B68DB6C002B09D07B680E
:1038B800DB6C7868984704E000BF02E000BF00E0D6
:1038C80000BF2837BD4680BD1000024028000240D6
:1038D8004000024058000240700002408800024048
:1038E800A0000240B8000240100402402804024030
:1038F8004004024058040240700402408804024018
:10390800A0040240B804024080B483B000AF7860DD
:103918007B685B6D18460C37BD465DF8047B7047C5
:1039280080B487B000AFF860B9607A603B60FB682C
:103938009B6D7B61FB689B6D3B61FB681B687F4AE5
:10394800934272D0FB681B687D4A93426DD0FB6836
:103958001B687C4A934268D0FB681B687A4A93428A
:1039680063D0FB681B68794A93425ED0FB681B688A
:10397800774A934259D0FB681B68764A934254D0E1
:10398800FB681B68744A93424FD0FB681B68734AF4
:1039980093424AD0FB681B68714A934245D0FB6842
:1039A8001B68704A934240D0FB681B686E4A93427A
:1039B8003BD0FB681B686D4A934236D0FB681B6896
:1039C8006B4A934231D0FB681B686A4A93422CD0F9
:1039D800FB681B68684A934227D0FB681B68674AE4
:1039E800934222D0FB681B68654A93421DD0FB684E
:1039F8001B68644A934218D0FB681B68624A93426A
:103A080013D0FB681B68614A93420ED0FB681B68A1
:103A18005F4A934209D0FB681B685E4A934204D010
:103A2800FB681B685C4A934201D1012300E0002334
:103A3800002B0DD0FB685B6EFA68926E5A60FB68CB
:103A4800DB6E002B04D0FB681B6FFA68526F5A605C
:103A5800FB681B68394A93424AD0FB681B68384A9E
:103A6800934245D0FB681B68364A934240D0FB68B6
:103A78001B68354A93423BD0FB681B68334A934224
:103A880036D0FB681B68324A934231D0FB681B680A
:103A9800304A93422CD0FB681B682F4A934227D0A8
:103AA800FB681B682D4A934222D0FB681B682C4A8E
:103AB80093421DD0FB681B682A4A934218D0FB68C2
:103AC8001B68294A934213D0FB681B68274A934214
:103AD8000ED0FB681B68264A934209D0FB681B6816
:103AE800244A934204D0FB681B68234A934201D1BD
:103AF800012300E00023002B59D0FB68DB6D03F0A5
:103B08001F033F229A407B699A60FB681B681A680A
:103B1800FB681B6822F480221A60FB681B683A68FD
:103B28005A60FB689B68402B38D1FB681B687A6831
:103B38009A60FB681B68BA68DA6086E01000024089
:103B48002800024040000240580002407000024035
:103B580088000240A0000240B80002401004024061
:103B68002804024040040240580402407004024005
:103B780088040240A0040240B804024008540258D5
:103B88001C5402583054025844540258585402588D
:103B98006C5402588054025894540258FB681B68AD
:103BA800BA689A60FB681B687A68DA604DE0FB685F
:103BB8001B68294A934222D0FB681B68274A934214
:103BC8001DD0FB681B68264A934218D0FB681B6807
:103BD800244A934213D0FB681B68234A93420ED0B1
:103BE800FB681B68214A934209D0FB681B68204A7E
:103BF800934204D0FB681B681E4A934201D10123FB
:103C080000E00023002B20D0FB68DB6D03F01F03CE
:103C180001229A403B695A60FB681B683A685A60FF
:103C2800FB689B68402B08D1FB681B687A689A6020
:103C3800FB681B68BA68DA6007E0FB681B68BA684B
:103C48009A60FB681B687A68DA6000BF1C37BD465B
:103C58005DF8047B704700BF085402581C54025892
:103C68003054025844540258585402586C5402585C
:103C7800805402589454025880B485B000AF7860DC
:103C88007B681B68424A93424AD07B681B68414A5A
:103C9800934245D07B681B683F4A934240D07B687B
:103CA8001B683E4A93423BD07B681B683C4A934260
:103CB80036D07B681B683B4A934231D07B681B68CF
:103CC800394A93422CD07B681B68384A934227D0E4
:103CD8007B681B68364A934222D07B681B68354A4A
:103CE80093421DD07B681B68334A934218D07B6887
:103CF8001B68324A934213D07B681B68304A934250
:103D08000ED07B681B682F4A934209D07B681B68DA
:103D18002D4A934204D07B681B682C4A934201D1F8
:103D2800012300E00023002B24D07B681B68DBB252
:103D3800103B274AA2FB03231B09FB60FB6803F027
:103D48000703244AD35C1A467B68DA65FB68032BB1
:103D580008D97B681B681A461F4B13401A1D7B68DD
:103D68009A650DE07B681B681A461B4B13407A68FE
:103D7800936505E07B681B6823F0FF027B689A6502
:103D88007B689B6D18461437BD465DF8047B704709
:103D98001000024028000240400002405800024043
:103DA8007000024088000240A0000240B8000240B3
:103DB8001004024028040240400402405804024013
:103DC8007004024088040240A0040240B804024083
:103DD800ABAAAAAA680B010800FCFFFF80B485B053
:103DE80000AF78600023FB737B689B69002B20D1B0
:103DF8007B689B6A032B58D801A252F823F000BFB6
:103E0800193E00082B3E0008193E0008B33E000882
:103E18007B68DB6A03F08073002B48D00123FB73B7
:103E280045E07B68DB6AB3F1C07F42D10123FB73B5
:103E38003FE07B689B69B3F5005F23D17B689B6A91
:103E4800032B38D801A252F823F000BF653E0008C2
:103E58006B3E0008653E00087D3E00080123FB73A9
:103E680030E07B68DB6A03F08073002B25D00123E8
:103E7800FB7322E07B68DB6AB3F1C07F1FD10123AB
:103E8800FB731CE07B689B6A022B02D9032B03D0CF
:103E980018E00123FB7315E07B68DB6A03F080738D
:103EA800002B0ED00123FB730BE000BF0AE000BF1C
:103EB80008E000BF06E000BF04E000BF02E000BF6A
:103EC80000E000BFFB7B18461437BD465DF8047B55
:103ED800704700BF80B485B000AF78607B681B680E
:103EE800BB607B681B68384A934222D07B681B689A
:103EF800364A93421DD07B681B68354A934218D0D6
:103F08007B681B68334A934213D07B681B68324A2C
:103F180093420ED07B681B68304A934209D07B6875
:103F28001B682F4A934204D07B681B682D4A934232
:103F380001D1012300E00023002B1AD07B681B6805
:103F4800DBB2083B284AA2FB03231B09FB60FA6883
:103F5800264B13449B001A467B681A667B68244AE2
:103F68005A66FB6803F01F0301229A407B689A6631
:103F780024E07B681B68DBB2103B1E4AA2FB0323CC
:103F88001B09FB60BB681C4A934206D8BB681B4AE6
:103F9800934202D9FB680833FB60FA68184B134454
:103FA8009B001A467B681A667B68164A5A66FB6845
:103FB80003F01F0301229A407B689A6600BF1437FA
:103FC800BD465DF8047B7047085402581C540258DB
:103FD8003054025844540258585402586C540258E9
:103FE8008054025894540258CDCCCCCC009600167C
:103FF80080580258ABAAAAAAB80402400F0402408B
:10400800008200108008024080B485B000AF78605C
:104018007B685B68DBB2FB60FB68002B4AD0FB68FF
:10402800082B47D87B681B68254A934222D07B68B7
:104038001B68244A93421DD07B681B68224A93421E
:1040480018D07B681B68214A934213D07B681B6891
:104058001F4A93420ED07B681B681E4A934209D0C0
:104068007B681B681C4A934204D07B681B681B4A08
:10407800934201D1012300E00023002B0AD0FA6803
:10408800174B13449B001A467B68DA667B68154A0F
:104098001A6709E0FA68144B13449B001A467B68B8
:1040A800DA667B68114A1A67FB68013B01229A406D
:1040B8007B685A6700BF1437BD465DF8047B7047BC
:1040C800085402581C540258305402584454025898
:1040D800585402586C540258805402589454025848
:1040E8003F960016405902583F820010400902408E
:1040F80080B489B000AF786039600023FB61894BD8
:104108007B6194E13B681A680121FB6901FA03F3BA
:1041180013403B613B69002B00F086813B685B687C
:1041280003F00303012B05D03B685B6803F003032E
:10413800022B30D17B689B68BB61FB695B00032263
:1041480002FA03F3DB43BA691340BB613B68DA68E0
:10415800FB695B0002FA03F3BA691343BB617B682E
:10416800BA699A607B685B68BB610122FB6902FAE5
:1041780003F3DB43BA691340BB613B685B681B0907
:1041880003F00102FB6902FA03F3BA691343BB6146
:104198007B68BA695A603B685B6803F00303032BCA
:1041A80017D07B68DB68BB61FB695B00032202FAFE
:1041B80003F3DB43BA691340BB613B689A68FB6948
:1041C8005B0002FA03F3BA691343BB617B68BA69FF
:1041D800DA603B685B6803F00303022B23D1FB69B9
:1041E800DA087B68083253F82230BB61FB6903F0B8
:1041F80007039B000F2202FA03F3DB43BA6913405B
:10420800BB613B681A69FB6903F007039B0002FA6C
:1042180003F3BA691343BB61FB69DA087B680832A8
:10422800B96943F822107B681B68BB61FB695B00B6
:10423800032202FA03F3DB43BA691340BB613B680C
:104248005B6803F00302FB695B0002FA03F3BA69D7
:104258001343BB617B68BA691A603B685B6803F407
:104268004033002B00F0E0802F4BD3F8F4302E4A77
:1042780043F00203C2F8F4302B4BD3F8F43003F0C8
:104288000203FB60FB68294AFB699B08023352F86A
:104298002330BB61FB6903F003039B000F2202FA82
:1042A80003F3DB43BA691340BB617B68204A93423E
:1042B80052D07B681F4A934231D07B681E4A934292
:1042C8002BD07B681D4A934225D07B681C4A9342B9
:1042D8001FD07B681B4A934219D07B681A4A9342C5
:1042E80013D07B68194A93420DD07B68184A9342D1
:1042F80007D07B68174A934201D109232DE00A238E
:104308002BE0082329E0072327E0062325E00523DF
:1043180023E0042321E003231FE002231DE00123FF
:104328001BE000BF800000580044025800040058F9
:10433800000002580004025800080258000C0258F5
:10434800001002580014025800180258001C0258A5
:1043580000200258002402580023FA6902F00302E0
:1043680092009340BA691343BB613849FB699B08C3
:104378000233BA6941F823204FF0B0431B68BB6190
:104388003B69DB43BA691340BB613B685B6803F474
:104398008013002B03D0BA693B691343BB614FF00C
:1043A800B042BB6913604FF0B0435B68BB613B69C7
:1043B800DB43BA691340BB613B685B6803F40013D5
:1043C800002B03D0BA693B691343BB614FF0B0427D
:1043D800BB6953607B695B68BB613B69DB43BA6956
:1043E8001340BB613B685B6803F40033002B03D0C8
:1043F800BA693B691343BB617B69BA695A607B69D7
:104408001B68BB613B69DB43BA691340BB613B680E
:104418005B6803F48033002B03D0BA693B6913430C
:10442800BB617B69BA691A60FB690133FB613B6850
:104438001A68FB6922FA03F3002B7FF463AE00BF0E
:1044480000BF2437BD465DF8047B70470004005860
:1044580080B483B000AF78600B467B8013467B70D6
:104468007B78002B03D07A887B689A6103E07B888D
:104478001A047B689A6100BF0C37BD465DF8047B5F
:104488007047F0B58FB00AAF78607B68002B01D118
:10449800012316E17B681B68BB607B6893F8BD3419
:1044A800DBB2002B06D17B68002283F8BC24786835
:1044B8000BF08EFF7B68032283F8BD24BB68DB6B9F
:1044C80003F48073002B02D17B6800221A617B6899
:1044D8001B68184606F08FFA7B681B683B607E688D
:1044E8006D4606F110040FCC0FC50FCC0FC594E82C
:1044F800030085E80300331D0ECB386806F05AF92F
:104508000346002B05D07B68022283F8BD240123D3
:10451800D7E07B681B680021184606F07DFA002367
:10452800FB734AE0FA7B79681346DB0013449B006F
:104538000B443D3301221A70FA7B79681346DB007D
:1045480013449B000B443C33FA7B1A70FA7BFB7BC9
:1045580098B279681346DB0013449B000B4444333C
:1045680002461A80FA7B79681346DB0013449B00E5
:104578000B44403300221A70FA7B79681346DB003B
:1045880013449B000B44483300221A60FA7B796875
:104598001346DB0013449B000B444C3300221A6083
:1045A800FA7B79681346DB0013449B000B445433B1
:1045B80000221A60FB7B0133FB73FA7B7B685B6824
:1045C8009A42AFD30023FB7344E0FA7B7968134621
:1045D800DB0013449B000B4403F27D2300221A7076
:1045E800FA7B79681346DB0013449B000B4403F500
:1045F8001F73FA7B1A70FA7B79681346DB00134441
:104608009B000B4403F5207300221A70FA7B79682B
:104618001346DB0013449B000B4403F5227300226E
:104628001A60FA7B79681346DB0013449B000B443D
:1046380003F5237300221A60FA7B79681346DB00BE
:1046480013449B000B4403F5257300221A60FB7B7F
:104658000133FB73FA7B7B685B689A42B5D37B684E
:104668001B683B607E686D4606F110040FCC0FC5D1
:104678000FCC0FC594E8030085E80300331D0ECB6B
:10468800386806F015FA0346002B05D07B6802222D
:1046980083F8BD24012314E07B68002283F83820C6
:1046A8007B68012283F8BD247B685B6A012B02D1F9
:1046B800786801F0B9F97B681B68184607F063FB56
:1046C800002318461437BD46F0BD80B584B000AF4E
:1046D80078607B681B68FB607B6893F8BC34012BAF
:1046E80001D1022320E07B68012283F8BC247B6887
:1046F8009B6A012B09D17B689B69012B05D0FB685C
:104708009B6B43F48032FB689A637B681B6818468E
:1047180006F060F97B681B68184607F013FB7B6896
:10472800002283F8BC24002318461037BD4680BDFC
:1047380090B58DB000AF78607B681B683B623B6AC0
:10474800FB617B681B68184607F0D1FB0346002B0A
:1047580040F0B7847B681B68184607F035FB0346B2
:10476800002B00F0AD84FB6903F500639B681B0A0E
:10477800C3F30D027B68C3F8FC247B681B681846EA
:1047880007F022FB034603F00203022B07D17B68E4
:104798001B685A697B681B6802F002025A617B68D1
:1047A8001B68184607F010FB034603F01003102B94
:1047B80061D17B681B689A697B681B6822F01002CC
:1047C8009A613B6A1B6ABB61BB6903F00F0213461F
:1047D800DB0013449B0003F51E737A68134404330B
:1047E8007B61BB695B0C03F00F03022B24D1BA6910
:1047F80047F6F0731340002B35D07B691969BB6904
:104808001B099BB2C3F30A039BB21A46386A07F026
:1048180047F97B691A69BB691B09C3F30A031A4480
:104828007B691A617B691A6ABB691B09C3F30A03AE
:104838001A447B691A6216E0BB695B0C03F00F032C
:10484800062B10D17B6803F2C44308221946386A44
:1048580007F026F97B691A6ABB691B09C3F30A03C7
:104868001A447B691A627B681B689A697B681B68B3
:1048780042F010029A617B681B68184607F0A4FA98
:10488800034603F40023B3F5002F40F0A78000236C
:104898007B627B681B68184607F0A9FAB86299E042
:1048A800BB6A03F00103002B00F08E807B681B6855
:1048B8007A6AD2B21146184607F0CDFA38613B69D8
:1048C80003F00103002B0CD07B6A5A01FB691344E7
:1048D80003F530631A4601239360796A786800F01B
:1048E8001DFF3B6903F00803002B0CD07B6A5A01BB
:1048F800FB69134403F530631A4608239360796A09
:10490800786800F0F3FF3B6903F01003002B08D030
:104918007B6A5A01FB69134403F530631A46102376
:1049280093603B6903F00203002B30D03B6A5B695C
:1049380003F08003802B09D1FB6903F500635B68F2
:10494800FA6902F5006243F4806353607A6A134699
:10495800DB0013449B0003F51E737A681344043389
:104968007B617B69DB78012B08D17B690022DA70D7
:104978007B6ADBB2194678680BF05EFE7B6A5A01E7
:10498800FB69134403F530631A46022393603B69BD
:1049980003F02003002B08D07B6A5A01FB691344FB
:1049A80003F530631A46202393603B6903F40053F0
:1049B800002B09D07B6A5A01FB69134403F5306365
:1049C8001A464FF4005393607B6A01337B62BB6ADB
:1049D8005B08BB62BB6A002B7FF462AF7B681B6815
:1049E800184607F0F1F9034603F48023B3F5802F46
:1049F80040F0DB807B681B68184607F012FAB86243
:104A080000237B62CDE0BB6A03F00103002B00F0BA
:104A1800C2807B681B687A6AD2B21146184607F0D2
:104A280038FA38613B6903F00103002B57D07B6AE1
:104A380003F00F03012202FA03F3FB60FB6903F59D
:104A480000635A6BFB68DB43F96901F500611340A9
:104A58004B637B6A5A01FB69134403F510631A46DA
:104A6800012393607B681B69012B32D179687A6ACC
:104A78001346DB0013449B000B444C3319687868D9
:104A88007A6A1346DB0013449B00034448331B68CF
:104A9800194478687A6A1346DB0013449B00034480
:104AA8004C3319607B6A002B13D179687A6A1346F4
:104AB800DB0013449B000B4454331B68002B08D1C4
:104AC8007B6818687B6803F2C4431A46012107F023
:104AD80041FA7B6ADBB2194678680BF028FD3B691E
:104AE80003F00803002B08D07B6A5A01FB691344C2
:104AF80003F510631A46082393603B6903F010031B
:104B0800002B08D07B6A5A01FB69134403F5106334
:104B18001A46102393603B6903F04003002B08D02A
:104B28007B6A5A01FB69134403F510631A46402354
:104B380093603B6903F00203002B23D0796A386A3B
:104B480006F014F97A6A1346DB0013449B003833E5
:104B58007A68134404337B617B69DB78012B08D1C5
:104B68007B690022DA707B6ADBB2194678680BF041
:104B780075FD7B6A5A01FB69134403F510631A46F5
:104B8800022393603B6903F08003002B03D0796A0A
:104B9800786800F035FD7B6A01337B62BB6A5B088D
:104BA800BB62BB6A002B7FF42EAF7B681B6818467C
:104BB80007F00AF9034603F00043B3F1004F22D18E
:104BC800FB6903F500635B68FA6902F5006223F08C
:104BD800010353607B6893F8F434012B08D17B6898
:104BE800002283F8F4240021786800F041FF02E0F5
:104BF80078680BF013FD7B681B685A697B681B6833
:104C080002F000425A617B681B68184607F0DCF81E
:104C1800034603F40063B3F5006F12D1FB6903F593
:104C280000639B6803F00103012B02D178680BF045
:104C3800CFFC7B681B685A697B681B6802F40062BA
:104C48005A617B681B68184607F0BEF8034603F0F4
:104C58000063B3F1006F21D17B681B685A697B68D8
:104C68001B6802F000625A617B6893F8F434002BE9
:104C780011D17B68012283F8F4247B681B685B6D83
:104C88009B0803F00F027B68C3F8F82401217868B9
:104C980000F0EEFE02E078680BF09AFC7B681B6877
:104CA800184607F091F8034603F48053B3F5805F84
:104CB80040F0B780FB6903F500635B68FA6902F5A9
:104CC800006223F0010353607B681B6810211846BB
:104CD80006F04CF80023FB6246E0FB6A5A01FB69C8
:104CE800134403F510631A464FF67F339360FB6A4B
:104CF8005A01FB69134403F510631B68FA6A5101F2
:104D0800FA690A4402F5106223F400131360FB6A7F
:104D18005A01FB69134403F530631A464FF67F3393
:104D28009360FB6A5A01FB69134403F530631B68FF
:104D3800FA6A5101FA690A4402F5306223F4001351
:104D48001360FB6A5A01FB69134403F530631B685F
:104D5800FA6A5101FA690A4402F5306243F00063C5
:104D68001360FB6A0133FB627B685B68FA6A9A42EC
:104D7800B3D3FB6903F50063DB69FA6902F50062E6
:104D880043F00113D3617B681B6B002B16D0FB69C2
:104D980003F50063D3F88430FA6902F5006243F042
:104DA8000B03C2F88430FB6903F500635B6CFA6996
:104DB80002F5006243F00B03536415E0FB6903F549
:104DC80000635A69FB6903F50063194642F22B0335
:104DD80013434B61FB6903F500631B69FA6902F52C
:104DE800006243F00B031361FB6903F500631B6862
:104DF800FA6902F5006223F4FE6313607B681868A1
:104E08007B681B69D9B27B6803F2C4431A4607F072
:104E1800A1F87B681B685A697B681B6802F480529A
:104E28005A617B681B68184606F0CEFF034603F4F8
:104E38000053B3F5005F24D17B681B68184607F060
:104E480065F87B681B68184606F00DF803461A4695
:104E58007B68DA607B681C6801F0BEFD01467B68F0
:104E6800DB68DBB21A46204605F012FD78680BF0C5
:104E780086FB7B681B685A697B681B6802F40052D2
:104E88005A617B681B68184606F09EFF034603F0CC
:104E98000803082B0AD178680BF063FB7B681B6852
:104EA8005A697B681B6802F008025A617B681B68B4
:104EB800184606F089FF034603F08003802B22D1B1
:104EC8003B6A9B6923F080023B6A9A6101237B62FB
:104ED80014E079687A6A1346DB0013449B000B449C
:104EE80003F27F231B78012B05D17B6ADBB21946BD
:104EF800786800F027FB7B6A01337B627B685B681C
:104F08007A6A9A42E5D37B681B68184606F05CFF0C
:104F1800034603F48013B3F5801F3BD101237B6262
:104F28002BE07B6A5A01FB69134403F510631B6885
:104F3800BB6179687A6A1346DB0013449B000B4413
:104F480040331B78012B15D1BB69002B12DA796825
:104F58007A6A1346DB0013449B000B443F3301225B
:104F68001A707B6ADBB263F07F03DBB2194678689C
:104F780000F0E8FA7B6A01337B627B685B687A6AD7
:104F88009A42CED37B681B685A697B681B6802F417
:104F980080125A617B681B68184606F015FF0346A5
:104FA80003F40013B3F5001F55D101237B6245E0DC
:104FB8007B6A5A01FB69134403F530631B68BB61C4
:104FC80079687A6A1346DB0013449B000B4403F5A7
:104FD80020731B78012B2ED1BB69002B2BDABB6900
:104FE80003F480327B68D3F8FC3403F001039A425F
:104FF80021D179687A6A1346DB0013449B000B447D
:1050080003F27F2301221A703B6A9B6943F08002F6
:105018003B6A9A613B6A5B6903F08003002B0AD103
:10502800FB6903F500635B68FA6902F5006243F403
:105038000073536007E07B6A01337B627B685B68BF
:105048007A6A9A42B4D37B681B685A697B681B6882
:1050580002F400125A617B681B68184606F0B4FE19
:10506800034603F08043B3F1804F0AD178680BF010
:1050780007FB7B681B685A697B681B6802F08042E3
:105088005A617B681B68184606F09EFE034603F0CB
:105098000403042B15D17B681B685B68BB61BB6983
:1050A80003F00403002B02D078680BF0F7FA7B6852
:1050B8001B6859687B681B68BA690A435A6000E034
:1050C80000BF3437BD4690BD80B582B000AF786070
:1050D8000B46FB707B6893F8BC34012B01D102238B
:1050E80013E07B68012283F8BC247B68FA7883F894
:1050F80038207B681B68FA781146184606F0FCFDD4
:105108007B68002283F8BC24002318460837BD4674
:1051180080BD80B584B000AF7860084611461A4655
:105128000346FB700B463B801346BB700023FB72A3
:1051380097F90330002B0FDAFB7803F00F021346C0
:10514800DB0013449B0038337A6813440433FB6054
:10515800FB6801225A700FE0FB7803F00F02134638
:10516800DB0013449B0003F51E737A681344043371
:10517800FB60FB6800225A70FB7803F00F03DAB279
:10518800FB681A703A88FB68DA60FB68BA781A71AB
:10519800FB685B78002B04D0FB681B789AB2FB682D
:1051A8001A81BB78022B02D1FB6800225A717B68F6
:1051B80093F8BC34012B01D102230EE07B68012255
:1051C80083F8BC247B681B68F968184605F070FEF4
:1051D8007B68002283F8BC24FB7A18461037BD464A
:1051E80080BD80B584B000AF78600B46FB7097F93E
:1051F8000330002B0FDAFB7803F00F021346DB00B5
:1052080013449B0038337A6813440433FB60FB680B
:1052180001225A700FE0FB7803F00F021346DB00FF
:1052280013449B0003F51E737A6813440433FB6030
:10523800FB6800225A70FB7803F00F03DAB2FB68B0
:105248001A707B6893F8BC34012B01D102230EE05D
:105258007B68012283F8BC247B681B68F9681846C0
:1052680005F0AEFE7B68002283F8BC2400231846B4
:105278001037BD4680BD80B586B000AFF8607A6053
:105288003B600B46FB72FB7A03F00F021346DB0010
:1052980013449B0003F51E73FA68134404337B61BF
:1052A8007B697A681A617B693A689A617B6900222E
:1052B8001A627B6900225A70FB7A03F00F03DAB294
:1052C8007B691A70FB681B69012B02D17A687B69BC
:1052D8005A61FB7A03F00F03002B09D1FB681868A9
:1052E800FB681B69DBB21A46796906F095F908E094
:1052F800FB681868FB681B69DBB21A46796905F018
:105308003BFF002318461837BD4680BD80B483B0E4
:1053180000AF78600B46FB70FB7803F00F027968EA
:105328001346DB0013449B000B4403F527731B68EB
:1053380018460C37BD465DF8047B704780B586B0CB
:1053480000AFF8607A603B600B46FB72FB7A03F0B3
:105358000F021346DB0013449B003833FA681344EA
:1053680004337B617B697A681A617B693A689A6160
:105378007B6900221A627B6901225A70FB7A03F06A
:105388000F03DAB27B691A70FB681B69012B02D123
:105398007A687B695A61FB7A03F00F03002B09D105
:1053A800FB681868FB681B69DBB21A46796906F066
:1053B80033F908E0FB681868FB681B69DBB21A461A
:1053C800796905F0D9FE002318461837BD4680BD17
:1053D80080B584B000AF78600B46FB70FB7803F0B3
:1053E8000F027B685B689A4201D9012350E097F964
:1053F8000330002B0FDAFB7803F00F021346DB00B3
:1054080013449B0038337A6813440433FB60FB6809
:1054180001225A700DE0FA781346DB0013449B0012
:1054280003F51E737A6813440433FB60FB6800229B
:105438005A70FB6801229A70FB7803F00F03DAB206
:10544800FB681A707B6893F8BC34012B01D10223E6
:105458001EE07B68012283F8BC247B681B68F9681E
:10546800184606F075FBFB7803F00F03002B0AD1F2
:105478007B6818687B681B69D9B27B6803F2C443F0
:105488001A4606F067FD7B68002283F8BC240023D7
:1054980018461037BD4680BD80B584B000AF78602F
:1054A8000B46FB70FB7803F00F027B685B689A423F
:1054B80001D9012342E097F90330002B0FDAFB787A
:1054C80003F00F021346DB0013449B0038337A685D
:1054D80013440433FB60FB6801225A700FE0FB7829
:1054E80003F00F021346DB0013449B0003F51E7301
:1054F8007A6813440433FB60FB6800225A70FB6827
:1055080000229A70FB7803F00F03DAB2FB681A7076
:105518007B6893F8BC34012B01D102230EE07B6831
:10552800012283F8BC247B681B68F968184606F0DA
:105538007DFB7B68002283F8BC24002318461037C3
:10554800BD4680BD80B584B000AF78600B46FB7067
:1055580097F90330002B0CDAFB7803F00F0213469F
:10556800DB0013449B0038337A6813440433FB6030
:105578000CE0FB7803F00F021346DB0013449B009A
:1055880003F51E737A6813440433FB607B681B6859
:10559800F968184606F09CF90346FB72FB7A184630
:1055A8001037BD4680BD80B582B000AF78600B462D
:1055B800FB707B6893F8BC34012B01D102231BE0FC
:1055C8007B68012283F8BC2497F90330002B09DAA1
:1055D8007B681A68FB7803F00F031946104605F03C
:1055E800C5FB04E07B681B68184605F0F3FB7B6885
:1055F800002283F8BC24002318460837BD4680BD26
:1056080080B58AB002AF786039607B681B687B61BF
:105618007B693B613A681346DB0013449B003833CF
:105628007A6813440433FB60FB681A6AFB689B6959
:105638009A4201D901236CE0FB689A69FB681B6AEE
:10564800D31AFB61FB68DB68FA699A4202D9FB68E6
:10565800DB68FB61FB6903339B08BB612BE0FB68DC
:105668009A69FB681B6AD31AFB61FB68DB68FA69F5
:105678009A4202D9FB68DB68FB61FB6903339B082C
:10568800BB61FB6819693B68DAB2FB6998B27B6851
:105698001B69DBB200930346786906F0C3F9FB681F
:1056A8001A69FB691A44FB681A61FB681A6AFB6984
:1056B8001A44FB681A623B685A013B69134403F5B4
:1056C80010639B699BB2BA699A4209D8FB681A6A47
:1056D800FB689B699A4203D2FB689B69002BBED189
:1056E800FB689A69FB681B6A9A4211D83B6803F009
:1056F8000F03012202FA03F3BB603B6903F5006361
:105708005A6BBB68DB43396901F5006113404B6391
:10571800002318462037BD4680BD000080B588B0FC
:1057280000AF786039607B681B68FB61FB69BB610F
:10573800FB693C3304331B687B613B685A01BB69D6
:10574800134403F530639B683B617B681B69012B3D
:105758007BD13B6903F00803002B15D07B69614AB4
:10576800934240F2B9803B6903F40043002B00F0F8
:10577800B3803B685A01BB69134403F530631A468A
:105788004FF400439360A7E03B6903F02003002B2C
:1057980009D03B685A01BB69134403F530631A46C4
:1057A8002023936098E03B6903F02803002B40F026
:1057B80093807B694B4A93420FD93B6903F40043BA
:1057C800002B0AD03B685A01BB69134403F53063C8
:1057D8001A464FF4004393607EE03A681346DB00B4
:1057E80013449B0003F51E737A6813440433FB606B
:1057F800FB68DA693B685901BB690B4403F5306300
:105808001B69C3F31203D21AFB681A623B68002BA8
:1058180014D1FB689B69002B09D17B6818687B68E9
:1058280003F2C4431A46012106F094FB06E0FB6824
:105838001A69FB681B6A1A44FB681A613B68DBB289
:10584800194678680AF058FE46E07B69264A934272
:1058580024D13B6903F40043002B0AD03B685A016A
:10586800BB69134403F530631A464FF40043936051
:1058780032E03B6903F02003002B08D03B685A0153
:10588800BB69134403F530631A46202393603B68D1
:10589800DBB2194678680AF02FFE1DE03B68002B42
:1058A80014D179683A681346DB0013449B000B4413
:1058B80003F525731B68002B08D17B6818687B6883
:1058C80003F2C4431A46002106F044FB3B68DBB2EE
:1058D800194678680AF010FE002318462037BD469E
:1058E80080BD00BF0A30544F0A31544F80B586B08E
:1058F80000AF786039607B681B687B617B693B61BE
:105908007B693C3304331B68FB603B685A013B6985
:10591800134403F530639B68BB60FB68154A9342E8
:105928000ED9BB6803F40043002B09D03B685A0129
:105938003B69134403F530631A464FF40043936000
:1059480078680AF0C7FDFB680A4A93420CD97B685D
:105958001B69012B08D17B6818687B6803F2C44374
:105968001A46012106F0F6FA002318461837BD46F4
:1059780080BD00BF0A30544F80B485B000AF786056
:105988000B46FB7013463B807B681B685B6ABB60F9
:10599800FB78002B07D13B8819047B681B68BA6821
:1059A8000A439A6228E07B681B689B6A1B0CBA68EA
:1059B8001344BB600023FB730DE07B681A68FB7B14
:1059C80040339B0013445B681B0CBA681344BB60EC
:1059D800FB7B0133FB73FA7BFB78013B9A42ECD3E8
:1059E8003B8818047B681968FB78013BBA68024356
:1059F80040339B000B445A60002318461437BD46B9
:105A08005DF8047B704780B483B000AF78600B46C4
:105A18007B807B681B687A885A62002318460C379B
:105A2800BD465DF8047B704780B485B000AF7860F0
:105A38007B681B68FB607B680122C3F800257B68D4
:105A4800002283F8F424FB689B6943F00062FB683A
:105A58009A61FB685A6D054B1343FA685365002336
:105A680018461437BD465DF8047B704703000010E4
:105A780080B483B000AF78600B46FB7000BF0C3772
:105A8800BD465DF8047B704780B584B000AF786090
:105A9800194BDB6803F00403042B0AD0164BDB68B0
:105AA80003F007037A689A4201D001231FE000231C
:105AB8001DE0114BDB6823F007020F497B68134395
:105AC800CB60FBF769FDF86009E0FBF765FD02466E
