:020000040800F2
:2000000000000220F90D0008F50A0008FB0A0008010B0008070B00080D0B0008000000004E
:20002000000000000000000000000000130B0008210B0008000000002F0B00083D0B0008D4
:20004000490E0008490E0008490E0008490E0008490E0008490E0008490E0008490E0008A8
:20006000490E0008490E0008490E0008490E0008490E0008490E0008490E0008490E000888
:20008000490E0008490E0008490E0008490E0008490E0008490E0008490E0008490E000868
:2000A000490E0008490E0008490E0008490E0008490B0008490E0008490E0008490E00084B
:2000C000490E0008490E0008490E0008490E0008490E0008490E0008490E0008490E000828
:2000E000490E0008490E0008490E0008490E0008490E0008490E0008490E0008490E000808
:20010000490E0008490E0008490E0008490E0008490E0008490E0008490E0008490E0008E7
:20012000490E0008490E0008490E0008490E0008490E0008490E0008490E0008490E0008C7
:20014000490E0008490E0008490E0008490E0008490E0008490E0008490E0008490E0008A7
:20016000490E0008490E0008490E0008490E0008490E0008490E0008490E000800000000E6
:20018000490E0008490E0008FFFFFFFFFFFFFFFF10B5054C237833B9044B13B10448AFF30B
:2001A00000800123237010BDF80000200000000028E6010808B5034B1BB103490348AFF3FC
:2001C000008008BD00000000FC00002028E6010801F0FF01102A2BDB10F0070F08D010F880
:2001E000013B013A8B422DD010F0070F42B3F6D1F0B441EA012141EA014122F007047FF002
:2002000000070023F0E80256083C85EA010586EA010685FA47F5A3FA87F586FA47F6A5FA24
:2002200087F68EB9EED1F0BC01F0FF0102F0070232B110F8013B013A83EA010313B1F8D143
:200240000020704701387047002D06BF35460338073815F0010F07D1013015F4807F02BF09
:20026000013015F4C03F0130F0BC0138704700BF53B94AB9002908BF00281CBF4FF0FF3148
:200280004FF0FF3000F06EB9ADF1080C6DE904CE00F006F8DDF804E0DDE9022304B0704702
:2002A0002DE9F047089D04468C46002B40F083808A42174647D9B2FA82F242B1C2F12000A3
:2002C00024FA00F09140974040EA010C94404FEA1748230CBCFBF8F61FFA87FE08FB16C179
:2002E00043EA014306FB0EF1994209D9FB1806F1FF3080F01981994240F21681023E3B442A
:200300005B1AA4B2B3FBF8F008FB103344EA034400FB0EFEA64509D93C1900F1FF3380F005
:200320000581A64540F2028102383C4440EA0640A4EB0E0400261DB1D4400023C5E90043B0
:200340003146BDE8F08702B9FFDEB2FA82F2002A50D1CB1B4FEA174E1FFA87F80126B3FB16
:20036000FEFC210C0EFB1C3341EA034108FB0CF38B4207D979180CF1FF3002D28B4200F290
:20038000E9808446C91AA3B2B1FBFEF00EFB101143EA014408FB00F8A04507D93C1900F1B6
:2003A000FF3302D2A04500F2D9801846A4EB080440EA0C40BFE78B4209D9002D00F0B180F5
:2003C0000026C5E9000130463146BDE8F087B3FA83F6002E4AD18B4202D3824200F2B88040
:2003E000841A61EB030101208C46002DA8D0C5E9004CA5E7C2F1200320FA03F6974001FA36
:2004000002F04FEA174ED9403043030CB1FBFEF61FFA87F80EFB161143EA014306FB08F1DE
:20042000994204FA02F409D9FB1806F1FF3C80F08D80994240F28A80023E3B445B1A81B2CB
:20044000B3FBFEF00EFB103341EA034100FB08F38B4207D9791800F1FF3C73D28B4271D989
:2004600002383944CB1A40EA064678E7C6F1200C03FA06F422FA0CF31C4320FA0CF701FA9F
:2004800006F34FEA144E21FA0CF11F433B0CB1FBFEF91FFA84F80EFB191143EA014109FB29
:2004A00008FA8A4502FA06F200FA06F308D9611809F1FF3048D28A4546D9A9F102092144EF
:2004C000A1EB0A01BFB2B1FBFEF00EFB101147EA014700FB08F8B84507D9E71900F1FF31DE
:2004E0002ED2B8452CD90238274440EA0940A7EB0807A0FB02894F45C64649461AD317D018
:200500005DB1B3EB0E0267EB010707FA0CFCF2404CEA0202F740C5E9002700263146BDE802
:20052000F0872E4628460BE70646E9E61846FDE64345E5D2B8EB020E69EB04010138DFE7CA
:200540000846D2E760468DE78146B9E7664675E730464AE7ACF1020C394413E702383C4488
:2005600024E700BF704700BF80B500AF064B074A1A60054800F05FFE0346002B01D000F06C
:20058000D9F900BF80BD00BF242A00200030024080B485B000AF78607B681B680B4A93426E
:2005A0000DD10023FB600A4B1B6B094A43F480531363074B1B6B03F48053FB60FB6800BF12
:2005C0001437BD465DF8047B704700BF003002400038024080B588B000AF3B1D00221A6087
:2005E0005A609A60DA601A615A619A61274B4FF020421A60254B264A5A60244B00229A602A
:20060000224B0022DA60214B00221A611F4B00225A611E4B00229A611C4B0022DA611B4B11
:2006200000221A62194B00225A62184B4FF480529A62164B0022DA62144B00221A63134B4B
:2006400000225A63114B00229A63104B00225A640F237B600F23BB60FF23FB600F233B6160
:2006600010237B611123BB610023FB613B1D00221946064801F0BDFC0346002B01D000F096
:2006800059F900BF2037BD4680BD00BF2C2A0020040100A080B586B000AF3B1D00221A60CA
:2006A0005A609A60DA601A611C4B1B68002B31D11A4B01221A6000233B60194B9B6B184A2E
:2006C00043F001039363164B9B6B03F001033B603B684FF4F0637B600223BB600023FB6022
:2006E00003233B610C237B613B1D19460D4800F0BFFD4CF6B3037B600223BB600023FB60E4
:2007000003233B610C237B613B1D1946064800F0AFFD00E000BF1837BD4680BD1401002008
:200720000038024000100240000C024080B582B000AF7860FFF7AEFF00BF0837BD4680BDD0
:2007400080B58AB000AF07F1140300221A605A609A60DA601A6100233B61304B1B6B2F4A2E
:2007600043F0800313632D4B1B6B03F080033B613B690023FB60294B1B6B284A43F0010378
:200780001363264B1B6B03F00103FB60FB680023BB60224B1B6B214A43F0100313631F4B75
:2007A0001B6B03F01003BB60BB6800237B601B4B1B6B1A4A43F008031363184B1B6B03F091
:2007C00008037B607B6801224FF44051144800F003FF00224021124800F0FEFE01237B6142
:2007E0000023BB610223FB6107F1140319460D4800F03EFD4FF441537B610123BB61002335
:20080000FB6100233B6207F114031946044800F02FFD00BF2837BD4680BD00BF003802404F
:20082000000C02400000024080B500AF00F05CFB00F016F8FFF784FFFFF796FEFFF7CAFE3E
:2008400000F07EF800F062FA00F0B0F805F092FD02F042FA002002F0F5FB05F091FDFCE734
:2008600080B594B000AF07F120033022002118461CF0ECFE07F10C0300221A605A609A6017
:20088000DA601A610023BB60284B1B6C274A43F080531364254B1B6C03F08053BB60BB6882
:2008A00000237B60224B1B68214A43F4804313601F4B1B6803F480437B607B6801233B624C
:2008C0004FF480337B620223BB634FF48003FB6304233B64A8237B640223BB640723FB64A1
:2008E00007F12003184600F091FE0346002B01D000F020F80F23FB6002233B6100237B6166
:200900004FF4A053BB614FF48053FB6107F10C030521184601F0F2F80346002B01D000F078
:2009200009F800BF5037BD4680BD00BF003802400070004080B400AF72B600BFFEE7000098
:2009400080B500AF064B074A1A60054801F09EFA0346002B01D0FFF7EDFF00BF80BD00BFDF
:200960007C2A00200008065080B485B000AF78607B681B680B4A93420DD10023FB600A4B22
:200980005B6B094A43F040035363074B5B6B03F04003FB60FB6800BF1437BD465DF8047B25
:2009A000704700BF000806500038024080B500AF164B174A1A60154B00225A60134B4FF4EC
:2009C00080629A60114B0022DA60104B00221A610E4B00225A610D4B4FF400729A610B4BF7
:2009E00000221A62094B00225A62084B00229A62064B0A22DA62054801F072FA0346002BDF
:200A000001D0FFF797FF00BF80BD00BF8C2A00200030014080B58AB000AF786007F1140372
:200A200000221A605A609A60DA601A617B681B68194A93422BD100233B61184B5B6C174ACD
:200A400043F480535364154B5B6C03F480533B613B690023FB60114B1B6B104A43F00103B3
:200A600013630E4B1B6B03F00103FB60FB68A0237B610223BB610023FB6103233B62052322
:200A80007B6207F114031946054800F0F1FB00BF2837BD4680BD00BF0030014000380240DA
:200AA0000000024080B483B000AF00237B60104B5B6C0F4A43F4804353640D4B5B6C03F49E
:200AC00080437B607B6800233B60094B1B6C084A43F080531364064B1B6C03F080533B60F4
:200AE0003B6800BF0C37BD465DF8047B704700BF0038024080B400AFFEE780B400AFFEE7FA
:200B000080B400AFFEE780B400AFFEE780B400AFFEE780B400AF00BFBD465DF8047B70474D
:200B200080B400AF00BFBD465DF8047B704780B400AF00BFBD465DF8047B704780B500AF71
:200B400000F024FA00BF80BD80B500AF024801F053FB00BF80BD00BFE42A002080B400AF52
:200B600001231846BD465DF8047B704780B582B000AF786039601CF00FFD034616221A60CB
:200B80004FF0FF3318460837BD4680BD80B582B000AF78604FF0FF317868FFF7E7FFFEE709
:200BA00080B586B000AFF860B9607A6000237B610AE0AFF300800146BB685A1CBA60CAB24F
:200BC0001A707B6901337B617A697B689A42F0DB7B6818461837BD4680BD80B586B000AF40
:200BE000F860B9607A6000237B6109E0BB685A1CBA601B781846AFF300807B6901337B6108
:200C00007A697B689A42F1DB7B6818461837BD4680BD80B483B000AF78604FF0FF331846D9
:200C20000C37BD465DF8047B704780B483B000AF786039603B684FF400525A6000231846E9
:200C40000C37BD465DF8047B704780B483B000AF7860012318460C37BD465DF8047B704782
:200C600080B485B000AFF860B9607A60002318461437BD465DF8047B7047000080B586B04C
:200C800000AF7860144A154BD31A7B617B693B61134B1B68002B02D1114B124A1A60104B5A
:200CA0001A687B6813443A699A4207D21CF074FC03460C221A604FF0FF3309E0084B1B6883
:200CC000FB60074B1A687B681344054A1360FB6818461837BD4680BD000002200004000073
:200CE00018010020402B002080B400AF064BD3F88830054A43F47003C2F8883000BFBD464C
:200D00005DF8047B704700BF00ED00E080B586B000AF07F1080300221A605A609A60DA6015
:200D20003B4600221A605A601F4B4FF080421A601D4B4AF6C7725A601B4B00229A601A4B75
:200D40001E22DA60184B00221A61174B00229A61154801F092F90346002B01D0FFF7EAFD9F
:200D60004FF48053BB6007F1080319460E4801F04BFB0346002B01D0FFF7DCFD00233B6081
:200D800000237B603B461946074801F067FD0346002B01D0FFF7CEFD034801F0BDF900BF1A
:200DA0001837BD4680BD00BFE42A002080B584B000AF78607B681B68B3F1804F15D10023E5
:200DC000FB600C4B1B6C0B4A43F001031364094B1B6C03F00103FB60FB68002200211C20C8
:200DE00000F0F3F91C2000F00CFA00BF1037BD4680BD00BF00380240DFF834D00D480E49DF
:200E00000E4A002302E0D458C4500433C4188C42F9D30B4A0B4C002301E013600432A2424B
:200E2000FBD3FFF761FF1CF0CFFBFFF7FDFC70470000022000000020F80000202C45060839
:200E4000F8000020402B0020FEE7000080B400AF034B1B781846BD465DF8047B704700BF9B
:200E60001C01002090B585B000AFF860084611461A4603467B810B463B811346FB80114B2D
:200E800001221A707A89FB8813449BB2013B9CB23A893B8C13449BB2013B9BB23989788977
:200EA000224602F085F83A8CFB881946F86802F010F9044B00221A700AF0DAFB00BF143784
:200EC000BD4690BD1C01002080B582B000AF78607B681B68B3F1804F01D10AF0CFFB00BF69
:200EE0000837BD4680BD000080B500AF0E4B1B680D4A43F4007313600B4B1B680A4A43F4DB
:200F000080631360084B1B68074A43F480731360032000F04FF90F2000F008F8FFF7C2FD88
:200F20000023184680BD00BF003C024080B582B000AF7860124B1A68124B1B7819464FF457
:200F40007A73B3FBF1F3B2FBF3F3184600F067F90346002B01D001230EE07B680F2B0AD87B
:200F6000002279684FF0FF3000F02FF9064A7B681360002300E0012318460837BD4680BD3E
:200F8000040000200C0000200800002080B400AF064B1B781A46064B1B681344044A1360C6
:200FA00000BFBD465DF8047B704700BF0C0000202C2B002080B400AF034B1B681846BD466D
:200FC0005DF8047B704700BF2C2B002080B584B000AF7860FFF7EEFFB8607B68FB60FB68C4
:200FE000B3F1FF3F05D00A4B1B781A46FB681344FB6000BFFFF7DEFF0246BB68D31AFA6891
:201000009A42F7D800BF00BF1037BD4680BD00BF0C00002080B485B000AF78607B6803F06F
:201020000703FB600C4BDB68BB60BA684FF6FF031340BB60FB681A02BB68134343F0BF6372
:2010400043F40033BB60044ABB68D36000BF1437BD465DF8047B704700ED00E080B400AF1F
:20106000044BDB681B0A03F007031846BD465DF8047B704700ED00E080B483B000AF0346A4
:20108000FB7197F90730002B0BDBFB7903F01F02074997F907305B09012000FA02F241F8C1
:2010A000232000BF0C37BD465DF8047B704700BF00E100E080B483B000AF03463960FB7179
:2010C00097F90730002B0ADB3B68DAB20C4997F907301201D2B20B4483F800230AE03B68DD
:2010E000DAB20849FB7903F00F03043B1201D2B20B441A7600BF0C37BD465DF8047B704755
:2011000000E100E000ED00E080B489B000AFF860B9607A60FB6803F00703FB61FB69C3F106
:201120000703042B28BF0423BB61FB690433062B02D9FB69033B00E000237B614FF0FF32B4
:20114000BB6902FA03F3DA43BB681A407B699A404FF0FF317B6901FA03F3D9437B680B4093
:20116000134318462437BD465DF8047B7047000080B582B000AF78607B68013BB3F1807F22
:2011800001D301230FE00A4A7B68013B53600F214FF0FF30FFF78EFF054B00229A60044B66
:2011A00007221A60002318460837BD4680BD00BF10E000E080B582B000AF78607868FFF739
:2011C00029FF00BF0837BD4680BD80B586B000AF0346B9607A60FB7300237B61FFF73EFFB3
:2011E00078617A68B9687869FFF78EFF024697F90F3011461846FFF75DFF00BF1837BD4680
:2012000080BD80B582B000AF0346FB7197F907301846FFF731FF00BF0837BD4680BD80B508
:2012200082B000AF78607868FFF7A2FF034618460837BD4680BD80B582B000AF78607B6887
:20124000002B01D101230EE07B685B79DBB2002B05D17B6800221A717868FFF799F97B685F
:2012600001225A71002318460837BD4680BD000080B489B000AF7860396000237B610023D1
:201280003B610023BB610023FB616BE10122FB6902FA03F37B613B681B687A6913403B615B
:2012A0003A697B699A4240F05A813B685B6803F00303012B05D03B685B6803F00303022BD4
:2012C00030D17B689B68BB61FB695B00032202FA03F3DB43BA691340BB613B68DA68FB693C
:2012E0005B0002FA03F3BA691343BB617B68BA699A607B685B68BB610122FB6902FA03F3D1
:20130000DB43BA691340BB613B685B681B0903F00102FB6902FA03F3BA691343BB617B68CF
:20132000BA695A603B685B6803F00303032B17D07B68DB68BB61FB695B00032202FA03F344
:20134000DB43BA691340BB613B689A68FB695B0002FA03F3BA691343BB617B68BA69DA60B2
:201360003B685B6803F00303022B23D1FB69DA087B68083253F82230BB61FB6903F0070370
:201380009B000F2202FA03F3DB43BA691340BB613B681A69FB6903F007039B0002FA03F3CB
:2013A000BA691343BB61FB69DA087B680832B96943F822107B681B68BB61FB695B00032240
:2013C00002FA03F3DB43BA691340BB613B685B6803F00302FB695B0002FA03F3BA691343E3
:2013E000BB617B68BA691A603B685B6803F44033002B00F0B4800023FB60604B5B6C5F4A99
:2014000043F4804353645D4B5B6C03F48043FB60FB685B4AFB699B08023352F82330BB619A
:20142000FB6903F003039B000F2202FA03F3DB43BA691340BB617B68524A93422BD07B68AF
:20144000514A934225D07B68504A93421FD07B684F4A934219D07B684E4A934213D07B6896
:201460004D4A93420DD07B684C4A934207D07B684B4A934201D107230EE008230CE0062387
:201480000AE0052308E0042306E0032304E0022302E0012300E00023FA6902F00302920021
:2014A0009340BA691343BB613549FB699B080233BA6941F823203B4B1B68BB613B69DB4384
:2014C000BA691340BB613B685B6803F48033002B03D0BA693B691343BB61324ABB69136020
:2014E000304B5B68BB613B69DB43BA691340BB613B685B6803F40033002B03D0BA693B69E9
:201500001343BB61274ABB695360264B9B68BB613B69DB43BA691340BB613B685B6803F4D0
:201520008013002B03D0BA693B691343BB611D4ABB6993601B4BDB68BB613B69DB43BA69B9
:201540001340BB613B685B6803F40013002B03D0BA693B691343BB61124ABB69D360FB695E
:201560000133FB61FB690F2B7FF690AE00BF00BF2437BD465DF8047B704700BF00380240EA
:2015800000380140000002400004024000080240000C0240001002400014024000180240B0
:2015A000001C0240003C014080B485B000AF78600B467B807B681A697B881340002B02D05B
:2015C0000123FB7301E00023FB73FB7B18461437BD465DF8047B704780B483B000AF78606C
:2015E0000B467B8013467B707B78002B03D07A887B689A6103E07B881A047B689A6100BFE9
:201600000C37BD465DF8047B7047000080B586B000AF78607B68002B01D1012364E27B68DA
:201620001B6803F00103002B75D0A34B9B6803F00C03042B0CD0A04B9B6803F00C03082B9F
:2016400012D19D4B5B6803F48003B3F5800F0BD1994B1B6803F40033002B5BD07B685B68E2
:20166000002B57D101233FE27B685B68B3F5803F06D1914B1B68904A43F4803313601DE05B
:201680007B685B68B3F5A02F0CD18B4B1B688A4A43F480231360884B1B68874A43F48033C5
:2016A00013600BE0844B1B68834A23F480331360814B1B68804A23F4802313607B685B6884
:2016C000002B13D0FFF776FC386108E0FFF772FC02463B69D31A642B01D9032304E2764BA0
:2016E0001B6803F40033002BF0D014E0FFF762FC386108E0FFF75EFC02463B69D31A642BD1
:2017000001D90323F0E16C4B1B6803F40033002BF0D100E000BF7B681B6803F00203002B80
:2017200063D0654B9B6803F00C03002B0BD0624B9B6803F00C03082B1CD15F4B5B6803F485
:201740008003002B16D15C4B1B6803F00203002B05D07B68DB68012B01D00123C4E1564B45
:201760001B6823F0F8027B681B69DB00524913430B603AE07B68DB68002B20D04F4B012223
:201780001A60FFF717FC386108E0FFF713FC02463B69D31A022B01D90323A5E1464B1B68A0
:2017A00003F00203002BF0D0434B1B6823F0F8027B681B69DB00404913430B6015E03F4B1D
:2017C00000221A60FFF7F6FB386108E0FFF7F2FB02463B69D31A022B01D9032384E1364B36
:2017E0001B6803F00203002BF0D17B681B6803F00803002B30D07B685B69002B16D0304BC0
:2018000001221A60FFF7D6FB386108E0FFF7D2FB02463B69D31A022B01D9032364E1264B64
:201820005B6F03F00203002BF0D015E0244B00221A60FFF7BFFB386108E0FFF7BBFB0246D6
:201840003B69D31A022B01D903234DE11A4B5B6F03F00203002BF0D17B681B6803F0040329
:20186000002B00F0A0800023FB75134B1B6C03F08053002B0FD10023BB600F4B1B6C0E4A6D
:2018800043F0805313640C4B1B6C03F08053BB60BB680123FB750B4B1B6803F48073002B67
:2018A00021D1084B1B68074A43F480731360FFF781FB386111E000BF0038024000004742B4
:2018C000800E474200700040FFF774FB02463B69D31A022B01D9032306E1854B1B6803F4A5
:2018E0008073002BF0D07B689B68012B06D1814B1B6F804A43F0010313671CE07B689B686E
:20190000052B0CD17B4B1B6F7A4A43F004031367784B1B6F774A43F0010313670BE0754B88
:201920001B6F744A23F001031367724B1B6F714A23F0040313677B689B68002B15D0FFF74C
:2019400039FB38610AE0FFF735FB02463B69D31A41F28832934201D90323C5E0654B1B6F30
:2019600003F00203002BEED014E0FFF723FB38610AE0FFF71FFB02463B69D31A41F2883225
:20198000934201D90323AFE05A4B1B6F03F00203002BEED1FB7D012B05D1564B1B6C554A91
:2019A00023F0805313647B689B69002B00F09B80504B9B6803F00C03082B5CD07B689B69C7
:2019C000022B41D14C4B00221A60FFF7F3FA386108E0FFF7EFFA02463B69D31A022B01D972
:2019E000032381E0434B1B6803F00073002BF0D17B68DA697B681B6A1A437B685B6A9B01CE
:201A00001A437B689B6A5B08013B1B041A437B68DB6A1B06374913434B60374B01221A607D
:201A2000FFF7C8FA386108E0FFF7C4FA02463B69D31A022B01D9032356E02E4B1B6803F08E
:201A40000073002BF0D04EE02B4B00221A60FFF7B1FA386108E0FFF7ADFA02463B69D31A50
:201A6000022B01D903233FE0224B1B6803F00073002BF0D137E07B689B69012B01D10123B8
:201A800032E01C4B5B68FB607B689B69012B28D0FB6803F480027B68DB699A4221D1FB6870
:201AA00003F03F027B681B6A9A421AD1FA6847F6C07313407A68526A9201934211D1FB6853
:201AC00003F440327B689B6A5B08013B1B049A4207D1FB6803F070627B68DB6A1B069A42F6
:201AE00001D0012300E0002318461837BD4680BD00700040003802406000474280B584B085
:201B000000AF786039607B68002B01D10123CCE0684B1B6803F007033A689A420CD9654BAF
:201B20003A68D2B21A70634B1B6803F007033A689A4201D00123B8E07B681B6803F002035E
:201B4000002B20D07B681B6803F00403002B05D0594B9B68584A43F4E05393607B681B68FE
:201B600003F00803002B05D0534B9B68524A43F460439360504B9B6823F0F0027B689B68D4
:201B80004D4913438B607B681B6803F00103002B44D07B685B68012B07D1474B1B6803F41C
:201BA0000033002B19D101237FE07B685B68022B03D07B685B68032B07D13F4B1B6803F008
:201BC0000073002B09D101236FE03B4B1B6803F00203002B01D1012367E0374B9B6823F019
:201BE00003027B685B68344913438B60FFF7E2F9F8600AE0FFF7DEF90246FB68D31A41F2D1
:201C00008832934201D903234FE02B4B9B6803F00C027B685B689B009A42EBD1254B1B68C0
:201C200003F007033A689A420CD2224B3A68D2B21A70204B1B6803F007033A689A4201D0F4
:201C4000012332E07B681B6803F00403002B08D0194B9B6823F4E0527B68DB681649134360
:201C60008B607B681B6803F00803002B09D0124B9B6823F460427B681B69DB000E49134309
:201C80008B6000F021F802460B4B9B681B0903F00F030A49CB5C22FA03F3094A1360094BE0
:201CA0001B681846FFF742F9002318461037BD4680BD00BF003C024000380240C0F8010892
:201CC00004000020080000202DE9B04384B000AF00237B600023FB6000233B600023BB6054
:201CE000674B9B6803F00C03082B0DD0082B00F2BD80002B02D0042B03D0B7E0614BBB605E
:201D0000B7E0614BBB60B4E05D4B5B6803F03F037B605B4B5B6803F48003002B4DD0584B88
:201D20005B689B091A464FF0000340F2FF104FF0000102EA000803EA0109404649464FF0DA
:201D400000024FF000034B0143EAD063420110461946B0EB080061EB09014FF000024FF022
:201D600000038B0143EA90638201121A63EB01034FF000004FF00001D90041EA5271D0009D
:201D800002460B4612EB080243EB09034FF000004FF00001590241EAD251500202460B4656
:201DA000104619467B681A464FF00003FEF760FA02460B461346FB604AE0314B5B689B0940
:201DC0001A464FF0000340F2FF104FF0000102EA000403EA0105204629464FF000024FF0A8
:201DE00000034B0143EAD063420110461946001B61EB05014FF000024FF000038B0143EA93
:201E000090638201121A63EB01034FF000004FF00001D90041EA5271D00002460B461219F4
:201E200045EB03034FF000004FF00001990241EA9251900202460B46104619467B681A4621
:201E40004FF00003FEF714FA02460B461346FB600B4B5B681B0C03F0030301335B003B608D
:201E6000FA683B68B2FBF3F3BB6002E0054BBB6000BFBB6818461037BD46BDE8B08300BF41
:201E8000003802400024F40000127A0080B582B000AF78607B68002B01D101231CE07B6853
:201EA0005B79DBB2002B05D17B6800221A717868FEF75AFD7B6802225A717B681B681A684A
:201EC0007B681B6842F004021A607B6801225A717B6800229A60002318460837BD4680BD1A
:201EE00080B582B000AF78607B68002B01D101237BE07B685B6A002B08D17B685B68B3F59B
:201F0000827F09D07B680022DA6105E07B6800221A617B6800225A617B6800229A627B689E
:201F200093F85130DBB2002B06D17B68002283F850207868FEF76EFD7B68022283F85120E3
:201F40007B681B681A687B681B6822F040021A607B685B6803F482727B689B6803F40443B0
:201F60001A437B68DB6803F400631A437B681B6903F002031A437B685B6903F001031A4370
:201F80007B689B6903F400731A437B68DB6903F038031A437B681B6A03F0800342EA0301D3
:201FA0007B689B6A03F400527B681B680A431A607B689B691B0C03F004017B685B6A03F022
:201FC00010027B681B680A435A607B681B68DA697B681B6822F40062DA617B6800225A65FC
:201FE0007B68012283F85120002318460837BD4680BD80B584B000AFF860B9607A60FB6829
:020000040800F2
:20200000002B01D1012334E0FB6893F84930DBB2002B06D1FB68002283F84820F868FEF7D8
:2020200085FBFB681A68FB6808331946104600F0A5FCFB681868FB689B681A46B96800F09D
:20204000EFFCFB685868FB689A68FB681B6B796800F024FDFB681B68FA68926853F8221073
:20206000FB681B68FA68926841F0010143F82210002318461037BD4680BD80B582B000AF60
:2020800078607B68002B01D1012341E07B6893F83D30DBB2002B06D17B68002283F83C20FD
:2020A0007868FEF783FE7B68022283F83D207B681A687B6804331946104600F095FA7B6855
:2020C000012283F846207B68012283F83E207B68012283F83F207B68012283F840207B6879
:2020E000012283F841207B68012283F842207B68012283F843207B68012283F844207B6852
:20210000012283F845207B68012283F83D20002318460837BD4680BD80B485B000AF7860EE
:202120007B6893F83D30DBB2012B01D001234EE07B68022283F83D207B681B68DA687B687E
:202140001B6842F00102DA607B681B68234A934222D07B681B68B3F1804F1DD07B681B68C7
:202160001F4A934218D07B681B681E4A934213D07B681B681C4A93420ED07B681B681B4A69
:20218000934209D07B681B68194A934204D07B681B68184A934211D17B681B689B6803F044
:2021A0000703FB60FB68062B10D07B681B681A687B681B6842F001021A6007E07B681B68FC
:2021C0001A687B681B6842F001021A60002318461437BD465DF8047B704700BF000001400E
:2021E0000004004000080040000C004000040140004001400018004080B582B000AF7860FB
:202200007B681B681B6903F00203022B22D17B681B68DB6803F00203022B1BD17B681B689C
:202220006FF002021A617B6801221A777B681B689B6903F00303002B03D0786800F0B5F94A
:2022400005E0786800F0A7F9786800F0B8F97B6800221A777B681B681B6903F00403042BFF
:2022600022D17B681B68DB6803F00403042B1BD17B681B686FF004021A617B6802221A77CF
:202280007B681B689B6903F44073002B03D0786800F08BF905E0786800F07DF9786800F0DD
:2022A0008EF97B6800221A777B681B681B6903F00803082B22D17B681B68DB6803F008034C
:2022C000082B1BD17B681B686FF008021A617B6804221A777B681B68DB6903F00303002B2D
:2022E00003D0786800F061F905E0786800F053F9786800F064F97B6800221A777B681B68B7
:202300001B6903F01003102B22D17B681B68DB6803F01003102B1BD17B681B686FF0100258
:202320001A617B6808221A777B681B68DB6903F44073002B03D0786800F037F905E078686D
:2023400000F029F9786800F03AF97B6800221A777B681B681B6903F00103012B0ED17B6803
:202360001B68DB6803F00103012B07D17B681B686FF001021A617868FEF7A6FD7B681B687B
:202380001B6903F08003802B0ED17B681B68DB6803F08003802B07D17B681B686FF08002D0
:2023A0001A61786800F0E0FA7B681B681B6903F04003402B0ED17B681B68DB6803F04003AF
:2023C000402B07D17B681B686FF040021A61786800F0FFF87B681B681B6903F02003202B26
:2023E0000ED17B681B68DB6803F02003202B07D17B681B686FF020021A61786800F0AAFA46
:2024000000BF0837BD4680BD80B584B000AF786039600023FB737B6893F83C30012B01D18C
:202420000223B4E07B68012283F83C207B68022283F83D207B681B689B68BB60BB6823F06D
:202440007703BB60BB6823F47F43BB607B681B68BA689A603B681B68B3F5005F3ED0B3F56B
:20246000005F00F28780B3F5805F00F08680B3F5805F7FD8702B1AD0702B7BD8602B50D08B
:20248000602B77D8502B3CD0502B73D8402B58D0402B6FD8302B64D0302B6BD8202B60D028
:2024A000202B67D8002B5CD0102B5AD062E07B6818683B6899683B685A683B68DB6800F052
:2024C000ADF97B681B689B68BB60BB6843F07703BB607B681B68BA689A604FE07B681868D3
:2024E0003B6899683B685A683B68DB6800F096F97B681B689A687B681B6842F480429A60AE
:202500003CE07B6818683B6859683B68DB681A4600F00AF97B681B685021184600F063F91E
:202520002CE07B6818683B6859683B68DB681A4600F029F97B681B686021184600F053F9EF
:202540001CE07B6818683B6859683B68DB681A4600F0EAF87B681B684021184600F043F94F
:202560000CE07B681A683B681B681946104600F03AF903E00123FB7300E000BF7B680122F2
:2025800083F83D207B68002283F83C20FB7B18461037BD4680BD80B483B000AF786000BF7F
:2025A0000C37BD465DF8047B704780B483B000AF786000BF0C37BD465DF8047B704780B498
:2025C00083B000AF786000BF0C37BD465DF8047B704780B483B000AF786000BF0C37BD46BE
:2025E0005DF8047B7047000080B485B000AF786039607B681B68FB607B68404A934213D0E1
:202600007B68B3F1804F0FD07B683D4A93420BD07B683C4A934207D07B683B4A934203D046
:202620007B683A4A934208D1FB6823F07003FB603B685B68FA681343FB607B682F4A934297
:202640002BD07B68B3F1804F27D07B682C4A934223D07B682B4A93421FD07B682A4A9342C9
:202660001BD07B68294A934217D07B68284A934213D07B68274A93420FD07B68264A934220
:202680000BD07B68254A934207D07B68244A934203D07B68234A934208D1FB6823F440733D
:2026A000FB603B68DB68FA681343FB60FB6823F080023B685B691343FB607B68FA681A60F7
:2026C0003B689A687B68DA623B681A687B689A627B680A4A934203D07B680C4A934203D171
:2026E0003B681A697B681A637B6801225A6100BF1437BD465DF8047B704700BF00000140FB
:202700000004004000080040000C00400004014000400140004401400048014000180040B5
:20272000001C00400020004080B487B000AFF860B9607A60FB681B6A7B61FB681B6A23F0B9
:202740000102FB681A62FB689B693B613B6923F0F0033B617B681B013A6913433B617B69D6
:2027600023F00A037B617A69BB6813437B61FB683A699A61FB687A691A6200BF1C37BD464D
:202780005DF8047B704780B487B000AFF860B9607A60FB681B6A23F01002FB681A62FB68FA
:2027A0009B697B61FB681B6A3B617B6923F470437B617B681B037A6913437B613B6923F05E
:2027C000A0033B61BB681B013A6913433B61FB687A699A61FB683A691A6200BF1C37BD460E
:2027E0005DF8047B704780B485B000AF786039607B689B68FB60FB6823F07003FB603A689E
:20280000FB68134343F00703FB607B68FA689A6000BF1437BD465DF8047B704780B487B025
:2028200000AFF860B9607A603B60FB689B687B617B6923F47F437B613B681A027B681A4329
:20284000BB6813437A6913437B61FB687A699A6000BF1C37BD465DF8047B704780B485B0A1
:2028600000AF786039607B6893F83C30012B01D102235AE07B68012283F83C207B6802221D
:2028800083F83D207B681B685B68FB607B681B689B68BB60FB6823F07003FB603B681B68EE
:2028A000FA681343FB607B681B68FA685A607B681B68214A934222D07B681B68B3F1804F12
:2028C0001DD07B681B681D4A934218D07B681B681B4A934213D07B681B681A4A93420ED081
:2028E0007B681B68184A934209D07B681B68174A934204D07B681B68154A93420CD1BB6858
:2029000023F08003BB603B685B68BA681343BB607B681B68BA689A607B68012283F83D20AD
:202920007B68002283F83C20002318461437BD465DF8047B704700BF00000140000400401D
:2029400000080040000C004000040140004001400018004080B483B000AF786000BF0C37D5
:20296000BD465DF8047B704780B483B000AF786000BF0C37BD465DF8047B704780B485B0E2
:2029800000AF786039600023FB603B681A687B6853F82230FB60FA68204B1340FB603B687B
:2029A0005A683B689B681A433B68DB681A433B681B691A433B685B691A433B689B691A43C3
:2029C0003B68DB691A433B681B6A1A433B685B6A1A433B689B6A1A433B68DB6A1A433B687C
:2029E000DB6B1A433B681B6B1343FA681343FB603B689B68082B03D1FB6843F04003FB60C1
:202A00003B681A687B68F96843F82210002318461437BD465DF8047B704700BF8000F0FF58
:202A200080B487B000AFF860B9607A6000237B617B685A1CFB6853F822307B617B6903F026
:202A400040437B61BB681A68BB685B681B011A43BB689B681B021A43BB68DB681B041A4391
:202A6000BB681B69013B1B051A43BB685B69023B1B061A43BB689B6913437A6913437B61C2
:202A80007B685A1CFB68796943F82210002318461C37BD465DF8047B7047000080B487B05E
:202AA00000AFF860B9607A603B6000237B613B68B3F5804F22D1FB687A6853F822307B61B7
:202AC0007A69154B13407B61BB681A68BB685B681B011A43BB689B681B021A43BB68DB687A
:202AE0001B041A43BB689B6913437A6913437B61FB687A68796943F8221005E0FB687A680A
:202B00006FF0704143F82210002318461C37BD465DF8047B704700BF0000F0CF80B483B0F1
:202B200000AF78600B4B1B680B4AA2FB03235B0D7A6802FB03F37B6000BF7B685A1E7A6011
:202B4000002BFAD100BF00BF0C37BD465DF8047B704700BF040000206BCA5F6B80B483B0E7
:202B600000AF0346FB714FF0C042FB79137000BF0C37BD465DF8047B7047000080B483B0C2
:202B800000AF0346FB71044AFB79137000BF0C37BD465DF8047B70470000016080B584B032
:202BA00000AF0346FB71FB791846FFF7D7FF1A4B1B78FB72FB7AFB60FB681B02FB60164BA2
:202BC0001B78FB72FB7AFA681343FB60FB681B02FB60114B1B78FB72FB7AFA681343FB60AE
:202BE000FB681B02FB600C4B1B78FB72FB7AFA681343FB60FB79EF2B09D1FB681B02FB60D8
:202C0000054B1B78FB72FB7AFA681343FB60FB6818461037BD4680BD0000016080B582B0CC
:202C200000AF0346FB71FB79032B27D801A252F823F000BF452C0008532C0008612C00083B
:202C40006F2C00083620FFF789FF4820FFF796FF14E03620FFF782FF2820FFF78FFF0DE090
:202C60003620FFF77BFF8820FFF788FF06E03620FFF774FFE820FFF781FF00BF00BF083789
:202C8000BD4680BD80B582B000AF002240211148FEF7A2FCC820FFF741FF012240210D4878
:202CA000FEF79AFC0120FFF759FF0023FB7105E0FF20FFF763FFFB790133FB71FB79022B7A
:202CC000F6D94FF47A70FFF729FF00BF0837BD4680BD00BF000C024080B500AFFFF7D2FFE4
:202CE000D320FFF75BFF03469D4A13600120FFF735FF0120FFF712FFCB20FFF72FFF392013
:202D0000FFF73CFF2C20FFF739FF0020FFF736FF3420FFF733FF0220FFF730FF0120FFF7E3
:202D2000FDFECF20FFF71AFF0020FFF727FFC120FFF724FF3020FFF721FF0120FFF7EEFEFB
:202D4000E820FFF70BFF8520FFF718FF0020FFF715FF7820FFF712FF0120FFF7DFFEEA20F2
:202D6000FFF7FCFE0020FFF709FF0020FFF706FF0120FFF7D3FEED20FFF7F0FE6420FFF7D7
:202D8000FDFE0320FFF7FAFE1220FFF7F7FE8120FFF7F4FE0120FFF7C1FEF720FFF7DEFEC2
:202DA0002020FFF7EBFE0120FFF7B8FEC020FFF7D5FE1020FFF7E2FE0120FFF7AFFEC120D3
:202DC000FFF7CCFE1020FFF7D9FE0120FFF7A6FEC520FFF7C3FE3E20FFF7D0FE2820FFF77F
:202DE000CDFE0120FFF79AFEC720FFF7B7FE8620FFF7C4FE0120FFF791FE0120FFF78EFE20
:202E00003A20FFF7ABFE5520FFF7B8FE0120FFF785FEB120FFF7A2FE0020FFF7AFFE18209C
:202E2000FFF7ACFE0120FFF779FEB620FFF796FE0820FFF7A3FE8220FFF7A0FE2720FFF7D2
:202E40009DFE0120FFF76AFEF220FFF787FE0020FFF794FE0120FFF761FE2620FFF77EFEF5
:202E60000120FFF78BFE0120FFF758FEE020FFF775FE0F20FFF782FE3120FFF77FFE2B2028
:202E8000FFF77CFE0C20FFF779FE0E20FFF776FE0820FFF773FE4E20FFF770FEF120FFF729
:202EA0006DFE3720FFF76AFE0720FFF767FE1020FFF764FE0320FFF761FE0E20FFF75EFEF0
:202EC0000920FFF75BFE0020FFF758FE0120FFF725FEE120FFF742FE0020FFF74FFE0E200C
:202EE000FFF74CFE1420FFF749FE0320FFF746FE1120FFF743FE0720FFF740FE3120FFF7BA
:202F00003DFEC120FFF73AFE4820FFF737FE0820FFF734FE0F20FFF731FE0C20FFF72EFEE2
:202F20003120FFF72BFE3620FFF728FE0F20FFF725FE0120FFF7F2FD1120FFF70FFE782095
:202F4000FEF744F82920FFF709FE2C20FFF716FE0320FFF763FE9620FEF738F800BF80BD53
:202F60002401002080B584B000AF03463960FB80FB881B0A9BB2FB72FB88BB722C20FFF743
:202F8000EDFD0023FB600AE0FB7A1846FFF7F6FDBB7A1846FFF7F2FDFB680133FB60FA6857
:202FA0003B689A42F0D300BF00BF1037BD4680BD90B583B000AF0446084611461A462346EB
:202FC000FB800346BB800B467B8013463B802A20FFF7C4FDFB881B0A9BB2DBB21846FFF7BB
:202FE000CDFDFB88DBB21846FFF7C8FD7B881B0A9BB2DBB21846FFF7C1FD7B88DBB21846DC
:20300000FFF7BCFD2B20FFF7A9FDBB881B0A9BB2DBB21846FFF7B2FDBB88DBB21846FFF7B1
:20302000ADFD3B881B0A9BB2DBB21846FFF7A6FD3B88DBB21846FFF7A1FD00BF0C37BD46E6
:2030400090BD000080B582B000AF0346FB800E4B1B88013B9AB20D4B1B88013B9BB2002120
:203060000020FFF7A5FF084B1B881A46074B1B8803FB02F31A46FB8811461846FFF772FF59
:2030800000BF0837BD4680BD1E0100202001002080B485B000AF7860396010E07B685B7843
:2030A000FB737B6801337A6812781A707B68FA7B1A707B6802337B603B68023B3B603B68A2
:2030C000002BEBDC00BF00BF1437BD465DF8047B704780B584B000AF78600B467B80134612
:2030E0003B802C20FFF73AFD7B883A8802FB03F35B00BB60BB6819467868FFF7C9FF00232B
:20310000FB6009E07A68FB6813441B781846FFF735FDFB680133FB60FA68BB689A42F1D39F
:2031200000BF00BF1037BD4680BD80B483B000AF78607B6800221A807B6800225A807B683B
:2031400000229A807B680022DA807B6818460C37BD465DF8047B704780B582B000AF7860D4
:20316000144A7B681A607B6804331846FFF7DDFF7B680C331846FFF7D8FF7B6800225A613D
:203180007B6800229A617B680022DA617B6800221A847B6800225A847B68002283F82420A5
:2031A0007B68012283F825207B6818460837BD4680BD00BF0414020880B483B000AF7860BA
:2031C000044A7B681A607B6818460C37BD465DF8047B70470414020880B582B000AF786022
:2031E0007868FFF7E9FF282178681AF074F97B6818460837BD4680BD80B483B000AF7860C3
:20320000002318460C37BD465DF8047B704780B584B000AFF860084611461A4603467B81A2
:203220000B463B811346FB80B7F90820B7F90A301946F86800F02AF8B7F91820B7F906304C
:203240001946F86800F07EF800BF1037BD4680BD80B483B000AF78600B467B807B687A88E4
:203260009A8000BF0C37BD465DF8047B704780B483B000AF78600B467B807B687A88DA802B
:2032800000BF0C37BD465DF8047B704780B582B000AF78600B467B8013463B807B681B68EA
:2032A0002C331B68B7F902201146786898477B681B6830331B68B7F9002011467868984712
:2032C00000BF0837BD4680BD80B483B000AF78600B467B807B687A881A8100BF0C37BD46F1
:2032E0005DF8047B704780B483B000AF78600B467B807B687A885A8100BF0C37BD465DF8EF
:20330000047B704780B483B000AF786000BF0C37BD465DF8047B704780B483B000AF78600B
:20332000396000BF0C37BD465DF8047B704780B483B000AF7860396000BF0C37BD465DF883
:20334000047B704780B582B000AF78600B467B8013463B807B681B6834331B68B7F90220C7
:203360001146786898477B681B6838331B68B7F9002011467868984700BF0837BD4680BDBF
:2033800080B483B000AF7860396000BF0C37BD465DF8047B704780B483B000AF786000BF69
:2033A0000C37BD465DF8047B704780B483B000AF78607B6893F8253018460C37BD465DF892
:2033C000047B704780B483B000AF78607B6893F8243018460C37BD465DF8047B704780B5A3
:2033E00082B000AF78600B467B8013463B807B681B6850331B6879887A68B2F9042092B252
:203400008A1A92B210B239887A68B2F9062092B28A1A92B212B201467868984700BF08379A
:20342000BD4680BD80B483B000AF78607B684FF6FF729A817B684FF6FF721A847B684FF64B
:20344000FF725A8400BF0C37BD465DF8047B704780B584B000AFF860B9607A60F868FFF7D4
:20346000E1FF7B681A68FB68DA617B68FA681A6000BF1037BD4680BD80B582B000AF786076
:203480007B681846FFF768FE054A7B681A607B6800229A627B6818460837BD4680BD00BF63
:2034A0003CF9010880B483B000AF78607B689B6A18460C37BD465DF8047B704780B584B060
:2034C00000AFF8607B600B467B8113463B81FB681846FFF76AFF0346002B08D0FB6818467B
:2034E000FFF770FF0346002B01D0012300E00023002B02D0FA687B681A6000BF1037BD4636
:2035000080BD000080B582B000AF78607B681846FFF722FE034A7B681A607B6818460837FF
:20352000BD4680BDD8F8010880B582B000AF7860054A7B681A607B681846FFF73DFE7B6883
:2035400018460837BD4680BDD8F8010880B582B000AF78607868FFF7E7FF2821786819F0D9
:20356000BAFF7B6818460837BD4680BD80B400AF034B1B681846BD465DF8047B704700BF73
:203580008827002080B400AF0B4B1B6893F87630002B08D0084B1B68DB6C002B03D0064B00
:2035A0001B68DB6C02E0044B1B689B681846BD465DF8047B704700BF8827002080B582B0A9
:2035C00000AF7860054A7B681A607B681846FFF7F3FD7B6818460837BD4680BD3CF9010893
:2035E00080B582B000AF78607868FFF7E7FF2C21786819F070FF7B6818460837BD4680BDBC
:2036000080B485B000AFF860084611461A4603467B810B463B811346FB80FB687A891A800F
:20362000FB683A895A80FB68FA889A80FB683A8BDA80FB6818461437BD465DF8047B70476F
:2036400080B485B000AF78600B467B8013463B807B68B3F90030B7F902209A422ADB7B68C5
:20366000FB60FB68B3F900309AB2FB68B3F904309BB213449BB21BB2B7F902209A4219DAC2
:203680007B68B3F90230B7F900209A4212DB7B68BB60BB68B3F902309AB2BB68B3F9063080
:2036A0009BB213449BB21BB2B7F900209A4201DA012300E0002318461437BD465DF8047B1E
:2036C000704780B487B000AF786039607B68B3F900203B687B617B69B3F9003099B27B698B
:2036E000B3F904309BB20B449BB21BB29A4237DA7B683B613B69B3F900309AB23B69B3F9AC
:2037000004309BB213449BB21AB23B68B3F900309A4225DD7B68B3F902203B68FB60FB6849
:20372000B3F9023099B2FB68B3F906309BB20B449BB21BB29A4213DA7B68BB60BB68B3F9CF
:2037400002309AB2BB68B3F906309BB213449BB21AB23B68B3F902309A4201DD012300E0EA
:20376000002318461C37BD465DF8047B704780B584B000AFF860B9607A60FB68BA68116886
:20378000526819605A607968F86800F005F800BFF8681037BD4680BD80B58CB000AF786070
:2037A000396039687868FFF78CFF0346002B00F0A6807B68B3F900203B68B3F900309A42DA
:2037C00003DD7B68B3F9003002E03B68B3F90030FB857B68B3F902203B68B3F902309A425B
:2037E00004DD7B680233B3F9003002E03B68B3F90230BB857B687B627B6AB3F900309AB284
:203800007B6AB3F904309BB213449BB21AB23B68BB62BB6AB3F9003099B2BB6AB3F9043015
:203820009BB20B449BB21BB29A420EDA7B683B623B6AB3F900309AB23B6AB3F904309BB2EF
:2038400013449BB21BB29BB20DE03B68FB61FB69B3F900309AB2FB69B3F904309BB213444A
:203860009BB21BB29BB2FA8D9B1A9BB21AB27B689A807B687B617B69B3F902309AB27B69DE
:20388000B3F906309BB213449BB21AB23B68BB61BB69B3F9023099B2BB69B3F906309BB22A
:2038A0000B449BB21BB29A420EDA7B683B613B69B3F902309AB23B69B3F906309BB2134464
:2038C0009BB21BB29BB20DE03B68FB60FB68B3F902309AB2FB68B3F906309BB213449BB2D3
:2038E0001BB29BB2BA8D9B1A9BB21AB27B68DA807B68FA8D1A807B68BA8D5A800BE07B6886
:2039000000221A807B6800225A807B6800229A807B680022DA8000BF3037BD4680BD80B5F3
:203920008CB000AF78603960386800F0CBF8034683F00103DBB2002B00F0C080786800F060
:20394000C1F80346002B14D03B68B3F900207B681A803B68B3F902207B685A803B68B3F9ED
:2039600004207B689A803B68B3F906207B68DA80A4E07B68B3F900203B68B3F900309A42E6
:2039800003DA7B68B3F9003002E03B68B3F90030FB857B68B3F902203B68B3F902309A429C
:2039A00004DA7B680233B3F9003002E03B68B3F90230BB857B683B623B6AB3F900309AB245
:2039C0003B6AB3F904309BB213449BB21AB23B687B627B6AB3F9003099B27B6AB3F9043054
:2039E0009BB20B449BB21BB29A420DDD7B68FB61FB69B3F900309AB2FB69B3F904309BB2EF
:203A000013449BB21BB20CE03B68BB61BB69B3F900309AB2BB69B3F904309BB213449BB249
:203A20001BB27B857B683B613B69B3F902309AB23B69B3F906309BB213449BB21AB23B6886
:203A40007B617B69B3F9023099B27B69B3F906309BB20B449BB21BB29A420DDD7B68FB60FD
:203A6000FB68B3F902309AB2FB68B3F906309BB213449BB21BB20CE03B68BB60BB68B3F93D
:203A800002309AB2BB68B3F906309BB213449BB21BB23B857B68FA8D1A807B68BA8D5A801D
:203AA0007A8DFB8DD31A9BB21AB27B689A803A8DBB8DD31A9BB21AB27B68DA8000BF3037FC
:203AC000BD4680BD80B483B000AF78607B68B3F90430002B04DD7B68B3F90630002B01DC1C
:203AE000012300E0002318460C37BD465DF8047B704780B483B000AF78607B68043318460A
:203B00000C37BD465DF8047B704780B483B000AF78607B68B3F9043018460C37BD465DF82A
:203B2000047B704780B483B000AF78607B68B3F9063018460C37BD465DF8047B704780B439
:203B400083B000AF78607B6893F8493018460C37BD465DF8047B704780B485B000AF7860A5
:203B600039600023FB737B689B6ABB60BB68002B0DD0FB7B002B0AD1BA683B689A420CBF05
:203B800001230023FB73BB689B69BB60EEE7FB7B18461437BD465DF8047B704780B584B043
:203BA00000AF786039607B683A689A4205D1224B224A2321224819F0BDFC3B685B69002BD3
:203BC00005D0204B1D4A24211D4819F0B3FC7A683B685A613B6800229A617B689B6A002BC9
:203BE00003D17B683A689A6221E07B689B6AFB60FB689B69002B0DD0FA683B689A4205D106
:203C0000114B0E4A35210E4819F094FCFB689B69FB60EDE7FA683B689A4205D10A4B074AB8
:203C20003821074819F086FCFB683A689A6100BF1037BD4680BD00BF40E601086CE60108C2
:203C4000A8E60108F8E6010830E7010880B485B000AF786039607B689B6A002B31D07B6846
:203C60009B6A3A689A4212D13B6800225A613B689B69002B03D17B6800229A6222E03B6812
:203C80009A697B689A623B6800229A611AE07B689B6AFB60FB68002B14D0FB689B693A68CA
:203CA0009A420AD13B689A69FB689A613B6800225A613B6800229A6104E0FB689B69FB6063
:203CC000E8E700BF1437BD465DF8047B704780B485B000AF78607B689B6A002B0ED07B68B9
:203CE0009B6AFB607B689B6A9A697B689A62FB6800225A61FB6800229A61ECE700BF1437FD
:203D0000BD465DF8047B704780B483B000AF78607B6800229A6200BF0C37BD465DF8047B4D
:203D2000704780B588B000AF786039607B681846FFF73BFB034683F00103DBB2002B03D186
:203D40007B689B6A002B01D1012300E00023002B4ED13A6807F114031068516803C37B6882
:203D60009B6AFB61FB69002B43D0F869FFF71DFB0346002B38D0F869FFF7BBFE024607F105
:203D80000C0307F114011846FFF7F1FC07F10C031846FFF797FE034683F00103DBB2002B5E
:203DA00022D0F869FFF7B1FE03461946B7F90C309AB28BB2D31A9BB21BB2BB81F869FFF754
:203DC000B1FE03461946B7F90E309AB28BB2D31A9BB21BB2FB81FB691B6808331B6807F1F5
:203DE0000C021146F8699847FB699B69FB61B9E700BF2037BD4680BD90B587B000AFF860E1
:203E00007B600B467B8113463B81FB681846FFF7D9FA0346002B02D0FA687B681A60FB6873
:203E20009B6A7B617B69002B38D07869FFF7BDFA0346002B0ED07869FFF75BFEB7F90820A2
:203E4000B7F90A301946FFF7FBFB0346002B01D0012300E00023002B1CD07C897869FFF7CE
:203E600054FE03469BB2E31A9BB27B823C897869FFF758FE03469BB2E31A9BB23B827B69A0
:203E80001B6820331C68B7F91020B7F912107B687869A0477B699B697B61C3E700BF1C37EB
:203EA000BD4690BD80B5ACB000AFF8607B600B467B8113463B81FFF759FB03461846FFF7F6
:203EC0003EFE0346C7F89C30D7F8B83000221A80D7F8BC3000221A807B6800221A60B7F9B9
:203EE0000820B7F90A107B68F868FFF785FF0323C7F89830D7F89C30032B40F35281FA6835
:203F000007F16803114618460BF062FE4FF0FF33C7F8AC300023C7F8A8307B681B68002BD7
:203F20003AD07B681B68C7F8A8307B681A6807F16003114618460BF04BFEB7F90A30B7F927
:203F400068201A44B7F960301846B7F96430D90F0B445B101BB20344D31AC7F89430B7F9C3
:203F60000830B7F96A201A44B7F962301846B7F96630D90F0B445B101BB20344D31AC7F829
:203F80009030D7F8943003FB03F2D7F8903003FB03F31344C7F8AC3007F1140340220021D4
:203FA000184619F053FB4FF0FF33BB614FF0FF33FB6101237B6201233B634FF0FF337B63E0
:203FC0004FF0FF33BB630123FB634FF0FF333B644FF0FF337B640123BB640123FB64012386
:203FE0003B650323C7F88C30D7F89C300C2B08DCD7F89C30013B6D4A82FB0312DB17D31ACB
:020000040800F2
:2040000000E00323C7F888300023C7F8A430D7F8A420D7F888309A4280F2C380D7F8A4301F
:204020000133D7F89C2002FB03F2D7F8883092FBF3F3C7F884300023C7F8A030D7F8A03011
:20404000032B00F3A880D7F8A430002B03F00103B8BF5B4207F114029900D7F8A0300B44A9
:20406000DB001344C7F88030D7F880301B689AB2D7F884309BB212FB03F39BB2A7F87E30E4
:20408000D7F8803004331B689AB2D7F884309BB212FB03F39BB2A7F87C30FB68181D7A8995
:2040A000B7F87E3013449BB219B23A89B7F87C3013449BB21BB21A46FFF7C2FA0346002B1F
:2040C00063D00023FB657A89B7F87E3013449BB219B23A89B7F87C3013449BB21AB207F1D5
:2040E0005C03F868FFF788FEFB6D002B4DD0FB6DD7F8A8209A4248D0FB6DC7F8A830FA6D7C
:2041000007F15403114618460BF062FDB7F90A30B7F968201A44B7F954301846B7F95830F7
:20412000D90F0B445B101BB20344D31ABB67B7F90830B7F96A201A44B7F956301846B7F9F6
:204140005A30D90F0B445B101BB20344D31A7B67BB6F03FB03F27B6F03FB03F313443B675C
:204160003A6FD7F8AC309A420FD23B6FC7F8AC30FA6D7B681A60D7F8B830B7F87E201A8087
:20418000D7F8BC30B7F87C201A80D7F8A0300133C7F8A03052E7D7F8A4300133C7F8A4307A
:2041A00035E700BFB037BD4680BD00BF5655555580B584B002AF7860396000230093002385
:2041C000002200217868FFF71BFA78680837BD4680BD80B586B002AF786039603B689B6A1D
:2041E000FB60002300930023002200217868FFF707FAFB68002B0BD0F868FFF77AFC0346F3
:2042000019467868FFF78BFBFB689B69FB60F0E700BF78681037BD4680BD80B584B000AF0C
:2042200078600B467B8013463B807B689B6AFB60FB68002B0DD0FB681B6850331B68B7F9FC
:204240000020B7F90210F8689847FB689B69FB60EEE700BF1037BD4680BD80B584B000AF48
:20426000786039607B689B6AFB60FB68002B0AD03B681B6808331B68F96838689847FB68FB
:204280009B69FB60F1E700BF1037BD4680BD80B586B000AFF860B9607A60FB689B6A002BA9
:2042A00007D1FB681B685C331B687968F868984726E0BB68002B0AD1FB689A6A7B689A619A
:2042C000FB687A689A62FA687B685A6118E0FB689B6A7B617B69002B12D07A69BB689A428E
:2042E0000AD17B699A697B689A617B697A689A61FA687B685A6103E07B699B697B61E9E7E6
:204300001837BD4680BD80B588B000AFF860B9607A60FB681846FFF748F8034683F00103F0
:20432000DBB2002B4BD1FB689B6A002B49D0FB689B6AFB61FB69002B44D0F869FFF735F812
:204340000346002B37D0F869FFF7D3FB024607F11403B9681846FFF70AFA07F11403184680
:20436000FFF7B0FB034683F00103DBB2002B22D0F869FFF7CAFB03461946B7F914309AB22E
:204380008BB2D31A9BB21BB2BB82F869FFF7CAFB03461946B7F916309AB28BB2D31A9BB21F
:2043A0001BB2FB82FB691B6858331B6807F114017A68F8699847FB699B69FB61BAE700BF6B
:2043C00000E000BF2037BD4680BD000080B483B000AF7860044A7B681A607B6818460C378A
:2043E000BD465DF8047B7047C8F9010880B483B000AF7860044A7B681A607B6818460C3748
:20440000BD465DF8047B7047C8F9010880B582B000AF78607868FFF7E9FF0421786819F08A
:204420005AF87B6818460837BD4680BD80B483B000AF786039607B683A681A607B681846A3
:204440000C37BD465DF8047B704780B483B000AF78600B46FB707B68FA7883F8252000BF0D
:204460000C37BD465DF8047B704780B483B000AF78600B46FB707B68FA7883F8242000BFEE
:204480000C37BD465DF8047B7047000080B582B000AF78607B68184626231A46002119F049
:2044A000D5F87B681846FFF72DF8094A7B681A607B68FF2283F826207B68283300211846A1
:2044C000FFF7B4FF7B6818460837BD4680BD00BFC80F020880B483B000AF786039607B6869
:2044E0003A689A6200BF0C37BD465DF8047B704780B582B000AF7860054A7B681A607B6811
:204500001846FFF711F87B6818460837BD4680BDC80F020880B582B000AF78607868FFF7D9
:20452000E7FF2C21786818F0D6FF7B6818460837BD4680BD80B483B000AF7860044A7B68AC
:204540001A607B6818460C37BD465DF8047B7047A0FA010880B582B000AF78607868FFF768
:20456000E9FF0421786818F0B6FF7B6818460837BD4680BD80B483B000AF7860044A7B68B2
:204580001A607B6818460C37BD465DF8047B7047A0FA010880B584B000AFF86008461146D7
:2045A0001A460346FB720B463B811346FB80FB681846FFF7DFFF0A4AFB681A60FB68FA7A67
:2045C0001A71FB683A89DA80FB68FA881A81FB683A8B5A81FB6818461037BD4680BD00BF46
:2045E0008CFA010880B483B000AF78607B68B3F9063018460C37BD465DF8047B704780B416
:2046000083B000AF78607B68B3F9083018460C37BD465DF8047B704780B483B000AF7860FC
:204620007B681B7918460C37BD465DF8047B704780B483B000AF7860002318460C37BD461F
:204640005DF8047B7047000080B584B000AFF860084611461A460346FB720B463B8113463E
:20466000FB80FB681846FFF785FF0B4AFB681A60FB68FA7A1A71FB683A89DA80FB68FA888B
:204680001A81FB683A8B5A81FB68BA8B9A81FB6818461037BD4680BD78FA010880B483B08F
:2046A00000AF78607B68B3F9063018460C37BD465DF8047B704780B483B000AF78607B68AE
:2046C000B3F9083018460C37BD465DF8047B704780B483B000AF78607B68B3F90A301846B2
:2046E0000C37BD465DF8047B704780B483B000AF78607B68B3F90C3018460C37BD465DF837
:20470000047B704780B483B000AF78607B68B3F90A309AB27B68B3F906309BB2D31A9BB214
:204720001BB218460C37BD465DF8047B704780B483B000AF78607B68B3F90C309AB27B6895
:20474000B3F908309BB2D31A9BB21BB218460C37BD465DF8047B704780B483B000AF786004
:20476000012318460C37BD465DF8047B704780B483B000AF78607B68B3F9063018460C3792
:20478000BD465DF8047B704780B483B000AF78607B681B7918460C37BD465DF8047B7047F7
:2047A00080B483B000AF78607B689B6918460C37BD465DF8047B704780B584B000AFF86085
:2047C0007B600B467B8113463B81FB68184626231A46002118F03AFFFB681846FEF792FE8A
:2047E0000B4AFB681A60FB683A7E83F82620FB687A689A62B7F90A20FB681A81B7F90820BA
:20480000FB685A81FB6818461037BD4680BD00BFC80F020880B586B000AFF860B9607A600D
:20482000FB681B687C331B6807F11002F96810469847FB6893F8A430002B08D0FB68B3F9EC
:204840000820B7F914309A4201DA012200E00022BB681A70FB6893F8A530002B08D0FB688A
:20486000B3F90A20B7F916309A4201DA012200E000227B681A7000BF1837BD4680BD80B5A0
:2048800084B000AFF8607B600B467B8113463B81FB681846FEF789FD0346002B12D0FB68AB
:2048A0001846FEF78FFD0346002B03D0FA687B681A6007E0F868B7F90820B7F90A107B6847
:2048C000FFF79AFA00BF1037BD4680BD80B588B002AF78607B681846FEF7CEFD614A7B6883
:2048E0001A607B68002283F82C207B68022283F82D207B68782283F82E20FF23FB75FF23A9
:20490000BB75FF237B75FB7D3B75BB7DFB747B7DBB743B7D1B041A46FB7C1B021A43BB7C00
:20492000134343F07F4207F10C0311461846FFF77DFDFB6800BF1A467B681A637B68112209
:204940009A867B68002283F836207B6803F138007B6893F82E207B6800921B6B0022002158
:20496000FFF72AFF7B6803F164007B6893F82E207B6800921B6B00220021FFF71DFF7B68EE
:204980000022C3F890207B680022C3F894207B680022A3F898207B680022A3F89A207B6881
:2049A0000522A3F89C207B680022A3F89E207B680022A3F8A0207B68002283F8A2207B6896
:2049C000002283F8A3207B68012283F8A4207B68012283F8A5207B68012283F8A6207B68C2
:2049E000002283F8A7207B680022A3F8A8207B680022A3F8AA207B680022A3F8AC207B6832
:204A00000022A3F8AE207B68002283F8B0207B680022A3F8B2207B680022A3F8B4207B68F2
:204A2000002283F8B6207B680722A3F8B8207B680122A3F8BA207B68383300211846FFF746
:204A400004FD7B68643300211846FFF7FEFC7B6801211846FFF709FD7B6818461837BD467A
:204A600080BD00BFE0F90108F0B593B002AF786039603868FFF7D0FD0346002B0CBF012388
:204A80000023DBB2002B00F0BC807B68012283F8A2207B6893F8B030002B0FD07B6800226F
:204AA00083F8B0207B680022A3F8AE200AF02EF802467B68194610460AF060F87D687B6823
:204AC0001B6874331C683868FFF78CFD03461E463868FFF794FD034618467B6803F1900126
:204AE0007B68B2337A68B432019200930B46024631462846A0477B68D3F890207B689A427E
:204B000003D17B680022C3F890207B68D3F89030002B00F0EE807B68002283F8B620386864
:204B2000FFF760FD03461A467B68A3F89E203868FFF765FD03461A467B68A3F8A0207B687B
:204B4000D3F8902007F13803114618460BF040F87A6807F13003114618460BF039F8386831
:204B6000FFF75AFD03461D463868FFF73BFD03469AB27B68B3F9B2309BB213449AB2B7F9C8
:204B8000303099B2B7F938309BB2CB1A9BB213449BB21CB23868FFF732FD03469AB27B6824
:204BA000B3F9B4309BB213449AB2B7F9323099B2B7F93A309BB2CB1A9BB213449BB21BB20E
:204BC00007F124000022009222462946FFF7E2FC7B68D3F890207B68D3F890301B68403398
:204BE0001B6807F12401104698477B68D3F890207B68C3F8942007F12403184601F0D0FAF8
:204C000077E03868FFF708FD0346022B0CBF01230023DBB2002B40F0A6807B68D3F890309E
:204C2000002B5AD07B68D3F8902007F11C03114618460AF0CDFF7A6807F114031146184689
:204C40000AF0C6FF3868FFF7E7FC03461D463868FFF7C8FC03469AB27B68B3F9B2309BB2C3
:204C600013449AB2B7F9143099B2B7F91C309BB2CB1A9BB213449BB21CB23868FFF7BFFC14
:204C800003469AB27B68B3F9B4309BB213449AB2B7F9163099B2B7F91E309BB2CB1A9BB25E
:204CA00013449BB21BB207F108000022009222462946FFF76FFC7B68D3F890207B68D3F88B
:204CC00090301B6840331B6807F108011046984707F10803184601F063FA7B680022C3F8F6
:204CE00090207B680022C3F894207B68002283F8A2207B68002283F8A3207B6803F13802FA
:204D00007B6893F8A230002B04D07B6893F8A630002B04D17B6893F8A730002B01D00123AB
:204D200000E0002319461046FFF78FFB7B6803F164027B6893F8A230002B04D07B6893F851
:204D4000A630002B04D17B6893F8A730002B01D0012300E0002319461046FFF776FB786819
:204D600000F024FE00E000BF4437BD46F0BD000080B483B000AF78603960054A7B681A6024
:204D80007B6818460C37BD465DF8047B704700BFA0FA010880B582B000AF786039607B6835
:204DA0003A6811461846FFF7E3FF104A7B681A603B681A797B681A713B68B3F906207B6811
:204DC000DA803B68B3F908207B681A813B68B3F90A207B685A813B68B3F90C207B689A81D4
:204DE0007B6818460837BD4680BD00BF78FA010880B483B000AF786039607B6818460C37AE
:204E0000BD465DF8047B704780B582B000AF786039607B683A6811461846FFF7E9FF3B68C2
:204E20001A797B681A713B68B3F906207B68DA803B68B3F908207B681A813B68B3F90A2051
:204E40007B685A813B68B3F90C207B689A817B6818460837BD4680BDF0B5A1B002AF7860DC
:204E6000396007F1480339681846FFF793FF002387F87730002387F84730002387F8463055
:204E80007B681B6884331B6807F1460207F14701786898477B68D3F89030002B00F0BF806B
:204EA0007B68D3F890207B689A4200F0B8807B68D3F8902007F13C03114618460AF088FEE3
:204EC0007A6807F13403114618460AF081FE3868FFF7E4FB03469AB27B68B3F9B2309BB2CB
:204EE00013449AB2B7F9343099B2B7F93C309BB2CB1A9BB213449BB2A7F870303868FFF79C
:204F0000DAFB03469AB27B68B3F9B4309BB213449AB2B7F9363099B2B7F93E309BB2CB1A13
:204F20009BB213449BB2A7F86E3097F84730002B02D0B7F9703015E03868FFF7C9FB034658
:204F40009AB27B68B3F9B2309BB213449AB2B7F9343099B2B7F93C309BB2CB1A9BB2134453
:204F60009BB21BB2A7F86C3097F84630002B02D0B7F96E3015E03868FFF7B7FB03469AB2BA
:204F80007B68B3F9B4309BB213449AB2B7F9363099B2B7F93E309BB2CB1A9BB213449BB20C
:204FA0001BB2A7F86A3097F8473083F00103DBB2002B05D0B7F96C20B7F970309A420CD19C
:204FC00097F8463083F00103DBB2002B27D0B7F96A20B7F96E309A4221D0B7F96E10B7F973
:204FE000702007F12400B7F96A300193B7F96C3000930B460021FFF727FB7B68D3F8902060
:205000007B68D3F890301B6848331B6807F124011046984707F12403184601F09FF87B6867
:2050200093F8A33083F00103DBB2002B00F0DA807B68B3F99E309AB27B68B3F9B2309BB232
:2050400013449BB21DB27B68B3F9A0309AB27B68B3F9B4309BB213449BB21EB23868FFF768
:2050600037FB03469AB27B68B3F9B2309BB213449BB21CB23868FFF738FB03469AB27B68F8
:20508000B3F9B4309BB213449BB21BB207F158000193009433462A460021FFF7D5FA07F183
:2050A000580207F1480311461846FFF7ADFE07F15803184601F052F897F84730002B17D0F9
:2050C00007F148031846FFF71DFB0346184601F002F803461A467B68B3F99C309A42CCBF24
:2050E00001230023DBB2002B02D0012387F8773097F84630002B17D007F148031846FFF7E7
:2051000016FB0346184600F0E6FF03461A467B68B3F99C309A42CCBF01230023DBB2002B98
:2051200002D0012387F8773097F87730002B04D07B68012283F8A32054E07B68D3F8903038
:20514000002B4DD07B6893F8B63083F00103DBB2002B45D000233B627C683868FFF7B8FA83
:2051600003469AB27B68B3F9B2309BB213449BB21DB23868FFF7B9FA03469AB27B68B3F9FC
:20518000B4309BB213449BB21AB207F1200329462046FEF731FE7B68D3F890203B6A9A427B
:2051A0001ED007F1140000230093002300220221FFF7F0F97B68D3F890207B68D3F890302C
:2051C0001B6840331B6807F11401104698477B68012283F8B62007F11403184600F0E0FF81
:2051E0000024A8E07B68D3F89030002B26D07B6893F8B63083F00103DBB2002B1ED007F10B
:20520000080000230093002300220221FFF7C2F97B68D3F890207B68D3F890301B684033F5
:205220001B6807F10801104698477B68012283F8B62007F10803184600F0B2FF0023A7F89A
:2052400074300023A7F872307B6893F8A430002B2DD097F87730002B20D007F148031846EA
:20526000FFF750FA0346002BCCBF01230023DBB2002B03D00123A7F874301BE007F1480378
:205280001846FFF73FFA03469BB2DB0BDBB2002B10D04FF6FF73A7F874300BE007F1480345
:2052A0001846FFF72FFA0346A7F8743002E00023A7F874307B6893F8A530002B2DD097F8A3
:2052C0007730002B20D007F148031846FFF72FFA0346002BCCBF01230023DBB2002B03D07B
:2052E0000123A7F872301BE007F148031846FFF71EFA03469BB2DB0BDBB2002B10D04FF646
:20530000FF73A7F872300BE007F148031846FFF70EFA0346A7F8723002E00023A7F8723080
:205320007B681B688C331B68B7F97220B7F9741078689847012407F14803184600F00EFFCD
:20534000012C7C37BD46F0BD90B58FB002AF786039600023FB760023BB767B681B68843312
:205360001B6807F11A0207F11B0178689847FB7E002B05D03868FFF707FA0346002B08D067
:20538000BB7E002B07D03868FFF7FEF90346012B01D1012300E00023002B00F0C8803868D4
:2053A000FFF7E5F90346184600F095FE0346FB857B68B3F99C30B7F92E209A42C0F2B68009
:2053C0007B689B8E1A46B7F92E309342A8BF1346FB85B7F92E30052BB8BF0523FB85B7F931
:2053E0002E307A68B2F8B82002FB03F37A68B2F8BA2093FBF2F39AB27B68A3F8A8203868ED
:20540000FFF7B5F90346002B01DD012201E04FF6FF72B7F92E30043B9BB212FB03F39BB2F2
:205420001A46D2001344DB009BB21AB27B68A3F8AC207B68B3F8A8301C467B68B3F9AC3072
:20544000184600F048FE03469C4203DA7B68B3F8A83007E07B68B3F9AC30184600F03BFE75
:2054600003469BB27A68A2F8A8303868FFF78CF90346012B0BD17B681B687C331B6807F146
:205480001C02796810469847B7F91E300AE07B681B687C331B6807F1240279681046984724
:2054A000B7F924307A68A2F8AA307B68012283F8B02009F02BFB02467B681946104609F049
:2054C0002BFB3868FFF760F903461A467B6883F836207B68D3F89030002B28D07B6893F85B
:2054E000B63083F00103DBB2002B20D007F10C0000230093002300220221FFF74BF87B6869
:20550000D3F890207B68D3F890301B6840331B6807F10C01104698477B68012283F8B62098
:2055200007F10C03184600F03BFE00E000BF3437BD4690BD90B58FB002AF786039600023BA
:2055400000930023002200217868FEF759F83B6893F8A430002B00F0AB803B681B687C330F
:205560001B6807F108023968104698473B6893F8A530002B0FD0B7F90E203B68B3F90A305C
:205580009A4208DD3B6893F82C305B003A6892F82D20134400E000237B62B7F90C203B6836
:2055A000B3F908309A4240F38380B7F908305B423A68B2F9082002FB03F3B7F90C2093FB9E
:2055C000F2F3FB62B7F908309AB2B7F90C309BB213449BB21BB21A463B68B3F90830D31AD7
:2055E0003A68B2F9082002FB03F3B7F90C2093FBF2F33B623B68B3F908301A463B6893F842
:205600002C305B00D21A7B6AD31AFB61FB69BB62FA6A3B6A1344BA6AD31ABB623B6893F87C
:205620002D305B00BA6A9A4215DA3B6893F82D305A00BB6AD31ABB613B6893F82D305B00CA
:20564000BB62BB69FA6A02FB03F2FB6992FBF3F3FA6AD31AFB623B6893F82C309AB2FB6AF3
:205660009BB213449BB219B23B68B3F90A309AB23B6893F82D309BB2D31A9AB23B6893F85A
:205680002C309BB2D31A9BB21AB2BB6A1CB23B6893F82D301BB207F1100000932346FDF718
:2056A000AFFF7B681A4607F1100303CB1060516000BF78683437BD4690BD90B58FB002AF70
:2056C00078603960002300930023002200217868FDF796FF3B6893F8A530002B00F0AB808B
:2056E0003B681B687C331B6807F108023968104698473B6893F8A430002B0FD0B7F90C2092
:205700003B68B3F908309A4208DD3B6893F82C305B003A6892F82D20134400E000237B62AC
:20572000B7F90E203B68B3F90A309A4240F38380B7F90A305B423A68B2F90A2002FB03F3FF
:20574000B7F90E2093FBF2F3FB62B7F90A309AB2B7F90E309BB213449BB21BB21A463B68B6
:20576000B3F90A30D31A3A68B2F90A2002FB03F3B7F90E2093FBF2F33B623B68B3F90A3075
:205780001A463B6893F82C305B00D21A7B6AD31AFB61FB69BB62FA6A3B6A1344BA6AD31AB8
:2057A000BB623B6893F82D305B00BA6A9A4215DA3B6893F82D305A00BB6AD31ABB613B6841
:2057C00093F82D305B00BB62BB69FA6A02FB03F2FB6992FBF3F3FA6AD31AFB623B68B3F91B
:2057E00008309AB23B6893F82D309BB2D31A9AB23B6893F82C309BB2D31A9BB219B23B6895
:2058000093F82C309AB2FB6A9BB213449BB21AB23B6893F82D301CB2BB6A1BB207F11000E0
:2058200000932346FDF7ECFE7B681A4607F1100303CB1060516000BF78683437BD4690BDF7
:2058400090B58BB002AFF860B9607A603B6000230093002300220021F868FDF7D1FE786812
:20586000FEF730F9034683F00103DBB2002B3DD03868FEF727F9034683F00103DBB2002B58
:2058800008D0BB6893F82C305B00BA6892F82D20134400E00023FB61BB6893F82C3019B247
:2058A0007B68B3F90240BB68B3F908309AB2BB6893F82C309BB25B009BB2D31A9AB2FB6928
:2058C0009BB2D31A9BB21AB2BB6893F82D301BB207F11400009313462246FDF791FEFB6857
:2058E0001A4607F1140303CB1060516000BFF8682437BD4690BDB0B58AB002AFF860B960BF
:205900007A603B6000230093002300220021F868FDF776FE3868FEF7D5F8034683F001030C
:20592000DBB2002B3DD07868FEF7CCF8034683F00103DBB2002B08D0BB6893F82C305B0054
:20594000BA6892F82D20134400E00023FB613B68B3F90010BB6893F82C301CB2BB6893F8B3
:205960002D301DB2BB68B3F90A309AB2BB6893F82C309BB25B009BB2D31A9AB2FB699BB2BD
:20598000D31A9BB21BB207F1140000932B462246FDF736FEFB681A4607F1140303CB106050
:2059A000516000BFF8682037BD46B0BD90B58DB002AF786007F1200379681846FFF7BAFD3E
:2059C00007F1180379681846FFF777FE07F1100007F1180307F120027968FFF731FF07F1D6
:2059E000080007F1180307F120027968FFF783FF7B6838331846FEF795F803461A46B7F992
:205A000012309A42CCBF01230023DBB2002B04D07B68383318460AF044F87B686433184650
:205A2000FEF773F803461A46B7F908309A42CCBF01230023DBB2002B04D07B686433184663
:205A40000AF02FF87B6803F13800B7F92010B7F92220B7F92440B7F9263000932346FDF73A
:205A6000D6FB7B6803F16400B7F91810B7F91A20B7F91C40B7F91E3000932346FDF7C7FB9C
:205A800000233B827B68B3F90830BB827B68B3F90A30FB8100237B8107F110031846FEF760
:205AA00011F8034683F00103DBB2002B08D07A687B681B6810331B6807F110011046984741
:205AC00007F108031846FDF7FDFF034683F00103DBB2002B08D07A687B681B6810331B6817
:205AE00007F108011046984700BF2C37BD4690BD80B586B000AF78600B467B8013463B80AC
:205B0000B7F90230002B05D1B7F90030002B01D10023B4E00023FB757B681B687C331B68E3
:205B200007F10C02796810469847B7F910207B68B3F908309A423FDDB7F90230002B0EDDB2
:205B4000B7F90C301A46B7F902301344002B35DDB7F90C309BB25B429BB27B802EE0B7F9A7
:205B60000230002B2ADAB7F90C309AB2B7F910309BB213449BB21BB21A46B7F90230134445
:205B80007A68B2F908209342B4BF01230023DBB2002B13D07B68B3F908309AB2B7F90C3027
:205BA00099B2B7F910309BB20B449BB21BB29BB2D31A9BB27B8001E000237B80B7F9122091
:205BC0007B68B3F90A309A423FDDB7F90030002B0EDDB7F90E301A46B7F900301344002B5E
:205BE00035DDB7F90E309BB25B429BB23B802EE0B7F90030002B2ADAB7F90E309AB2B7F9AC
:205C000012309BB213449BB21BB21A46B7F9003013447A68B2F90A209342B4BF01230023A7
:205C2000DBB2002B13D07B68B3F90A309AB2B7F90E3099B2B7F912309BB20B449BB21BB2D3
:205C40009BB2D31A9BB23B8001E000233B80B7F90230002B03D1B7F90030002B0ED07B6896
:205C60001B6880331B68B7F90020B7F90210786898477868FFF79AFE0123FB75FB7D184642
:205C80001837BD4680BD80B586B000AF786000237B6100233B617B681B6888331B6807F129
:205CA0000802796810469847B7F90A30002B03DDB7F90A303B612AE0B7F90A309AB2B7F959
:205CC0000E309BB213449BB21AB27B68B3F90A309A42B4BF01230023DBB2002B17D0B7F91B
:205CE0000A309AB2B7F90E309BB213449BB21BB21A467B68B3F90A30D31A3B61B7F90A30D6
:205D00001A463B69934202DAB7F90A303B61B7F90830002B03DDB7F908307B612AE0B7F9D7
:205D200008309AB2B7F90C309BB213449BB21AB27B68B3F908309A42B4BF01230023DBB24C
:205D4000002B17D0B7F908309AB2B7F90C309BB213449BB21BB21A467B68B3F90830D31A3F
:205D60007B61B7F908301A467B69934202DAB7F908307B617B69002B02D13B69002B12D013
:205D80007B681B6880331B687A6992B2524292B211B23A6992B2524292B212B27868984763
:205DA0007868FFF703FE00BF1837BD4680BD80B582B000AF7860396078687B681B6860335E
:205DC0001B687A6838321146984778687B681B6860331B687A686432114698477B68396830
:205DE0001846FDF7DBFE7A687B68383319461046FDF7D4FE7A687B68643319461046FDF7C8
:205E0000CDFE00BF0837BD4680BD80B586B002AF786039603B68B3F908203B68B3F90A30EC
:205E200000931346002200217868FDF7E9FB3B681B6888331B6807F108023968104698473F
:205E400007F1080319467868FDF769FD00BF78681037BD4680BD80B586B002AF78603960F3
:205E6000002300930023002200217868FDF7C8FB3B689B6AFB60FB68002B21D03B683833DF
:205E8000FA689A420CD03B686433FA689A4207D0F868FDF78AFA0346002B01D0012300E078
:205EA0000023002B07D0F868FDF723FE034619467868FDF734FDF868FEF772FCF860DAE7BF
:205EC00000BF78681037BD4680BD80B584B000AF78600B467B8013463B807B689B6AFB6009
:205EE000FB68002B18D07B683833FA689A420ED07B686433FA689A4209D0FB681B685033C8
:205F00001B68B7F90020B7F90210F8689847F868FEF746FCF860E3E77B68B3F998309AB2D1
:205F20007B8813449BB21AB27B68A3F898207B68B3F99A309AB23B8813449BB21AB27B68FD
:205F4000A3F89A2000BF1037BD4680BD90B589B000AF78607B6893F8B03083F00103DBB24F
:205F6000002B40F08B807B68B3F8AE3001339AB27B68A3F8AE207B68B3F8AE207B68B3F899
:205F8000A8309A4261D87B68B3F8AE007B68B3F9AA107B68B3F9AC207B68B3F8A8300AF0D4
:205FA000B3F90346FB83FB8B03F001039BB2002B0BD0B7F91E30002B01DD012201E04FF64E
:205FC000FF72FB8B13449BB2FB837B6893F83630012B10D0FC8B7B681B687C331B6807F1B1
:205FE0000802796810469847B7F908309BB2E31A9BB21BB200E00023BB837B6893F8363020
:020000040800F2
:20600000002B10D0FC8B7B681B687C331B6807F11002796810469847B7F912309BB2E31AFA
:206020009BB21BB200E000237B837B681B688C331B68B7F91A20B7F91C10786898470346CF
:206040001A467B6883F8B02003E07B68002283F8B0207B6893F8B03083F00103DBB2002B02
:206060000DD008F053FD02467B681946104608F085FD7B680022A3F8AE2000E000BF243739
:20608000BD4690BD80B582B000AF786039607B683A681A637B6803F138027B68196B104659
:2060A000FEF718FA7B6803F164027B68196B1046FEF710FA00BF0837BD4680BD80B483B03B
:2060C00000AF78607B68B3F99A3018460C37BD465DF8047B704780B483B000AF0346FB80D7
:2060E000B7F90630002B04DAFB885B429BB21BB201E0B7F9063018460C37BD465DF8047B38
:206100007047000080B582B000AF78600A4A7B681A607B6864331846FEF7EAF97B6838332B
:206120001846FEF7E5F97B681846FDF747FA7B6818460837BD4680BDE0F9010880B582B0AF
:2061400000AF78607868FFF7DDFFBC21786817F0C2F97B6818460837BD4680BD80B582B060
:2061600000AF7860054A7B681A607B681846FEF7E1F97B6818460837BD4680BD78FA0108A1
:2061800080B582B000AF78607868FFF7E7FF1021786817F0A0F97B6818460837BD4680BDE4
:2061A00080B582B000AF7860054A7B681A607B681846FEF7BFF97B6818460837BD4680BD97
:2061C0008CFA010880B582B000AF78607868FFF7E7FF0C21786817F07EF97B68184608377B
:2061E000BD4680BD80B483B000AF7860044A7B681A607B6818460C37BD465DF8047B7047B4
:20620000B4FA010880B483B000AF7860044A7B681A607B6818460C37BD465DF8047B70471C
:20622000B4FA010880B582B000AF78607868FFF7E9FF0421786817F04EF97B681846083728
:20624000BD4680BD80B483B000AF78600B467B80064A7B681A607B687A889A807B681846D7
:206260000C37BD465DF8047B704700BFCCFA010880B483B000AF7860044A7B681A607B6843
:2062800018460C37BD465DF8047B7047CCFA010880B582B000AF78607868FFF7E9FF08212B
:2062A000786817F018F97B6818460837BD4680BD80B582B000AF78607B68184626231A464E
:2062C000002117F0C3F97B681846FDF71BF9144A7B681A607B6828334FF6FF711846FFF78F
:2062E000B1FF7B68303300211846FEF79FF87B6800229A867B68FF2283F836207B6800229E
:2063000083F837207B68002283F838207B68002283F839207B6818460837BD4680BD00BF7B
:20632000200F020880B582B000AF7860084A7B681A607B6828331846FFF79AFF7B6818461B
:20634000FDF7F2F87B6818460837BD4680BD00BF200F020880B582B000AF78607868FFF7E3
:20636000E1FF3C21786817F0B6F87B6818460837BD4680BD80B500AF04F088FD00BF80BD32
:2063800080B500AF04F0B2FD00BF80BD80B483B000AF7860044A7B681A607B6818460C375D
:2063A000BD465DF8047B7047F0FA010880B582B000AF78607868FFF7E9FF0421786817F0A4
:2063C0008AF87B6818460837BD4680BD80B582B000AF78600B467B807B88022B10D0022B04
:2063E00013DC002B02D0012B05D00EE003F06AF903461B680AE003F065F903465B6805E074
:2064000003F060F903469B6800E0002318460837BD4680BD80B582B000AF7860054A7B68E4
:206420001A607B681846FFF7B1FF7B6818460837BD4680BDDCFA010880B582B000AF78606E
:206440007868FFF7E7FF0421786817F044F87B6818460837BD4680BD80B483B000AF78608A
:20646000044A7B681A607B6818460C37BD465DF8047B704704FE010880B582B000AF786066
:206480007868FFF7E9FF1021786817F024F87B6818460837BD4680BD90B587B000AF786047
:2064A0000B467B807B88002B01D1002310E000233B610023FB737B681B6808331C6807F110
:2064C0000F0307F1100279887868A04778617B6918461C37BD4690BD80B483B000AF78602C
:2064E0007B685B8918460C37BD465DF8047B704780B483B000AF78607B689B8918460C3710
:20650000BD465DF8047B704780B483B000AF78607B689B8818460C37BD465DF8047B7047CA
:2065200080B483B000AF78607B689A887B689B799BB213449BB218460C37BD465DF8047B08
:20654000704780B483B000AF78607B68DB79C3F30603DBB218460C37BD465DF8047B7047E4
:2065600080B483B000AF78607B68DB79C3F3C013DBB218460C37BD465DF8047B70470000B1
:2065800080B582B000AF7860054A7B681A607B681846FFF761FF7B6818460837BD4680BD0A
:2065A0006814020880B582B000AF78607868FFF7E7FF1821786816F08EFF7B68184608377F
:2065C000BD4680BD80B582B000AF7860054A7B681A607B681846FFF7D3FF7B681846083758
:2065E000BD4680BD04FB010880B582B000AF78607868FFF7E7FF2821786816F06CFF7B682C
:2066000018460837BD4680BD80B483B000AF78607B681B6A18460C37BD465DF8047B704718
:2066200080B483B000AF78607B685B6A18460C37BD465DF8047B704780B58CB008AFF86015
:20664000B96011461A460B46FB801346BB80F868B988FA883B8F0693BB8E059397F82830BC
:20666000049397F82430039397F8203002933B7F01933B7E00930B46B96809F0BBFA0A4A88
:20668000FB681A60FB68FA6A9A61FB683A6BDA61FB68FA6B1A62FB683A6C5A62FB6818464E
:2066A0001037BD4680BD00BF04FB010880B485B000AF786039607B689B69FB603B689B88FB
:2066C000DB0A9BB29B00FA6813441A683B681B68134418461437BD465DF8047B704780B4CA
:2066E00089B000AFF8600B467A607B817B68002B03D07B681B7B002B01D1002330E0FB6846
:20670000DA697B687B617B695B7B1B021BB203F4E06319B27B69DB7A1BB20B431BB29BB260
:206720009B001344FB617B681B7B7B837B8B002B15D0FB691B887A899A4203D1FB6993F9D4
:2067400002300DE0FB691B887A899A4206D37B8B013B7B83FB690433FB61E7E700BF002374
:2067600018462437BD465DF8047B704780B500AF0148FFF727FF80BD2801002080B58CB092
:206780000CAF1F4B1B78BFF35B8FDBB203F00103002B0CBF01230023DBB2002B2CD01848D0
:2067A00016F09BFE0346002B14BF01230023DBB2002B21D000230A930023099300230893C6
:2067C0003F2307930F4B06930F4B059300230493002303930123029304230193002300933B
:2067E0000A23012209490A48FFF726FF044816F080FE084816F0BCFE054B1846BD4680BDBC
:206800005001002094390208A0390208B0380208280100206D67000880B500AF0148FFF713
:20682000D1FE80BD5401002080B58CB00CAF1F4B1B78BFF35B8FDBB203F00103002B0CBF98
:2068400001230023DBB2002B2CD0184816F045FE0346002B14BF01230023DBB2002B21D05D
:2068600000230A9300230993002308933F2307930F4B06930F4B0593002304930023039387
:206880000123029304230193002300931423012209490A48FFF7D0FE044816F02AFE084842
:2068A00016F066FE054B1846BD4680BD7C01002098390208A4390208C038020854010020AA
:2068C0001968000880B500AF0148FFF77BFE80BD8001002080B58CB00CAF1F4B1B78BFF3DA
:2068E0005B8FDBB203F00103002B0CBF01230023DBB2002B2CD0184816F0EFFD0346002B73
:2069000014BF01230023DBB2002B21D000230A9300230993002308933F2307930F4B069388
